{"contracts/claimBounty/MonthlyBounty.sol":{"MonthlyBounty":{"abi":[{"inputs":[{"internalType":"address","name":"bountyToken_","type":"address"},{"internalType":"address","name":"idnft_","type":"address"},{"internalType":"address","name":"multiHonor_","type":"address"},{"internalType":"uint256","name":"pocFactor_","type":"uint256"},{"internalType":"uint256","name":"expireTime_","type":"uint256"}],"stateMutability":"nonpayable","type":"constructor"},{"anonymous":false,"inputs":[{"indexed":false,"internalType":"uint256","name":"idcard","type":"uint256"},{"indexed":false,"internalType":"address","name":"toAccount","type":"address"},{"indexed":false,"internalType":"uint256","name":"amount","type":"uint256"}],"name":"ClaimBounty","type":"event"},{"anonymous":false,"inputs":[{"indexed":false,"internalType":"address","name":"admin","type":"address"}],"name":"SetAdmin","type":"event"},{"anonymous":false,"inputs":[{"indexed":false,"internalType":"address","name":"bountyToken","type":"address"}],"name":"SetBountyToken","type":"event"},{"anonymous":false,"inputs":[{"indexed":false,"internalType":"address","name":"idnft","type":"address"}],"name":"SetIDNFT","type":"event"},{"anonymous":false,"inputs":[{"indexed":false,"internalType":"address","name":"multiHonor","type":"address"}],"name":"SetMultiHonor","type":"event"},{"anonymous":false,"inputs":[{"indexed":false,"internalType":"address","name":"pendingAdmin","type":"address"}],"name":"TransferAdmin","type":"event"},{"anonymous":false,"inputs":[{"indexed":false,"internalType":"uint256","name":"amount","type":"uint256"},{"indexed":false,"internalType":"address","name":"to","type":"address"}],"name":"Withdraw","type":"event"},{"inputs":[],"name":"acceptAdmin","outputs":[],"stateMutability":"nonpayable","type":"function"},{"inputs":[],"name":"admin","outputs":[{"internalType":"address","name":"","type":"address"}],"stateMutability":"view","type":"function"},{"inputs":[],"name":"bountyDay","outputs":[{"internalType":"uint256","name":"","type":"uint256"}],"stateMutability":"view","type":"function"},{"inputs":[],"name":"bountyToken","outputs":[{"internalType":"address","name":"","type":"address"}],"stateMutability":"view","type":"function"},{"inputs":[{"internalType":"uint256","name":"idcard","type":"uint256"},{"internalType":"address","name":"toAccount","type":"address"}],"name":"claimBounty","outputs":[{"internalType":"uint256","name":"amount","type":"uint256"}],"stateMutability":"nonpayable","type":"function"},{"inputs":[{"internalType":"uint256","name":"idcard","type":"uint256"}],"name":"claimable","outputs":[{"internalType":"uint256","name":"amount","type":"uint256"}],"stateMutability":"view","type":"function"},{"inputs":[],"name":"expireTime","outputs":[{"internalType":"uint256","name":"","type":"uint256"}],"stateMutability":"view","type":"function"},{"inputs":[{"internalType":"uint256","name":"idcard","type":"uint256"}],"name":"getDpoc","outputs":[{"internalType":"uint256","name":"dpoc","type":"uint256"}],"stateMutability":"view","type":"function"},{"inputs":[{"internalType":"uint256","name":"","type":"uint256"}],"name":"historicPoints","outputs":[{"internalType":"uint256","name":"","type":"uint256"}],"stateMutability":"view","type":"function"},{"inputs":[],"name":"idnft","outputs":[{"internalType":"address","name":"","type":"address"}],"stateMutability":"view","type":"function"},{"inputs":[],"name":"multiHonor","outputs":[{"internalType":"address","name":"","type":"address"}],"stateMutability":"view","type":"function"},{"inputs":[],"name":"pendingAdmin","outputs":[{"internalType":"address","name":"","type":"address"}],"stateMutability":"view","type":"function"},{"inputs":[],"name":"pocFactor","outputs":[{"internalType":"uint256","name":"","type":"uint256"}],"stateMutability":"view","type":"function"},{"inputs":[{"internalType":"address","name":"bountyToken_","type":"address"}],"name":"setBountyToken","outputs":[],"stateMutability":"nonpayable","type":"function"},{"inputs":[{"internalType":"uint256","name":"_pocFactor","type":"uint256"}],"name":"setPocFactor","outputs":[],"stateMutability":"nonpayable","type":"function"},{"inputs":[{"internalType":"address","name":"admin_","type":"address"}],"name":"transferAdmin","outputs":[],"stateMutability":"nonpayable","type":"function"},{"inputs":[{"internalType":"uint256","name":"amount","type":"uint256"},{"internalType":"address","name":"to","type":"address"}],"name":"withdraw","outputs":[],"stateMutability":"nonpayable","type":"function"}],"evm":{"bytecode":{"linkReferences":{},"object":"60c06040523480156200001157600080fd5b5060405162000f8738038062000f878339810160408190526200003491620001d4565b6019608052620000443362000075565b6200004f85620000ca565b6200005a8462000119565b620000658362000168565b60a0526005555062000231915050565b600080546001600160a01b0319166001600160a01b0383169081179091556040519081527f5a272403b402d892977df56625f4164ccaf70ca3863991c43ecfe76a6905b0a1906020015b60405180910390a150565b600280546001600160a01b0319166001600160a01b0383169081179091556040519081527fa9531e5694c168f606ed45f0cfcc450abb1b130668153978b0712faf10089bb990602001620000bf565b600380546001600160a01b0319166001600160a01b0383169081179091556040519081527fefaef33068494428f3b331434d2ac48bfa8f0d60732204d21d3142293e9be4fc90602001620000bf565b600480546001600160a01b0319166001600160a01b0383169081179091556040519081527f89b1bb62bfbf9fb335eac55f3fb2fe99c496294df058689fa73e79dfe9c419a290602001620000bf565b80516001600160a01b0381168114620001cf57600080fd5b919050565b600080600080600060a08688031215620001ed57600080fd5b620001f886620001b7565b94506200020860208701620001b7565b93506200021860408701620001b7565b6060870151608090970151959894975095949392505050565b60805160a051610d296200025e600039600081816101a20152610447015260006102310152610d296000f3fe608060405234801561001057600080fd5b506004361061010a5760003560e01c806352a1bbfb116100a2578063afdc31a011610071578063afdc31a01461022c578063d1d58b2514610253578063f851a44014610266578063f9da8f2d14610279578063fd9316ef1461028c57600080fd5b806352a1bbfb146101e057806354d4fad3146101f357806375829def146102065780637bd8aa891461021957600080fd5b80632d4147e3116100de5780632d4147e31461018a578063310a1ee31461019d5780634078d8d4146101c45780634b301483146101d757600080fd5b8062f714ce1461010f57806306602303146101245780630e18b68114610157578063267822471461015f575b600080fd5b61012261011d366004610a92565b61029f565b005b610144610132366004610ac2565b60066020526000908152604090205481565b6040519081526020015b60405180910390f35b610122610380565b600154610172906001600160a01b031681565b6040516001600160a01b03909116815260200161014e565b600254610172906001600160a01b031681565b6101447f000000000000000000000000000000000000000000000000000000000000000081565b6101446101d2366004610ac2565b6103be565b61014460055481565b600454610172906001600160a01b031681565b610144610201366004610a92565b61052c565b610122610214366004610adb565b610814565b610122610227366004610ac2565b610880565b6101447f000000000000000000000000000000000000000000000000000000000000000081565b610144610261366004610ac2565b610905565b600054610172906001600160a01b031681565b610122610287366004610adb565b6109be565b600354610172906001600160a01b031681565b6000546001600160a01b031633146102b657600080fd5b60025460405163a9059cbb60e01b81526001600160a01b03838116600483015260248201859052600092169063a9059cbb906044016020604051808303816000875af115801561030a573d6000803e3d6000fd5b505050506040513d601f19601f8201168201806040525081019061032e9190610aff565b90508061033a57600080fd5b604080518481526001600160a01b03841660208201527f8353ffcac0876ad14e226d9783c04540bfebf13871e868157d2a391cad98e918910160405180910390a1505050565b6001546001600160a01b0316331461039757600080fd5b6001546103ac906001600160a01b03166109e1565b600180546001600160a01b0319169055565b6004805460405163e8132b9f60e01b815291820183905260009182916001600160a01b03169063e8132b9f90602401602060405180830381865afa15801561040a573d6000803e3d6000fd5b505050506040513d601f19601f8201168201806040525081019061042e9190610b21565b60048054604051630e9ead4760e11b81529182018690527f0000000000000000000000000000000000000000000000000000000000000000602483015267ffffffffffffffff9290921692506000916001600160a01b031690631d3d5a8e90604401602060405180830381865afa9250505080156104c9575060408051601f3d908101601f191682019092526104c691810190610b21565b60015b6104d5575060006104e2565b67ffffffffffffffff1690505b6104ec8183610b61565b600085815260066020526040902054909250821161050b576000610524565b6000848152600660205260409020546105249083610b61565b949350505050565b6003546040516331a9108f60e11b81526004810184905260009133916001600160a01b0390911690636352211e90602401602060405180830381865afa15801561057a573d6000803e3d6000fd5b505050506040513d601f19601f8201168201806040525081019061059e9190610b74565b6001600160a01b0316146106055760405162461bcd60e51b8152602060048201526024808201527f626f756e7479206469737472696275746f723a206e6f7420696463617264206f6044820152633bb732b960e11b60648201526084015b60405180910390fd5b6000610610846103be565b90506000600260009054906101000a90046001600160a01b03166001600160a01b031663313ce5676040518163ffffffff1660e01b8152600401602060405180830381865afa158015610667573d6000803e3d6000fd5b505050506040513d601f19601f8201168201806040525081019061068b9190610b91565b905061271061069b82600a610c98565b836005546106a99190610ca7565b6106b39190610ca7565b6106bd9190610cbe565b60025460405163a9059cbb60e01b81526001600160a01b038781166004830152602482018490529295506000929091169063a9059cbb906044016020604051808303816000875af1158015610716573d6000803e3d6000fd5b505050506040513d601f19601f8201168201806040525081019061073a9190610aff565b90508061079e5760405162461bcd60e51b815260206004820152602c60248201527f626f756e7479206469737472696275746f723a2073656e6420626f756e74792060448201526b1d1bdad95b8819985a5b195960a21b60648201526084016105fc565b600086815260066020526040812080548592906107bc908490610ce0565b9091555050604080518781526001600160a01b03871660208201529081018590527f82de279e1363ebe259ba3e76f44583e530a71408d1b933ca57e5d2a0b41a80fc9060600160405180910390a15050505b92915050565b6000546001600160a01b0316331461082b57600080fd5b600180546001600160a01b0319166001600160a01b0383169081179091556040519081527fda7b0a7bc965abdec8a1a995575a891838264c2968e14bd456c5391827b7aa30906020015b60405180910390a150565b6000546001600160a01b0316331461089757600080fd5b6127108111156109005760405162461bcd60e51b815260206004820152602e60248201527f706f63466163746f72206d757374206265206c657373207468616e206f72206560448201526d038bab0b6103a37901898181818160951b60648201526084016105fc565b600555565b600080610911836103be565b90506000600260009054906101000a90046001600160a01b03166001600160a01b031663313ce5676040518163ffffffff1660e01b8152600401602060405180830381865afa158015610968573d6000803e3d6000fd5b505050506040513d601f19601f8201168201806040525081019061098c9190610b91565b905061271061099c82600a610c98565b836005546109aa9190610ca7565b6109b49190610ca7565b6105249190610cbe565b6000546001600160a01b031633146109d557600080fd5b6109de81610a2f565b50565b600080546001600160a01b0319166001600160a01b0383169081179091556040519081527f5a272403b402d892977df56625f4164ccaf70ca3863991c43ecfe76a6905b0a190602001610875565b600280546001600160a01b0319166001600160a01b0383169081179091556040519081527fa9531e5694c168f606ed45f0cfcc450abb1b130668153978b0712faf10089bb990602001610875565b6001600160a01b03811681146109de57600080fd5b60008060408385031215610aa557600080fd5b823591506020830135610ab781610a7d565b809150509250929050565b600060208284031215610ad457600080fd5b5035919050565b600060208284031215610aed57600080fd5b8135610af881610a7d565b9392505050565b600060208284031215610b1157600080fd5b81518015158114610af857600080fd5b600060208284031215610b3357600080fd5b815167ffffffffffffffff81168114610af857600080fd5b634e487b7160e01b600052601160045260246000fd5b8181038181111561080e5761080e610b4b565b600060208284031215610b8657600080fd5b8151610af881610a7d565b600060208284031215610ba357600080fd5b815160ff81168114610af857600080fd5b600181815b80851115610bef578160001904821115610bd557610bd5610b4b565b80851615610be257918102915b93841c9390800290610bb9565b509250929050565b600082610c065750600161080e565b81610c135750600061080e565b8160018114610c295760028114610c3357610c4f565b600191505061080e565b60ff841115610c4457610c44610b4b565b50506001821b61080e565b5060208310610133831016604e8410600b8410161715610c72575081810a61080e565b610c7c8383610bb4565b8060001904821115610c9057610c90610b4b565b029392505050565b6000610af860ff841683610bf7565b808202811582820484141761080e5761080e610b4b565b600082610cdb57634e487b7160e01b600052601260045260246000fd5b500490565b8082018082111561080e5761080e610b4b56fea26469706673582212207e5002f2ecd0d43bad8d13d9126c5e06980af0f2278e572062dbf22ae49cced464736f6c63430008110033","opcodes":"PUSH1 0xC0 PUSH1 0x40 MSTORE CALLVALUE DUP1 ISZERO PUSH3 0x11 JUMPI PUSH1 0x0 DUP1 REVERT JUMPDEST POP PUSH1 0x40 MLOAD PUSH3 0xF87 CODESIZE SUB DUP1 PUSH3 0xF87 DUP4 CODECOPY DUP2 ADD PUSH1 0x40 DUP2 SWAP1 MSTORE PUSH3 0x34 SWAP2 PUSH3 0x1D4 JUMP JUMPDEST PUSH1 0x19 PUSH1 0x80 MSTORE PUSH3 0x44 CALLER PUSH3 0x75 JUMP JUMPDEST PUSH3 0x4F DUP6 PUSH3 0xCA JUMP JUMPDEST PUSH3 0x5A DUP5 PUSH3 0x119 JUMP JUMPDEST PUSH3 0x65 DUP4 PUSH3 0x168 JUMP JUMPDEST PUSH1 0xA0 MSTORE PUSH1 0x5 SSTORE POP PUSH3 0x231 SWAP2 POP POP JUMP JUMPDEST PUSH1 0x0 DUP1 SLOAD PUSH1 0x1 PUSH1 0x1 PUSH1 0xA0 SHL SUB NOT AND PUSH1 0x1 PUSH1 0x1 PUSH1 0xA0 SHL SUB DUP4 AND SWAP1 DUP2 OR SWAP1 SWAP2 SSTORE PUSH1 0x40 MLOAD SWAP1 DUP2 MSTORE PUSH32 0x5A272403B402D892977DF56625F4164CCAF70CA3863991C43ECFE76A6905B0A1 SWAP1 PUSH1 0x20 ADD JUMPDEST PUSH1 0x40 MLOAD DUP1 SWAP2 SUB SWAP1 LOG1 POP JUMP JUMPDEST PUSH1 0x2 DUP1 SLOAD PUSH1 0x1 PUSH1 0x1 PUSH1 0xA0 SHL SUB NOT AND PUSH1 0x1 PUSH1 0x1 PUSH1 0xA0 SHL SUB DUP4 AND SWAP1 DUP2 OR SWAP1 SWAP2 SSTORE PUSH1 0x40 MLOAD SWAP1 DUP2 MSTORE PUSH32 0xA9531E5694C168F606ED45F0CFCC450ABB1B130668153978B0712FAF10089BB9 SWAP1 PUSH1 0x20 ADD PUSH3 0xBF JUMP JUMPDEST PUSH1 0x3 DUP1 SLOAD PUSH1 0x1 PUSH1 0x1 PUSH1 0xA0 SHL SUB NOT AND PUSH1 0x1 PUSH1 0x1 PUSH1 0xA0 SHL SUB DUP4 AND SWAP1 DUP2 OR SWAP1 SWAP2 SSTORE PUSH1 0x40 MLOAD SWAP1 DUP2 MSTORE PUSH32 0xEFAEF33068494428F3B331434D2AC48BFA8F0D60732204D21D3142293E9BE4FC SWAP1 PUSH1 0x20 ADD PUSH3 0xBF JUMP JUMPDEST PUSH1 0x4 DUP1 SLOAD PUSH1 0x1 PUSH1 0x1 PUSH1 0xA0 SHL SUB NOT AND PUSH1 0x1 PUSH1 0x1 PUSH1 0xA0 SHL SUB DUP4 AND SWAP1 DUP2 OR SWAP1 SWAP2 SSTORE PUSH1 0x40 MLOAD SWAP1 DUP2 MSTORE PUSH32 0x89B1BB62BFBF9FB335EAC55F3FB2FE99C496294DF058689FA73E79DFE9C419A2 SWAP1 PUSH1 0x20 ADD PUSH3 0xBF JUMP JUMPDEST DUP1 MLOAD PUSH1 0x1 PUSH1 0x1 PUSH1 0xA0 SHL SUB DUP2 AND DUP2 EQ PUSH3 0x1CF JUMPI PUSH1 0x0 DUP1 REVERT JUMPDEST SWAP2 SWAP1 POP JUMP JUMPDEST PUSH1 0x0 DUP1 PUSH1 0x0 DUP1 PUSH1 0x0 PUSH1 0xA0 DUP7 DUP9 SUB SLT ISZERO PUSH3 0x1ED JUMPI PUSH1 0x0 DUP1 REVERT JUMPDEST PUSH3 0x1F8 DUP7 PUSH3 0x1B7 JUMP JUMPDEST SWAP5 POP PUSH3 0x208 PUSH1 0x20 DUP8 ADD PUSH3 0x1B7 JUMP JUMPDEST SWAP4 POP PUSH3 0x218 PUSH1 0x40 DUP8 ADD PUSH3 0x1B7 JUMP JUMPDEST PUSH1 0x60 DUP8 ADD MLOAD PUSH1 0x80 SWAP1 SWAP8 ADD MLOAD SWAP6 SWAP9 SWAP5 SWAP8 POP SWAP6 SWAP5 SWAP4 SWAP3 POP POP POP JUMP JUMPDEST PUSH1 0x80 MLOAD PUSH1 0xA0 MLOAD PUSH2 0xD29 PUSH3 0x25E PUSH1 0x0 CODECOPY PUSH1 0x0 DUP2 DUP2 PUSH2 0x1A2 ADD MSTORE PUSH2 0x447 ADD MSTORE PUSH1 0x0 PUSH2 0x231 ADD MSTORE PUSH2 0xD29 PUSH1 0x0 RETURN INVALID PUSH1 0x80 PUSH1 0x40 MSTORE CALLVALUE DUP1 ISZERO PUSH2 0x10 JUMPI PUSH1 0x0 DUP1 REVERT JUMPDEST POP PUSH1 0x4 CALLDATASIZE LT PUSH2 0x10A JUMPI PUSH1 0x0 CALLDATALOAD PUSH1 0xE0 SHR DUP1 PUSH4 0x52A1BBFB GT PUSH2 0xA2 JUMPI DUP1 PUSH4 0xAFDC31A0 GT PUSH2 0x71 JUMPI DUP1 PUSH4 0xAFDC31A0 EQ PUSH2 0x22C JUMPI DUP1 PUSH4 0xD1D58B25 EQ PUSH2 0x253 JUMPI DUP1 PUSH4 0xF851A440 EQ PUSH2 0x266 JUMPI DUP1 PUSH4 0xF9DA8F2D EQ PUSH2 0x279 JUMPI DUP1 PUSH4 0xFD9316EF EQ PUSH2 0x28C JUMPI PUSH1 0x0 DUP1 REVERT JUMPDEST DUP1 PUSH4 0x52A1BBFB EQ PUSH2 0x1E0 JUMPI DUP1 PUSH4 0x54D4FAD3 EQ PUSH2 0x1F3 JUMPI DUP1 PUSH4 0x75829DEF EQ PUSH2 0x206 JUMPI DUP1 PUSH4 0x7BD8AA89 EQ PUSH2 0x219 JUMPI PUSH1 0x0 DUP1 REVERT JUMPDEST DUP1 PUSH4 0x2D4147E3 GT PUSH2 0xDE JUMPI DUP1 PUSH4 0x2D4147E3 EQ PUSH2 0x18A JUMPI DUP1 PUSH4 0x310A1EE3 EQ PUSH2 0x19D JUMPI DUP1 PUSH4 0x4078D8D4 EQ PUSH2 0x1C4 JUMPI DUP1 PUSH4 0x4B301483 EQ PUSH2 0x1D7 JUMPI PUSH1 0x0 DUP1 REVERT JUMPDEST DUP1 PUSH3 0xF714CE EQ PUSH2 0x10F JUMPI DUP1 PUSH4 0x6602303 EQ PUSH2 0x124 JUMPI DUP1 PUSH4 0xE18B681 EQ PUSH2 0x157 JUMPI DUP1 PUSH4 0x26782247 EQ PUSH2 0x15F JUMPI JUMPDEST PUSH1 0x0 DUP1 REVERT JUMPDEST PUSH2 0x122 PUSH2 0x11D CALLDATASIZE PUSH1 0x4 PUSH2 0xA92 JUMP JUMPDEST PUSH2 0x29F JUMP JUMPDEST STOP JUMPDEST PUSH2 0x144 PUSH2 0x132 CALLDATASIZE PUSH1 0x4 PUSH2 0xAC2 JUMP JUMPDEST PUSH1 0x6 PUSH1 0x20 MSTORE PUSH1 0x0 SWAP1 DUP2 MSTORE PUSH1 0x40 SWAP1 KECCAK256 SLOAD DUP2 JUMP JUMPDEST PUSH1 0x40 MLOAD SWAP1 DUP2 MSTORE PUSH1 0x20 ADD JUMPDEST PUSH1 0x40 MLOAD DUP1 SWAP2 SUB SWAP1 RETURN JUMPDEST PUSH2 0x122 PUSH2 0x380 JUMP JUMPDEST PUSH1 0x1 SLOAD PUSH2 0x172 SWAP1 PUSH1 0x1 PUSH1 0x1 PUSH1 0xA0 SHL SUB AND DUP2 JUMP JUMPDEST PUSH1 0x40 MLOAD PUSH1 0x1 PUSH1 0x1 PUSH1 0xA0 SHL SUB SWAP1 SWAP2 AND DUP2 MSTORE PUSH1 0x20 ADD PUSH2 0x14E JUMP JUMPDEST PUSH1 0x2 SLOAD PUSH2 0x172 SWAP1 PUSH1 0x1 PUSH1 0x1 PUSH1 0xA0 SHL SUB AND DUP2 JUMP JUMPDEST PUSH2 0x144 PUSH32 0x0 DUP2 JUMP JUMPDEST PUSH2 0x144 PUSH2 0x1D2 CALLDATASIZE PUSH1 0x4 PUSH2 0xAC2 JUMP JUMPDEST PUSH2 0x3BE JUMP JUMPDEST PUSH2 0x144 PUSH1 0x5 SLOAD DUP2 JUMP JUMPDEST PUSH1 0x4 SLOAD PUSH2 0x172 SWAP1 PUSH1 0x1 PUSH1 0x1 PUSH1 0xA0 SHL SUB AND DUP2 JUMP JUMPDEST PUSH2 0x144 PUSH2 0x201 CALLDATASIZE PUSH1 0x4 PUSH2 0xA92 JUMP JUMPDEST PUSH2 0x52C JUMP JUMPDEST PUSH2 0x122 PUSH2 0x214 CALLDATASIZE PUSH1 0x4 PUSH2 0xADB JUMP JUMPDEST PUSH2 0x814 JUMP JUMPDEST PUSH2 0x122 PUSH2 0x227 CALLDATASIZE PUSH1 0x4 PUSH2 0xAC2 JUMP JUMPDEST PUSH2 0x880 JUMP JUMPDEST PUSH2 0x144 PUSH32 0x0 DUP2 JUMP JUMPDEST PUSH2 0x144 PUSH2 0x261 CALLDATASIZE PUSH1 0x4 PUSH2 0xAC2 JUMP JUMPDEST PUSH2 0x905 JUMP JUMPDEST PUSH1 0x0 SLOAD PUSH2 0x172 SWAP1 PUSH1 0x1 PUSH1 0x1 PUSH1 0xA0 SHL SUB AND DUP2 JUMP JUMPDEST PUSH2 0x122 PUSH2 0x287 CALLDATASIZE PUSH1 0x4 PUSH2 0xADB JUMP JUMPDEST PUSH2 0x9BE JUMP JUMPDEST PUSH1 0x3 SLOAD PUSH2 0x172 SWAP1 PUSH1 0x1 PUSH1 0x1 PUSH1 0xA0 SHL SUB AND DUP2 JUMP JUMPDEST PUSH1 0x0 SLOAD PUSH1 0x1 PUSH1 0x1 PUSH1 0xA0 SHL SUB AND CALLER EQ PUSH2 0x2B6 JUMPI PUSH1 0x0 DUP1 REVERT JUMPDEST PUSH1 0x2 SLOAD PUSH1 0x40 MLOAD PUSH4 0xA9059CBB PUSH1 0xE0 SHL DUP2 MSTORE PUSH1 0x1 PUSH1 0x1 PUSH1 0xA0 SHL SUB DUP4 DUP2 AND PUSH1 0x4 DUP4 ADD MSTORE PUSH1 0x24 DUP3 ADD DUP6 SWAP1 MSTORE PUSH1 0x0 SWAP3 AND SWAP1 PUSH4 0xA9059CBB SWAP1 PUSH1 0x44 ADD PUSH1 0x20 PUSH1 0x40 MLOAD DUP1 DUP4 SUB DUP2 PUSH1 0x0 DUP8 GAS CALL ISZERO DUP1 ISZERO PUSH2 0x30A JUMPI RETURNDATASIZE PUSH1 0x0 DUP1 RETURNDATACOPY RETURNDATASIZE PUSH1 0x0 REVERT JUMPDEST POP POP POP POP PUSH1 0x40 MLOAD RETURNDATASIZE PUSH1 0x1F NOT PUSH1 0x1F DUP3 ADD AND DUP3 ADD DUP1 PUSH1 0x40 MSTORE POP DUP2 ADD SWAP1 PUSH2 0x32E SWAP2 SWAP1 PUSH2 0xAFF JUMP JUMPDEST SWAP1 POP DUP1 PUSH2 0x33A JUMPI PUSH1 0x0 DUP1 REVERT JUMPDEST PUSH1 0x40 DUP1 MLOAD DUP5 DUP2 MSTORE PUSH1 0x1 PUSH1 0x1 PUSH1 0xA0 SHL SUB DUP5 AND PUSH1 0x20 DUP3 ADD MSTORE PUSH32 0x8353FFCAC0876AD14E226D9783C04540BFEBF13871E868157D2A391CAD98E918 SWAP2 ADD PUSH1 0x40 MLOAD DUP1 SWAP2 SUB SWAP1 LOG1 POP POP POP JUMP JUMPDEST PUSH1 0x1 SLOAD PUSH1 0x1 PUSH1 0x1 PUSH1 0xA0 SHL SUB AND CALLER EQ PUSH2 0x397 JUMPI PUSH1 0x0 DUP1 REVERT JUMPDEST PUSH1 0x1 SLOAD PUSH2 0x3AC SWAP1 PUSH1 0x1 PUSH1 0x1 PUSH1 0xA0 SHL SUB AND PUSH2 0x9E1 JUMP JUMPDEST PUSH1 0x1 DUP1 SLOAD PUSH1 0x1 PUSH1 0x1 PUSH1 0xA0 SHL SUB NOT AND SWAP1 SSTORE JUMP JUMPDEST PUSH1 0x4 DUP1 SLOAD PUSH1 0x40 MLOAD PUSH4 0xE8132B9F PUSH1 0xE0 SHL DUP2 MSTORE SWAP2 DUP3 ADD DUP4 SWAP1 MSTORE PUSH1 0x0 SWAP2 DUP3 SWAP2 PUSH1 0x1 PUSH1 0x1 PUSH1 0xA0 SHL SUB AND SWAP1 PUSH4 0xE8132B9F SWAP1 PUSH1 0x24 ADD PUSH1 0x20 PUSH1 0x40 MLOAD DUP1 DUP4 SUB DUP2 DUP7 GAS STATICCALL ISZERO DUP1 ISZERO PUSH2 0x40A JUMPI RETURNDATASIZE PUSH1 0x0 DUP1 RETURNDATACOPY RETURNDATASIZE PUSH1 0x0 REVERT JUMPDEST POP POP POP POP PUSH1 0x40 MLOAD RETURNDATASIZE PUSH1 0x1F NOT PUSH1 0x1F DUP3 ADD AND DUP3 ADD DUP1 PUSH1 0x40 MSTORE POP DUP2 ADD SWAP1 PUSH2 0x42E SWAP2 SWAP1 PUSH2 0xB21 JUMP JUMPDEST PUSH1 0x4 DUP1 SLOAD PUSH1 0x40 MLOAD PUSH4 0xE9EAD47 PUSH1 0xE1 SHL DUP2 MSTORE SWAP2 DUP3 ADD DUP7 SWAP1 MSTORE PUSH32 0x0 PUSH1 0x24 DUP4 ADD MSTORE PUSH8 0xFFFFFFFFFFFFFFFF SWAP3 SWAP1 SWAP3 AND SWAP3 POP PUSH1 0x0 SWAP2 PUSH1 0x1 PUSH1 0x1 PUSH1 0xA0 SHL SUB AND SWAP1 PUSH4 0x1D3D5A8E SWAP1 PUSH1 0x44 ADD PUSH1 0x20 PUSH1 0x40 MLOAD DUP1 DUP4 SUB DUP2 DUP7 GAS STATICCALL SWAP3 POP POP POP DUP1 ISZERO PUSH2 0x4C9 JUMPI POP PUSH1 0x40 DUP1 MLOAD PUSH1 0x1F RETURNDATASIZE SWAP1 DUP2 ADD PUSH1 0x1F NOT AND DUP3 ADD SWAP1 SWAP3 MSTORE PUSH2 0x4C6 SWAP2 DUP2 ADD SWAP1 PUSH2 0xB21 JUMP JUMPDEST PUSH1 0x1 JUMPDEST PUSH2 0x4D5 JUMPI POP PUSH1 0x0 PUSH2 0x4E2 JUMP JUMPDEST PUSH8 0xFFFFFFFFFFFFFFFF AND SWAP1 POP JUMPDEST PUSH2 0x4EC DUP2 DUP4 PUSH2 0xB61 JUMP JUMPDEST PUSH1 0x0 DUP6 DUP2 MSTORE PUSH1 0x6 PUSH1 0x20 MSTORE PUSH1 0x40 SWAP1 KECCAK256 SLOAD SWAP1 SWAP3 POP DUP3 GT PUSH2 0x50B JUMPI PUSH1 0x0 PUSH2 0x524 JUMP JUMPDEST PUSH1 0x0 DUP5 DUP2 MSTORE PUSH1 0x6 PUSH1 0x20 MSTORE PUSH1 0x40 SWAP1 KECCAK256 SLOAD PUSH2 0x524 SWAP1 DUP4 PUSH2 0xB61 JUMP JUMPDEST SWAP5 SWAP4 POP POP POP POP JUMP JUMPDEST PUSH1 0x3 SLOAD PUSH1 0x40 MLOAD PUSH4 0x31A9108F PUSH1 0xE1 SHL DUP2 MSTORE PUSH1 0x4 DUP2 ADD DUP5 SWAP1 MSTORE PUSH1 0x0 SWAP2 CALLER SWAP2 PUSH1 0x1 PUSH1 0x1 PUSH1 0xA0 SHL SUB SWAP1 SWAP2 AND SWAP1 PUSH4 0x6352211E SWAP1 PUSH1 0x24 ADD PUSH1 0x20 PUSH1 0x40 MLOAD DUP1 DUP4 SUB DUP2 DUP7 GAS STATICCALL ISZERO DUP1 ISZERO PUSH2 0x57A JUMPI RETURNDATASIZE PUSH1 0x0 DUP1 RETURNDATACOPY RETURNDATASIZE PUSH1 0x0 REVERT JUMPDEST POP POP POP POP PUSH1 0x40 MLOAD RETURNDATASIZE PUSH1 0x1F NOT PUSH1 0x1F DUP3 ADD AND DUP3 ADD DUP1 PUSH1 0x40 MSTORE POP DUP2 ADD SWAP1 PUSH2 0x59E SWAP2 SWAP1 PUSH2 0xB74 JUMP JUMPDEST PUSH1 0x1 PUSH1 0x1 PUSH1 0xA0 SHL SUB AND EQ PUSH2 0x605 JUMPI PUSH1 0x40 MLOAD PUSH3 0x461BCD PUSH1 0xE5 SHL DUP2 MSTORE PUSH1 0x20 PUSH1 0x4 DUP3 ADD MSTORE PUSH1 0x24 DUP1 DUP3 ADD MSTORE PUSH32 0x626F756E7479206469737472696275746F723A206E6F7420696463617264206F PUSH1 0x44 DUP3 ADD MSTORE PUSH4 0x3BB732B9 PUSH1 0xE1 SHL PUSH1 0x64 DUP3 ADD MSTORE PUSH1 0x84 ADD JUMPDEST PUSH1 0x40 MLOAD DUP1 SWAP2 SUB SWAP1 REVERT JUMPDEST PUSH1 0x0 PUSH2 0x610 DUP5 PUSH2 0x3BE JUMP JUMPDEST SWAP1 POP PUSH1 0x0 PUSH1 0x2 PUSH1 0x0 SWAP1 SLOAD SWAP1 PUSH2 0x100 EXP SWAP1 DIV PUSH1 0x1 PUSH1 0x1 PUSH1 0xA0 SHL SUB AND PUSH1 0x1 PUSH1 0x1 PUSH1 0xA0 SHL SUB AND PUSH4 0x313CE567 PUSH1 0x40 MLOAD DUP2 PUSH4 0xFFFFFFFF AND PUSH1 0xE0 SHL DUP2 MSTORE PUSH1 0x4 ADD PUSH1 0x20 PUSH1 0x40 MLOAD DUP1 DUP4 SUB DUP2 DUP7 GAS STATICCALL ISZERO DUP1 ISZERO PUSH2 0x667 JUMPI RETURNDATASIZE PUSH1 0x0 DUP1 RETURNDATACOPY RETURNDATASIZE PUSH1 0x0 REVERT JUMPDEST POP POP POP POP PUSH1 0x40 MLOAD RETURNDATASIZE PUSH1 0x1F NOT PUSH1 0x1F DUP3 ADD AND DUP3 ADD DUP1 PUSH1 0x40 MSTORE POP DUP2 ADD SWAP1 PUSH2 0x68B SWAP2 SWAP1 PUSH2 0xB91 JUMP JUMPDEST SWAP1 POP PUSH2 0x2710 PUSH2 0x69B DUP3 PUSH1 0xA PUSH2 0xC98 JUMP JUMPDEST DUP4 PUSH1 0x5 SLOAD PUSH2 0x6A9 SWAP2 SWAP1 PUSH2 0xCA7 JUMP JUMPDEST PUSH2 0x6B3 SWAP2 SWAP1 PUSH2 0xCA7 JUMP JUMPDEST PUSH2 0x6BD SWAP2 SWAP1 PUSH2 0xCBE JUMP JUMPDEST PUSH1 0x2 SLOAD PUSH1 0x40 MLOAD PUSH4 0xA9059CBB PUSH1 0xE0 SHL DUP2 MSTORE PUSH1 0x1 PUSH1 0x1 PUSH1 0xA0 SHL SUB DUP8 DUP2 AND PUSH1 0x4 DUP4 ADD MSTORE PUSH1 0x24 DUP3 ADD DUP5 SWAP1 MSTORE SWAP3 SWAP6 POP PUSH1 0x0 SWAP3 SWAP1 SWAP2 AND SWAP1 PUSH4 0xA9059CBB SWAP1 PUSH1 0x44 ADD PUSH1 0x20 PUSH1 0x40 MLOAD DUP1 DUP4 SUB DUP2 PUSH1 0x0 DUP8 GAS CALL ISZERO DUP1 ISZERO PUSH2 0x716 JUMPI RETURNDATASIZE PUSH1 0x0 DUP1 RETURNDATACOPY RETURNDATASIZE PUSH1 0x0 REVERT JUMPDEST POP POP POP POP PUSH1 0x40 MLOAD RETURNDATASIZE PUSH1 0x1F NOT PUSH1 0x1F DUP3 ADD AND DUP3 ADD DUP1 PUSH1 0x40 MSTORE POP DUP2 ADD SWAP1 PUSH2 0x73A SWAP2 SWAP1 PUSH2 0xAFF JUMP JUMPDEST SWAP1 POP DUP1 PUSH2 0x79E JUMPI PUSH1 0x40 MLOAD PUSH3 0x461BCD PUSH1 0xE5 SHL DUP2 MSTORE PUSH1 0x20 PUSH1 0x4 DUP3 ADD MSTORE PUSH1 0x2C PUSH1 0x24 DUP3 ADD MSTORE PUSH32 0x626F756E7479206469737472696275746F723A2073656E6420626F756E747920 PUSH1 0x44 DUP3 ADD MSTORE PUSH12 0x1D1BDAD95B8819985A5B1959 PUSH1 0xA2 SHL PUSH1 0x64 DUP3 ADD MSTORE PUSH1 0x84 ADD PUSH2 0x5FC JUMP JUMPDEST PUSH1 0x0 DUP7 DUP2 MSTORE PUSH1 0x6 PUSH1 0x20 MSTORE PUSH1 0x40 DUP2 KECCAK256 DUP1 SLOAD DUP6 SWAP3 SWAP1 PUSH2 0x7BC SWAP1 DUP5 SWAP1 PUSH2 0xCE0 JUMP JUMPDEST SWAP1 SWAP2 SSTORE POP POP PUSH1 0x40 DUP1 MLOAD DUP8 DUP2 MSTORE PUSH1 0x1 PUSH1 0x1 PUSH1 0xA0 SHL SUB DUP8 AND PUSH1 0x20 DUP3 ADD MSTORE SWAP1 DUP2 ADD DUP6 SWAP1 MSTORE PUSH32 0x82DE279E1363EBE259BA3E76F44583E530A71408D1B933CA57E5D2A0B41A80FC SWAP1 PUSH1 0x60 ADD PUSH1 0x40 MLOAD DUP1 SWAP2 SUB SWAP1 LOG1 POP POP POP JUMPDEST SWAP3 SWAP2 POP POP JUMP JUMPDEST PUSH1 0x0 SLOAD PUSH1 0x1 PUSH1 0x1 PUSH1 0xA0 SHL SUB AND CALLER EQ PUSH2 0x82B JUMPI PUSH1 0x0 DUP1 REVERT JUMPDEST PUSH1 0x1 DUP1 SLOAD PUSH1 0x1 PUSH1 0x1 PUSH1 0xA0 SHL SUB NOT AND PUSH1 0x1 PUSH1 0x1 PUSH1 0xA0 SHL SUB DUP4 AND SWAP1 DUP2 OR SWAP1 SWAP2 SSTORE PUSH1 0x40 MLOAD SWAP1 DUP2 MSTORE PUSH32 0xDA7B0A7BC965ABDEC8A1A995575A891838264C2968E14BD456C5391827B7AA30 SWAP1 PUSH1 0x20 ADD JUMPDEST PUSH1 0x40 MLOAD DUP1 SWAP2 SUB SWAP1 LOG1 POP JUMP JUMPDEST PUSH1 0x0 SLOAD PUSH1 0x1 PUSH1 0x1 PUSH1 0xA0 SHL SUB AND CALLER EQ PUSH2 0x897 JUMPI PUSH1 0x0 DUP1 REVERT JUMPDEST PUSH2 0x2710 DUP2 GT ISZERO PUSH2 0x900 JUMPI PUSH1 0x40 MLOAD PUSH3 0x461BCD PUSH1 0xE5 SHL DUP2 MSTORE PUSH1 0x20 PUSH1 0x4 DUP3 ADD MSTORE PUSH1 0x2E PUSH1 0x24 DUP3 ADD MSTORE PUSH32 0x706F63466163746F72206D757374206265206C657373207468616E206F722065 PUSH1 0x44 DUP3 ADD MSTORE PUSH14 0x38BAB0B6103A379018981818181 PUSH1 0x95 SHL PUSH1 0x64 DUP3 ADD MSTORE PUSH1 0x84 ADD PUSH2 0x5FC JUMP JUMPDEST PUSH1 0x5 SSTORE JUMP JUMPDEST PUSH1 0x0 DUP1 PUSH2 0x911 DUP4 PUSH2 0x3BE JUMP JUMPDEST SWAP1 POP PUSH1 0x0 PUSH1 0x2 PUSH1 0x0 SWAP1 SLOAD SWAP1 PUSH2 0x100 EXP SWAP1 DIV PUSH1 0x1 PUSH1 0x1 PUSH1 0xA0 SHL SUB AND PUSH1 0x1 PUSH1 0x1 PUSH1 0xA0 SHL SUB AND PUSH4 0x313CE567 PUSH1 0x40 MLOAD DUP2 PUSH4 0xFFFFFFFF AND PUSH1 0xE0 SHL DUP2 MSTORE PUSH1 0x4 ADD PUSH1 0x20 PUSH1 0x40 MLOAD DUP1 DUP4 SUB DUP2 DUP7 GAS STATICCALL ISZERO DUP1 ISZERO PUSH2 0x968 JUMPI RETURNDATASIZE PUSH1 0x0 DUP1 RETURNDATACOPY RETURNDATASIZE PUSH1 0x0 REVERT JUMPDEST POP POP POP POP PUSH1 0x40 MLOAD RETURNDATASIZE PUSH1 0x1F NOT PUSH1 0x1F DUP3 ADD AND DUP3 ADD DUP1 PUSH1 0x40 MSTORE POP DUP2 ADD SWAP1 PUSH2 0x98C SWAP2 SWAP1 PUSH2 0xB91 JUMP JUMPDEST SWAP1 POP PUSH2 0x2710 PUSH2 0x99C DUP3 PUSH1 0xA PUSH2 0xC98 JUMP JUMPDEST DUP4 PUSH1 0x5 SLOAD PUSH2 0x9AA SWAP2 SWAP1 PUSH2 0xCA7 JUMP JUMPDEST PUSH2 0x9B4 SWAP2 SWAP1 PUSH2 0xCA7 JUMP JUMPDEST PUSH2 0x524 SWAP2 SWAP1 PUSH2 0xCBE JUMP JUMPDEST PUSH1 0x0 SLOAD PUSH1 0x1 PUSH1 0x1 PUSH1 0xA0 SHL SUB AND CALLER EQ PUSH2 0x9D5 JUMPI PUSH1 0x0 DUP1 REVERT JUMPDEST PUSH2 0x9DE DUP2 PUSH2 0xA2F JUMP JUMPDEST POP JUMP JUMPDEST PUSH1 0x0 DUP1 SLOAD PUSH1 0x1 PUSH1 0x1 PUSH1 0xA0 SHL SUB NOT AND PUSH1 0x1 PUSH1 0x1 PUSH1 0xA0 SHL SUB DUP4 AND SWAP1 DUP2 OR SWAP1 SWAP2 SSTORE PUSH1 0x40 MLOAD SWAP1 DUP2 MSTORE PUSH32 0x5A272403B402D892977DF56625F4164CCAF70CA3863991C43ECFE76A6905B0A1 SWAP1 PUSH1 0x20 ADD PUSH2 0x875 JUMP JUMPDEST PUSH1 0x2 DUP1 SLOAD PUSH1 0x1 PUSH1 0x1 PUSH1 0xA0 SHL SUB NOT AND PUSH1 0x1 PUSH1 0x1 PUSH1 0xA0 SHL SUB DUP4 AND SWAP1 DUP2 OR SWAP1 SWAP2 SSTORE PUSH1 0x40 MLOAD SWAP1 DUP2 MSTORE PUSH32 0xA9531E5694C168F606ED45F0CFCC450ABB1B130668153978B0712FAF10089BB9 SWAP1 PUSH1 0x20 ADD PUSH2 0x875 JUMP JUMPDEST PUSH1 0x1 PUSH1 0x1 PUSH1 0xA0 SHL SUB DUP2 AND DUP2 EQ PUSH2 0x9DE JUMPI PUSH1 0x0 DUP1 REVERT JUMPDEST PUSH1 0x0 DUP1 PUSH1 0x40 DUP4 DUP6 SUB SLT ISZERO PUSH2 0xAA5 JUMPI PUSH1 0x0 DUP1 REVERT JUMPDEST DUP3 CALLDATALOAD SWAP2 POP PUSH1 0x20 DUP4 ADD CALLDATALOAD PUSH2 0xAB7 DUP2 PUSH2 0xA7D JUMP JUMPDEST DUP1 SWAP2 POP POP SWAP3 POP SWAP3 SWAP1 POP JUMP JUMPDEST PUSH1 0x0 PUSH1 0x20 DUP3 DUP5 SUB SLT ISZERO PUSH2 0xAD4 JUMPI PUSH1 0x0 DUP1 REVERT JUMPDEST POP CALLDATALOAD SWAP2 SWAP1 POP JUMP JUMPDEST PUSH1 0x0 PUSH1 0x20 DUP3 DUP5 SUB SLT ISZERO PUSH2 0xAED JUMPI PUSH1 0x0 DUP1 REVERT JUMPDEST DUP2 CALLDATALOAD PUSH2 0xAF8 DUP2 PUSH2 0xA7D JUMP JUMPDEST SWAP4 SWAP3 POP POP POP JUMP JUMPDEST PUSH1 0x0 PUSH1 0x20 DUP3 DUP5 SUB SLT ISZERO PUSH2 0xB11 JUMPI PUSH1 0x0 DUP1 REVERT JUMPDEST DUP2 MLOAD DUP1 ISZERO ISZERO DUP2 EQ PUSH2 0xAF8 JUMPI PUSH1 0x0 DUP1 REVERT JUMPDEST PUSH1 0x0 PUSH1 0x20 DUP3 DUP5 SUB SLT ISZERO PUSH2 0xB33 JUMPI PUSH1 0x0 DUP1 REVERT JUMPDEST DUP2 MLOAD PUSH8 0xFFFFFFFFFFFFFFFF DUP2 AND DUP2 EQ PUSH2 0xAF8 JUMPI PUSH1 0x0 DUP1 REVERT JUMPDEST PUSH4 0x4E487B71 PUSH1 0xE0 SHL PUSH1 0x0 MSTORE PUSH1 0x11 PUSH1 0x4 MSTORE PUSH1 0x24 PUSH1 0x0 REVERT JUMPDEST DUP2 DUP2 SUB DUP2 DUP2 GT ISZERO PUSH2 0x80E JUMPI PUSH2 0x80E PUSH2 0xB4B JUMP JUMPDEST PUSH1 0x0 PUSH1 0x20 DUP3 DUP5 SUB SLT ISZERO PUSH2 0xB86 JUMPI PUSH1 0x0 DUP1 REVERT JUMPDEST DUP2 MLOAD PUSH2 0xAF8 DUP2 PUSH2 0xA7D JUMP JUMPDEST PUSH1 0x0 PUSH1 0x20 DUP3 DUP5 SUB SLT ISZERO PUSH2 0xBA3 JUMPI PUSH1 0x0 DUP1 REVERT JUMPDEST DUP2 MLOAD PUSH1 0xFF DUP2 AND DUP2 EQ PUSH2 0xAF8 JUMPI PUSH1 0x0 DUP1 REVERT JUMPDEST PUSH1 0x1 DUP2 DUP2 JUMPDEST DUP1 DUP6 GT ISZERO PUSH2 0xBEF JUMPI DUP2 PUSH1 0x0 NOT DIV DUP3 GT ISZERO PUSH2 0xBD5 JUMPI PUSH2 0xBD5 PUSH2 0xB4B JUMP JUMPDEST DUP1 DUP6 AND ISZERO PUSH2 0xBE2 JUMPI SWAP2 DUP2 MUL SWAP2 JUMPDEST SWAP4 DUP5 SHR SWAP4 SWAP1 DUP1 MUL SWAP1 PUSH2 0xBB9 JUMP JUMPDEST POP SWAP3 POP SWAP3 SWAP1 POP JUMP JUMPDEST PUSH1 0x0 DUP3 PUSH2 0xC06 JUMPI POP PUSH1 0x1 PUSH2 0x80E JUMP JUMPDEST DUP2 PUSH2 0xC13 JUMPI POP PUSH1 0x0 PUSH2 0x80E JUMP JUMPDEST DUP2 PUSH1 0x1 DUP2 EQ PUSH2 0xC29 JUMPI PUSH1 0x2 DUP2 EQ PUSH2 0xC33 JUMPI PUSH2 0xC4F JUMP JUMPDEST PUSH1 0x1 SWAP2 POP POP PUSH2 0x80E JUMP JUMPDEST PUSH1 0xFF DUP5 GT ISZERO PUSH2 0xC44 JUMPI PUSH2 0xC44 PUSH2 0xB4B JUMP JUMPDEST POP POP PUSH1 0x1 DUP3 SHL PUSH2 0x80E JUMP JUMPDEST POP PUSH1 0x20 DUP4 LT PUSH2 0x133 DUP4 LT AND PUSH1 0x4E DUP5 LT PUSH1 0xB DUP5 LT AND OR ISZERO PUSH2 0xC72 JUMPI POP DUP2 DUP2 EXP PUSH2 0x80E JUMP JUMPDEST PUSH2 0xC7C DUP4 DUP4 PUSH2 0xBB4 JUMP JUMPDEST DUP1 PUSH1 0x0 NOT DIV DUP3 GT ISZERO PUSH2 0xC90 JUMPI PUSH2 0xC90 PUSH2 0xB4B JUMP JUMPDEST MUL SWAP4 SWAP3 POP POP POP JUMP JUMPDEST PUSH1 0x0 PUSH2 0xAF8 PUSH1 0xFF DUP5 AND DUP4 PUSH2 0xBF7 JUMP JUMPDEST DUP1 DUP3 MUL DUP2 ISZERO DUP3 DUP3 DIV DUP5 EQ OR PUSH2 0x80E JUMPI PUSH2 0x80E PUSH2 0xB4B JUMP JUMPDEST PUSH1 0x0 DUP3 PUSH2 0xCDB JUMPI PUSH4 0x4E487B71 PUSH1 0xE0 SHL PUSH1 0x0 MSTORE PUSH1 0x12 PUSH1 0x4 MSTORE PUSH1 0x24 PUSH1 0x0 REVERT JUMPDEST POP DIV SWAP1 JUMP JUMPDEST DUP1 DUP3 ADD DUP1 DUP3 GT ISZERO PUSH2 0x80E JUMPI PUSH2 0x80E PUSH2 0xB4B JUMP INVALID LOG2 PUSH5 0x6970667358 0x22 SLT KECCAK256 PUSH31 0x5002F2ECD0D43BAD8D13D9126C5E06980AF0F2278E572062DBF22AE49CCED4 PUSH5 0x736F6C6343 STOP ADDMOD GT STOP CALLER "},"methodIdentifiers":{"acceptAdmin()":"0e18b681","admin()":"f851a440","bountyDay()":"afdc31a0","bountyToken()":"2d4147e3","claimBounty(uint256,address)":"54d4fad3","claimable(uint256)":"d1d58b25","expireTime()":"310a1ee3","getDpoc(uint256)":"4078d8d4","historicPoints(uint256)":"06602303","idnft()":"fd9316ef","multiHonor()":"52a1bbfb","pendingAdmin()":"26782247","pocFactor()":"4b301483","setBountyToken(address)":"f9da8f2d","setPocFactor(uint256)":"7bd8aa89","transferAdmin(address)":"75829def","withdraw(uint256,address)":"00f714ce"}}}}}