{"contracts/mocks/MultiHonor.sol":{"MultiHonor_V1":{"abi":[{"anonymous":false,"inputs":[{"indexed":false,"internalType":"uint256[]","name":"ids","type":"uint256[]"},{"indexed":false,"internalType":"uint64[]","name":"eventPower","type":"uint64[]"}],"name":"AddEventPoint","type":"event"},{"anonymous":false,"inputs":[{"indexed":false,"internalType":"uint256[]","name":"ids","type":"uint256[]"},{"indexed":false,"internalType":"uint64[]","name":"poc","type":"uint64[]"}],"name":"AddPOC","type":"event"},{"anonymous":false,"inputs":[{"indexed":false,"internalType":"uint8","name":"version","type":"uint8"}],"name":"Initialized","type":"event"},{"anonymous":false,"inputs":[{"indexed":true,"internalType":"bytes32","name":"role","type":"bytes32"},{"indexed":true,"internalType":"bytes32","name":"previousAdminRole","type":"bytes32"},{"indexed":true,"internalType":"bytes32","name":"newAdminRole","type":"bytes32"}],"name":"RoleAdminChanged","type":"event"},{"anonymous":false,"inputs":[{"indexed":true,"internalType":"bytes32","name":"role","type":"bytes32"},{"indexed":true,"internalType":"address","name":"account","type":"address"},{"indexed":true,"internalType":"address","name":"sender","type":"address"}],"name":"RoleGranted","type":"event"},{"anonymous":false,"inputs":[{"indexed":true,"internalType":"bytes32","name":"role","type":"bytes32"},{"indexed":true,"internalType":"address","name":"account","type":"address"},{"indexed":true,"internalType":"address","name":"sender","type":"address"}],"name":"RoleRevoked","type":"event"},{"anonymous":false,"inputs":[{"indexed":false,"internalType":"uint256[]","name":"ids","type":"uint256[]"},{"indexed":false,"internalType":"uint64[]","name":"eventPower","type":"uint64[]"}],"name":"SetEventPoint","type":"event"},{"anonymous":false,"inputs":[{"indexed":false,"internalType":"address","name":"idcard","type":"address"}],"name":"SetIDCard","type":"event"},{"anonymous":false,"inputs":[{"indexed":false,"internalType":"uint256[]","name":"ids","type":"uint256[]"},{"indexed":false,"internalType":"uint64[]","name":"poc","type":"uint64[]"}],"name":"SetPoc","type":"event"},{"anonymous":false,"inputs":[{"indexed":false,"internalType":"uint256[]","name":"ids","type":"uint256[]"},{"indexed":false,"internalType":"uint256[]","name":"vePower","type":"uint256[]"},{"indexed":false,"internalType":"uint64","name":"epoch","type":"uint64"}],"name":"SetVEPower","type":"event"},{"inputs":[],"name":"DEFAULT_ADMIN_ROLE","outputs":[{"internalType":"bytes32","name":"","type":"bytes32"}],"stateMutability":"view","type":"function"},{"inputs":[{"internalType":"uint256","name":"tokenId","type":"uint256"}],"name":"EventPoint","outputs":[{"internalType":"uint64","name":"","type":"uint64"}],"stateMutability":"view","type":"function"},{"inputs":[],"name":"IDCard","outputs":[{"internalType":"address","name":"","type":"address"}],"stateMutability":"view","type":"function"},{"inputs":[{"internalType":"uint256","name":"tokenId","type":"uint256"}],"name":"Level","outputs":[{"internalType":"uint8","name":"","type":"uint8"}],"stateMutability":"view","type":"function"},{"inputs":[{"internalType":"uint256","name":"tokenId","type":"uint256"}],"name":"POC","outputs":[{"internalType":"uint64","name":"","type":"uint64"}],"stateMutability":"view","type":"function"},{"inputs":[{"internalType":"uint256","name":"tokenId","type":"uint256"},{"internalType":"uint256","name":"time","type":"uint256"}],"name":"POC_at","outputs":[{"internalType":"uint64","name":"","type":"uint64"}],"stateMutability":"view","type":"function"},{"inputs":[],"name":"ROLE_ADD_EVENT","outputs":[{"internalType":"bytes32","name":"","type":"bytes32"}],"stateMutability":"view","type":"function"},{"inputs":[],"name":"ROLE_ADD_POC","outputs":[{"internalType":"bytes32","name":"","type":"bytes32"}],"stateMutability":"view","type":"function"},{"inputs":[],"name":"ROLE_SET_EVENT","outputs":[{"internalType":"bytes32","name":"","type":"bytes32"}],"stateMutability":"view","type":"function"},{"inputs":[],"name":"ROLE_SET_POC","outputs":[{"internalType":"bytes32","name":"","type":"bytes32"}],"stateMutability":"view","type":"function"},{"inputs":[],"name":"ROLE_SET_VEPOWER","outputs":[{"internalType":"bytes32","name":"","type":"bytes32"}],"stateMutability":"view","type":"function"},{"inputs":[{"internalType":"uint256","name":"tokenId","type":"uint256"}],"name":"TotalPoint","outputs":[{"internalType":"uint64","name":"","type":"uint64"}],"stateMutability":"view","type":"function"},{"inputs":[{"internalType":"uint256","name":"tokenId","type":"uint256"}],"name":"VEPoint","outputs":[{"internalType":"uint64","name":"","type":"uint64"}],"stateMutability":"view","type":"function"},{"inputs":[{"internalType":"uint256","name":"tokenId","type":"uint256"}],"name":"VEPower","outputs":[{"internalType":"uint256","name":"","type":"uint256"}],"stateMutability":"view","type":"function"},{"inputs":[{"internalType":"uint256[]","name":"ids","type":"uint256[]"},{"internalType":"uint64[]","name":"eventPower","type":"uint64[]"}],"name":"addEventPoint","outputs":[],"stateMutability":"nonpayable","type":"function"},{"inputs":[{"internalType":"uint256[]","name":"ids","type":"uint256[]"},{"internalType":"uint64[]","name":"poc","type":"uint64[]"}],"name":"addPOC","outputs":[],"stateMutability":"nonpayable","type":"function"},{"inputs":[{"internalType":"address","name":"account","type":"address"},{"internalType":"uint256","name":"id","type":"uint256"}],"name":"balanceOf","outputs":[{"internalType":"uint256","name":"balance","type":"uint256"}],"stateMutability":"view","type":"function"},{"inputs":[],"name":"currentVEEpoch","outputs":[{"internalType":"uint256","name":"","type":"uint256"}],"stateMutability":"view","type":"function"},{"inputs":[{"internalType":"bytes32","name":"role","type":"bytes32"}],"name":"getRoleAdmin","outputs":[{"internalType":"bytes32","name":"","type":"bytes32"}],"stateMutability":"view","type":"function"},{"inputs":[{"internalType":"bytes32","name":"role","type":"bytes32"},{"internalType":"address","name":"account","type":"address"}],"name":"grantRole","outputs":[],"stateMutability":"nonpayable","type":"function"},{"inputs":[{"internalType":"bytes32","name":"role","type":"bytes32"},{"internalType":"address","name":"account","type":"address"}],"name":"hasRole","outputs":[{"internalType":"bool","name":"","type":"bool"}],"stateMutability":"view","type":"function"},{"inputs":[],"name":"initialize","outputs":[],"stateMutability":"nonpayable","type":"function"},{"inputs":[],"name":"k","outputs":[{"internalType":"uint256","name":"","type":"uint256"}],"stateMutability":"view","type":"function"},{"inputs":[{"internalType":"uint256","name":"level","type":"uint256"}],"name":"levelRequire","outputs":[{"internalType":"uint64","name":"","type":"uint64"}],"stateMutability":"pure","type":"function"},{"inputs":[{"internalType":"uint256","name":"x","type":"uint256"}],"name":"log_2","outputs":[{"internalType":"uint256","name":"y","type":"uint256"}],"stateMutability":"pure","type":"function"},{"inputs":[{"internalType":"bytes32","name":"role","type":"bytes32"},{"internalType":"address","name":"account","type":"address"}],"name":"renounceRole","outputs":[],"stateMutability":"nonpayable","type":"function"},{"inputs":[{"internalType":"bytes32","name":"role","type":"bytes32"},{"internalType":"address","name":"account","type":"address"}],"name":"revokeRole","outputs":[],"stateMutability":"nonpayable","type":"function"},{"inputs":[{"internalType":"uint256[]","name":"ids","type":"uint256[]"},{"internalType":"uint64[]","name":"eventPower","type":"uint64[]"}],"name":"setEventPoint","outputs":[],"stateMutability":"nonpayable","type":"function"},{"inputs":[{"internalType":"address","name":"IDCard_","type":"address"}],"name":"setIDCard","outputs":[],"stateMutability":"nonpayable","type":"function"},{"inputs":[{"internalType":"uint256[]","name":"ids","type":"uint256[]"},{"internalType":"uint64[]","name":"poc","type":"uint64[]"}],"name":"setPOC","outputs":[],"stateMutability":"nonpayable","type":"function"},{"inputs":[{"internalType":"uint256[]","name":"ids","type":"uint256[]"},{"internalType":"uint256[]","name":"vePower","type":"uint256[]"}],"name":"setVEPower","outputs":[],"stateMutability":"nonpayable","type":"function"},{"inputs":[{"internalType":"bytes4","name":"interfaceId","type":"bytes4"}],"name":"supportsInterface","outputs":[{"internalType":"bool","name":"","type":"bool"}],"stateMutability":"view","type":"function"},{"inputs":[],"name":"veEpochLength","outputs":[{"internalType":"uint256","name":"","type":"uint256"}],"stateMutability":"view","type":"function"},{"inputs":[{"internalType":"uint256","name":"v","type":"uint256"}],"name":"vePower2vePoint","outputs":[{"internalType":"uint256","name":"","type":"uint256"}],"stateMutability":"pure","type":"function"},{"inputs":[],"name":"weight_event","outputs":[{"internalType":"uint256","name":"","type":"uint256"}],"stateMutability":"view","type":"function"},{"inputs":[],"name":"weight_poc","outputs":[{"internalType":"uint256","name":"","type":"uint256"}],"stateMutability":"view","type":"function"},{"inputs":[],"name":"weight_vepoint","outputs":[{"internalType":"uint256","name":"","type":"uint256"}],"stateMutability":"view","type":"function"}],"evm":{"bytecode":{"linkReferences":{},"object":"608060405234801561001057600080fd5b50612248806100206000396000f3fe608060405234801561001057600080fd5b50600436106102255760003560e01c80636a0ca6cd1161013057806399e0677f116100b8578063d547741f1161007c578063d547741f14610533578063e2b6832714610546578063e8132b9f14610559578063e8d407471461056c578063fc0c0c3b1461057457600080fd5b806399e0677f146104d3578063a217fddf146104e6578063a5c61edd146104ee578063b4f40c6114610517578063d1f928c11461052057600080fd5b806379d7ec80116100ff57806379d7ec801461046b5780637ed57e0e1461047e5780638129fc1c146104a557806391d14854146104ad5780639981534e146104c057600080fd5b80636a0ca6cd1461041b5780637123d6151461042457806373fff6c31461044f57806378a137711461046257600080fd5b80632f2ff15d116101b357806344d0ec071161018257806344d0ec07146103bc57806344d24220146103cf5780635faa12f1146103d857806361b04af9146103ff578063695f1e121461041257600080fd5b80632f2ff15d1461035a57806335e9b6421461036f57806336568abe146103965780633e59056e146103a957600080fd5b806311d5c6b5116101fa57806311d5c6b5146102995780631d3d5a8e146102be5780631e48cb05146102e9578063248a9ca31461031057806326b211ba1461033357600080fd5b8062fdd58e1461022a578062ff2fb11461025057806301ffc9a7146102635780630be2740c14610286575b600080fd5b61023d610238366004611d64565b610587565b6040519081526020015b60405180910390f35b61023d61025e366004611d8e565b6108bc565b610276610271366004611da7565b610947565b6040519015158152602001610247565b61023d610294366004611d8e565b61097c565b6102ac6102a7366004611d8e565b6109df565b60405160ff9091168152602001610247565b6102d16102cc366004611dd1565b610caf565b6040516001600160401b039091168152602001610247565b61023d7f299f144f9fec4a25b043de89e762ac3fd89ffb989a4690b198d22dd9edbcba4f81565b61023d61031e366004611d8e565b60009081526065602052604090206001015490565b61023d7f13257015ec9fd18a935274a54d2fe1c72530ccc6ff6ac7057c7d8a6900ceccba81565b61036d610368366004611df3565b610d24565b005b61023d7f8d33451580cec858e7ec47f2258a9a8edde6cdfd0cbbc2c2fb654db03fbb2d8c81565b61036d6103a4366004611df3565b610d4e565b61036d6103b7366004611e1f565b610dcc565b61036d6103ca366004611e85565b610e2b565b61023d60995481565b61023d7f4504525b0855d643ed8c29c4d688fed6965fe228830d3a514b831e1e3fa6579581565b6102d161040d366004611d8e565b610f2c565b61023d609c5481565b61023d60985481565b609754610437906001600160a01b031681565b6040516001600160a01b039091168152602001610247565b6102d161045d366004611d8e565b610f8a565b61023d609a5481565b61036d610479366004611e85565b610ff1565b61023d7f44699bfba21d81c4fd420fbc1901c4bdad6f62a68daed7b424a78a2b147bc9de81565b61036d611172565b6102766104bb366004611df3565b6112b6565b6102d16104ce366004611d8e565b6112e1565b61036d6104e1366004611e85565b611486565b61023d600081565b6102d16104fc366004611d8e565b6000908152609f60205260409020546001600160401b031690565b61023d609b5481565b61023d61052e366004611d8e565b6115cf565b61036d610541366004611df3565b611613565b61036d610554366004611e85565b611638565b6102d1610567366004611d8e565b611770565b61023d6117d9565b61036d610582366004611e85565b6117ee565b60006001600160a01b0383166105f75760405162461bcd60e51b815260206004820152602a60248201527f455243313135353a2061646472657373207a65726f206973206e6f742061207660448201526930b634b21037bbb732b960b11b60648201526084015b60405180910390fd5b609754604051632f745c5960e01b81526001600160a01b0385811660048301526000602483015290911690632f745c5990604401602060405180830381865afa925050508015610664575060408051601f3d908101601f1916820190925261066191810190611ef0565b60015b610670575060006108b6565b826000036106e457604051634cc0a9a760e11b8152600481018290523090639981534e90602401602060405180830381865afa1580156106b4573d6000803e3d6000fd5b505050506040513d601f19601f820116820180604052508101906106d89190611f1e565b6001600160401b031691505b8260010361075e57604051630e9ead4760e11b8152600481018290524260248201523090631d3d5a8e90604401602060405180830381865afa15801561072e573d6000803e3d6000fd5b505050506040513d601f19601f820116820180604052508101906107529190611f1e565b6001600160401b031691505b826002036107d2576040516373fff6c360e01b81526004810182905230906373fff6c390602401602060405180830381865afa1580156107a2573d6000803e3d6000fd5b505050506040513d601f19601f820116820180604052508101906107c69190611f1e565b6001600160401b031691505b826003036108465760405163a5c61edd60e01b815260048101829052309063a5c61edd90602401602060405180830381865afa158015610816573d6000803e3d6000fd5b505050506040513d601f19601f8201168201806040525081019061083a9190611f1e565b6001600160401b031691505b826004036108b4576040516311d5c6b560e01b81526004810182905230906311d5c6b590602401602060405180830381865afa15801561088a573d6000803e3d6000fd5b505050506040513d601f19601f820116820180604052508101906108ae9190611f3b565b60ff1691505b505b92915050565b6000805b60ff8110156108fe57600183901c9250826000036108de5750919050565b816108e881611f74565b92505080806108f690611f74565b9150506108c0565b5060405162461bcd60e51b815260206004820152601860248201527f6c6f675f32206d6178206c6f6f7073206578636565646564000000000000000060448201526064016105ee565b60006001600160e01b03198216637965db0b60e01b14806108b657506301ffc9a760e01b6001600160e01b03198316146108b6565b60006103e8670de0b6b3a764000061099684610202611f8d565b6109a09190611fa4565b6109aa9190611fa4565b6109ca6109bf670de0b6b3a764000085611fa4565b61025e906001611fc6565b6109d59060fa611f8d565b6108b69190611fc6565b60006109eb6005610f2c565b604051634cc0a9a760e11b8152600481018490526001600160401b0391909116903090639981534e90602401602060405180830381865afa158015610a34573d6000803e3d6000fd5b505050506040513d601f19601f82011682018060405250810190610a589190611f1e565b6001600160401b03161115610a6f57506005919050565b610a796004610f2c565b604051634cc0a9a760e11b8152600481018490526001600160401b0391909116903090639981534e90602401602060405180830381865afa158015610ac2573d6000803e3d6000fd5b505050506040513d601f19601f82011682018060405250810190610ae69190611f1e565b6001600160401b03161115610afd57506004919050565b610b076003610f2c565b604051634cc0a9a760e11b8152600481018490526001600160401b0391909116903090639981534e90602401602060405180830381865afa158015610b50573d6000803e3d6000fd5b505050506040513d601f19601f82011682018060405250810190610b749190611f1e565b6001600160401b03161115610b8b57506003919050565b610b956002610f2c565b604051634cc0a9a760e11b8152600481018490526001600160401b0391909116903090639981534e90602401602060405180830381865afa158015610bde573d6000803e3d6000fd5b505050506040513d601f19601f82011682018060405250810190610c029190611f1e565b6001600160401b03161115610c1957506002919050565b610c236001610f2c565b604051634cc0a9a760e11b8152600481018490526001600160401b0391909116903090639981534e90602401602060405180830381865afa158015610c6c573d6000803e3d6000fd5b505050506040513d601f19601f82011682018060405250810190610c909190611f1e565b6001600160401b03161115610ca757506001919050565b506000919050565b609b546000838152609d60205260408120549091620f424091610ce7906801000000000000000090046001600160401b031685611fd9565b610cf19190611f8d565b610cfb9190611fa4565b6000848152609d6020526040902054610d1d91906001600160401b0316611fd9565b9392505050565b600082815260656020526040902060010154610d3f816119ce565b610d4983836119d8565b505050565b6001600160a01b0381163314610dbe5760405162461bcd60e51b815260206004820152602f60248201527f416363657373436f6e74726f6c3a2063616e206f6e6c792072656e6f756e636560448201526e103937b632b9903337b91039b2b63360891b60648201526084016105ee565b610dc88282611a5e565b5050565b610dd660006119ce565b609780546001600160a01b0319166001600160a01b0383169081179091556040519081527fb82eec350d17375f213ca81ce6d611cc6aeea4681b53a236b77c0b0894a6a739906020015b60405180910390a150565b610e547f44699bfba21d81c4fd420fbc1901c4bdad6f62a68daed7b424a78a2b147bc9de6119ce565b60005b83811015610ee857828282818110610e7157610e71611fec565b9050602002016020810190610e869190612002565b609f6000878785818110610e9c57610e9c611fec565b90506020020135815260200190815260200160002060006101000a8154816001600160401b0302191690836001600160401b031602179055508080610ee090611f74565b915050610e57565b507f069496c664fca1828f78ba3e13a2de0b6863cad43d6dfa7bd51b6dd283d1621b84848484604051610f1e9493929190612051565b60405180910390a150505050565b600081600503610f40575062030d40919050565b81600403610f525750620186a0919050565b81600303610f635750617530919050565b81600203610f745750611388919050565b81600103610f8557506103e8919050565b919050565b60405163d1f928c160e01b8152600481018290526000906108b690309063d1f928c190602401602060405180830381865afa158015610fcd573d6000803e3d6000fd5b505050506040513d601f19601f820116820180604052508101906102949190611ef0565b61101a7f13257015ec9fd18a935274a54d2fe1c72530ccc6ff6ac7057c7d8a6900ceccba6119ce565b60005b8381101561113c57600083838381811061103957611039611fec565b905060200201602081019061104e9190612002565b3063a5c61edd88888681811061106657611066611fec565b905060200201356040518263ffffffff1660e01b815260040161108b91815260200190565b602060405180830381865afa1580156110a8573d6000803e3d6000fd5b505050506040513d601f19601f820116820180604052508101906110cc9190611f1e565b6110d691906120b6565b905080609f60008888868181106110ef576110ef611fec565b90506020020135815260200190815260200160002060006101000a8154816001600160401b0302191690836001600160401b0316021790555050808061113490611f74565b91505061101d565b507f776c5a775bf38012bec2c88238b7f07a97663344c85afc40ed7d45ef24720bfa84848484604051610f1e9493929190612051565b600054610100900460ff16158080156111925750600054600160ff909116105b806111ac5750303b1580156111ac575060005460ff166001145b61120f5760405162461bcd60e51b815260206004820152602e60248201527f496e697469616c697a61626c653a20636f6e747261637420697320616c72656160448201526d191e481a5b9a5d1a585b1a5e995960921b60648201526084016105ee565b6000805460ff191660011790558015611232576000805461ff0019166101001790555b61123a611ac5565b611242611ac5565b61124a611b32565b61126561025860985561012c6099556064609a556000609b55565b611271626ebe00609c55565b80156112b3576000805461ff0019169055604051600181527f7f26b83ff96e1f2b6a682f133852f6798a09c465da95921460cefb384740249890602001610e20565b50565b60009182526065602090815260408084206001600160a01b0393909316845291905290205460ff1690565b6000609a546099546098546112f69190611fc6565b6113009190611fc6565b609a5460405163a5c61edd60e01b815260048101859052309063a5c61edd90602401602060405180830381865afa15801561133f573d6000803e3d6000fd5b505050506040513d601f19601f820116820180604052508101906113639190611f1e565b6001600160401b03166113769190611f8d565b6099546040516373fff6c360e01b81526004810186905230906373fff6c390602401602060405180830381865afa1580156113b5573d6000803e3d6000fd5b505050506040513d601f19601f820116820180604052508101906113d99190611f1e565b6001600160401b03166113ec9190611f8d565b609854604051630e9ead4760e11b8152600481018790524260248201523090631d3d5a8e90604401602060405180830381865afa158015611431573d6000803e3d6000fd5b505050506040513d601f19601f820116820180604052508101906114559190611f1e565b6001600160401b03166114689190611f8d565b6114729190611fc6565b61147c9190611fc6565b6108b69190611fa4565b6114af7f4504525b0855d643ed8c29c4d688fed6965fe228830d3a514b831e1e3fa657956119ce565b60005b83811015611599578282828181106114cc576114cc611fec565b90506020020160208101906114e19190612002565b609d60008787858181106114f7576114f7611fec565b90506020020135815260200190815260200160002060000160006101000a8154816001600160401b0302191690836001600160401b0316021790555042609d600087878581811061154a5761154a611fec565b90506020020135815260200190815260200160002060000160086101000a8154816001600160401b0302191690836001600160401b03160217905550808061159190611f74565b9150506114b2565b507fb1c65cc534d9b76a1801661f0da4394f6b950928583a5f021ecf3ed5d7c5dbe184848484604051610f1e9493929190612051565b6000818152609e60205260408120600101546001600160401b03166115f26117d9565b111561160057506000919050565b506000908152609e602052604090205490565b60008281526065602052604090206001015461162e816119ce565b610d498383611a5e565b6116617f299f144f9fec4a25b043de89e762ac3fd89ffb989a4690b198d22dd9edbcba4f6119ce565b600061166b6117d9565b905060005b848110156117295783838281811061168a5761168a611fec565b90506020020135609e60008888858181106116a7576116a7611fec565b9050602002013581526020019081526020016000206000018190555081609e60008888858181106116da576116da611fec565b90506020020135815260200190815260200160002060010160006101000a8154816001600160401b0302191690836001600160401b03160217905550808061172190611f74565b915050611670565b507fbf38900587a4e37d1b6f303a61cabad196527bdc1e2758ad4d65dd2512fb520e85858585856040516117619594939291906120d6565b60405180910390a15050505050565b604051630e9ead4760e11b8152600481018290524260248201526000903090631d3d5a8e90604401602060405180830381865afa1580156117b5573d6000803e3d6000fd5b505050506040513d601f19601f820116820180604052508101906108b69190611f1e565b6000609c54426117e99190611fa4565b905090565b6118177f8d33451580cec858e7ec47f2258a9a8edde6cdfd0cbbc2c2fb654db03fbb2d8c6119ce565b60005b8381101561199857600083838381811061183657611836611fec565b905060200201602081019061184b9190612002565b30631d3d5a8e88888681811061186357611863611fec565b90506020020135426040518363ffffffff1660e01b8152600401611891929190918252602082015260400190565b602060405180830381865afa1580156118ae573d6000803e3d6000fd5b505050506040513d601f19601f820116820180604052508101906118d29190611f1e565b6118dc91906120b6565b905080609d60008888868181106118f5576118f5611fec565b90506020020135815260200190815260200160002060000160006101000a8154816001600160401b0302191690836001600160401b0316021790555042609d600088888681811061194857611948611fec565b90506020020135815260200190815260200160002060000160086101000a8154816001600160401b0302191690836001600160401b0316021790555050808061199090611f74565b91505061181a565b507f6f471c008c362787efec56552da0c38ede9b6f07fbe771fc705f59aa7c7718ef84848484604051610f1e9493929190612051565b6112b38133611b3d565b6119e282826112b6565b610dc85760008281526065602090815260408083206001600160a01b03851684529091529020805460ff19166001179055611a1a3390565b6001600160a01b0316816001600160a01b0316837f2f8788117e7eff1d82e926ec794901d17c78024a50270940304540a733656f0d60405160405180910390a45050565b611a6882826112b6565b15610dc85760008281526065602090815260408083206001600160a01b0385168085529252808320805460ff1916905551339285917ff6391f5c32d9c69d2a47ea670b442974b53935d1edc7fd64eb21e047a839171b9190a45050565b600054610100900460ff16611b305760405162461bcd60e51b815260206004820152602b60248201527f496e697469616c697a61626c653a20636f6e7472616374206973206e6f74206960448201526a6e697469616c697a696e6760a81b60648201526084016105ee565b565b611b30600033611b96565b611b4782826112b6565b610dc857611b5481611ba0565b611b5f836020611bb2565b604051602001611b7092919061213d565b60408051601f198184030181529082905262461bcd60e51b82526105ee916004016121b2565b610dc882826119d8565b60606108b66001600160a01b03831660145b60606000611bc1836002611f8d565b611bcc906002611fc6565b6001600160401b03811115611be357611be36121e5565b6040519080825280601f01601f191660200182016040528015611c0d576020820181803683370190505b509050600360fc1b81600081518110611c2857611c28611fec565b60200101906001600160f81b031916908160001a905350600f60fb1b81600181518110611c5757611c57611fec565b60200101906001600160f81b031916908160001a9053506000611c7b846002611f8d565b611c86906001611fc6565b90505b6001811115611cfe576f181899199a1a9b1b9c1cb0b131b232b360811b85600f1660108110611cba57611cba611fec565b1a60f81b828281518110611cd057611cd0611fec565b60200101906001600160f81b031916908160001a90535060049490941c93611cf7816121fb565b9050611c89565b508315610d1d5760405162461bcd60e51b815260206004820181905260248201527f537472696e67733a20686578206c656e67746820696e73756666696369656e7460448201526064016105ee565b80356001600160a01b0381168114610f8557600080fd5b60008060408385031215611d7757600080fd5b611d8083611d4d565b946020939093013593505050565b600060208284031215611da057600080fd5b5035919050565b600060208284031215611db957600080fd5b81356001600160e01b031981168114610d1d57600080fd5b60008060408385031215611de457600080fd5b50508035926020909101359150565b60008060408385031215611e0657600080fd5b82359150611e1660208401611d4d565b90509250929050565b600060208284031215611e3157600080fd5b610d1d82611d4d565b60008083601f840112611e4c57600080fd5b5081356001600160401b03811115611e6357600080fd5b6020830191508360208260051b8501011115611e7e57600080fd5b9250929050565b60008060008060408587031215611e9b57600080fd5b84356001600160401b0380821115611eb257600080fd5b611ebe88838901611e3a565b90965094506020870135915080821115611ed757600080fd5b50611ee487828801611e3a565b95989497509550505050565b600060208284031215611f0257600080fd5b5051919050565b6001600160401b03811681146112b357600080fd5b600060208284031215611f3057600080fd5b8151610d1d81611f09565b600060208284031215611f4d57600080fd5b815160ff81168114610d1d57600080fd5b634e487b7160e01b600052601160045260246000fd5b600060018201611f8657611f86611f5e565b5060010190565b80820281158282048414176108b6576108b6611f5e565b600082611fc157634e487b7160e01b600052601260045260246000fd5b500490565b808201808211156108b6576108b6611f5e565b818103818111156108b6576108b6611f5e565b634e487b7160e01b600052603260045260246000fd5b60006020828403121561201457600080fd5b8135610d1d81611f09565b81835260006001600160fb1b0383111561203857600080fd5b8260051b80836020870137939093016020019392505050565b60408152600061206560408301868861201f565b8281036020848101919091528482528591810160005b868110156120a957833561208e81611f09565b6001600160401b03168252928201929082019060010161207b565b5098975050505050505050565b6001600160401b038181168382160190808211156108b4576108b4611f5e565b6060815260006120ea60608301878961201f565b82810360208401526120fd81868861201f565b9150506001600160401b03831660408301529695505050505050565b60005b8381101561213457818101518382015260200161211c565b50506000910152565b7f416363657373436f6e74726f6c3a206163636f756e7420000000000000000000815260008351612175816017850160208801612119565b7001034b99036b4b9b9b4b733903937b6329607d1b60179184019182015283516121a6816028840160208801612119565b01602801949350505050565b60208152600082518060208401526121d1816040850160208701612119565b601f01601f19169190910160400192915050565b634e487b7160e01b600052604160045260246000fd5b60008161220a5761220a611f5e565b50600019019056fea26469706673582212203fde70047fcca9822d5817004462163af548b7930141b58a878f73ee145d508d64736f6c63430008110033","opcodes":"PUSH1 0x80 PUSH1 0x40 MSTORE CALLVALUE DUP1 ISZERO PUSH2 0x10 JUMPI PUSH1 0x0 DUP1 REVERT JUMPDEST POP PUSH2 0x2248 DUP1 PUSH2 0x20 PUSH1 0x0 CODECOPY PUSH1 0x0 RETURN INVALID PUSH1 0x80 PUSH1 0x40 MSTORE CALLVALUE DUP1 ISZERO PUSH2 0x10 JUMPI PUSH1 0x0 DUP1 REVERT JUMPDEST POP PUSH1 0x4 CALLDATASIZE LT PUSH2 0x225 JUMPI PUSH1 0x0 CALLDATALOAD PUSH1 0xE0 SHR DUP1 PUSH4 0x6A0CA6CD GT PUSH2 0x130 JUMPI DUP1 PUSH4 0x99E0677F GT PUSH2 0xB8 JUMPI DUP1 PUSH4 0xD547741F GT PUSH2 0x7C JUMPI DUP1 PUSH4 0xD547741F EQ PUSH2 0x533 JUMPI DUP1 PUSH4 0xE2B68327 EQ PUSH2 0x546 JUMPI DUP1 PUSH4 0xE8132B9F EQ PUSH2 0x559 JUMPI DUP1 PUSH4 0xE8D40747 EQ PUSH2 0x56C JUMPI DUP1 PUSH4 0xFC0C0C3B EQ PUSH2 0x574 JUMPI PUSH1 0x0 DUP1 REVERT JUMPDEST DUP1 PUSH4 0x99E0677F EQ PUSH2 0x4D3 JUMPI DUP1 PUSH4 0xA217FDDF EQ PUSH2 0x4E6 JUMPI DUP1 PUSH4 0xA5C61EDD EQ PUSH2 0x4EE JUMPI DUP1 PUSH4 0xB4F40C61 EQ PUSH2 0x517 JUMPI DUP1 PUSH4 0xD1F928C1 EQ PUSH2 0x520 JUMPI PUSH1 0x0 DUP1 REVERT JUMPDEST DUP1 PUSH4 0x79D7EC80 GT PUSH2 0xFF JUMPI DUP1 PUSH4 0x79D7EC80 EQ PUSH2 0x46B JUMPI DUP1 PUSH4 0x7ED57E0E EQ PUSH2 0x47E JUMPI DUP1 PUSH4 0x8129FC1C EQ PUSH2 0x4A5 JUMPI DUP1 PUSH4 0x91D14854 EQ PUSH2 0x4AD JUMPI DUP1 PUSH4 0x9981534E EQ PUSH2 0x4C0 JUMPI PUSH1 0x0 DUP1 REVERT JUMPDEST DUP1 PUSH4 0x6A0CA6CD EQ PUSH2 0x41B JUMPI DUP1 PUSH4 0x7123D615 EQ PUSH2 0x424 JUMPI DUP1 PUSH4 0x73FFF6C3 EQ PUSH2 0x44F JUMPI DUP1 PUSH4 0x78A13771 EQ PUSH2 0x462 JUMPI PUSH1 0x0 DUP1 REVERT JUMPDEST DUP1 PUSH4 0x2F2FF15D GT PUSH2 0x1B3 JUMPI DUP1 PUSH4 0x44D0EC07 GT PUSH2 0x182 JUMPI DUP1 PUSH4 0x44D0EC07 EQ PUSH2 0x3BC JUMPI DUP1 PUSH4 0x44D24220 EQ PUSH2 0x3CF JUMPI DUP1 PUSH4 0x5FAA12F1 EQ PUSH2 0x3D8 JUMPI DUP1 PUSH4 0x61B04AF9 EQ PUSH2 0x3FF JUMPI DUP1 PUSH4 0x695F1E12 EQ PUSH2 0x412 JUMPI PUSH1 0x0 DUP1 REVERT JUMPDEST DUP1 PUSH4 0x2F2FF15D EQ PUSH2 0x35A JUMPI DUP1 PUSH4 0x35E9B642 EQ PUSH2 0x36F JUMPI DUP1 PUSH4 0x36568ABE EQ PUSH2 0x396 JUMPI DUP1 PUSH4 0x3E59056E EQ PUSH2 0x3A9 JUMPI PUSH1 0x0 DUP1 REVERT JUMPDEST DUP1 PUSH4 0x11D5C6B5 GT PUSH2 0x1FA JUMPI DUP1 PUSH4 0x11D5C6B5 EQ PUSH2 0x299 JUMPI DUP1 PUSH4 0x1D3D5A8E EQ PUSH2 0x2BE JUMPI DUP1 PUSH4 0x1E48CB05 EQ PUSH2 0x2E9 JUMPI DUP1 PUSH4 0x248A9CA3 EQ PUSH2 0x310 JUMPI DUP1 PUSH4 0x26B211BA EQ PUSH2 0x333 JUMPI PUSH1 0x0 DUP1 REVERT JUMPDEST DUP1 PUSH3 0xFDD58E EQ PUSH2 0x22A JUMPI DUP1 PUSH3 0xFF2FB1 EQ PUSH2 0x250 JUMPI DUP1 PUSH4 0x1FFC9A7 EQ PUSH2 0x263 JUMPI DUP1 PUSH4 0xBE2740C EQ PUSH2 0x286 JUMPI JUMPDEST PUSH1 0x0 DUP1 REVERT JUMPDEST PUSH2 0x23D PUSH2 0x238 CALLDATASIZE PUSH1 0x4 PUSH2 0x1D64 JUMP JUMPDEST PUSH2 0x587 JUMP JUMPDEST PUSH1 0x40 MLOAD SWAP1 DUP2 MSTORE PUSH1 0x20 ADD JUMPDEST PUSH1 0x40 MLOAD DUP1 SWAP2 SUB SWAP1 RETURN JUMPDEST PUSH2 0x23D PUSH2 0x25E CALLDATASIZE PUSH1 0x4 PUSH2 0x1D8E JUMP JUMPDEST PUSH2 0x8BC JUMP JUMPDEST PUSH2 0x276 PUSH2 0x271 CALLDATASIZE PUSH1 0x4 PUSH2 0x1DA7 JUMP JUMPDEST PUSH2 0x947 JUMP JUMPDEST PUSH1 0x40 MLOAD SWAP1 ISZERO ISZERO DUP2 MSTORE PUSH1 0x20 ADD PUSH2 0x247 JUMP JUMPDEST PUSH2 0x23D PUSH2 0x294 CALLDATASIZE PUSH1 0x4 PUSH2 0x1D8E JUMP JUMPDEST PUSH2 0x97C JUMP JUMPDEST PUSH2 0x2AC PUSH2 0x2A7 CALLDATASIZE PUSH1 0x4 PUSH2 0x1D8E JUMP JUMPDEST PUSH2 0x9DF JUMP JUMPDEST PUSH1 0x40 MLOAD PUSH1 0xFF SWAP1 SWAP2 AND DUP2 MSTORE PUSH1 0x20 ADD PUSH2 0x247 JUMP JUMPDEST PUSH2 0x2D1 PUSH2 0x2CC CALLDATASIZE PUSH1 0x4 PUSH2 0x1DD1 JUMP JUMPDEST PUSH2 0xCAF JUMP JUMPDEST PUSH1 0x40 MLOAD PUSH1 0x1 PUSH1 0x1 PUSH1 0x40 SHL SUB SWAP1 SWAP2 AND DUP2 MSTORE PUSH1 0x20 ADD PUSH2 0x247 JUMP JUMPDEST PUSH2 0x23D PUSH32 0x299F144F9FEC4A25B043DE89E762AC3FD89FFB989A4690B198D22DD9EDBCBA4F DUP2 JUMP JUMPDEST PUSH2 0x23D PUSH2 0x31E CALLDATASIZE PUSH1 0x4 PUSH2 0x1D8E JUMP JUMPDEST PUSH1 0x0 SWAP1 DUP2 MSTORE PUSH1 0x65 PUSH1 0x20 MSTORE PUSH1 0x40 SWAP1 KECCAK256 PUSH1 0x1 ADD SLOAD SWAP1 JUMP JUMPDEST PUSH2 0x23D PUSH32 0x13257015EC9FD18A935274A54D2FE1C72530CCC6FF6AC7057C7D8A6900CECCBA DUP2 JUMP JUMPDEST PUSH2 0x36D PUSH2 0x368 CALLDATASIZE PUSH1 0x4 PUSH2 0x1DF3 JUMP JUMPDEST PUSH2 0xD24 JUMP JUMPDEST STOP JUMPDEST PUSH2 0x23D PUSH32 0x8D33451580CEC858E7EC47F2258A9A8EDDE6CDFD0CBBC2C2FB654DB03FBB2D8C DUP2 JUMP JUMPDEST PUSH2 0x36D PUSH2 0x3A4 CALLDATASIZE PUSH1 0x4 PUSH2 0x1DF3 JUMP JUMPDEST PUSH2 0xD4E JUMP JUMPDEST PUSH2 0x36D PUSH2 0x3B7 CALLDATASIZE PUSH1 0x4 PUSH2 0x1E1F JUMP JUMPDEST PUSH2 0xDCC JUMP JUMPDEST PUSH2 0x36D PUSH2 0x3CA CALLDATASIZE PUSH1 0x4 PUSH2 0x1E85 JUMP JUMPDEST PUSH2 0xE2B JUMP JUMPDEST PUSH2 0x23D PUSH1 0x99 SLOAD DUP2 JUMP JUMPDEST PUSH2 0x23D PUSH32 0x4504525B0855D643ED8C29C4D688FED6965FE228830D3A514B831E1E3FA65795 DUP2 JUMP JUMPDEST PUSH2 0x2D1 PUSH2 0x40D CALLDATASIZE PUSH1 0x4 PUSH2 0x1D8E JUMP JUMPDEST PUSH2 0xF2C JUMP JUMPDEST PUSH2 0x23D PUSH1 0x9C SLOAD DUP2 JUMP JUMPDEST PUSH2 0x23D PUSH1 0x98 SLOAD DUP2 JUMP JUMPDEST PUSH1 0x97 SLOAD PUSH2 0x437 SWAP1 PUSH1 0x1 PUSH1 0x1 PUSH1 0xA0 SHL SUB AND DUP2 JUMP JUMPDEST PUSH1 0x40 MLOAD PUSH1 0x1 PUSH1 0x1 PUSH1 0xA0 SHL SUB SWAP1 SWAP2 AND DUP2 MSTORE PUSH1 0x20 ADD PUSH2 0x247 JUMP JUMPDEST PUSH2 0x2D1 PUSH2 0x45D CALLDATASIZE PUSH1 0x4 PUSH2 0x1D8E JUMP JUMPDEST PUSH2 0xF8A JUMP JUMPDEST PUSH2 0x23D PUSH1 0x9A SLOAD DUP2 JUMP JUMPDEST PUSH2 0x36D PUSH2 0x479 CALLDATASIZE PUSH1 0x4 PUSH2 0x1E85 JUMP JUMPDEST PUSH2 0xFF1 JUMP JUMPDEST PUSH2 0x23D PUSH32 0x44699BFBA21D81C4FD420FBC1901C4BDAD6F62A68DAED7B424A78A2B147BC9DE DUP2 JUMP JUMPDEST PUSH2 0x36D PUSH2 0x1172 JUMP JUMPDEST PUSH2 0x276 PUSH2 0x4BB CALLDATASIZE PUSH1 0x4 PUSH2 0x1DF3 JUMP JUMPDEST PUSH2 0x12B6 JUMP JUMPDEST PUSH2 0x2D1 PUSH2 0x4CE CALLDATASIZE PUSH1 0x4 PUSH2 0x1D8E JUMP JUMPDEST PUSH2 0x12E1 JUMP JUMPDEST PUSH2 0x36D PUSH2 0x4E1 CALLDATASIZE PUSH1 0x4 PUSH2 0x1E85 JUMP JUMPDEST PUSH2 0x1486 JUMP JUMPDEST PUSH2 0x23D PUSH1 0x0 DUP2 JUMP JUMPDEST PUSH2 0x2D1 PUSH2 0x4FC CALLDATASIZE PUSH1 0x4 PUSH2 0x1D8E JUMP JUMPDEST PUSH1 0x0 SWAP1 DUP2 MSTORE PUSH1 0x9F PUSH1 0x20 MSTORE PUSH1 0x40 SWAP1 KECCAK256 SLOAD PUSH1 0x1 PUSH1 0x1 PUSH1 0x40 SHL SUB AND SWAP1 JUMP JUMPDEST PUSH2 0x23D PUSH1 0x9B SLOAD DUP2 JUMP JUMPDEST PUSH2 0x23D PUSH2 0x52E CALLDATASIZE PUSH1 0x4 PUSH2 0x1D8E JUMP JUMPDEST PUSH2 0x15CF JUMP JUMPDEST PUSH2 0x36D PUSH2 0x541 CALLDATASIZE PUSH1 0x4 PUSH2 0x1DF3 JUMP JUMPDEST PUSH2 0x1613 JUMP JUMPDEST PUSH2 0x36D PUSH2 0x554 CALLDATASIZE PUSH1 0x4 PUSH2 0x1E85 JUMP JUMPDEST PUSH2 0x1638 JUMP JUMPDEST PUSH2 0x2D1 PUSH2 0x567 CALLDATASIZE PUSH1 0x4 PUSH2 0x1D8E JUMP JUMPDEST PUSH2 0x1770 JUMP JUMPDEST PUSH2 0x23D PUSH2 0x17D9 JUMP JUMPDEST PUSH2 0x36D PUSH2 0x582 CALLDATASIZE PUSH1 0x4 PUSH2 0x1E85 JUMP JUMPDEST PUSH2 0x17EE JUMP JUMPDEST PUSH1 0x0 PUSH1 0x1 PUSH1 0x1 PUSH1 0xA0 SHL SUB DUP4 AND PUSH2 0x5F7 JUMPI PUSH1 0x40 MLOAD PUSH3 0x461BCD PUSH1 0xE5 SHL DUP2 MSTORE PUSH1 0x20 PUSH1 0x4 DUP3 ADD MSTORE PUSH1 0x2A PUSH1 0x24 DUP3 ADD MSTORE PUSH32 0x455243313135353A2061646472657373207A65726F206973206E6F7420612076 PUSH1 0x44 DUP3 ADD MSTORE PUSH10 0x30B634B21037BBB732B9 PUSH1 0xB1 SHL PUSH1 0x64 DUP3 ADD MSTORE PUSH1 0x84 ADD JUMPDEST PUSH1 0x40 MLOAD DUP1 SWAP2 SUB SWAP1 REVERT JUMPDEST PUSH1 0x97 SLOAD PUSH1 0x40 MLOAD PUSH4 0x2F745C59 PUSH1 0xE0 SHL DUP2 MSTORE PUSH1 0x1 PUSH1 0x1 PUSH1 0xA0 SHL SUB DUP6 DUP2 AND PUSH1 0x4 DUP4 ADD MSTORE PUSH1 0x0 PUSH1 0x24 DUP4 ADD MSTORE SWAP1 SWAP2 AND SWAP1 PUSH4 0x2F745C59 SWAP1 PUSH1 0x44 ADD PUSH1 0x20 PUSH1 0x40 MLOAD DUP1 DUP4 SUB DUP2 DUP7 GAS STATICCALL SWAP3 POP POP POP DUP1 ISZERO PUSH2 0x664 JUMPI POP PUSH1 0x40 DUP1 MLOAD PUSH1 0x1F RETURNDATASIZE SWAP1 DUP2 ADD PUSH1 0x1F NOT AND DUP3 ADD SWAP1 SWAP3 MSTORE PUSH2 0x661 SWAP2 DUP2 ADD SWAP1 PUSH2 0x1EF0 JUMP JUMPDEST PUSH1 0x1 JUMPDEST PUSH2 0x670 JUMPI POP PUSH1 0x0 PUSH2 0x8B6 JUMP JUMPDEST DUP3 PUSH1 0x0 SUB PUSH2 0x6E4 JUMPI PUSH1 0x40 MLOAD PUSH4 0x4CC0A9A7 PUSH1 0xE1 SHL DUP2 MSTORE PUSH1 0x4 DUP2 ADD DUP3 SWAP1 MSTORE ADDRESS SWAP1 PUSH4 0x9981534E SWAP1 PUSH1 0x24 ADD PUSH1 0x20 PUSH1 0x40 MLOAD DUP1 DUP4 SUB DUP2 DUP7 GAS STATICCALL ISZERO DUP1 ISZERO PUSH2 0x6B4 JUMPI RETURNDATASIZE PUSH1 0x0 DUP1 RETURNDATACOPY RETURNDATASIZE PUSH1 0x0 REVERT JUMPDEST POP POP POP POP PUSH1 0x40 MLOAD RETURNDATASIZE PUSH1 0x1F NOT PUSH1 0x1F DUP3 ADD AND DUP3 ADD DUP1 PUSH1 0x40 MSTORE POP DUP2 ADD SWAP1 PUSH2 0x6D8 SWAP2 SWAP1 PUSH2 0x1F1E JUMP JUMPDEST PUSH1 0x1 PUSH1 0x1 PUSH1 0x40 SHL SUB AND SWAP2 POP JUMPDEST DUP3 PUSH1 0x1 SUB PUSH2 0x75E JUMPI PUSH1 0x40 MLOAD PUSH4 0xE9EAD47 PUSH1 0xE1 SHL DUP2 MSTORE PUSH1 0x4 DUP2 ADD DUP3 SWAP1 MSTORE TIMESTAMP PUSH1 0x24 DUP3 ADD MSTORE ADDRESS SWAP1 PUSH4 0x1D3D5A8E SWAP1 PUSH1 0x44 ADD PUSH1 0x20 PUSH1 0x40 MLOAD DUP1 DUP4 SUB DUP2 DUP7 GAS STATICCALL ISZERO DUP1 ISZERO PUSH2 0x72E JUMPI RETURNDATASIZE PUSH1 0x0 DUP1 RETURNDATACOPY RETURNDATASIZE PUSH1 0x0 REVERT JUMPDEST POP POP POP POP PUSH1 0x40 MLOAD RETURNDATASIZE PUSH1 0x1F NOT PUSH1 0x1F DUP3 ADD AND DUP3 ADD DUP1 PUSH1 0x40 MSTORE POP DUP2 ADD SWAP1 PUSH2 0x752 SWAP2 SWAP1 PUSH2 0x1F1E JUMP JUMPDEST PUSH1 0x1 PUSH1 0x1 PUSH1 0x40 SHL SUB AND SWAP2 POP JUMPDEST DUP3 PUSH1 0x2 SUB PUSH2 0x7D2 JUMPI PUSH1 0x40 MLOAD PUSH4 0x73FFF6C3 PUSH1 0xE0 SHL DUP2 MSTORE PUSH1 0x4 DUP2 ADD DUP3 SWAP1 MSTORE ADDRESS SWAP1 PUSH4 0x73FFF6C3 SWAP1 PUSH1 0x24 ADD PUSH1 0x20 PUSH1 0x40 MLOAD DUP1 DUP4 SUB DUP2 DUP7 GAS STATICCALL ISZERO DUP1 ISZERO PUSH2 0x7A2 JUMPI RETURNDATASIZE PUSH1 0x0 DUP1 RETURNDATACOPY RETURNDATASIZE PUSH1 0x0 REVERT JUMPDEST POP POP POP POP PUSH1 0x40 MLOAD RETURNDATASIZE PUSH1 0x1F NOT PUSH1 0x1F DUP3 ADD AND DUP3 ADD DUP1 PUSH1 0x40 MSTORE POP DUP2 ADD SWAP1 PUSH2 0x7C6 SWAP2 SWAP1 PUSH2 0x1F1E JUMP JUMPDEST PUSH1 0x1 PUSH1 0x1 PUSH1 0x40 SHL SUB AND SWAP2 POP JUMPDEST DUP3 PUSH1 0x3 SUB PUSH2 0x846 JUMPI PUSH1 0x40 MLOAD PUSH4 0xA5C61EDD PUSH1 0xE0 SHL DUP2 MSTORE PUSH1 0x4 DUP2 ADD DUP3 SWAP1 MSTORE ADDRESS SWAP1 PUSH4 0xA5C61EDD SWAP1 PUSH1 0x24 ADD PUSH1 0x20 PUSH1 0x40 MLOAD DUP1 DUP4 SUB DUP2 DUP7 GAS STATICCALL ISZERO DUP1 ISZERO PUSH2 0x816 JUMPI RETURNDATASIZE PUSH1 0x0 DUP1 RETURNDATACOPY RETURNDATASIZE PUSH1 0x0 REVERT JUMPDEST POP POP POP POP PUSH1 0x40 MLOAD RETURNDATASIZE PUSH1 0x1F NOT PUSH1 0x1F DUP3 ADD AND DUP3 ADD DUP1 PUSH1 0x40 MSTORE POP DUP2 ADD SWAP1 PUSH2 0x83A SWAP2 SWAP1 PUSH2 0x1F1E JUMP JUMPDEST PUSH1 0x1 PUSH1 0x1 PUSH1 0x40 SHL SUB AND SWAP2 POP JUMPDEST DUP3 PUSH1 0x4 SUB PUSH2 0x8B4 JUMPI PUSH1 0x40 MLOAD PUSH4 0x11D5C6B5 PUSH1 0xE0 SHL DUP2 MSTORE PUSH1 0x4 DUP2 ADD DUP3 SWAP1 MSTORE ADDRESS SWAP1 PUSH4 0x11D5C6B5 SWAP1 PUSH1 0x24 ADD PUSH1 0x20 PUSH1 0x40 MLOAD DUP1 DUP4 SUB DUP2 DUP7 GAS STATICCALL ISZERO DUP1 ISZERO PUSH2 0x88A JUMPI RETURNDATASIZE PUSH1 0x0 DUP1 RETURNDATACOPY RETURNDATASIZE PUSH1 0x0 REVERT JUMPDEST POP POP POP POP PUSH1 0x40 MLOAD RETURNDATASIZE PUSH1 0x1F NOT PUSH1 0x1F DUP3 ADD AND DUP3 ADD DUP1 PUSH1 0x40 MSTORE POP DUP2 ADD SWAP1 PUSH2 0x8AE SWAP2 SWAP1 PUSH2 0x1F3B JUMP JUMPDEST PUSH1 0xFF AND SWAP2 POP JUMPDEST POP JUMPDEST SWAP3 SWAP2 POP POP JUMP JUMPDEST PUSH1 0x0 DUP1 JUMPDEST PUSH1 0xFF DUP2 LT ISZERO PUSH2 0x8FE JUMPI PUSH1 0x1 DUP4 SWAP1 SHR SWAP3 POP DUP3 PUSH1 0x0 SUB PUSH2 0x8DE JUMPI POP SWAP2 SWAP1 POP JUMP JUMPDEST DUP2 PUSH2 0x8E8 DUP2 PUSH2 0x1F74 JUMP JUMPDEST SWAP3 POP POP DUP1 DUP1 PUSH2 0x8F6 SWAP1 PUSH2 0x1F74 JUMP JUMPDEST SWAP2 POP POP PUSH2 0x8C0 JUMP JUMPDEST POP PUSH1 0x40 MLOAD PUSH3 0x461BCD PUSH1 0xE5 SHL DUP2 MSTORE PUSH1 0x20 PUSH1 0x4 DUP3 ADD MSTORE PUSH1 0x18 PUSH1 0x24 DUP3 ADD MSTORE PUSH32 0x6C6F675F32206D6178206C6F6F70732065786365656465640000000000000000 PUSH1 0x44 DUP3 ADD MSTORE PUSH1 0x64 ADD PUSH2 0x5EE JUMP JUMPDEST PUSH1 0x0 PUSH1 0x1 PUSH1 0x1 PUSH1 0xE0 SHL SUB NOT DUP3 AND PUSH4 0x7965DB0B PUSH1 0xE0 SHL EQ DUP1 PUSH2 0x8B6 JUMPI POP PUSH4 0x1FFC9A7 PUSH1 0xE0 SHL PUSH1 0x1 PUSH1 0x1 PUSH1 0xE0 SHL SUB NOT DUP4 AND EQ PUSH2 0x8B6 JUMP JUMPDEST PUSH1 0x0 PUSH2 0x3E8 PUSH8 0xDE0B6B3A7640000 PUSH2 0x996 DUP5 PUSH2 0x202 PUSH2 0x1F8D JUMP JUMPDEST PUSH2 0x9A0 SWAP2 SWAP1 PUSH2 0x1FA4 JUMP JUMPDEST PUSH2 0x9AA SWAP2 SWAP1 PUSH2 0x1FA4 JUMP JUMPDEST PUSH2 0x9CA PUSH2 0x9BF PUSH8 0xDE0B6B3A7640000 DUP6 PUSH2 0x1FA4 JUMP JUMPDEST PUSH2 0x25E SWAP1 PUSH1 0x1 PUSH2 0x1FC6 JUMP JUMPDEST PUSH2 0x9D5 SWAP1 PUSH1 0xFA PUSH2 0x1F8D JUMP JUMPDEST PUSH2 0x8B6 SWAP2 SWAP1 PUSH2 0x1FC6 JUMP JUMPDEST PUSH1 0x0 PUSH2 0x9EB PUSH1 0x5 PUSH2 0xF2C JUMP JUMPDEST PUSH1 0x40 MLOAD PUSH4 0x4CC0A9A7 PUSH1 0xE1 SHL DUP2 MSTORE PUSH1 0x4 DUP2 ADD DUP5 SWAP1 MSTORE PUSH1 0x1 PUSH1 0x1 PUSH1 0x40 SHL SUB SWAP2 SWAP1 SWAP2 AND SWAP1 ADDRESS SWAP1 PUSH4 0x9981534E SWAP1 PUSH1 0x24 ADD PUSH1 0x20 PUSH1 0x40 MLOAD DUP1 DUP4 SUB DUP2 DUP7 GAS STATICCALL ISZERO DUP1 ISZERO PUSH2 0xA34 JUMPI RETURNDATASIZE PUSH1 0x0 DUP1 RETURNDATACOPY RETURNDATASIZE PUSH1 0x0 REVERT JUMPDEST POP POP POP POP PUSH1 0x40 MLOAD RETURNDATASIZE PUSH1 0x1F NOT PUSH1 0x1F DUP3 ADD AND DUP3 ADD DUP1 PUSH1 0x40 MSTORE POP DUP2 ADD SWAP1 PUSH2 0xA58 SWAP2 SWAP1 PUSH2 0x1F1E JUMP JUMPDEST PUSH1 0x1 PUSH1 0x1 PUSH1 0x40 SHL SUB AND GT ISZERO PUSH2 0xA6F JUMPI POP PUSH1 0x5 SWAP2 SWAP1 POP JUMP JUMPDEST PUSH2 0xA79 PUSH1 0x4 PUSH2 0xF2C JUMP JUMPDEST PUSH1 0x40 MLOAD PUSH4 0x4CC0A9A7 PUSH1 0xE1 SHL DUP2 MSTORE PUSH1 0x4 DUP2 ADD DUP5 SWAP1 MSTORE PUSH1 0x1 PUSH1 0x1 PUSH1 0x40 SHL SUB SWAP2 SWAP1 SWAP2 AND SWAP1 ADDRESS SWAP1 PUSH4 0x9981534E SWAP1 PUSH1 0x24 ADD PUSH1 0x20 PUSH1 0x40 MLOAD DUP1 DUP4 SUB DUP2 DUP7 GAS STATICCALL ISZERO DUP1 ISZERO PUSH2 0xAC2 JUMPI RETURNDATASIZE PUSH1 0x0 DUP1 RETURNDATACOPY RETURNDATASIZE PUSH1 0x0 REVERT JUMPDEST POP POP POP POP PUSH1 0x40 MLOAD RETURNDATASIZE PUSH1 0x1F NOT PUSH1 0x1F DUP3 ADD AND DUP3 ADD DUP1 PUSH1 0x40 MSTORE POP DUP2 ADD SWAP1 PUSH2 0xAE6 SWAP2 SWAP1 PUSH2 0x1F1E JUMP JUMPDEST PUSH1 0x1 PUSH1 0x1 PUSH1 0x40 SHL SUB AND GT ISZERO PUSH2 0xAFD JUMPI POP PUSH1 0x4 SWAP2 SWAP1 POP JUMP JUMPDEST PUSH2 0xB07 PUSH1 0x3 PUSH2 0xF2C JUMP JUMPDEST PUSH1 0x40 MLOAD PUSH4 0x4CC0A9A7 PUSH1 0xE1 SHL DUP2 MSTORE PUSH1 0x4 DUP2 ADD DUP5 SWAP1 MSTORE PUSH1 0x1 PUSH1 0x1 PUSH1 0x40 SHL SUB SWAP2 SWAP1 SWAP2 AND SWAP1 ADDRESS SWAP1 PUSH4 0x9981534E SWAP1 PUSH1 0x24 ADD PUSH1 0x20 PUSH1 0x40 MLOAD DUP1 DUP4 SUB DUP2 DUP7 GAS STATICCALL ISZERO DUP1 ISZERO PUSH2 0xB50 JUMPI RETURNDATASIZE PUSH1 0x0 DUP1 RETURNDATACOPY RETURNDATASIZE PUSH1 0x0 REVERT JUMPDEST POP POP POP POP PUSH1 0x40 MLOAD RETURNDATASIZE PUSH1 0x1F NOT PUSH1 0x1F DUP3 ADD AND DUP3 ADD DUP1 PUSH1 0x40 MSTORE POP DUP2 ADD SWAP1 PUSH2 0xB74 SWAP2 SWAP1 PUSH2 0x1F1E JUMP JUMPDEST PUSH1 0x1 PUSH1 0x1 PUSH1 0x40 SHL SUB AND GT ISZERO PUSH2 0xB8B JUMPI POP PUSH1 0x3 SWAP2 SWAP1 POP JUMP JUMPDEST PUSH2 0xB95 PUSH1 0x2 PUSH2 0xF2C JUMP JUMPDEST PUSH1 0x40 MLOAD PUSH4 0x4CC0A9A7 PUSH1 0xE1 SHL DUP2 MSTORE PUSH1 0x4 DUP2 ADD DUP5 SWAP1 MSTORE PUSH1 0x1 PUSH1 0x1 PUSH1 0x40 SHL SUB SWAP2 SWAP1 SWAP2 AND SWAP1 ADDRESS SWAP1 PUSH4 0x9981534E SWAP1 PUSH1 0x24 ADD PUSH1 0x20 PUSH1 0x40 MLOAD DUP1 DUP4 SUB DUP2 DUP7 GAS STATICCALL ISZERO DUP1 ISZERO PUSH2 0xBDE JUMPI RETURNDATASIZE PUSH1 0x0 DUP1 RETURNDATACOPY RETURNDATASIZE PUSH1 0x0 REVERT JUMPDEST POP POP POP POP PUSH1 0x40 MLOAD RETURNDATASIZE PUSH1 0x1F NOT PUSH1 0x1F DUP3 ADD AND DUP3 ADD DUP1 PUSH1 0x40 MSTORE POP DUP2 ADD SWAP1 PUSH2 0xC02 SWAP2 SWAP1 PUSH2 0x1F1E JUMP JUMPDEST PUSH1 0x1 PUSH1 0x1 PUSH1 0x40 SHL SUB AND GT ISZERO PUSH2 0xC19 JUMPI POP PUSH1 0x2 SWAP2 SWAP1 POP JUMP JUMPDEST PUSH2 0xC23 PUSH1 0x1 PUSH2 0xF2C JUMP JUMPDEST PUSH1 0x40 MLOAD PUSH4 0x4CC0A9A7 PUSH1 0xE1 SHL DUP2 MSTORE PUSH1 0x4 DUP2 ADD DUP5 SWAP1 MSTORE PUSH1 0x1 PUSH1 0x1 PUSH1 0x40 SHL SUB SWAP2 SWAP1 SWAP2 AND SWAP1 ADDRESS SWAP1 PUSH4 0x9981534E SWAP1 PUSH1 0x24 ADD PUSH1 0x20 PUSH1 0x40 MLOAD DUP1 DUP4 SUB DUP2 DUP7 GAS STATICCALL ISZERO DUP1 ISZERO PUSH2 0xC6C JUMPI RETURNDATASIZE PUSH1 0x0 DUP1 RETURNDATACOPY RETURNDATASIZE PUSH1 0x0 REVERT JUMPDEST POP POP POP POP PUSH1 0x40 MLOAD RETURNDATASIZE PUSH1 0x1F NOT PUSH1 0x1F DUP3 ADD AND DUP3 ADD DUP1 PUSH1 0x40 MSTORE POP DUP2 ADD SWAP1 PUSH2 0xC90 SWAP2 SWAP1 PUSH2 0x1F1E JUMP JUMPDEST PUSH1 0x1 PUSH1 0x1 PUSH1 0x40 SHL SUB AND GT ISZERO PUSH2 0xCA7 JUMPI POP PUSH1 0x1 SWAP2 SWAP1 POP JUMP JUMPDEST POP PUSH1 0x0 SWAP2 SWAP1 POP JUMP JUMPDEST PUSH1 0x9B SLOAD PUSH1 0x0 DUP4 DUP2 MSTORE PUSH1 0x9D PUSH1 0x20 MSTORE PUSH1 0x40 DUP2 KECCAK256 SLOAD SWAP1 SWAP2 PUSH3 0xF4240 SWAP2 PUSH2 0xCE7 SWAP1 PUSH9 0x10000000000000000 SWAP1 DIV PUSH1 0x1 PUSH1 0x1 PUSH1 0x40 SHL SUB AND DUP6 PUSH2 0x1FD9 JUMP JUMPDEST PUSH2 0xCF1 SWAP2 SWAP1 PUSH2 0x1F8D JUMP JUMPDEST PUSH2 0xCFB SWAP2 SWAP1 PUSH2 0x1FA4 JUMP JUMPDEST PUSH1 0x0 DUP5 DUP2 MSTORE PUSH1 0x9D PUSH1 0x20 MSTORE PUSH1 0x40 SWAP1 KECCAK256 SLOAD PUSH2 0xD1D SWAP2 SWAP1 PUSH1 0x1 PUSH1 0x1 PUSH1 0x40 SHL SUB AND PUSH2 0x1FD9 JUMP JUMPDEST SWAP4 SWAP3 POP POP POP JUMP JUMPDEST PUSH1 0x0 DUP3 DUP2 MSTORE PUSH1 0x65 PUSH1 0x20 MSTORE PUSH1 0x40 SWAP1 KECCAK256 PUSH1 0x1 ADD SLOAD PUSH2 0xD3F DUP2 PUSH2 0x19CE JUMP JUMPDEST PUSH2 0xD49 DUP4 DUP4 PUSH2 0x19D8 JUMP JUMPDEST POP POP POP JUMP JUMPDEST PUSH1 0x1 PUSH1 0x1 PUSH1 0xA0 SHL SUB DUP2 AND CALLER EQ PUSH2 0xDBE JUMPI PUSH1 0x40 MLOAD PUSH3 0x461BCD PUSH1 0xE5 SHL DUP2 MSTORE PUSH1 0x20 PUSH1 0x4 DUP3 ADD MSTORE PUSH1 0x2F PUSH1 0x24 DUP3 ADD MSTORE PUSH32 0x416363657373436F6E74726F6C3A2063616E206F6E6C792072656E6F756E6365 PUSH1 0x44 DUP3 ADD MSTORE PUSH15 0x103937B632B9903337B91039B2B633 PUSH1 0x89 SHL PUSH1 0x64 DUP3 ADD MSTORE PUSH1 0x84 ADD PUSH2 0x5EE JUMP JUMPDEST PUSH2 0xDC8 DUP3 DUP3 PUSH2 0x1A5E JUMP JUMPDEST POP POP JUMP JUMPDEST PUSH2 0xDD6 PUSH1 0x0 PUSH2 0x19CE JUMP JUMPDEST PUSH1 0x97 DUP1 SLOAD PUSH1 0x1 PUSH1 0x1 PUSH1 0xA0 SHL SUB NOT AND PUSH1 0x1 PUSH1 0x1 PUSH1 0xA0 SHL SUB DUP4 AND SWAP1 DUP2 OR SWAP1 SWAP2 SSTORE PUSH1 0x40 MLOAD SWAP1 DUP2 MSTORE PUSH32 0xB82EEC350D17375F213CA81CE6D611CC6AEEA4681B53A236B77C0B0894A6A739 SWAP1 PUSH1 0x20 ADD JUMPDEST PUSH1 0x40 MLOAD DUP1 SWAP2 SUB SWAP1 LOG1 POP JUMP JUMPDEST PUSH2 0xE54 PUSH32 0x44699BFBA21D81C4FD420FBC1901C4BDAD6F62A68DAED7B424A78A2B147BC9DE PUSH2 0x19CE JUMP JUMPDEST PUSH1 0x0 JUMPDEST DUP4 DUP2 LT ISZERO PUSH2 0xEE8 JUMPI DUP3 DUP3 DUP3 DUP2 DUP2 LT PUSH2 0xE71 JUMPI PUSH2 0xE71 PUSH2 0x1FEC JUMP JUMPDEST SWAP1 POP PUSH1 0x20 MUL ADD PUSH1 0x20 DUP2 ADD SWAP1 PUSH2 0xE86 SWAP2 SWAP1 PUSH2 0x2002 JUMP JUMPDEST PUSH1 0x9F PUSH1 0x0 DUP8 DUP8 DUP6 DUP2 DUP2 LT PUSH2 0xE9C JUMPI PUSH2 0xE9C PUSH2 0x1FEC JUMP JUMPDEST SWAP1 POP PUSH1 0x20 MUL ADD CALLDATALOAD DUP2 MSTORE PUSH1 0x20 ADD SWAP1 DUP2 MSTORE PUSH1 0x20 ADD PUSH1 0x0 KECCAK256 PUSH1 0x0 PUSH2 0x100 EXP DUP2 SLOAD DUP2 PUSH1 0x1 PUSH1 0x1 PUSH1 0x40 SHL SUB MUL NOT AND SWAP1 DUP4 PUSH1 0x1 PUSH1 0x1 PUSH1 0x40 SHL SUB AND MUL OR SWAP1 SSTORE POP DUP1 DUP1 PUSH2 0xEE0 SWAP1 PUSH2 0x1F74 JUMP JUMPDEST SWAP2 POP POP PUSH2 0xE57 JUMP JUMPDEST POP PUSH32 0x69496C664FCA1828F78BA3E13A2DE0B6863CAD43D6DFA7BD51B6DD283D1621B DUP5 DUP5 DUP5 DUP5 PUSH1 0x40 MLOAD PUSH2 0xF1E SWAP5 SWAP4 SWAP3 SWAP2 SWAP1 PUSH2 0x2051 JUMP JUMPDEST PUSH1 0x40 MLOAD DUP1 SWAP2 SUB SWAP1 LOG1 POP POP POP POP JUMP JUMPDEST PUSH1 0x0 DUP2 PUSH1 0x5 SUB PUSH2 0xF40 JUMPI POP PUSH3 0x30D40 SWAP2 SWAP1 POP JUMP JUMPDEST DUP2 PUSH1 0x4 SUB PUSH2 0xF52 JUMPI POP PUSH3 0x186A0 SWAP2 SWAP1 POP JUMP JUMPDEST DUP2 PUSH1 0x3 SUB PUSH2 0xF63 JUMPI POP PUSH2 0x7530 SWAP2 SWAP1 POP JUMP JUMPDEST DUP2 PUSH1 0x2 SUB PUSH2 0xF74 JUMPI POP PUSH2 0x1388 SWAP2 SWAP1 POP JUMP JUMPDEST DUP2 PUSH1 0x1 SUB PUSH2 0xF85 JUMPI POP PUSH2 0x3E8 SWAP2 SWAP1 POP JUMP JUMPDEST SWAP2 SWAP1 POP JUMP JUMPDEST PUSH1 0x40 MLOAD PUSH4 0xD1F928C1 PUSH1 0xE0 SHL DUP2 MSTORE PUSH1 0x4 DUP2 ADD DUP3 SWAP1 MSTORE PUSH1 0x0 SWAP1 PUSH2 0x8B6 SWAP1 ADDRESS SWAP1 PUSH4 0xD1F928C1 SWAP1 PUSH1 0x24 ADD PUSH1 0x20 PUSH1 0x40 MLOAD DUP1 DUP4 SUB DUP2 DUP7 GAS STATICCALL ISZERO DUP1 ISZERO PUSH2 0xFCD JUMPI RETURNDATASIZE PUSH1 0x0 DUP1 RETURNDATACOPY RETURNDATASIZE PUSH1 0x0 REVERT JUMPDEST POP POP POP POP PUSH1 0x40 MLOAD RETURNDATASIZE PUSH1 0x1F NOT PUSH1 0x1F DUP3 ADD AND DUP3 ADD DUP1 PUSH1 0x40 MSTORE POP DUP2 ADD SWAP1 PUSH2 0x294 SWAP2 SWAP1 PUSH2 0x1EF0 JUMP JUMPDEST PUSH2 0x101A PUSH32 0x13257015EC9FD18A935274A54D2FE1C72530CCC6FF6AC7057C7D8A6900CECCBA PUSH2 0x19CE JUMP JUMPDEST PUSH1 0x0 JUMPDEST DUP4 DUP2 LT ISZERO PUSH2 0x113C JUMPI PUSH1 0x0 DUP4 DUP4 DUP4 DUP2 DUP2 LT PUSH2 0x1039 JUMPI PUSH2 0x1039 PUSH2 0x1FEC JUMP JUMPDEST SWAP1 POP PUSH1 0x20 MUL ADD PUSH1 0x20 DUP2 ADD SWAP1 PUSH2 0x104E SWAP2 SWAP1 PUSH2 0x2002 JUMP JUMPDEST ADDRESS PUSH4 0xA5C61EDD DUP9 DUP9 DUP7 DUP2 DUP2 LT PUSH2 0x1066 JUMPI PUSH2 0x1066 PUSH2 0x1FEC JUMP JUMPDEST SWAP1 POP PUSH1 0x20 MUL ADD CALLDATALOAD PUSH1 0x40 MLOAD DUP3 PUSH4 0xFFFFFFFF AND PUSH1 0xE0 SHL DUP2 MSTORE PUSH1 0x4 ADD PUSH2 0x108B SWAP2 DUP2 MSTORE PUSH1 0x20 ADD SWAP1 JUMP JUMPDEST PUSH1 0x20 PUSH1 0x40 MLOAD DUP1 DUP4 SUB DUP2 DUP7 GAS STATICCALL ISZERO DUP1 ISZERO PUSH2 0x10A8 JUMPI RETURNDATASIZE PUSH1 0x0 DUP1 RETURNDATACOPY RETURNDATASIZE PUSH1 0x0 REVERT JUMPDEST POP POP POP POP PUSH1 0x40 MLOAD RETURNDATASIZE PUSH1 0x1F NOT PUSH1 0x1F DUP3 ADD AND DUP3 ADD DUP1 PUSH1 0x40 MSTORE POP DUP2 ADD SWAP1 PUSH2 0x10CC SWAP2 SWAP1 PUSH2 0x1F1E JUMP JUMPDEST PUSH2 0x10D6 SWAP2 SWAP1 PUSH2 0x20B6 JUMP JUMPDEST SWAP1 POP DUP1 PUSH1 0x9F PUSH1 0x0 DUP9 DUP9 DUP7 DUP2 DUP2 LT PUSH2 0x10EF JUMPI PUSH2 0x10EF PUSH2 0x1FEC JUMP JUMPDEST SWAP1 POP PUSH1 0x20 MUL ADD CALLDATALOAD DUP2 MSTORE PUSH1 0x20 ADD SWAP1 DUP2 MSTORE PUSH1 0x20 ADD PUSH1 0x0 KECCAK256 PUSH1 0x0 PUSH2 0x100 EXP DUP2 SLOAD DUP2 PUSH1 0x1 PUSH1 0x1 PUSH1 0x40 SHL SUB MUL NOT AND SWAP1 DUP4 PUSH1 0x1 PUSH1 0x1 PUSH1 0x40 SHL SUB AND MUL OR SWAP1 SSTORE POP POP DUP1 DUP1 PUSH2 0x1134 SWAP1 PUSH2 0x1F74 JUMP JUMPDEST SWAP2 POP POP PUSH2 0x101D JUMP JUMPDEST POP PUSH32 0x776C5A775BF38012BEC2C88238B7F07A97663344C85AFC40ED7D45EF24720BFA DUP5 DUP5 DUP5 DUP5 PUSH1 0x40 MLOAD PUSH2 0xF1E SWAP5 SWAP4 SWAP3 SWAP2 SWAP1 PUSH2 0x2051 JUMP JUMPDEST PUSH1 0x0 SLOAD PUSH2 0x100 SWAP1 DIV PUSH1 0xFF AND ISZERO DUP1 DUP1 ISZERO PUSH2 0x1192 JUMPI POP PUSH1 0x0 SLOAD PUSH1 0x1 PUSH1 0xFF SWAP1 SWAP2 AND LT JUMPDEST DUP1 PUSH2 0x11AC JUMPI POP ADDRESS EXTCODESIZE ISZERO DUP1 ISZERO PUSH2 0x11AC JUMPI POP PUSH1 0x0 SLOAD PUSH1 0xFF AND PUSH1 0x1 EQ JUMPDEST PUSH2 0x120F JUMPI PUSH1 0x40 MLOAD PUSH3 0x461BCD PUSH1 0xE5 SHL DUP2 MSTORE PUSH1 0x20 PUSH1 0x4 DUP3 ADD MSTORE PUSH1 0x2E PUSH1 0x24 DUP3 ADD MSTORE PUSH32 0x496E697469616C697A61626C653A20636F6E747261637420697320616C726561 PUSH1 0x44 DUP3 ADD MSTORE PUSH14 0x191E481A5B9A5D1A585B1A5E9959 PUSH1 0x92 SHL PUSH1 0x64 DUP3 ADD MSTORE PUSH1 0x84 ADD PUSH2 0x5EE JUMP JUMPDEST PUSH1 0x0 DUP1 SLOAD PUSH1 0xFF NOT AND PUSH1 0x1 OR SWAP1 SSTORE DUP1 ISZERO PUSH2 0x1232 JUMPI PUSH1 0x0 DUP1 SLOAD PUSH2 0xFF00 NOT AND PUSH2 0x100 OR SWAP1 SSTORE JUMPDEST PUSH2 0x123A PUSH2 0x1AC5 JUMP JUMPDEST PUSH2 0x1242 PUSH2 0x1AC5 JUMP JUMPDEST PUSH2 0x124A PUSH2 0x1B32 JUMP JUMPDEST PUSH2 0x1265 PUSH2 0x258 PUSH1 0x98 SSTORE PUSH2 0x12C PUSH1 0x99 SSTORE PUSH1 0x64 PUSH1 0x9A SSTORE PUSH1 0x0 PUSH1 0x9B SSTORE JUMP JUMPDEST PUSH2 0x1271 PUSH3 0x6EBE00 PUSH1 0x9C SSTORE JUMP JUMPDEST DUP1 ISZERO PUSH2 0x12B3 JUMPI PUSH1 0x0 DUP1 SLOAD PUSH2 0xFF00 NOT AND SWAP1 SSTORE PUSH1 0x40 MLOAD PUSH1 0x1 DUP2 MSTORE PUSH32 0x7F26B83FF96E1F2B6A682F133852F6798A09C465DA95921460CEFB3847402498 SWAP1 PUSH1 0x20 ADD PUSH2 0xE20 JUMP JUMPDEST POP JUMP JUMPDEST PUSH1 0x0 SWAP2 DUP3 MSTORE PUSH1 0x65 PUSH1 0x20 SWAP1 DUP2 MSTORE PUSH1 0x40 DUP1 DUP5 KECCAK256 PUSH1 0x1 PUSH1 0x1 PUSH1 0xA0 SHL SUB SWAP4 SWAP1 SWAP4 AND DUP5 MSTORE SWAP2 SWAP1 MSTORE SWAP1 KECCAK256 SLOAD PUSH1 0xFF AND SWAP1 JUMP JUMPDEST PUSH1 0x0 PUSH1 0x9A SLOAD PUSH1 0x99 SLOAD PUSH1 0x98 SLOAD PUSH2 0x12F6 SWAP2 SWAP1 PUSH2 0x1FC6 JUMP JUMPDEST PUSH2 0x1300 SWAP2 SWAP1 PUSH2 0x1FC6 JUMP JUMPDEST PUSH1 0x9A SLOAD PUSH1 0x40 MLOAD PUSH4 0xA5C61EDD PUSH1 0xE0 SHL DUP2 MSTORE PUSH1 0x4 DUP2 ADD DUP6 SWAP1 MSTORE ADDRESS SWAP1 PUSH4 0xA5C61EDD SWAP1 PUSH1 0x24 ADD PUSH1 0x20 PUSH1 0x40 MLOAD DUP1 DUP4 SUB DUP2 DUP7 GAS STATICCALL ISZERO DUP1 ISZERO PUSH2 0x133F JUMPI RETURNDATASIZE PUSH1 0x0 DUP1 RETURNDATACOPY RETURNDATASIZE PUSH1 0x0 REVERT JUMPDEST POP POP POP POP PUSH1 0x40 MLOAD RETURNDATASIZE PUSH1 0x1F NOT PUSH1 0x1F DUP3 ADD AND DUP3 ADD DUP1 PUSH1 0x40 MSTORE POP DUP2 ADD SWAP1 PUSH2 0x1363 SWAP2 SWAP1 PUSH2 0x1F1E JUMP JUMPDEST PUSH1 0x1 PUSH1 0x1 PUSH1 0x40 SHL SUB AND PUSH2 0x1376 SWAP2 SWAP1 PUSH2 0x1F8D JUMP JUMPDEST PUSH1 0x99 SLOAD PUSH1 0x40 MLOAD PUSH4 0x73FFF6C3 PUSH1 0xE0 SHL DUP2 MSTORE PUSH1 0x4 DUP2 ADD DUP7 SWAP1 MSTORE ADDRESS SWAP1 PUSH4 0x73FFF6C3 SWAP1 PUSH1 0x24 ADD PUSH1 0x20 PUSH1 0x40 MLOAD DUP1 DUP4 SUB DUP2 DUP7 GAS STATICCALL ISZERO DUP1 ISZERO PUSH2 0x13B5 JUMPI RETURNDATASIZE PUSH1 0x0 DUP1 RETURNDATACOPY RETURNDATASIZE PUSH1 0x0 REVERT JUMPDEST POP POP POP POP PUSH1 0x40 MLOAD RETURNDATASIZE PUSH1 0x1F NOT PUSH1 0x1F DUP3 ADD AND DUP3 ADD DUP1 PUSH1 0x40 MSTORE POP DUP2 ADD SWAP1 PUSH2 0x13D9 SWAP2 SWAP1 PUSH2 0x1F1E JUMP JUMPDEST PUSH1 0x1 PUSH1 0x1 PUSH1 0x40 SHL SUB AND PUSH2 0x13EC SWAP2 SWAP1 PUSH2 0x1F8D JUMP JUMPDEST PUSH1 0x98 SLOAD PUSH1 0x40 MLOAD PUSH4 0xE9EAD47 PUSH1 0xE1 SHL DUP2 MSTORE PUSH1 0x4 DUP2 ADD DUP8 SWAP1 MSTORE TIMESTAMP PUSH1 0x24 DUP3 ADD MSTORE ADDRESS SWAP1 PUSH4 0x1D3D5A8E SWAP1 PUSH1 0x44 ADD PUSH1 0x20 PUSH1 0x40 MLOAD DUP1 DUP4 SUB DUP2 DUP7 GAS STATICCALL ISZERO DUP1 ISZERO PUSH2 0x1431 JUMPI RETURNDATASIZE PUSH1 0x0 DUP1 RETURNDATACOPY RETURNDATASIZE PUSH1 0x0 REVERT JUMPDEST POP POP POP POP PUSH1 0x40 MLOAD RETURNDATASIZE PUSH1 0x1F NOT PUSH1 0x1F DUP3 ADD AND DUP3 ADD DUP1 PUSH1 0x40 MSTORE POP DUP2 ADD SWAP1 PUSH2 0x1455 SWAP2 SWAP1 PUSH2 0x1F1E JUMP JUMPDEST PUSH1 0x1 PUSH1 0x1 PUSH1 0x40 SHL SUB AND PUSH2 0x1468 SWAP2 SWAP1 PUSH2 0x1F8D JUMP JUMPDEST PUSH2 0x1472 SWAP2 SWAP1 PUSH2 0x1FC6 JUMP JUMPDEST PUSH2 0x147C SWAP2 SWAP1 PUSH2 0x1FC6 JUMP JUMPDEST PUSH2 0x8B6 SWAP2 SWAP1 PUSH2 0x1FA4 JUMP JUMPDEST PUSH2 0x14AF PUSH32 0x4504525B0855D643ED8C29C4D688FED6965FE228830D3A514B831E1E3FA65795 PUSH2 0x19CE JUMP JUMPDEST PUSH1 0x0 JUMPDEST DUP4 DUP2 LT ISZERO PUSH2 0x1599 JUMPI DUP3 DUP3 DUP3 DUP2 DUP2 LT PUSH2 0x14CC JUMPI PUSH2 0x14CC PUSH2 0x1FEC JUMP JUMPDEST SWAP1 POP PUSH1 0x20 MUL ADD PUSH1 0x20 DUP2 ADD SWAP1 PUSH2 0x14E1 SWAP2 SWAP1 PUSH2 0x2002 JUMP JUMPDEST PUSH1 0x9D PUSH1 0x0 DUP8 DUP8 DUP6 DUP2 DUP2 LT PUSH2 0x14F7 JUMPI PUSH2 0x14F7 PUSH2 0x1FEC JUMP JUMPDEST SWAP1 POP PUSH1 0x20 MUL ADD CALLDATALOAD DUP2 MSTORE PUSH1 0x20 ADD SWAP1 DUP2 MSTORE PUSH1 0x20 ADD PUSH1 0x0 KECCAK256 PUSH1 0x0 ADD PUSH1 0x0 PUSH2 0x100 EXP DUP2 SLOAD DUP2 PUSH1 0x1 PUSH1 0x1 PUSH1 0x40 SHL SUB MUL NOT AND SWAP1 DUP4 PUSH1 0x1 PUSH1 0x1 PUSH1 0x40 SHL SUB AND MUL OR SWAP1 SSTORE POP TIMESTAMP PUSH1 0x9D PUSH1 0x0 DUP8 DUP8 DUP6 DUP2 DUP2 LT PUSH2 0x154A JUMPI PUSH2 0x154A PUSH2 0x1FEC JUMP JUMPDEST SWAP1 POP PUSH1 0x20 MUL ADD CALLDATALOAD DUP2 MSTORE PUSH1 0x20 ADD SWAP1 DUP2 MSTORE PUSH1 0x20 ADD PUSH1 0x0 KECCAK256 PUSH1 0x0 ADD PUSH1 0x8 PUSH2 0x100 EXP DUP2 SLOAD DUP2 PUSH1 0x1 PUSH1 0x1 PUSH1 0x40 SHL SUB MUL NOT AND SWAP1 DUP4 PUSH1 0x1 PUSH1 0x1 PUSH1 0x40 SHL SUB AND MUL OR SWAP1 SSTORE POP DUP1 DUP1 PUSH2 0x1591 SWAP1 PUSH2 0x1F74 JUMP JUMPDEST SWAP2 POP POP PUSH2 0x14B2 JUMP JUMPDEST POP PUSH32 0xB1C65CC534D9B76A1801661F0DA4394F6B950928583A5F021ECF3ED5D7C5DBE1 DUP5 DUP5 DUP5 DUP5 PUSH1 0x40 MLOAD PUSH2 0xF1E SWAP5 SWAP4 SWAP3 SWAP2 SWAP1 PUSH2 0x2051 JUMP JUMPDEST PUSH1 0x0 DUP2 DUP2 MSTORE PUSH1 0x9E PUSH1 0x20 MSTORE PUSH1 0x40 DUP2 KECCAK256 PUSH1 0x1 ADD SLOAD PUSH1 0x1 PUSH1 0x1 PUSH1 0x40 SHL SUB AND PUSH2 0x15F2 PUSH2 0x17D9 JUMP JUMPDEST GT ISZERO PUSH2 0x1600 JUMPI POP PUSH1 0x0 SWAP2 SWAP1 POP JUMP JUMPDEST POP PUSH1 0x0 SWAP1 DUP2 MSTORE PUSH1 0x9E PUSH1 0x20 MSTORE PUSH1 0x40 SWAP1 KECCAK256 SLOAD SWAP1 JUMP JUMPDEST PUSH1 0x0 DUP3 DUP2 MSTORE PUSH1 0x65 PUSH1 0x20 MSTORE PUSH1 0x40 SWAP1 KECCAK256 PUSH1 0x1 ADD SLOAD PUSH2 0x162E DUP2 PUSH2 0x19CE JUMP JUMPDEST PUSH2 0xD49 DUP4 DUP4 PUSH2 0x1A5E JUMP JUMPDEST PUSH2 0x1661 PUSH32 0x299F144F9FEC4A25B043DE89E762AC3FD89FFB989A4690B198D22DD9EDBCBA4F PUSH2 0x19CE JUMP JUMPDEST PUSH1 0x0 PUSH2 0x166B PUSH2 0x17D9 JUMP JUMPDEST SWAP1 POP PUSH1 0x0 JUMPDEST DUP5 DUP2 LT ISZERO PUSH2 0x1729 JUMPI DUP4 DUP4 DUP3 DUP2 DUP2 LT PUSH2 0x168A JUMPI PUSH2 0x168A PUSH2 0x1FEC JUMP JUMPDEST SWAP1 POP PUSH1 0x20 MUL ADD CALLDATALOAD PUSH1 0x9E PUSH1 0x0 DUP9 DUP9 DUP6 DUP2 DUP2 LT PUSH2 0x16A7 JUMPI PUSH2 0x16A7 PUSH2 0x1FEC JUMP JUMPDEST SWAP1 POP PUSH1 0x20 MUL ADD CALLDATALOAD DUP2 MSTORE PUSH1 0x20 ADD SWAP1 DUP2 MSTORE PUSH1 0x20 ADD PUSH1 0x0 KECCAK256 PUSH1 0x0 ADD DUP2 SWAP1 SSTORE POP DUP2 PUSH1 0x9E PUSH1 0x0 DUP9 DUP9 DUP6 DUP2 DUP2 LT PUSH2 0x16DA JUMPI PUSH2 0x16DA PUSH2 0x1FEC JUMP JUMPDEST SWAP1 POP PUSH1 0x20 MUL ADD CALLDATALOAD DUP2 MSTORE PUSH1 0x20 ADD SWAP1 DUP2 MSTORE PUSH1 0x20 ADD PUSH1 0x0 KECCAK256 PUSH1 0x1 ADD PUSH1 0x0 PUSH2 0x100 EXP DUP2 SLOAD DUP2 PUSH1 0x1 PUSH1 0x1 PUSH1 0x40 SHL SUB MUL NOT AND SWAP1 DUP4 PUSH1 0x1 PUSH1 0x1 PUSH1 0x40 SHL SUB AND MUL OR SWAP1 SSTORE POP DUP1 DUP1 PUSH2 0x1721 SWAP1 PUSH2 0x1F74 JUMP JUMPDEST SWAP2 POP POP PUSH2 0x1670 JUMP JUMPDEST POP PUSH32 0xBF38900587A4E37D1B6F303A61CABAD196527BDC1E2758AD4D65DD2512FB520E DUP6 DUP6 DUP6 DUP6 DUP6 PUSH1 0x40 MLOAD PUSH2 0x1761 SWAP6 SWAP5 SWAP4 SWAP3 SWAP2 SWAP1 PUSH2 0x20D6 JUMP JUMPDEST PUSH1 0x40 MLOAD DUP1 SWAP2 SUB SWAP1 LOG1 POP POP POP POP POP JUMP JUMPDEST PUSH1 0x40 MLOAD PUSH4 0xE9EAD47 PUSH1 0xE1 SHL DUP2 MSTORE PUSH1 0x4 DUP2 ADD DUP3 SWAP1 MSTORE TIMESTAMP PUSH1 0x24 DUP3 ADD MSTORE PUSH1 0x0 SWAP1 ADDRESS SWAP1 PUSH4 0x1D3D5A8E SWAP1 PUSH1 0x44 ADD PUSH1 0x20 PUSH1 0x40 MLOAD DUP1 DUP4 SUB DUP2 DUP7 GAS STATICCALL ISZERO DUP1 ISZERO PUSH2 0x17B5 JUMPI RETURNDATASIZE PUSH1 0x0 DUP1 RETURNDATACOPY RETURNDATASIZE PUSH1 0x0 REVERT JUMPDEST POP POP POP POP PUSH1 0x40 MLOAD RETURNDATASIZE PUSH1 0x1F NOT PUSH1 0x1F DUP3 ADD AND DUP3 ADD DUP1 PUSH1 0x40 MSTORE POP DUP2 ADD SWAP1 PUSH2 0x8B6 SWAP2 SWAP1 PUSH2 0x1F1E JUMP JUMPDEST PUSH1 0x0 PUSH1 0x9C SLOAD TIMESTAMP PUSH2 0x17E9 SWAP2 SWAP1 PUSH2 0x1FA4 JUMP JUMPDEST SWAP1 POP SWAP1 JUMP JUMPDEST PUSH2 0x1817 PUSH32 0x8D33451580CEC858E7EC47F2258A9A8EDDE6CDFD0CBBC2C2FB654DB03FBB2D8C PUSH2 0x19CE JUMP JUMPDEST PUSH1 0x0 JUMPDEST DUP4 DUP2 LT ISZERO PUSH2 0x1998 JUMPI PUSH1 0x0 DUP4 DUP4 DUP4 DUP2 DUP2 LT PUSH2 0x1836 JUMPI PUSH2 0x1836 PUSH2 0x1FEC JUMP JUMPDEST SWAP1 POP PUSH1 0x20 MUL ADD PUSH1 0x20 DUP2 ADD SWAP1 PUSH2 0x184B SWAP2 SWAP1 PUSH2 0x2002 JUMP JUMPDEST ADDRESS PUSH4 0x1D3D5A8E DUP9 DUP9 DUP7 DUP2 DUP2 LT PUSH2 0x1863 JUMPI PUSH2 0x1863 PUSH2 0x1FEC JUMP JUMPDEST SWAP1 POP PUSH1 0x20 MUL ADD CALLDATALOAD TIMESTAMP PUSH1 0x40 MLOAD DUP4 PUSH4 0xFFFFFFFF AND PUSH1 0xE0 SHL DUP2 MSTORE PUSH1 0x4 ADD PUSH2 0x1891 SWAP3 SWAP2 SWAP1 SWAP2 DUP3 MSTORE PUSH1 0x20 DUP3 ADD MSTORE PUSH1 0x40 ADD SWAP1 JUMP JUMPDEST PUSH1 0x20 PUSH1 0x40 MLOAD DUP1 DUP4 SUB DUP2 DUP7 GAS STATICCALL ISZERO DUP1 ISZERO PUSH2 0x18AE JUMPI RETURNDATASIZE PUSH1 0x0 DUP1 RETURNDATACOPY RETURNDATASIZE PUSH1 0x0 REVERT JUMPDEST POP POP POP POP PUSH1 0x40 MLOAD RETURNDATASIZE PUSH1 0x1F NOT PUSH1 0x1F DUP3 ADD AND DUP3 ADD DUP1 PUSH1 0x40 MSTORE POP DUP2 ADD SWAP1 PUSH2 0x18D2 SWAP2 SWAP1 PUSH2 0x1F1E JUMP JUMPDEST PUSH2 0x18DC SWAP2 SWAP1 PUSH2 0x20B6 JUMP JUMPDEST SWAP1 POP DUP1 PUSH1 0x9D PUSH1 0x0 DUP9 DUP9 DUP7 DUP2 DUP2 LT PUSH2 0x18F5 JUMPI PUSH2 0x18F5 PUSH2 0x1FEC JUMP JUMPDEST SWAP1 POP PUSH1 0x20 MUL ADD CALLDATALOAD DUP2 MSTORE PUSH1 0x20 ADD SWAP1 DUP2 MSTORE PUSH1 0x20 ADD PUSH1 0x0 KECCAK256 PUSH1 0x0 ADD PUSH1 0x0 PUSH2 0x100 EXP DUP2 SLOAD DUP2 PUSH1 0x1 PUSH1 0x1 PUSH1 0x40 SHL SUB MUL NOT AND SWAP1 DUP4 PUSH1 0x1 PUSH1 0x1 PUSH1 0x40 SHL SUB AND MUL OR SWAP1 SSTORE POP TIMESTAMP PUSH1 0x9D PUSH1 0x0 DUP9 DUP9 DUP7 DUP2 DUP2 LT PUSH2 0x1948 JUMPI PUSH2 0x1948 PUSH2 0x1FEC JUMP JUMPDEST SWAP1 POP PUSH1 0x20 MUL ADD CALLDATALOAD DUP2 MSTORE PUSH1 0x20 ADD SWAP1 DUP2 MSTORE PUSH1 0x20 ADD PUSH1 0x0 KECCAK256 PUSH1 0x0 ADD PUSH1 0x8 PUSH2 0x100 EXP DUP2 SLOAD DUP2 PUSH1 0x1 PUSH1 0x1 PUSH1 0x40 SHL SUB MUL NOT AND SWAP1 DUP4 PUSH1 0x1 PUSH1 0x1 PUSH1 0x40 SHL SUB AND MUL OR SWAP1 SSTORE POP POP DUP1 DUP1 PUSH2 0x1990 SWAP1 PUSH2 0x1F74 JUMP JUMPDEST SWAP2 POP POP PUSH2 0x181A JUMP JUMPDEST POP PUSH32 0x6F471C008C362787EFEC56552DA0C38EDE9B6F07FBE771FC705F59AA7C7718EF DUP5 DUP5 DUP5 DUP5 PUSH1 0x40 MLOAD PUSH2 0xF1E SWAP5 SWAP4 SWAP3 SWAP2 SWAP1 PUSH2 0x2051 JUMP JUMPDEST PUSH2 0x12B3 DUP2 CALLER PUSH2 0x1B3D JUMP JUMPDEST PUSH2 0x19E2 DUP3 DUP3 PUSH2 0x12B6 JUMP JUMPDEST PUSH2 0xDC8 JUMPI PUSH1 0x0 DUP3 DUP2 MSTORE PUSH1 0x65 PUSH1 0x20 SWAP1 DUP2 MSTORE PUSH1 0x40 DUP1 DUP4 KECCAK256 PUSH1 0x1 PUSH1 0x1 PUSH1 0xA0 SHL SUB DUP6 AND DUP5 MSTORE SWAP1 SWAP2 MSTORE SWAP1 KECCAK256 DUP1 SLOAD PUSH1 0xFF NOT AND PUSH1 0x1 OR SWAP1 SSTORE PUSH2 0x1A1A CALLER SWAP1 JUMP JUMPDEST PUSH1 0x1 PUSH1 0x1 PUSH1 0xA0 SHL SUB AND DUP2 PUSH1 0x1 PUSH1 0x1 PUSH1 0xA0 SHL SUB AND DUP4 PUSH32 0x2F8788117E7EFF1D82E926EC794901D17C78024A50270940304540A733656F0D PUSH1 0x40 MLOAD PUSH1 0x40 MLOAD DUP1 SWAP2 SUB SWAP1 LOG4 POP POP JUMP JUMPDEST PUSH2 0x1A68 DUP3 DUP3 PUSH2 0x12B6 JUMP JUMPDEST ISZERO PUSH2 0xDC8 JUMPI PUSH1 0x0 DUP3 DUP2 MSTORE PUSH1 0x65 PUSH1 0x20 SWAP1 DUP2 MSTORE PUSH1 0x40 DUP1 DUP4 KECCAK256 PUSH1 0x1 PUSH1 0x1 PUSH1 0xA0 SHL SUB DUP6 AND DUP1 DUP6 MSTORE SWAP3 MSTORE DUP1 DUP4 KECCAK256 DUP1 SLOAD PUSH1 0xFF NOT AND SWAP1 SSTORE MLOAD CALLER SWAP3 DUP6 SWAP2 PUSH32 0xF6391F5C32D9C69D2A47EA670B442974B53935D1EDC7FD64EB21E047A839171B SWAP2 SWAP1 LOG4 POP POP JUMP JUMPDEST PUSH1 0x0 SLOAD PUSH2 0x100 SWAP1 DIV PUSH1 0xFF AND PUSH2 0x1B30 JUMPI PUSH1 0x40 MLOAD PUSH3 0x461BCD PUSH1 0xE5 SHL DUP2 MSTORE PUSH1 0x20 PUSH1 0x4 DUP3 ADD MSTORE PUSH1 0x2B PUSH1 0x24 DUP3 ADD MSTORE PUSH32 0x496E697469616C697A61626C653A20636F6E7472616374206973206E6F742069 PUSH1 0x44 DUP3 ADD MSTORE PUSH11 0x6E697469616C697A696E67 PUSH1 0xA8 SHL PUSH1 0x64 DUP3 ADD MSTORE PUSH1 0x84 ADD PUSH2 0x5EE JUMP JUMPDEST JUMP JUMPDEST PUSH2 0x1B30 PUSH1 0x0 CALLER PUSH2 0x1B96 JUMP JUMPDEST PUSH2 0x1B47 DUP3 DUP3 PUSH2 0x12B6 JUMP JUMPDEST PUSH2 0xDC8 JUMPI PUSH2 0x1B54 DUP2 PUSH2 0x1BA0 JUMP JUMPDEST PUSH2 0x1B5F DUP4 PUSH1 0x20 PUSH2 0x1BB2 JUMP JUMPDEST PUSH1 0x40 MLOAD PUSH1 0x20 ADD PUSH2 0x1B70 SWAP3 SWAP2 SWAP1 PUSH2 0x213D JUMP JUMPDEST PUSH1 0x40 DUP1 MLOAD PUSH1 0x1F NOT DUP2 DUP5 SUB ADD DUP2 MSTORE SWAP1 DUP3 SWAP1 MSTORE PUSH3 0x461BCD PUSH1 0xE5 SHL DUP3 MSTORE PUSH2 0x5EE SWAP2 PUSH1 0x4 ADD PUSH2 0x21B2 JUMP JUMPDEST PUSH2 0xDC8 DUP3 DUP3 PUSH2 0x19D8 JUMP JUMPDEST PUSH1 0x60 PUSH2 0x8B6 PUSH1 0x1 PUSH1 0x1 PUSH1 0xA0 SHL SUB DUP4 AND PUSH1 0x14 JUMPDEST PUSH1 0x60 PUSH1 0x0 PUSH2 0x1BC1 DUP4 PUSH1 0x2 PUSH2 0x1F8D JUMP JUMPDEST PUSH2 0x1BCC SWAP1 PUSH1 0x2 PUSH2 0x1FC6 JUMP JUMPDEST PUSH1 0x1 PUSH1 0x1 PUSH1 0x40 SHL SUB DUP2 GT ISZERO PUSH2 0x1BE3 JUMPI PUSH2 0x1BE3 PUSH2 0x21E5 JUMP JUMPDEST PUSH1 0x40 MLOAD SWAP1 DUP1 DUP3 MSTORE DUP1 PUSH1 0x1F ADD PUSH1 0x1F NOT AND PUSH1 0x20 ADD DUP3 ADD PUSH1 0x40 MSTORE DUP1 ISZERO PUSH2 0x1C0D JUMPI PUSH1 0x20 DUP3 ADD DUP2 DUP1 CALLDATASIZE DUP4 CALLDATACOPY ADD SWAP1 POP JUMPDEST POP SWAP1 POP PUSH1 0x3 PUSH1 0xFC SHL DUP2 PUSH1 0x0 DUP2 MLOAD DUP2 LT PUSH2 0x1C28 JUMPI PUSH2 0x1C28 PUSH2 0x1FEC JUMP JUMPDEST PUSH1 0x20 ADD ADD SWAP1 PUSH1 0x1 PUSH1 0x1 PUSH1 0xF8 SHL SUB NOT AND SWAP1 DUP2 PUSH1 0x0 BYTE SWAP1 MSTORE8 POP PUSH1 0xF PUSH1 0xFB SHL DUP2 PUSH1 0x1 DUP2 MLOAD DUP2 LT PUSH2 0x1C57 JUMPI PUSH2 0x1C57 PUSH2 0x1FEC JUMP JUMPDEST PUSH1 0x20 ADD ADD SWAP1 PUSH1 0x1 PUSH1 0x1 PUSH1 0xF8 SHL SUB NOT AND SWAP1 DUP2 PUSH1 0x0 BYTE SWAP1 MSTORE8 POP PUSH1 0x0 PUSH2 0x1C7B DUP5 PUSH1 0x2 PUSH2 0x1F8D JUMP JUMPDEST PUSH2 0x1C86 SWAP1 PUSH1 0x1 PUSH2 0x1FC6 JUMP JUMPDEST SWAP1 POP JUMPDEST PUSH1 0x1 DUP2 GT ISZERO PUSH2 0x1CFE JUMPI PUSH16 0x181899199A1A9B1B9C1CB0B131B232B3 PUSH1 0x81 SHL DUP6 PUSH1 0xF AND PUSH1 0x10 DUP2 LT PUSH2 0x1CBA JUMPI PUSH2 0x1CBA PUSH2 0x1FEC JUMP JUMPDEST BYTE PUSH1 0xF8 SHL DUP3 DUP3 DUP2 MLOAD DUP2 LT PUSH2 0x1CD0 JUMPI PUSH2 0x1CD0 PUSH2 0x1FEC JUMP JUMPDEST PUSH1 0x20 ADD ADD SWAP1 PUSH1 0x1 PUSH1 0x1 PUSH1 0xF8 SHL SUB NOT AND SWAP1 DUP2 PUSH1 0x0 BYTE SWAP1 MSTORE8 POP PUSH1 0x4 SWAP5 SWAP1 SWAP5 SHR SWAP4 PUSH2 0x1CF7 DUP2 PUSH2 0x21FB JUMP JUMPDEST SWAP1 POP PUSH2 0x1C89 JUMP JUMPDEST POP DUP4 ISZERO PUSH2 0xD1D JUMPI PUSH1 0x40 MLOAD PUSH3 0x461BCD PUSH1 0xE5 SHL DUP2 MSTORE PUSH1 0x20 PUSH1 0x4 DUP3 ADD DUP2 SWAP1 MSTORE PUSH1 0x24 DUP3 ADD MSTORE PUSH32 0x537472696E67733A20686578206C656E67746820696E73756666696369656E74 PUSH1 0x44 DUP3 ADD MSTORE PUSH1 0x64 ADD PUSH2 0x5EE JUMP JUMPDEST DUP1 CALLDATALOAD PUSH1 0x1 PUSH1 0x1 PUSH1 0xA0 SHL SUB DUP2 AND DUP2 EQ PUSH2 0xF85 JUMPI PUSH1 0x0 DUP1 REVERT JUMPDEST PUSH1 0x0 DUP1 PUSH1 0x40 DUP4 DUP6 SUB SLT ISZERO PUSH2 0x1D77 JUMPI PUSH1 0x0 DUP1 REVERT JUMPDEST PUSH2 0x1D80 DUP4 PUSH2 0x1D4D JUMP JUMPDEST SWAP5 PUSH1 0x20 SWAP4 SWAP1 SWAP4 ADD CALLDATALOAD SWAP4 POP POP POP JUMP JUMPDEST PUSH1 0x0 PUSH1 0x20 DUP3 DUP5 SUB SLT ISZERO PUSH2 0x1DA0 JUMPI PUSH1 0x0 DUP1 REVERT JUMPDEST POP CALLDATALOAD SWAP2 SWAP1 POP JUMP JUMPDEST PUSH1 0x0 PUSH1 0x20 DUP3 DUP5 SUB SLT ISZERO PUSH2 0x1DB9 JUMPI PUSH1 0x0 DUP1 REVERT JUMPDEST DUP2 CALLDATALOAD PUSH1 0x1 PUSH1 0x1 PUSH1 0xE0 SHL SUB NOT DUP2 AND DUP2 EQ PUSH2 0xD1D JUMPI PUSH1 0x0 DUP1 REVERT JUMPDEST PUSH1 0x0 DUP1 PUSH1 0x40 DUP4 DUP6 SUB SLT ISZERO PUSH2 0x1DE4 JUMPI PUSH1 0x0 DUP1 REVERT JUMPDEST POP POP DUP1 CALLDATALOAD SWAP3 PUSH1 0x20 SWAP1 SWAP2 ADD CALLDATALOAD SWAP2 POP JUMP JUMPDEST PUSH1 0x0 DUP1 PUSH1 0x40 DUP4 DUP6 SUB SLT ISZERO PUSH2 0x1E06 JUMPI PUSH1 0x0 DUP1 REVERT JUMPDEST DUP3 CALLDATALOAD SWAP2 POP PUSH2 0x1E16 PUSH1 0x20 DUP5 ADD PUSH2 0x1D4D JUMP JUMPDEST SWAP1 POP SWAP3 POP SWAP3 SWAP1 POP JUMP JUMPDEST PUSH1 0x0 PUSH1 0x20 DUP3 DUP5 SUB SLT ISZERO PUSH2 0x1E31 JUMPI PUSH1 0x0 DUP1 REVERT JUMPDEST PUSH2 0xD1D DUP3 PUSH2 0x1D4D JUMP JUMPDEST PUSH1 0x0 DUP1 DUP4 PUSH1 0x1F DUP5 ADD SLT PUSH2 0x1E4C JUMPI PUSH1 0x0 DUP1 REVERT JUMPDEST POP DUP2 CALLDATALOAD PUSH1 0x1 PUSH1 0x1 PUSH1 0x40 SHL SUB DUP2 GT ISZERO PUSH2 0x1E63 JUMPI PUSH1 0x0 DUP1 REVERT JUMPDEST PUSH1 0x20 DUP4 ADD SWAP2 POP DUP4 PUSH1 0x20 DUP3 PUSH1 0x5 SHL DUP6 ADD ADD GT ISZERO PUSH2 0x1E7E JUMPI PUSH1 0x0 DUP1 REVERT JUMPDEST SWAP3 POP SWAP3 SWAP1 POP JUMP JUMPDEST PUSH1 0x0 DUP1 PUSH1 0x0 DUP1 PUSH1 0x40 DUP6 DUP8 SUB SLT ISZERO PUSH2 0x1E9B JUMPI PUSH1 0x0 DUP1 REVERT JUMPDEST DUP5 CALLDATALOAD PUSH1 0x1 PUSH1 0x1 PUSH1 0x40 SHL SUB DUP1 DUP3 GT ISZERO PUSH2 0x1EB2 JUMPI PUSH1 0x0 DUP1 REVERT JUMPDEST PUSH2 0x1EBE DUP9 DUP4 DUP10 ADD PUSH2 0x1E3A JUMP JUMPDEST SWAP1 SWAP7 POP SWAP5 POP PUSH1 0x20 DUP8 ADD CALLDATALOAD SWAP2 POP DUP1 DUP3 GT ISZERO PUSH2 0x1ED7 JUMPI PUSH1 0x0 DUP1 REVERT JUMPDEST POP PUSH2 0x1EE4 DUP8 DUP3 DUP9 ADD PUSH2 0x1E3A JUMP JUMPDEST SWAP6 SWAP9 SWAP5 SWAP8 POP SWAP6 POP POP POP POP JUMP JUMPDEST PUSH1 0x0 PUSH1 0x20 DUP3 DUP5 SUB SLT ISZERO PUSH2 0x1F02 JUMPI PUSH1 0x0 DUP1 REVERT JUMPDEST POP MLOAD SWAP2 SWAP1 POP JUMP JUMPDEST PUSH1 0x1 PUSH1 0x1 PUSH1 0x40 SHL SUB DUP2 AND DUP2 EQ PUSH2 0x12B3 JUMPI PUSH1 0x0 DUP1 REVERT JUMPDEST PUSH1 0x0 PUSH1 0x20 DUP3 DUP5 SUB SLT ISZERO PUSH2 0x1F30 JUMPI PUSH1 0x0 DUP1 REVERT JUMPDEST DUP2 MLOAD PUSH2 0xD1D DUP2 PUSH2 0x1F09 JUMP JUMPDEST PUSH1 0x0 PUSH1 0x20 DUP3 DUP5 SUB SLT ISZERO PUSH2 0x1F4D JUMPI PUSH1 0x0 DUP1 REVERT JUMPDEST DUP2 MLOAD PUSH1 0xFF DUP2 AND DUP2 EQ PUSH2 0xD1D JUMPI PUSH1 0x0 DUP1 REVERT JUMPDEST PUSH4 0x4E487B71 PUSH1 0xE0 SHL PUSH1 0x0 MSTORE PUSH1 0x11 PUSH1 0x4 MSTORE PUSH1 0x24 PUSH1 0x0 REVERT JUMPDEST PUSH1 0x0 PUSH1 0x1 DUP3 ADD PUSH2 0x1F86 JUMPI PUSH2 0x1F86 PUSH2 0x1F5E JUMP JUMPDEST POP PUSH1 0x1 ADD SWAP1 JUMP JUMPDEST DUP1 DUP3 MUL DUP2 ISZERO DUP3 DUP3 DIV DUP5 EQ OR PUSH2 0x8B6 JUMPI PUSH2 0x8B6 PUSH2 0x1F5E JUMP JUMPDEST PUSH1 0x0 DUP3 PUSH2 0x1FC1 JUMPI PUSH4 0x4E487B71 PUSH1 0xE0 SHL PUSH1 0x0 MSTORE PUSH1 0x12 PUSH1 0x4 MSTORE PUSH1 0x24 PUSH1 0x0 REVERT JUMPDEST POP DIV SWAP1 JUMP JUMPDEST DUP1 DUP3 ADD DUP1 DUP3 GT ISZERO PUSH2 0x8B6 JUMPI PUSH2 0x8B6 PUSH2 0x1F5E JUMP JUMPDEST DUP2 DUP2 SUB DUP2 DUP2 GT ISZERO PUSH2 0x8B6 JUMPI PUSH2 0x8B6 PUSH2 0x1F5E JUMP JUMPDEST PUSH4 0x4E487B71 PUSH1 0xE0 SHL PUSH1 0x0 MSTORE PUSH1 0x32 PUSH1 0x4 MSTORE PUSH1 0x24 PUSH1 0x0 REVERT JUMPDEST PUSH1 0x0 PUSH1 0x20 DUP3 DUP5 SUB SLT ISZERO PUSH2 0x2014 JUMPI PUSH1 0x0 DUP1 REVERT JUMPDEST DUP2 CALLDATALOAD PUSH2 0xD1D DUP2 PUSH2 0x1F09 JUMP JUMPDEST DUP2 DUP4 MSTORE PUSH1 0x0 PUSH1 0x1 PUSH1 0x1 PUSH1 0xFB SHL SUB DUP4 GT ISZERO PUSH2 0x2038 JUMPI PUSH1 0x0 DUP1 REVERT JUMPDEST DUP3 PUSH1 0x5 SHL DUP1 DUP4 PUSH1 0x20 DUP8 ADD CALLDATACOPY SWAP4 SWAP1 SWAP4 ADD PUSH1 0x20 ADD SWAP4 SWAP3 POP POP POP JUMP JUMPDEST PUSH1 0x40 DUP2 MSTORE PUSH1 0x0 PUSH2 0x2065 PUSH1 0x40 DUP4 ADD DUP7 DUP9 PUSH2 0x201F JUMP JUMPDEST DUP3 DUP2 SUB PUSH1 0x20 DUP5 DUP2 ADD SWAP2 SWAP1 SWAP2 MSTORE DUP5 DUP3 MSTORE DUP6 SWAP2 DUP2 ADD PUSH1 0x0 JUMPDEST DUP7 DUP2 LT ISZERO PUSH2 0x20A9 JUMPI DUP4 CALLDATALOAD PUSH2 0x208E DUP2 PUSH2 0x1F09 JUMP JUMPDEST PUSH1 0x1 PUSH1 0x1 PUSH1 0x40 SHL SUB AND DUP3 MSTORE SWAP3 DUP3 ADD SWAP3 SWAP1 DUP3 ADD SWAP1 PUSH1 0x1 ADD PUSH2 0x207B JUMP JUMPDEST POP SWAP9 SWAP8 POP POP POP POP POP POP POP POP JUMP JUMPDEST PUSH1 0x1 PUSH1 0x1 PUSH1 0x40 SHL SUB DUP2 DUP2 AND DUP4 DUP3 AND ADD SWAP1 DUP1 DUP3 GT ISZERO PUSH2 0x8B4 JUMPI PUSH2 0x8B4 PUSH2 0x1F5E JUMP JUMPDEST PUSH1 0x60 DUP2 MSTORE PUSH1 0x0 PUSH2 0x20EA PUSH1 0x60 DUP4 ADD DUP8 DUP10 PUSH2 0x201F JUMP JUMPDEST DUP3 DUP2 SUB PUSH1 0x20 DUP5 ADD MSTORE PUSH2 0x20FD DUP2 DUP7 DUP9 PUSH2 0x201F JUMP JUMPDEST SWAP2 POP POP PUSH1 0x1 PUSH1 0x1 PUSH1 0x40 SHL SUB DUP4 AND PUSH1 0x40 DUP4 ADD MSTORE SWAP7 SWAP6 POP POP POP POP POP POP JUMP JUMPDEST PUSH1 0x0 JUMPDEST DUP4 DUP2 LT ISZERO PUSH2 0x2134 JUMPI DUP2 DUP2 ADD MLOAD DUP4 DUP3 ADD MSTORE PUSH1 0x20 ADD PUSH2 0x211C JUMP JUMPDEST POP POP PUSH1 0x0 SWAP2 ADD MSTORE JUMP JUMPDEST PUSH32 0x416363657373436F6E74726F6C3A206163636F756E7420000000000000000000 DUP2 MSTORE PUSH1 0x0 DUP4 MLOAD PUSH2 0x2175 DUP2 PUSH1 0x17 DUP6 ADD PUSH1 0x20 DUP9 ADD PUSH2 0x2119 JUMP JUMPDEST PUSH17 0x1034B99036B4B9B9B4B733903937B6329 PUSH1 0x7D SHL PUSH1 0x17 SWAP2 DUP5 ADD SWAP2 DUP3 ADD MSTORE DUP4 MLOAD PUSH2 0x21A6 DUP2 PUSH1 0x28 DUP5 ADD PUSH1 0x20 DUP9 ADD PUSH2 0x2119 JUMP JUMPDEST ADD PUSH1 0x28 ADD SWAP5 SWAP4 POP POP POP POP JUMP JUMPDEST PUSH1 0x20 DUP2 MSTORE PUSH1 0x0 DUP3 MLOAD DUP1 PUSH1 0x20 DUP5 ADD MSTORE PUSH2 0x21D1 DUP2 PUSH1 0x40 DUP6 ADD PUSH1 0x20 DUP8 ADD PUSH2 0x2119 JUMP JUMPDEST PUSH1 0x1F ADD PUSH1 0x1F NOT AND SWAP2 SWAP1 SWAP2 ADD PUSH1 0x40 ADD SWAP3 SWAP2 POP POP JUMP JUMPDEST PUSH4 0x4E487B71 PUSH1 0xE0 SHL PUSH1 0x0 MSTORE PUSH1 0x41 PUSH1 0x4 MSTORE PUSH1 0x24 PUSH1 0x0 REVERT JUMPDEST PUSH1 0x0 DUP2 PUSH2 0x220A JUMPI PUSH2 0x220A PUSH2 0x1F5E JUMP JUMPDEST POP PUSH1 0x0 NOT ADD SWAP1 JUMP INVALID LOG2 PUSH5 0x6970667358 0x22 SLT KECCAK256 EXTCODEHASH 0xDE PUSH17 0x47FCCA9822D5817004462163AF548B793 ADD COINBASE 0xB5 DUP11 DUP8 DUP16 PUSH20 0xEE145D508D64736F6C6343000811003300000000 "},"methodIdentifiers":{"DEFAULT_ADMIN_ROLE()":"a217fddf","EventPoint(uint256)":"a5c61edd","IDCard()":"7123d615","Level(uint256)":"11d5c6b5","POC(uint256)":"e8132b9f","POC_at(uint256,uint256)":"1d3d5a8e","ROLE_ADD_EVENT()":"26b211ba","ROLE_ADD_POC()":"35e9b642","ROLE_SET_EVENT()":"7ed57e0e","ROLE_SET_POC()":"5faa12f1","ROLE_SET_VEPOWER()":"1e48cb05","TotalPoint(uint256)":"9981534e","VEPoint(uint256)":"73fff6c3","VEPower(uint256)":"d1f928c1","addEventPoint(uint256[],uint64[])":"79d7ec80","addPOC(uint256[],uint64[])":"fc0c0c3b","balanceOf(address,uint256)":"00fdd58e","currentVEEpoch()":"e8d40747","getRoleAdmin(bytes32)":"248a9ca3","grantRole(bytes32,address)":"2f2ff15d","hasRole(bytes32,address)":"91d14854","initialize()":"8129fc1c","k()":"b4f40c61","levelRequire(uint256)":"61b04af9","log_2(uint256)":"00ff2fb1","renounceRole(bytes32,address)":"36568abe","revokeRole(bytes32,address)":"d547741f","setEventPoint(uint256[],uint64[])":"44d0ec07","setIDCard(address)":"3e59056e","setPOC(uint256[],uint64[])":"99e0677f","setVEPower(uint256[],uint256[])":"e2b68327","supportsInterface(bytes4)":"01ffc9a7","veEpochLength()":"695f1e12","vePower2vePoint(uint256)":"0be2740c","weight_event()":"78a13771","weight_poc()":"6a0ca6cd","weight_vepoint()":"44d24220"}}}}}