{"contracts/claimBounty/MonthlyBounty.sol":{"MonthlyBounty":{"abi":[{"inputs":[{"internalType":"address","name":"bountyToken_","type":"address"},{"internalType":"address","name":"idnft_","type":"address"},{"internalType":"address","name":"multiHonor_","type":"address"},{"internalType":"uint256","name":"pocFactor_","type":"uint256"}],"stateMutability":"nonpayable","type":"constructor"},{"anonymous":false,"inputs":[{"indexed":false,"internalType":"uint256","name":"idcard","type":"uint256"},{"indexed":false,"internalType":"address","name":"toAccount","type":"address"},{"indexed":false,"internalType":"uint256","name":"amount","type":"uint256"}],"name":"ClaimBounty","type":"event"},{"anonymous":false,"inputs":[{"indexed":false,"internalType":"address","name":"admin","type":"address"}],"name":"SetAdmin","type":"event"},{"anonymous":false,"inputs":[{"indexed":false,"internalType":"address","name":"bountyToken","type":"address"}],"name":"SetBountyToken","type":"event"},{"anonymous":false,"inputs":[{"indexed":false,"internalType":"address","name":"idnft","type":"address"}],"name":"SetIDNFT","type":"event"},{"anonymous":false,"inputs":[{"indexed":false,"internalType":"address","name":"multiHonor","type":"address"}],"name":"SetMultiHonor","type":"event"},{"anonymous":false,"inputs":[{"indexed":false,"internalType":"address","name":"pendingAdmin","type":"address"}],"name":"TransferAdmin","type":"event"},{"anonymous":false,"inputs":[{"indexed":false,"internalType":"uint256","name":"amount","type":"uint256"},{"indexed":false,"internalType":"address","name":"to","type":"address"}],"name":"Withdraw","type":"event"},{"inputs":[],"name":"acceptAdmin","outputs":[],"stateMutability":"nonpayable","type":"function"},{"inputs":[],"name":"admin","outputs":[{"internalType":"address","name":"","type":"address"}],"stateMutability":"view","type":"function"},{"inputs":[],"name":"bountyDay","outputs":[{"internalType":"uint256","name":"","type":"uint256"}],"stateMutability":"view","type":"function"},{"inputs":[],"name":"bountyToken","outputs":[{"internalType":"address","name":"","type":"address"}],"stateMutability":"view","type":"function"},{"inputs":[{"internalType":"uint256","name":"idcard","type":"uint256"},{"internalType":"address","name":"toAccount","type":"address"}],"name":"claimBounty","outputs":[{"internalType":"uint256","name":"amount","type":"uint256"}],"stateMutability":"nonpayable","type":"function"},{"inputs":[{"internalType":"uint256","name":"idcard","type":"uint256"}],"name":"claimable","outputs":[{"internalType":"uint256","name":"amount","type":"uint256"}],"stateMutability":"view","type":"function"},{"inputs":[{"internalType":"uint256","name":"idcard","type":"uint256"}],"name":"getDpoc","outputs":[{"internalType":"uint256","name":"dpoc","type":"uint256"}],"stateMutability":"view","type":"function"},{"inputs":[{"internalType":"uint256","name":"","type":"uint256"}],"name":"historicPoints","outputs":[{"internalType":"uint256","name":"","type":"uint256"}],"stateMutability":"view","type":"function"},{"inputs":[],"name":"idnft","outputs":[{"internalType":"address","name":"","type":"address"}],"stateMutability":"view","type":"function"},{"inputs":[],"name":"multiHonor","outputs":[{"internalType":"address","name":"","type":"address"}],"stateMutability":"view","type":"function"},{"inputs":[],"name":"pendingAdmin","outputs":[{"internalType":"address","name":"","type":"address"}],"stateMutability":"view","type":"function"},{"inputs":[],"name":"pocFactor","outputs":[{"internalType":"uint256","name":"","type":"uint256"}],"stateMutability":"view","type":"function"},{"inputs":[{"internalType":"address","name":"bountyToken_","type":"address"}],"name":"setBountyToken","outputs":[],"stateMutability":"nonpayable","type":"function"},{"inputs":[{"internalType":"uint256","name":"_pocFactor","type":"uint256"}],"name":"setPocFactor","outputs":[],"stateMutability":"nonpayable","type":"function"},{"inputs":[{"internalType":"address","name":"admin_","type":"address"}],"name":"transferAdmin","outputs":[],"stateMutability":"nonpayable","type":"function"},{"inputs":[{"internalType":"uint256","name":"amount","type":"uint256"},{"internalType":"address","name":"to","type":"address"}],"name":"withdraw","outputs":[],"stateMutability":"nonpayable","type":"function"}],"evm":{"bytecode":{"linkReferences":{},"object":"60a06040523480156200001157600080fd5b5060405162000e8438038062000e848339810160408190526200003491620001d1565b6019608052620000443362000072565b6200004f84620000c7565b6200005a8362000116565b620000658262000165565b6005555062000223915050565b600080546001600160a01b0319166001600160a01b0383169081179091556040519081527f5a272403b402d892977df56625f4164ccaf70ca3863991c43ecfe76a6905b0a1906020015b60405180910390a150565b600280546001600160a01b0319166001600160a01b0383169081179091556040519081527fa9531e5694c168f606ed45f0cfcc450abb1b130668153978b0712faf10089bb990602001620000bc565b600380546001600160a01b0319166001600160a01b0383169081179091556040519081527fefaef33068494428f3b331434d2ac48bfa8f0d60732204d21d3142293e9be4fc90602001620000bc565b600480546001600160a01b0319166001600160a01b0383169081179091556040519081527f89b1bb62bfbf9fb335eac55f3fb2fe99c496294df058689fa73e79dfe9c419a290602001620000bc565b80516001600160a01b0381168114620001cc57600080fd5b919050565b60008060008060808587031215620001e857600080fd5b620001f385620001b4565b93506200020360208601620001b4565b92506200021360408601620001b4565b6060959095015193969295505050565b608051610c456200023f60003960006101ff0152610c456000f3fe608060405234801561001057600080fd5b50600436106100ff5760003560e01c806354d4fad311610097578063d1d58b2511610066578063d1d58b2514610221578063f851a44014610234578063f9da8f2d14610247578063fd9316ef1461025a57600080fd5b806354d4fad3146101c157806375829def146101d45780637bd8aa89146101e7578063afdc31a0146101fa57600080fd5b80632d4147e3116100d35780632d4147e31461017f5780634078d8d4146101925780634b301483146101a557806352a1bbfb146101ae57600080fd5b8062f714ce1461010457806306602303146101195780630e18b6811461014c5780632678224714610154575b600080fd5b6101176101123660046109b5565b61026d565b005b6101396101273660046109e5565b60066020526000908152604090205481565b6040519081526020015b60405180910390f35b61011761034e565b600154610167906001600160a01b031681565b6040516001600160a01b039091168152602001610143565b600254610167906001600160a01b031681565b6101396101a03660046109e5565b61038c565b61013960055481565b600454610167906001600160a01b031681565b6101396101cf3660046109b5565b610447565b6101176101e23660046109fe565b61072f565b6101176101f53660046109e5565b61079b565b6101397f000000000000000000000000000000000000000000000000000000000000000081565b61013961022f3660046109e5565b610820565b600054610167906001600160a01b031681565b6101176102553660046109fe565b6108e1565b600354610167906001600160a01b031681565b6000546001600160a01b0316331461028457600080fd5b60025460405163a9059cbb60e01b81526001600160a01b03838116600483015260248201859052600092169063a9059cbb906044016020604051808303816000875af11580156102d8573d6000803e3d6000fd5b505050506040513d601f19601f820116820180604052508101906102fc9190610a1b565b90508061030857600080fd5b604080518481526001600160a01b03841660208201527f8353ffcac0876ad14e226d9783c04540bfebf13871e868157d2a391cad98e918910160405180910390a1505050565b6001546001600160a01b0316331461036557600080fd5b60015461037a906001600160a01b0316610904565b600180546001600160a01b0319169055565b6004805460405163e8132b9f60e01b815291820183905260009182916001600160a01b03169063e8132b9f90602401602060405180830381865afa1580156103d8573d6000803e3d6000fd5b505050506040513d601f19601f820116820180604052508101906103fc9190610a3d565b60008481526006602052604090205467ffffffffffffffff9190911691508111610427576000610440565b6000838152600660205260409020546104409082610a7d565b9392505050565b6003546040516331a9108f60e11b81526004810184905260009133916001600160a01b0390911690636352211e90602401602060405180830381865afa158015610495573d6000803e3d6000fd5b505050506040513d601f19601f820116820180604052508101906104b99190610a90565b6001600160a01b0316146105205760405162461bcd60e51b8152602060048201526024808201527f626f756e7479206469737472696275746f723a206e6f7420696463617264206f6044820152633bb732b960e11b60648201526084015b60405180910390fd5b600061052b8461038c565b90506000600260009054906101000a90046001600160a01b03166001600160a01b031663313ce5676040518163ffffffff1660e01b8152600401602060405180830381865afa158015610582573d6000803e3d6000fd5b505050506040513d601f19601f820116820180604052508101906105a69190610aad565b90506127106105b682600a610bb4565b836005546105c49190610bc3565b6105ce9190610bc3565b6105d89190610bda565b60025460405163a9059cbb60e01b81526001600160a01b038781166004830152602482018490529295506000929091169063a9059cbb906044016020604051808303816000875af1158015610631573d6000803e3d6000fd5b505050506040513d601f19601f820116820180604052508101906106559190610a1b565b9050806106b95760405162461bcd60e51b815260206004820152602c60248201527f626f756e7479206469737472696275746f723a2073656e6420626f756e74792060448201526b1d1bdad95b8819985a5b195960a21b6064820152608401610517565b600086815260066020526040812080548592906106d7908490610bfc565b9091555050604080518781526001600160a01b03871660208201529081018590527f82de279e1363ebe259ba3e76f44583e530a71408d1b933ca57e5d2a0b41a80fc9060600160405180910390a15050505b92915050565b6000546001600160a01b0316331461074657600080fd5b600180546001600160a01b0319166001600160a01b0383169081179091556040519081527fda7b0a7bc965abdec8a1a995575a891838264c2968e14bd456c5391827b7aa30906020015b60405180910390a150565b6000546001600160a01b031633146107b257600080fd5b61271081111561081b5760405162461bcd60e51b815260206004820152602e60248201527f706f63466163746f72206d757374206265206c657373207468616e206f72206560448201526d038bab0b6103a37901898181818160951b6064820152608401610517565b600555565b60008061082c8361038c565b90506000600260009054906101000a90046001600160a01b03166001600160a01b031663313ce5676040518163ffffffff1660e01b8152600401602060405180830381865afa158015610883573d6000803e3d6000fd5b505050506040513d601f19601f820116820180604052508101906108a79190610aad565b90506127106108b782600a610bb4565b836005546108c59190610bc3565b6108cf9190610bc3565b6108d99190610bda565b949350505050565b6000546001600160a01b031633146108f857600080fd5b61090181610952565b50565b600080546001600160a01b0319166001600160a01b0383169081179091556040519081527f5a272403b402d892977df56625f4164ccaf70ca3863991c43ecfe76a6905b0a190602001610790565b600280546001600160a01b0319166001600160a01b0383169081179091556040519081527fa9531e5694c168f606ed45f0cfcc450abb1b130668153978b0712faf10089bb990602001610790565b6001600160a01b038116811461090157600080fd5b600080604083850312156109c857600080fd5b8235915060208301356109da816109a0565b809150509250929050565b6000602082840312156109f757600080fd5b5035919050565b600060208284031215610a1057600080fd5b8135610440816109a0565b600060208284031215610a2d57600080fd5b8151801515811461044057600080fd5b600060208284031215610a4f57600080fd5b815167ffffffffffffffff8116811461044057600080fd5b634e487b7160e01b600052601160045260246000fd5b8181038181111561072957610729610a67565b600060208284031215610aa257600080fd5b8151610440816109a0565b600060208284031215610abf57600080fd5b815160ff8116811461044057600080fd5b600181815b80851115610b0b578160001904821115610af157610af1610a67565b80851615610afe57918102915b93841c9390800290610ad5565b509250929050565b600082610b2257506001610729565b81610b2f57506000610729565b8160018114610b455760028114610b4f57610b6b565b6001915050610729565b60ff841115610b6057610b60610a67565b50506001821b610729565b5060208310610133831016604e8410600b8410161715610b8e575081810a610729565b610b988383610ad0565b8060001904821115610bac57610bac610a67565b029392505050565b600061044060ff841683610b13565b808202811582820484141761072957610729610a67565b600082610bf757634e487b7160e01b600052601260045260246000fd5b500490565b8082018082111561072957610729610a6756fea264697066735822122059251fe0a308a806f2aac0da06970fc0e222b8f939ad1329625fb599fe4602f164736f6c63430008110033","opcodes":"PUSH1 0xA0 PUSH1 0x40 MSTORE CALLVALUE DUP1 ISZERO PUSH3 0x11 JUMPI PUSH1 0x0 DUP1 REVERT JUMPDEST POP PUSH1 0x40 MLOAD PUSH3 0xE84 CODESIZE SUB DUP1 PUSH3 0xE84 DUP4 CODECOPY DUP2 ADD PUSH1 0x40 DUP2 SWAP1 MSTORE PUSH3 0x34 SWAP2 PUSH3 0x1D1 JUMP JUMPDEST PUSH1 0x19 PUSH1 0x80 MSTORE PUSH3 0x44 CALLER PUSH3 0x72 JUMP JUMPDEST PUSH3 0x4F DUP5 PUSH3 0xC7 JUMP JUMPDEST PUSH3 0x5A DUP4 PUSH3 0x116 JUMP JUMPDEST PUSH3 0x65 DUP3 PUSH3 0x165 JUMP JUMPDEST PUSH1 0x5 SSTORE POP PUSH3 0x223 SWAP2 POP POP JUMP JUMPDEST PUSH1 0x0 DUP1 SLOAD PUSH1 0x1 PUSH1 0x1 PUSH1 0xA0 SHL SUB NOT AND PUSH1 0x1 PUSH1 0x1 PUSH1 0xA0 SHL SUB DUP4 AND SWAP1 DUP2 OR SWAP1 SWAP2 SSTORE PUSH1 0x40 MLOAD SWAP1 DUP2 MSTORE PUSH32 0x5A272403B402D892977DF56625F4164CCAF70CA3863991C43ECFE76A6905B0A1 SWAP1 PUSH1 0x20 ADD JUMPDEST PUSH1 0x40 MLOAD DUP1 SWAP2 SUB SWAP1 LOG1 POP JUMP JUMPDEST PUSH1 0x2 DUP1 SLOAD PUSH1 0x1 PUSH1 0x1 PUSH1 0xA0 SHL SUB NOT AND PUSH1 0x1 PUSH1 0x1 PUSH1 0xA0 SHL SUB DUP4 AND SWAP1 DUP2 OR SWAP1 SWAP2 SSTORE PUSH1 0x40 MLOAD SWAP1 DUP2 MSTORE PUSH32 0xA9531E5694C168F606ED45F0CFCC450ABB1B130668153978B0712FAF10089BB9 SWAP1 PUSH1 0x20 ADD PUSH3 0xBC JUMP JUMPDEST PUSH1 0x3 DUP1 SLOAD PUSH1 0x1 PUSH1 0x1 PUSH1 0xA0 SHL SUB NOT AND PUSH1 0x1 PUSH1 0x1 PUSH1 0xA0 SHL SUB DUP4 AND SWAP1 DUP2 OR SWAP1 SWAP2 SSTORE PUSH1 0x40 MLOAD SWAP1 DUP2 MSTORE PUSH32 0xEFAEF33068494428F3B331434D2AC48BFA8F0D60732204D21D3142293E9BE4FC SWAP1 PUSH1 0x20 ADD PUSH3 0xBC JUMP JUMPDEST PUSH1 0x4 DUP1 SLOAD PUSH1 0x1 PUSH1 0x1 PUSH1 0xA0 SHL SUB NOT AND PUSH1 0x1 PUSH1 0x1 PUSH1 0xA0 SHL SUB DUP4 AND SWAP1 DUP2 OR SWAP1 SWAP2 SSTORE PUSH1 0x40 MLOAD SWAP1 DUP2 MSTORE PUSH32 0x89B1BB62BFBF9FB335EAC55F3FB2FE99C496294DF058689FA73E79DFE9C419A2 SWAP1 PUSH1 0x20 ADD PUSH3 0xBC JUMP JUMPDEST DUP1 MLOAD PUSH1 0x1 PUSH1 0x1 PUSH1 0xA0 SHL SUB DUP2 AND DUP2 EQ PUSH3 0x1CC JUMPI PUSH1 0x0 DUP1 REVERT JUMPDEST SWAP2 SWAP1 POP JUMP JUMPDEST PUSH1 0x0 DUP1 PUSH1 0x0 DUP1 PUSH1 0x80 DUP6 DUP8 SUB SLT ISZERO PUSH3 0x1E8 JUMPI PUSH1 0x0 DUP1 REVERT JUMPDEST PUSH3 0x1F3 DUP6 PUSH3 0x1B4 JUMP JUMPDEST SWAP4 POP PUSH3 0x203 PUSH1 0x20 DUP7 ADD PUSH3 0x1B4 JUMP JUMPDEST SWAP3 POP PUSH3 0x213 PUSH1 0x40 DUP7 ADD PUSH3 0x1B4 JUMP JUMPDEST PUSH1 0x60 SWAP6 SWAP1 SWAP6 ADD MLOAD SWAP4 SWAP7 SWAP3 SWAP6 POP POP POP JUMP JUMPDEST PUSH1 0x80 MLOAD PUSH2 0xC45 PUSH3 0x23F PUSH1 0x0 CODECOPY PUSH1 0x0 PUSH2 0x1FF ADD MSTORE PUSH2 0xC45 PUSH1 0x0 RETURN INVALID PUSH1 0x80 PUSH1 0x40 MSTORE CALLVALUE DUP1 ISZERO PUSH2 0x10 JUMPI PUSH1 0x0 DUP1 REVERT JUMPDEST POP PUSH1 0x4 CALLDATASIZE LT PUSH2 0xFF JUMPI PUSH1 0x0 CALLDATALOAD PUSH1 0xE0 SHR DUP1 PUSH4 0x54D4FAD3 GT PUSH2 0x97 JUMPI DUP1 PUSH4 0xD1D58B25 GT PUSH2 0x66 JUMPI DUP1 PUSH4 0xD1D58B25 EQ PUSH2 0x221 JUMPI DUP1 PUSH4 0xF851A440 EQ PUSH2 0x234 JUMPI DUP1 PUSH4 0xF9DA8F2D EQ PUSH2 0x247 JUMPI DUP1 PUSH4 0xFD9316EF EQ PUSH2 0x25A JUMPI PUSH1 0x0 DUP1 REVERT JUMPDEST DUP1 PUSH4 0x54D4FAD3 EQ PUSH2 0x1C1 JUMPI DUP1 PUSH4 0x75829DEF EQ PUSH2 0x1D4 JUMPI DUP1 PUSH4 0x7BD8AA89 EQ PUSH2 0x1E7 JUMPI DUP1 PUSH4 0xAFDC31A0 EQ PUSH2 0x1FA JUMPI PUSH1 0x0 DUP1 REVERT JUMPDEST DUP1 PUSH4 0x2D4147E3 GT PUSH2 0xD3 JUMPI DUP1 PUSH4 0x2D4147E3 EQ PUSH2 0x17F JUMPI DUP1 PUSH4 0x4078D8D4 EQ PUSH2 0x192 JUMPI DUP1 PUSH4 0x4B301483 EQ PUSH2 0x1A5 JUMPI DUP1 PUSH4 0x52A1BBFB EQ PUSH2 0x1AE JUMPI PUSH1 0x0 DUP1 REVERT JUMPDEST DUP1 PUSH3 0xF714CE EQ PUSH2 0x104 JUMPI DUP1 PUSH4 0x6602303 EQ PUSH2 0x119 JUMPI DUP1 PUSH4 0xE18B681 EQ PUSH2 0x14C JUMPI DUP1 PUSH4 0x26782247 EQ PUSH2 0x154 JUMPI JUMPDEST PUSH1 0x0 DUP1 REVERT JUMPDEST PUSH2 0x117 PUSH2 0x112 CALLDATASIZE PUSH1 0x4 PUSH2 0x9B5 JUMP JUMPDEST PUSH2 0x26D JUMP JUMPDEST STOP JUMPDEST PUSH2 0x139 PUSH2 0x127 CALLDATASIZE PUSH1 0x4 PUSH2 0x9E5 JUMP JUMPDEST PUSH1 0x6 PUSH1 0x20 MSTORE PUSH1 0x0 SWAP1 DUP2 MSTORE PUSH1 0x40 SWAP1 KECCAK256 SLOAD DUP2 JUMP JUMPDEST PUSH1 0x40 MLOAD SWAP1 DUP2 MSTORE PUSH1 0x20 ADD JUMPDEST PUSH1 0x40 MLOAD DUP1 SWAP2 SUB SWAP1 RETURN JUMPDEST PUSH2 0x117 PUSH2 0x34E JUMP JUMPDEST PUSH1 0x1 SLOAD PUSH2 0x167 SWAP1 PUSH1 0x1 PUSH1 0x1 PUSH1 0xA0 SHL SUB AND DUP2 JUMP JUMPDEST PUSH1 0x40 MLOAD PUSH1 0x1 PUSH1 0x1 PUSH1 0xA0 SHL SUB SWAP1 SWAP2 AND DUP2 MSTORE PUSH1 0x20 ADD PUSH2 0x143 JUMP JUMPDEST PUSH1 0x2 SLOAD PUSH2 0x167 SWAP1 PUSH1 0x1 PUSH1 0x1 PUSH1 0xA0 SHL SUB AND DUP2 JUMP JUMPDEST PUSH2 0x139 PUSH2 0x1A0 CALLDATASIZE PUSH1 0x4 PUSH2 0x9E5 JUMP JUMPDEST PUSH2 0x38C JUMP JUMPDEST PUSH2 0x139 PUSH1 0x5 SLOAD DUP2 JUMP JUMPDEST PUSH1 0x4 SLOAD PUSH2 0x167 SWAP1 PUSH1 0x1 PUSH1 0x1 PUSH1 0xA0 SHL SUB AND DUP2 JUMP JUMPDEST PUSH2 0x139 PUSH2 0x1CF CALLDATASIZE PUSH1 0x4 PUSH2 0x9B5 JUMP JUMPDEST PUSH2 0x447 JUMP JUMPDEST PUSH2 0x117 PUSH2 0x1E2 CALLDATASIZE PUSH1 0x4 PUSH2 0x9FE JUMP JUMPDEST PUSH2 0x72F JUMP JUMPDEST PUSH2 0x117 PUSH2 0x1F5 CALLDATASIZE PUSH1 0x4 PUSH2 0x9E5 JUMP JUMPDEST PUSH2 0x79B JUMP JUMPDEST PUSH2 0x139 PUSH32 0x0 DUP2 JUMP JUMPDEST PUSH2 0x139 PUSH2 0x22F CALLDATASIZE PUSH1 0x4 PUSH2 0x9E5 JUMP JUMPDEST PUSH2 0x820 JUMP JUMPDEST PUSH1 0x0 SLOAD PUSH2 0x167 SWAP1 PUSH1 0x1 PUSH1 0x1 PUSH1 0xA0 SHL SUB AND DUP2 JUMP JUMPDEST PUSH2 0x117 PUSH2 0x255 CALLDATASIZE PUSH1 0x4 PUSH2 0x9FE JUMP JUMPDEST PUSH2 0x8E1 JUMP JUMPDEST PUSH1 0x3 SLOAD PUSH2 0x167 SWAP1 PUSH1 0x1 PUSH1 0x1 PUSH1 0xA0 SHL SUB AND DUP2 JUMP JUMPDEST PUSH1 0x0 SLOAD PUSH1 0x1 PUSH1 0x1 PUSH1 0xA0 SHL SUB AND CALLER EQ PUSH2 0x284 JUMPI PUSH1 0x0 DUP1 REVERT JUMPDEST PUSH1 0x2 SLOAD PUSH1 0x40 MLOAD PUSH4 0xA9059CBB PUSH1 0xE0 SHL DUP2 MSTORE PUSH1 0x1 PUSH1 0x1 PUSH1 0xA0 SHL SUB DUP4 DUP2 AND PUSH1 0x4 DUP4 ADD MSTORE PUSH1 0x24 DUP3 ADD DUP6 SWAP1 MSTORE PUSH1 0x0 SWAP3 AND SWAP1 PUSH4 0xA9059CBB SWAP1 PUSH1 0x44 ADD PUSH1 0x20 PUSH1 0x40 MLOAD DUP1 DUP4 SUB DUP2 PUSH1 0x0 DUP8 GAS CALL ISZERO DUP1 ISZERO PUSH2 0x2D8 JUMPI RETURNDATASIZE PUSH1 0x0 DUP1 RETURNDATACOPY RETURNDATASIZE PUSH1 0x0 REVERT JUMPDEST POP POP POP POP PUSH1 0x40 MLOAD RETURNDATASIZE PUSH1 0x1F NOT PUSH1 0x1F DUP3 ADD AND DUP3 ADD DUP1 PUSH1 0x40 MSTORE POP DUP2 ADD SWAP1 PUSH2 0x2FC SWAP2 SWAP1 PUSH2 0xA1B JUMP JUMPDEST SWAP1 POP DUP1 PUSH2 0x308 JUMPI PUSH1 0x0 DUP1 REVERT JUMPDEST PUSH1 0x40 DUP1 MLOAD DUP5 DUP2 MSTORE PUSH1 0x1 PUSH1 0x1 PUSH1 0xA0 SHL SUB DUP5 AND PUSH1 0x20 DUP3 ADD MSTORE PUSH32 0x8353FFCAC0876AD14E226D9783C04540BFEBF13871E868157D2A391CAD98E918 SWAP2 ADD PUSH1 0x40 MLOAD DUP1 SWAP2 SUB SWAP1 LOG1 POP POP POP JUMP JUMPDEST PUSH1 0x1 SLOAD PUSH1 0x1 PUSH1 0x1 PUSH1 0xA0 SHL SUB AND CALLER EQ PUSH2 0x365 JUMPI PUSH1 0x0 DUP1 REVERT JUMPDEST PUSH1 0x1 SLOAD PUSH2 0x37A SWAP1 PUSH1 0x1 PUSH1 0x1 PUSH1 0xA0 SHL SUB AND PUSH2 0x904 JUMP JUMPDEST PUSH1 0x1 DUP1 SLOAD PUSH1 0x1 PUSH1 0x1 PUSH1 0xA0 SHL SUB NOT AND SWAP1 SSTORE JUMP JUMPDEST PUSH1 0x4 DUP1 SLOAD PUSH1 0x40 MLOAD PUSH4 0xE8132B9F PUSH1 0xE0 SHL DUP2 MSTORE SWAP2 DUP3 ADD DUP4 SWAP1 MSTORE PUSH1 0x0 SWAP2 DUP3 SWAP2 PUSH1 0x1 PUSH1 0x1 PUSH1 0xA0 SHL SUB AND SWAP1 PUSH4 0xE8132B9F SWAP1 PUSH1 0x24 ADD PUSH1 0x20 PUSH1 0x40 MLOAD DUP1 DUP4 SUB DUP2 DUP7 GAS STATICCALL ISZERO DUP1 ISZERO PUSH2 0x3D8 JUMPI RETURNDATASIZE PUSH1 0x0 DUP1 RETURNDATACOPY RETURNDATASIZE PUSH1 0x0 REVERT JUMPDEST POP POP POP POP PUSH1 0x40 MLOAD RETURNDATASIZE PUSH1 0x1F NOT PUSH1 0x1F DUP3 ADD AND DUP3 ADD DUP1 PUSH1 0x40 MSTORE POP DUP2 ADD SWAP1 PUSH2 0x3FC SWAP2 SWAP1 PUSH2 0xA3D JUMP JUMPDEST PUSH1 0x0 DUP5 DUP2 MSTORE PUSH1 0x6 PUSH1 0x20 MSTORE PUSH1 0x40 SWAP1 KECCAK256 SLOAD PUSH8 0xFFFFFFFFFFFFFFFF SWAP2 SWAP1 SWAP2 AND SWAP2 POP DUP2 GT PUSH2 0x427 JUMPI PUSH1 0x0 PUSH2 0x440 JUMP JUMPDEST PUSH1 0x0 DUP4 DUP2 MSTORE PUSH1 0x6 PUSH1 0x20 MSTORE PUSH1 0x40 SWAP1 KECCAK256 SLOAD PUSH2 0x440 SWAP1 DUP3 PUSH2 0xA7D JUMP JUMPDEST SWAP4 SWAP3 POP POP POP JUMP JUMPDEST PUSH1 0x3 SLOAD PUSH1 0x40 MLOAD PUSH4 0x31A9108F PUSH1 0xE1 SHL DUP2 MSTORE PUSH1 0x4 DUP2 ADD DUP5 SWAP1 MSTORE PUSH1 0x0 SWAP2 CALLER SWAP2 PUSH1 0x1 PUSH1 0x1 PUSH1 0xA0 SHL SUB SWAP1 SWAP2 AND SWAP1 PUSH4 0x6352211E SWAP1 PUSH1 0x24 ADD PUSH1 0x20 PUSH1 0x40 MLOAD DUP1 DUP4 SUB DUP2 DUP7 GAS STATICCALL ISZERO DUP1 ISZERO PUSH2 0x495 JUMPI RETURNDATASIZE PUSH1 0x0 DUP1 RETURNDATACOPY RETURNDATASIZE PUSH1 0x0 REVERT JUMPDEST POP POP POP POP PUSH1 0x40 MLOAD RETURNDATASIZE PUSH1 0x1F NOT PUSH1 0x1F DUP3 ADD AND DUP3 ADD DUP1 PUSH1 0x40 MSTORE POP DUP2 ADD SWAP1 PUSH2 0x4B9 SWAP2 SWAP1 PUSH2 0xA90 JUMP JUMPDEST PUSH1 0x1 PUSH1 0x1 PUSH1 0xA0 SHL SUB AND EQ PUSH2 0x520 JUMPI PUSH1 0x40 MLOAD PUSH3 0x461BCD PUSH1 0xE5 SHL DUP2 MSTORE PUSH1 0x20 PUSH1 0x4 DUP3 ADD MSTORE PUSH1 0x24 DUP1 DUP3 ADD MSTORE PUSH32 0x626F756E7479206469737472696275746F723A206E6F7420696463617264206F PUSH1 0x44 DUP3 ADD MSTORE PUSH4 0x3BB732B9 PUSH1 0xE1 SHL PUSH1 0x64 DUP3 ADD MSTORE PUSH1 0x84 ADD JUMPDEST PUSH1 0x40 MLOAD DUP1 SWAP2 SUB SWAP1 REVERT JUMPDEST PUSH1 0x0 PUSH2 0x52B DUP5 PUSH2 0x38C JUMP JUMPDEST SWAP1 POP PUSH1 0x0 PUSH1 0x2 PUSH1 0x0 SWAP1 SLOAD SWAP1 PUSH2 0x100 EXP SWAP1 DIV PUSH1 0x1 PUSH1 0x1 PUSH1 0xA0 SHL SUB AND PUSH1 0x1 PUSH1 0x1 PUSH1 0xA0 SHL SUB AND PUSH4 0x313CE567 PUSH1 0x40 MLOAD DUP2 PUSH4 0xFFFFFFFF AND PUSH1 0xE0 SHL DUP2 MSTORE PUSH1 0x4 ADD PUSH1 0x20 PUSH1 0x40 MLOAD DUP1 DUP4 SUB DUP2 DUP7 GAS STATICCALL ISZERO DUP1 ISZERO PUSH2 0x582 JUMPI RETURNDATASIZE PUSH1 0x0 DUP1 RETURNDATACOPY RETURNDATASIZE PUSH1 0x0 REVERT JUMPDEST POP POP POP POP PUSH1 0x40 MLOAD RETURNDATASIZE PUSH1 0x1F NOT PUSH1 0x1F DUP3 ADD AND DUP3 ADD DUP1 PUSH1 0x40 MSTORE POP DUP2 ADD SWAP1 PUSH2 0x5A6 SWAP2 SWAP1 PUSH2 0xAAD JUMP JUMPDEST SWAP1 POP PUSH2 0x2710 PUSH2 0x5B6 DUP3 PUSH1 0xA PUSH2 0xBB4 JUMP JUMPDEST DUP4 PUSH1 0x5 SLOAD PUSH2 0x5C4 SWAP2 SWAP1 PUSH2 0xBC3 JUMP JUMPDEST PUSH2 0x5CE SWAP2 SWAP1 PUSH2 0xBC3 JUMP JUMPDEST PUSH2 0x5D8 SWAP2 SWAP1 PUSH2 0xBDA JUMP JUMPDEST PUSH1 0x2 SLOAD PUSH1 0x40 MLOAD PUSH4 0xA9059CBB PUSH1 0xE0 SHL DUP2 MSTORE PUSH1 0x1 PUSH1 0x1 PUSH1 0xA0 SHL SUB DUP8 DUP2 AND PUSH1 0x4 DUP4 ADD MSTORE PUSH1 0x24 DUP3 ADD DUP5 SWAP1 MSTORE SWAP3 SWAP6 POP PUSH1 0x0 SWAP3 SWAP1 SWAP2 AND SWAP1 PUSH4 0xA9059CBB SWAP1 PUSH1 0x44 ADD PUSH1 0x20 PUSH1 0x40 MLOAD DUP1 DUP4 SUB DUP2 PUSH1 0x0 DUP8 GAS CALL ISZERO DUP1 ISZERO PUSH2 0x631 JUMPI RETURNDATASIZE PUSH1 0x0 DUP1 RETURNDATACOPY RETURNDATASIZE PUSH1 0x0 REVERT JUMPDEST POP POP POP POP PUSH1 0x40 MLOAD RETURNDATASIZE PUSH1 0x1F NOT PUSH1 0x1F DUP3 ADD AND DUP3 ADD DUP1 PUSH1 0x40 MSTORE POP DUP2 ADD SWAP1 PUSH2 0x655 SWAP2 SWAP1 PUSH2 0xA1B JUMP JUMPDEST SWAP1 POP DUP1 PUSH2 0x6B9 JUMPI PUSH1 0x40 MLOAD PUSH3 0x461BCD PUSH1 0xE5 SHL DUP2 MSTORE PUSH1 0x20 PUSH1 0x4 DUP3 ADD MSTORE PUSH1 0x2C PUSH1 0x24 DUP3 ADD MSTORE PUSH32 0x626F756E7479206469737472696275746F723A2073656E6420626F756E747920 PUSH1 0x44 DUP3 ADD MSTORE PUSH12 0x1D1BDAD95B8819985A5B1959 PUSH1 0xA2 SHL PUSH1 0x64 DUP3 ADD MSTORE PUSH1 0x84 ADD PUSH2 0x517 JUMP JUMPDEST PUSH1 0x0 DUP7 DUP2 MSTORE PUSH1 0x6 PUSH1 0x20 MSTORE PUSH1 0x40 DUP2 KECCAK256 DUP1 SLOAD DUP6 SWAP3 SWAP1 PUSH2 0x6D7 SWAP1 DUP5 SWAP1 PUSH2 0xBFC JUMP JUMPDEST SWAP1 SWAP2 SSTORE POP POP PUSH1 0x40 DUP1 MLOAD DUP8 DUP2 MSTORE PUSH1 0x1 PUSH1 0x1 PUSH1 0xA0 SHL SUB DUP8 AND PUSH1 0x20 DUP3 ADD MSTORE SWAP1 DUP2 ADD DUP6 SWAP1 MSTORE PUSH32 0x82DE279E1363EBE259BA3E76F44583E530A71408D1B933CA57E5D2A0B41A80FC SWAP1 PUSH1 0x60 ADD PUSH1 0x40 MLOAD DUP1 SWAP2 SUB SWAP1 LOG1 POP POP POP JUMPDEST SWAP3 SWAP2 POP POP JUMP JUMPDEST PUSH1 0x0 SLOAD PUSH1 0x1 PUSH1 0x1 PUSH1 0xA0 SHL SUB AND CALLER EQ PUSH2 0x746 JUMPI PUSH1 0x0 DUP1 REVERT JUMPDEST PUSH1 0x1 DUP1 SLOAD PUSH1 0x1 PUSH1 0x1 PUSH1 0xA0 SHL SUB NOT AND PUSH1 0x1 PUSH1 0x1 PUSH1 0xA0 SHL SUB DUP4 AND SWAP1 DUP2 OR SWAP1 SWAP2 SSTORE PUSH1 0x40 MLOAD SWAP1 DUP2 MSTORE PUSH32 0xDA7B0A7BC965ABDEC8A1A995575A891838264C2968E14BD456C5391827B7AA30 SWAP1 PUSH1 0x20 ADD JUMPDEST PUSH1 0x40 MLOAD DUP1 SWAP2 SUB SWAP1 LOG1 POP JUMP JUMPDEST PUSH1 0x0 SLOAD PUSH1 0x1 PUSH1 0x1 PUSH1 0xA0 SHL SUB AND CALLER EQ PUSH2 0x7B2 JUMPI PUSH1 0x0 DUP1 REVERT JUMPDEST PUSH2 0x2710 DUP2 GT ISZERO PUSH2 0x81B JUMPI PUSH1 0x40 MLOAD PUSH3 0x461BCD PUSH1 0xE5 SHL DUP2 MSTORE PUSH1 0x20 PUSH1 0x4 DUP3 ADD MSTORE PUSH1 0x2E PUSH1 0x24 DUP3 ADD MSTORE PUSH32 0x706F63466163746F72206D757374206265206C657373207468616E206F722065 PUSH1 0x44 DUP3 ADD MSTORE PUSH14 0x38BAB0B6103A379018981818181 PUSH1 0x95 SHL PUSH1 0x64 DUP3 ADD MSTORE PUSH1 0x84 ADD PUSH2 0x517 JUMP JUMPDEST PUSH1 0x5 SSTORE JUMP JUMPDEST PUSH1 0x0 DUP1 PUSH2 0x82C DUP4 PUSH2 0x38C JUMP JUMPDEST SWAP1 POP PUSH1 0x0 PUSH1 0x2 PUSH1 0x0 SWAP1 SLOAD SWAP1 PUSH2 0x100 EXP SWAP1 DIV PUSH1 0x1 PUSH1 0x1 PUSH1 0xA0 SHL SUB AND PUSH1 0x1 PUSH1 0x1 PUSH1 0xA0 SHL SUB AND PUSH4 0x313CE567 PUSH1 0x40 MLOAD DUP2 PUSH4 0xFFFFFFFF AND PUSH1 0xE0 SHL DUP2 MSTORE PUSH1 0x4 ADD PUSH1 0x20 PUSH1 0x40 MLOAD DUP1 DUP4 SUB DUP2 DUP7 GAS STATICCALL ISZERO DUP1 ISZERO PUSH2 0x883 JUMPI RETURNDATASIZE PUSH1 0x0 DUP1 RETURNDATACOPY RETURNDATASIZE PUSH1 0x0 REVERT JUMPDEST POP POP POP POP PUSH1 0x40 MLOAD RETURNDATASIZE PUSH1 0x1F NOT PUSH1 0x1F DUP3 ADD AND DUP3 ADD DUP1 PUSH1 0x40 MSTORE POP DUP2 ADD SWAP1 PUSH2 0x8A7 SWAP2 SWAP1 PUSH2 0xAAD JUMP JUMPDEST SWAP1 POP PUSH2 0x2710 PUSH2 0x8B7 DUP3 PUSH1 0xA PUSH2 0xBB4 JUMP JUMPDEST DUP4 PUSH1 0x5 SLOAD PUSH2 0x8C5 SWAP2 SWAP1 PUSH2 0xBC3 JUMP JUMPDEST PUSH2 0x8CF SWAP2 SWAP1 PUSH2 0xBC3 JUMP JUMPDEST PUSH2 0x8D9 SWAP2 SWAP1 PUSH2 0xBDA JUMP JUMPDEST SWAP5 SWAP4 POP POP POP POP JUMP JUMPDEST PUSH1 0x0 SLOAD PUSH1 0x1 PUSH1 0x1 PUSH1 0xA0 SHL SUB AND CALLER EQ PUSH2 0x8F8 JUMPI PUSH1 0x0 DUP1 REVERT JUMPDEST PUSH2 0x901 DUP2 PUSH2 0x952 JUMP JUMPDEST POP JUMP JUMPDEST PUSH1 0x0 DUP1 SLOAD PUSH1 0x1 PUSH1 0x1 PUSH1 0xA0 SHL SUB NOT AND PUSH1 0x1 PUSH1 0x1 PUSH1 0xA0 SHL SUB DUP4 AND SWAP1 DUP2 OR SWAP1 SWAP2 SSTORE PUSH1 0x40 MLOAD SWAP1 DUP2 MSTORE PUSH32 0x5A272403B402D892977DF56625F4164CCAF70CA3863991C43ECFE76A6905B0A1 SWAP1 PUSH1 0x20 ADD PUSH2 0x790 JUMP JUMPDEST PUSH1 0x2 DUP1 SLOAD PUSH1 0x1 PUSH1 0x1 PUSH1 0xA0 SHL SUB NOT AND PUSH1 0x1 PUSH1 0x1 PUSH1 0xA0 SHL SUB DUP4 AND SWAP1 DUP2 OR SWAP1 SWAP2 SSTORE PUSH1 0x40 MLOAD SWAP1 DUP2 MSTORE PUSH32 0xA9531E5694C168F606ED45F0CFCC450ABB1B130668153978B0712FAF10089BB9 SWAP1 PUSH1 0x20 ADD PUSH2 0x790 JUMP JUMPDEST PUSH1 0x1 PUSH1 0x1 PUSH1 0xA0 SHL SUB DUP2 AND DUP2 EQ PUSH2 0x901 JUMPI PUSH1 0x0 DUP1 REVERT JUMPDEST PUSH1 0x0 DUP1 PUSH1 0x40 DUP4 DUP6 SUB SLT ISZERO PUSH2 0x9C8 JUMPI PUSH1 0x0 DUP1 REVERT JUMPDEST DUP3 CALLDATALOAD SWAP2 POP PUSH1 0x20 DUP4 ADD CALLDATALOAD PUSH2 0x9DA DUP2 PUSH2 0x9A0 JUMP JUMPDEST DUP1 SWAP2 POP POP SWAP3 POP SWAP3 SWAP1 POP JUMP JUMPDEST PUSH1 0x0 PUSH1 0x20 DUP3 DUP5 SUB SLT ISZERO PUSH2 0x9F7 JUMPI PUSH1 0x0 DUP1 REVERT JUMPDEST POP CALLDATALOAD SWAP2 SWAP1 POP JUMP JUMPDEST PUSH1 0x0 PUSH1 0x20 DUP3 DUP5 SUB SLT ISZERO PUSH2 0xA10 JUMPI PUSH1 0x0 DUP1 REVERT JUMPDEST DUP2 CALLDATALOAD PUSH2 0x440 DUP2 PUSH2 0x9A0 JUMP JUMPDEST PUSH1 0x0 PUSH1 0x20 DUP3 DUP5 SUB SLT ISZERO PUSH2 0xA2D JUMPI PUSH1 0x0 DUP1 REVERT JUMPDEST DUP2 MLOAD DUP1 ISZERO ISZERO DUP2 EQ PUSH2 0x440 JUMPI PUSH1 0x0 DUP1 REVERT JUMPDEST PUSH1 0x0 PUSH1 0x20 DUP3 DUP5 SUB SLT ISZERO PUSH2 0xA4F JUMPI PUSH1 0x0 DUP1 REVERT JUMPDEST DUP2 MLOAD PUSH8 0xFFFFFFFFFFFFFFFF DUP2 AND DUP2 EQ PUSH2 0x440 JUMPI PUSH1 0x0 DUP1 REVERT JUMPDEST PUSH4 0x4E487B71 PUSH1 0xE0 SHL PUSH1 0x0 MSTORE PUSH1 0x11 PUSH1 0x4 MSTORE PUSH1 0x24 PUSH1 0x0 REVERT JUMPDEST DUP2 DUP2 SUB DUP2 DUP2 GT ISZERO PUSH2 0x729 JUMPI PUSH2 0x729 PUSH2 0xA67 JUMP JUMPDEST PUSH1 0x0 PUSH1 0x20 DUP3 DUP5 SUB SLT ISZERO PUSH2 0xAA2 JUMPI PUSH1 0x0 DUP1 REVERT JUMPDEST DUP2 MLOAD PUSH2 0x440 DUP2 PUSH2 0x9A0 JUMP JUMPDEST PUSH1 0x0 PUSH1 0x20 DUP3 DUP5 SUB SLT ISZERO PUSH2 0xABF JUMPI PUSH1 0x0 DUP1 REVERT JUMPDEST DUP2 MLOAD PUSH1 0xFF DUP2 AND DUP2 EQ PUSH2 0x440 JUMPI PUSH1 0x0 DUP1 REVERT JUMPDEST PUSH1 0x1 DUP2 DUP2 JUMPDEST DUP1 DUP6 GT ISZERO PUSH2 0xB0B JUMPI DUP2 PUSH1 0x0 NOT DIV DUP3 GT ISZERO PUSH2 0xAF1 JUMPI PUSH2 0xAF1 PUSH2 0xA67 JUMP JUMPDEST DUP1 DUP6 AND ISZERO PUSH2 0xAFE JUMPI SWAP2 DUP2 MUL SWAP2 JUMPDEST SWAP4 DUP5 SHR SWAP4 SWAP1 DUP1 MUL SWAP1 PUSH2 0xAD5 JUMP JUMPDEST POP SWAP3 POP SWAP3 SWAP1 POP JUMP JUMPDEST PUSH1 0x0 DUP3 PUSH2 0xB22 JUMPI POP PUSH1 0x1 PUSH2 0x729 JUMP JUMPDEST DUP2 PUSH2 0xB2F JUMPI POP PUSH1 0x0 PUSH2 0x729 JUMP JUMPDEST DUP2 PUSH1 0x1 DUP2 EQ PUSH2 0xB45 JUMPI PUSH1 0x2 DUP2 EQ PUSH2 0xB4F JUMPI PUSH2 0xB6B JUMP JUMPDEST PUSH1 0x1 SWAP2 POP POP PUSH2 0x729 JUMP JUMPDEST PUSH1 0xFF DUP5 GT ISZERO PUSH2 0xB60 JUMPI PUSH2 0xB60 PUSH2 0xA67 JUMP JUMPDEST POP POP PUSH1 0x1 DUP3 SHL PUSH2 0x729 JUMP JUMPDEST POP PUSH1 0x20 DUP4 LT PUSH2 0x133 DUP4 LT AND PUSH1 0x4E DUP5 LT PUSH1 0xB DUP5 LT AND OR ISZERO PUSH2 0xB8E JUMPI POP DUP2 DUP2 EXP PUSH2 0x729 JUMP JUMPDEST PUSH2 0xB98 DUP4 DUP4 PUSH2 0xAD0 JUMP JUMPDEST DUP1 PUSH1 0x0 NOT DIV DUP3 GT ISZERO PUSH2 0xBAC JUMPI PUSH2 0xBAC PUSH2 0xA67 JUMP JUMPDEST MUL SWAP4 SWAP3 POP POP POP JUMP JUMPDEST PUSH1 0x0 PUSH2 0x440 PUSH1 0xFF DUP5 AND DUP4 PUSH2 0xB13 JUMP JUMPDEST DUP1 DUP3 MUL DUP2 ISZERO DUP3 DUP3 DIV DUP5 EQ OR PUSH2 0x729 JUMPI PUSH2 0x729 PUSH2 0xA67 JUMP JUMPDEST PUSH1 0x0 DUP3 PUSH2 0xBF7 JUMPI PUSH4 0x4E487B71 PUSH1 0xE0 SHL PUSH1 0x0 MSTORE PUSH1 0x12 PUSH1 0x4 MSTORE PUSH1 0x24 PUSH1 0x0 REVERT JUMPDEST POP DIV SWAP1 JUMP JUMPDEST DUP1 DUP3 ADD DUP1 DUP3 GT ISZERO PUSH2 0x729 JUMPI PUSH2 0x729 PUSH2 0xA67 JUMP INVALID LOG2 PUSH5 0x6970667358 0x22 SLT KECCAK256 MSIZE 0x25 0x1F 0xE0 LOG3 ADDMOD 0xA8 MOD CALLCODE 0xAA 0xC0 0xDA MOD SWAP8 0xF 0xC0 0xE2 0x22 0xB8 0xF9 CODECOPY 0xAD SGT 0x29 PUSH3 0x5FB599 INVALID CHAINID MUL CALL PUSH5 0x736F6C6343 STOP ADDMOD GT STOP CALLER "},"methodIdentifiers":{"acceptAdmin()":"0e18b681","admin()":"f851a440","bountyDay()":"afdc31a0","bountyToken()":"2d4147e3","claimBounty(uint256,address)":"54d4fad3","claimable(uint256)":"d1d58b25","getDpoc(uint256)":"4078d8d4","historicPoints(uint256)":"06602303","idnft()":"fd9316ef","multiHonor()":"52a1bbfb","pendingAdmin()":"26782247","pocFactor()":"4b301483","setBountyToken(address)":"f9da8f2d","setPocFactor(uint256)":"7bd8aa89","transferAdmin(address)":"75829def","withdraw(uint256,address)":"00f714ce"}}}}}