{
  "_format": "hh-sol-artifact-1",
  "contractName": "MultiHonor_V1",
  "sourceName": "contracts/mocks/MultiHonor.sol",
  "abi": [
    {
      "anonymous": false,
      "inputs": [
        {
          "indexed": false,
          "internalType": "uint256[]",
          "name": "ids",
          "type": "uint256[]"
        },
        {
          "indexed": false,
          "internalType": "uint64[]",
          "name": "eventPower",
          "type": "uint64[]"
        }
      ],
      "name": "AddEventPoint",
      "type": "event"
    },
    {
      "anonymous": false,
      "inputs": [
        {
          "indexed": false,
          "internalType": "uint256[]",
          "name": "ids",
          "type": "uint256[]"
        },
        {
          "indexed": false,
          "internalType": "uint64[]",
          "name": "poc",
          "type": "uint64[]"
        }
      ],
      "name": "AddPOC",
      "type": "event"
    },
    {
      "anonymous": false,
      "inputs": [
        {
          "indexed": false,
          "internalType": "uint8",
          "name": "version",
          "type": "uint8"
        }
      ],
      "name": "Initialized",
      "type": "event"
    },
    {
      "anonymous": false,
      "inputs": [
        {
          "indexed": true,
          "internalType": "bytes32",
          "name": "role",
          "type": "bytes32"
        },
        {
          "indexed": true,
          "internalType": "bytes32",
          "name": "previousAdminRole",
          "type": "bytes32"
        },
        {
          "indexed": true,
          "internalType": "bytes32",
          "name": "newAdminRole",
          "type": "bytes32"
        }
      ],
      "name": "RoleAdminChanged",
      "type": "event"
    },
    {
      "anonymous": false,
      "inputs": [
        {
          "indexed": true,
          "internalType": "bytes32",
          "name": "role",
          "type": "bytes32"
        },
        {
          "indexed": true,
          "internalType": "address",
          "name": "account",
          "type": "address"
        },
        {
          "indexed": true,
          "internalType": "address",
          "name": "sender",
          "type": "address"
        }
      ],
      "name": "RoleGranted",
      "type": "event"
    },
    {
      "anonymous": false,
      "inputs": [
        {
          "indexed": true,
          "internalType": "bytes32",
          "name": "role",
          "type": "bytes32"
        },
        {
          "indexed": true,
          "internalType": "address",
          "name": "account",
          "type": "address"
        },
        {
          "indexed": true,
          "internalType": "address",
          "name": "sender",
          "type": "address"
        }
      ],
      "name": "RoleRevoked",
      "type": "event"
    },
    {
      "anonymous": false,
      "inputs": [
        {
          "indexed": false,
          "internalType": "uint256[]",
          "name": "ids",
          "type": "uint256[]"
        },
        {
          "indexed": false,
          "internalType": "uint64[]",
          "name": "eventPower",
          "type": "uint64[]"
        }
      ],
      "name": "SetEventPoint",
      "type": "event"
    },
    {
      "anonymous": false,
      "inputs": [
        {
          "indexed": false,
          "internalType": "address",
          "name": "idcard",
          "type": "address"
        }
      ],
      "name": "SetIDCard",
      "type": "event"
    },
    {
      "anonymous": false,
      "inputs": [
        {
          "indexed": false,
          "internalType": "uint256[]",
          "name": "ids",
          "type": "uint256[]"
        },
        {
          "indexed": false,
          "internalType": "uint64[]",
          "name": "poc",
          "type": "uint64[]"
        }
      ],
      "name": "SetPoc",
      "type": "event"
    },
    {
      "anonymous": false,
      "inputs": [
        {
          "indexed": false,
          "internalType": "uint256[]",
          "name": "ids",
          "type": "uint256[]"
        },
        {
          "indexed": false,
          "internalType": "uint256[]",
          "name": "vePower",
          "type": "uint256[]"
        },
        {
          "indexed": false,
          "internalType": "uint64",
          "name": "epoch",
          "type": "uint64"
        }
      ],
      "name": "SetVEPower",
      "type": "event"
    },
    {
      "inputs": [],
      "name": "DEFAULT_ADMIN_ROLE",
      "outputs": [
        {
          "internalType": "bytes32",
          "name": "",
          "type": "bytes32"
        }
      ],
      "stateMutability": "view",
      "type": "function"
    },
    {
      "inputs": [
        {
          "internalType": "uint256",
          "name": "tokenId",
          "type": "uint256"
        }
      ],
      "name": "EventPoint",
      "outputs": [
        {
          "internalType": "uint64",
          "name": "",
          "type": "uint64"
        }
      ],
      "stateMutability": "view",
      "type": "function"
    },
    {
      "inputs": [],
      "name": "IDCard",
      "outputs": [
        {
          "internalType": "address",
          "name": "",
          "type": "address"
        }
      ],
      "stateMutability": "view",
      "type": "function"
    },
    {
      "inputs": [
        {
          "internalType": "uint256",
          "name": "tokenId",
          "type": "uint256"
        }
      ],
      "name": "Level",
      "outputs": [
        {
          "internalType": "uint8",
          "name": "",
          "type": "uint8"
        }
      ],
      "stateMutability": "view",
      "type": "function"
    },
    {
      "inputs": [
        {
          "internalType": "uint256",
          "name": "tokenId",
          "type": "uint256"
        },
        {
          "internalType": "uint256",
          "name": "time",
          "type": "uint256"
        }
      ],
      "name": "POC",
      "outputs": [
        {
          "internalType": "uint64",
          "name": "",
          "type": "uint64"
        }
      ],
      "stateMutability": "view",
      "type": "function"
    },
    {
      "inputs": [],
      "name": "ROLE_ADD_EVENT",
      "outputs": [
        {
          "internalType": "bytes32",
          "name": "",
          "type": "bytes32"
        }
      ],
      "stateMutability": "view",
      "type": "function"
    },
    {
      "inputs": [],
      "name": "ROLE_ADD_POC",
      "outputs": [
        {
          "internalType": "bytes32",
          "name": "",
          "type": "bytes32"
        }
      ],
      "stateMutability": "view",
      "type": "function"
    },
    {
      "inputs": [],
      "name": "ROLE_SET_EVENT",
      "outputs": [
        {
          "internalType": "bytes32",
          "name": "",
          "type": "bytes32"
        }
      ],
      "stateMutability": "view",
      "type": "function"
    },
    {
      "inputs": [],
      "name": "ROLE_SET_POC",
      "outputs": [
        {
          "internalType": "bytes32",
          "name": "",
          "type": "bytes32"
        }
      ],
      "stateMutability": "view",
      "type": "function"
    },
    {
      "inputs": [],
      "name": "ROLE_SET_VEPOWER",
      "outputs": [
        {
          "internalType": "bytes32",
          "name": "",
          "type": "bytes32"
        }
      ],
      "stateMutability": "view",
      "type": "function"
    },
    {
      "inputs": [
        {
          "internalType": "uint256",
          "name": "tokenId",
          "type": "uint256"
        }
      ],
      "name": "TotalPoint",
      "outputs": [
        {
          "internalType": "uint64",
          "name": "",
          "type": "uint64"
        }
      ],
      "stateMutability": "view",
      "type": "function"
    },
    {
      "inputs": [
        {
          "internalType": "uint256",
          "name": "tokenId",
          "type": "uint256"
        }
      ],
      "name": "VEPoint",
      "outputs": [
        {
          "internalType": "uint64",
          "name": "",
          "type": "uint64"
        }
      ],
      "stateMutability": "view",
      "type": "function"
    },
    {
      "inputs": [
        {
          "internalType": "uint256",
          "name": "tokenId",
          "type": "uint256"
        }
      ],
      "name": "VEPower",
      "outputs": [
        {
          "internalType": "uint256",
          "name": "",
          "type": "uint256"
        }
      ],
      "stateMutability": "view",
      "type": "function"
    },
    {
      "inputs": [
        {
          "internalType": "uint256[]",
          "name": "ids",
          "type": "uint256[]"
        },
        {
          "internalType": "uint64[]",
          "name": "eventPower",
          "type": "uint64[]"
        }
      ],
      "name": "addEventPoint",
      "outputs": [],
      "stateMutability": "nonpayable",
      "type": "function"
    },
    {
      "inputs": [
        {
          "internalType": "uint256[]",
          "name": "ids",
          "type": "uint256[]"
        },
        {
          "internalType": "uint64[]",
          "name": "poc",
          "type": "uint64[]"
        }
      ],
      "name": "addPOC",
      "outputs": [],
      "stateMutability": "nonpayable",
      "type": "function"
    },
    {
      "inputs": [
        {
          "internalType": "address",
          "name": "account",
          "type": "address"
        },
        {
          "internalType": "uint256",
          "name": "id",
          "type": "uint256"
        }
      ],
      "name": "balanceOf",
      "outputs": [
        {
          "internalType": "uint256",
          "name": "balance",
          "type": "uint256"
        }
      ],
      "stateMutability": "view",
      "type": "function"
    },
    {
      "inputs": [],
      "name": "currentVEEpoch",
      "outputs": [
        {
          "internalType": "uint256",
          "name": "",
          "type": "uint256"
        }
      ],
      "stateMutability": "view",
      "type": "function"
    },
    {
      "inputs": [
        {
          "internalType": "bytes32",
          "name": "role",
          "type": "bytes32"
        }
      ],
      "name": "getRoleAdmin",
      "outputs": [
        {
          "internalType": "bytes32",
          "name": "",
          "type": "bytes32"
        }
      ],
      "stateMutability": "view",
      "type": "function"
    },
    {
      "inputs": [
        {
          "internalType": "bytes32",
          "name": "role",
          "type": "bytes32"
        },
        {
          "internalType": "address",
          "name": "account",
          "type": "address"
        }
      ],
      "name": "grantRole",
      "outputs": [],
      "stateMutability": "nonpayable",
      "type": "function"
    },
    {
      "inputs": [
        {
          "internalType": "bytes32",
          "name": "role",
          "type": "bytes32"
        },
        {
          "internalType": "address",
          "name": "account",
          "type": "address"
        }
      ],
      "name": "hasRole",
      "outputs": [
        {
          "internalType": "bool",
          "name": "",
          "type": "bool"
        }
      ],
      "stateMutability": "view",
      "type": "function"
    },
    {
      "inputs": [],
      "name": "initialize",
      "outputs": [],
      "stateMutability": "nonpayable",
      "type": "function"
    },
    {
      "inputs": [],
      "name": "k",
      "outputs": [
        {
          "internalType": "uint256",
          "name": "",
          "type": "uint256"
        }
      ],
      "stateMutability": "view",
      "type": "function"
    },
    {
      "inputs": [
        {
          "internalType": "uint256",
          "name": "level",
          "type": "uint256"
        }
      ],
      "name": "levelRequire",
      "outputs": [
        {
          "internalType": "uint64",
          "name": "",
          "type": "uint64"
        }
      ],
      "stateMutability": "pure",
      "type": "function"
    },
    {
      "inputs": [
        {
          "internalType": "uint256",
          "name": "x",
          "type": "uint256"
        }
      ],
      "name": "log_2",
      "outputs": [
        {
          "internalType": "uint256",
          "name": "y",
          "type": "uint256"
        }
      ],
      "stateMutability": "pure",
      "type": "function"
    },
    {
      "inputs": [
        {
          "internalType": "bytes32",
          "name": "role",
          "type": "bytes32"
        },
        {
          "internalType": "address",
          "name": "account",
          "type": "address"
        }
      ],
      "name": "renounceRole",
      "outputs": [],
      "stateMutability": "nonpayable",
      "type": "function"
    },
    {
      "inputs": [
        {
          "internalType": "bytes32",
          "name": "role",
          "type": "bytes32"
        },
        {
          "internalType": "address",
          "name": "account",
          "type": "address"
        }
      ],
      "name": "revokeRole",
      "outputs": [],
      "stateMutability": "nonpayable",
      "type": "function"
    },
    {
      "inputs": [
        {
          "internalType": "uint256[]",
          "name": "ids",
          "type": "uint256[]"
        },
        {
          "internalType": "uint64[]",
          "name": "eventPower",
          "type": "uint64[]"
        }
      ],
      "name": "setEventPoint",
      "outputs": [],
      "stateMutability": "nonpayable",
      "type": "function"
    },
    {
      "inputs": [
        {
          "internalType": "address",
          "name": "IDCard_",
          "type": "address"
        }
      ],
      "name": "setIDCard",
      "outputs": [],
      "stateMutability": "nonpayable",
      "type": "function"
    },
    {
      "inputs": [
        {
          "internalType": "uint256[]",
          "name": "ids",
          "type": "uint256[]"
        },
        {
          "internalType": "uint64[]",
          "name": "poc",
          "type": "uint64[]"
        }
      ],
      "name": "setPOC",
      "outputs": [],
      "stateMutability": "nonpayable",
      "type": "function"
    },
    {
      "inputs": [
        {
          "internalType": "uint256[]",
          "name": "ids",
          "type": "uint256[]"
        },
        {
          "internalType": "uint256[]",
          "name": "vePower",
          "type": "uint256[]"
        }
      ],
      "name": "setVEPower",
      "outputs": [],
      "stateMutability": "nonpayable",
      "type": "function"
    },
    {
      "inputs": [
        {
          "internalType": "bytes4",
          "name": "interfaceId",
          "type": "bytes4"
        }
      ],
      "name": "supportsInterface",
      "outputs": [
        {
          "internalType": "bool",
          "name": "",
          "type": "bool"
        }
      ],
      "stateMutability": "view",
      "type": "function"
    },
    {
      "inputs": [],
      "name": "veEpochLength",
      "outputs": [
        {
          "internalType": "uint256",
          "name": "",
          "type": "uint256"
        }
      ],
      "stateMutability": "view",
      "type": "function"
    },
    {
      "inputs": [
        {
          "internalType": "uint256",
          "name": "v",
          "type": "uint256"
        }
      ],
      "name": "vePower2vePoint",
      "outputs": [
        {
          "internalType": "uint256",
          "name": "",
          "type": "uint256"
        }
      ],
      "stateMutability": "pure",
      "type": "function"
    },
    {
      "inputs": [],
      "name": "weight_event",
      "outputs": [
        {
          "internalType": "uint256",
          "name": "",
          "type": "uint256"
        }
      ],
      "stateMutability": "view",
      "type": "function"
    },
    {
      "inputs": [],
      "name": "weight_poc",
      "outputs": [
        {
          "internalType": "uint256",
          "name": "",
          "type": "uint256"
        }
      ],
      "stateMutability": "view",
      "type": "function"
    },
    {
      "inputs": [],
      "name": "weight_vepoint",
      "outputs": [
        {
          "internalType": "uint256",
          "name": "",
          "type": "uint256"
        }
      ],
      "stateMutability": "view",
      "type": "function"
    }
  ],
  "bytecode": "0x608060405234801561001057600080fd5b506121c1806100206000396000f3fe608060405234801561001057600080fd5b506004361061021a5760003560e01c80636a0ca6cd1161012557806399e0677f116100ad578063d1f928c11161007c578063d1f928c114610515578063d547741f14610528578063e2b683271461053b578063e8d407471461054e578063fc0c0c3b1461055657600080fd5b806399e0677f146104c8578063a217fddf146104db578063a5c61edd146104e3578063b4f40c611461050c57600080fd5b806379d7ec80116100f457806379d7ec80146104605780637ed57e0e146104735780638129fc1c1461049a57806391d14854146104a25780639981534e146104b557600080fd5b80636a0ca6cd146104105780637123d6151461041957806373fff6c31461044457806378a137711461045757600080fd5b80632f2ff15d116101a857806344d0ec071161017757806344d0ec07146103b157806344d24220146103c45780635faa12f1146103cd57806361b04af9146103f4578063695f1e121461040757600080fd5b80632f2ff15d1461034f57806335e9b6421461036457806336568abe1461038b5780633e59056e1461039e57600080fd5b806311d5c6b5116101ef57806311d5c6b51461028e5780631e48cb05146102b3578063248a9ca3146102da57806324ce762c146102fd57806326b211ba1461032857600080fd5b8062fdd58e1461021f578062ff2fb11461024557806301ffc9a7146102585780630be2740c1461027b575b600080fd5b61023261022d366004611cdd565b610569565b6040519081526020015b60405180910390f35b610232610253366004611d07565b61089e565b61026b610266366004611d20565b610929565b604051901515815260200161023c565b610232610289366004611d07565b61095e565b6102a161029c366004611d07565b6109c1565b60405160ff909116815260200161023c565b6102327f299f144f9fec4a25b043de89e762ac3fd89ffb989a4690b198d22dd9edbcba4f81565b6102326102e8366004611d07565b60009081526065602052604090206001015490565b61031061030b366004611d4a565b610c91565b6040516001600160401b03909116815260200161023c565b6102327f13257015ec9fd18a935274a54d2fe1c72530ccc6ff6ac7057c7d8a6900ceccba81565b61036261035d366004611d6c565b610d06565b005b6102327f8d33451580cec858e7ec47f2258a9a8edde6cdfd0cbbc2c2fb654db03fbb2d8c81565b610362610399366004611d6c565b610d30565b6103626103ac366004611d98565b610dae565b6103626103bf366004611dfe565b610e0d565b61023260995481565b6102327f4504525b0855d643ed8c29c4d688fed6965fe228830d3a514b831e1e3fa6579581565b610310610402366004611d07565b610f0e565b610232609c5481565b61023260985481565b60975461042c906001600160a01b031681565b6040516001600160a01b03909116815260200161023c565b610310610452366004611d07565b610f6c565b610232609a5481565b61036261046e366004611dfe565b610fd3565b6102327f44699bfba21d81c4fd420fbc1901c4bdad6f62a68daed7b424a78a2b147bc9de81565b610362611154565b61026b6104b0366004611d6c565b611298565b6103106104c3366004611d07565b6112c3565b6103626104d6366004611dfe565b611468565b610232600081565b6103106104f1366004611d07565b6000908152609f60205260409020546001600160401b031690565b610232609b5481565b610232610523366004611d07565b6115b1565b610362610536366004611d6c565b6115f5565b610362610549366004611dfe565b61161a565b610232611752565b610362610564366004611dfe565b611767565b60006001600160a01b0383166105d95760405162461bcd60e51b815260206004820152602a60248201527f455243313135353a2061646472657373207a65726f206973206e6f742061207660448201526930b634b21037bbb732b960b11b60648201526084015b60405180910390fd5b609754604051632f745c5960e01b81526001600160a01b0385811660048301526000602483015290911690632f745c5990604401602060405180830381865afa925050508015610646575060408051601f3d908101601f1916820190925261064391810190611e69565b60015b61065257506000610898565b826000036106c657604051634cc0a9a760e11b8152600481018290523090639981534e90602401602060405180830381865afa158015610696573d6000803e3d6000fd5b505050506040513d601f19601f820116820180604052508101906106ba9190611e97565b6001600160401b031691505b82600103610740576040516309339d8b60e21b81526004810182905242602482015230906324ce762c90604401602060405180830381865afa158015610710573d6000803e3d6000fd5b505050506040513d601f19601f820116820180604052508101906107349190611e97565b6001600160401b031691505b826002036107b4576040516373fff6c360e01b81526004810182905230906373fff6c390602401602060405180830381865afa158015610784573d6000803e3d6000fd5b505050506040513d601f19601f820116820180604052508101906107a89190611e97565b6001600160401b031691505b826003036108285760405163a5c61edd60e01b815260048101829052309063a5c61edd90602401602060405180830381865afa1580156107f8573d6000803e3d6000fd5b505050506040513d601f19601f8201168201806040525081019061081c9190611e97565b6001600160401b031691505b82600403610896576040516311d5c6b560e01b81526004810182905230906311d5c6b590602401602060405180830381865afa15801561086c573d6000803e3d6000fd5b505050506040513d601f19601f820116820180604052508101906108909190611eb4565b60ff1691505b505b92915050565b6000805b60ff8110156108e057600183901c9250826000036108c05750919050565b816108ca81611eed565b92505080806108d890611eed565b9150506108a2565b5060405162461bcd60e51b815260206004820152601860248201527f6c6f675f32206d6178206c6f6f7073206578636565646564000000000000000060448201526064016105d0565b60006001600160e01b03198216637965db0b60e01b148061089857506301ffc9a760e01b6001600160e01b0319831614610898565b60006103e8670de0b6b3a764000061097884610202611f06565b6109829190611f1d565b61098c9190611f1d565b6109ac6109a1670de0b6b3a764000085611f1d565b610253906001611f3f565b6109b79060fa611f06565b6108989190611f3f565b60006109cd6005610f0e565b604051634cc0a9a760e11b8152600481018490526001600160401b0391909116903090639981534e90602401602060405180830381865afa158015610a16573d6000803e3d6000fd5b505050506040513d601f19601f82011682018060405250810190610a3a9190611e97565b6001600160401b03161115610a5157506005919050565b610a5b6004610f0e565b604051634cc0a9a760e11b8152600481018490526001600160401b0391909116903090639981534e90602401602060405180830381865afa158015610aa4573d6000803e3d6000fd5b505050506040513d601f19601f82011682018060405250810190610ac89190611e97565b6001600160401b03161115610adf57506004919050565b610ae96003610f0e565b604051634cc0a9a760e11b8152600481018490526001600160401b0391909116903090639981534e90602401602060405180830381865afa158015610b32573d6000803e3d6000fd5b505050506040513d601f19601f82011682018060405250810190610b569190611e97565b6001600160401b03161115610b6d57506003919050565b610b776002610f0e565b604051634cc0a9a760e11b8152600481018490526001600160401b0391909116903090639981534e90602401602060405180830381865afa158015610bc0573d6000803e3d6000fd5b505050506040513d601f19601f82011682018060405250810190610be49190611e97565b6001600160401b03161115610bfb57506002919050565b610c056001610f0e565b604051634cc0a9a760e11b8152600481018490526001600160401b0391909116903090639981534e90602401602060405180830381865afa158015610c4e573d6000803e3d6000fd5b505050506040513d601f19601f82011682018060405250810190610c729190611e97565b6001600160401b03161115610c8957506001919050565b506000919050565b609b546000838152609d60205260408120549091620f424091610cc9906801000000000000000090046001600160401b031685611f52565b610cd39190611f06565b610cdd9190611f1d565b6000848152609d6020526040902054610cff91906001600160401b0316611f52565b9392505050565b600082815260656020526040902060010154610d2181611947565b610d2b8383611951565b505050565b6001600160a01b0381163314610da05760405162461bcd60e51b815260206004820152602f60248201527f416363657373436f6e74726f6c3a2063616e206f6e6c792072656e6f756e636560448201526e103937b632b9903337b91039b2b63360891b60648201526084016105d0565b610daa82826119d7565b5050565b610db86000611947565b609780546001600160a01b0319166001600160a01b0383169081179091556040519081527fb82eec350d17375f213ca81ce6d611cc6aeea4681b53a236b77c0b0894a6a739906020015b60405180910390a150565b610e367f44699bfba21d81c4fd420fbc1901c4bdad6f62a68daed7b424a78a2b147bc9de611947565b60005b83811015610eca57828282818110610e5357610e53611f65565b9050602002016020810190610e689190611f7b565b609f6000878785818110610e7e57610e7e611f65565b90506020020135815260200190815260200160002060006101000a8154816001600160401b0302191690836001600160401b031602179055508080610ec290611eed565b915050610e39565b507f069496c664fca1828f78ba3e13a2de0b6863cad43d6dfa7bd51b6dd283d1621b84848484604051610f009493929190611fca565b60405180910390a150505050565b600081600503610f22575062030d40919050565b81600403610f345750620186a0919050565b81600303610f455750617530919050565b81600203610f565750611388919050565b81600103610f6757506103e8919050565b919050565b60405163d1f928c160e01b81526004810182905260009061089890309063d1f928c190602401602060405180830381865afa158015610faf573d6000803e3d6000fd5b505050506040513d601f19601f820116820180604052508101906102899190611e69565b610ffc7f13257015ec9fd18a935274a54d2fe1c72530ccc6ff6ac7057c7d8a6900ceccba611947565b60005b8381101561111e57600083838381811061101b5761101b611f65565b90506020020160208101906110309190611f7b565b3063a5c61edd88888681811061104857611048611f65565b905060200201356040518263ffffffff1660e01b815260040161106d91815260200190565b602060405180830381865afa15801561108a573d6000803e3d6000fd5b505050506040513d601f19601f820116820180604052508101906110ae9190611e97565b6110b8919061202f565b905080609f60008888868181106110d1576110d1611f65565b90506020020135815260200190815260200160002060006101000a8154816001600160401b0302191690836001600160401b0316021790555050808061111690611eed565b915050610fff565b507f776c5a775bf38012bec2c88238b7f07a97663344c85afc40ed7d45ef24720bfa84848484604051610f009493929190611fca565b600054610100900460ff16158080156111745750600054600160ff909116105b8061118e5750303b15801561118e575060005460ff166001145b6111f15760405162461bcd60e51b815260206004820152602e60248201527f496e697469616c697a61626c653a20636f6e747261637420697320616c72656160448201526d191e481a5b9a5d1a585b1a5e995960921b60648201526084016105d0565b6000805460ff191660011790558015611214576000805461ff0019166101001790555b61121c611a3e565b611224611a3e565b61122c611aab565b61124761025860985561012c6099556064609a556000609b55565b611253626ebe00609c55565b8015611295576000805461ff0019169055604051600181527f7f26b83ff96e1f2b6a682f133852f6798a09c465da95921460cefb384740249890602001610e02565b50565b60009182526065602090815260408084206001600160a01b0393909316845291905290205460ff1690565b6000609a546099546098546112d89190611f3f565b6112e29190611f3f565b609a5460405163a5c61edd60e01b815260048101859052309063a5c61edd90602401602060405180830381865afa158015611321573d6000803e3d6000fd5b505050506040513d601f19601f820116820180604052508101906113459190611e97565b6001600160401b03166113589190611f06565b6099546040516373fff6c360e01b81526004810186905230906373fff6c390602401602060405180830381865afa158015611397573d6000803e3d6000fd5b505050506040513d601f19601f820116820180604052508101906113bb9190611e97565b6001600160401b03166113ce9190611f06565b6098546040516309339d8b60e21b81526004810187905242602482015230906324ce762c90604401602060405180830381865afa158015611413573d6000803e3d6000fd5b505050506040513d601f19601f820116820180604052508101906114379190611e97565b6001600160401b031661144a9190611f06565b6114549190611f3f565b61145e9190611f3f565b6108989190611f1d565b6114917f4504525b0855d643ed8c29c4d688fed6965fe228830d3a514b831e1e3fa65795611947565b60005b8381101561157b578282828181106114ae576114ae611f65565b90506020020160208101906114c39190611f7b565b609d60008787858181106114d9576114d9611f65565b90506020020135815260200190815260200160002060000160006101000a8154816001600160401b0302191690836001600160401b0316021790555042609d600087878581811061152c5761152c611f65565b90506020020135815260200190815260200160002060000160086101000a8154816001600160401b0302191690836001600160401b03160217905550808061157390611eed565b915050611494565b507fb1c65cc534d9b76a1801661f0da4394f6b950928583a5f021ecf3ed5d7c5dbe184848484604051610f009493929190611fca565b6000818152609e60205260408120600101546001600160401b03166115d4611752565b11156115e257506000919050565b506000908152609e602052604090205490565b60008281526065602052604090206001015461161081611947565b610d2b83836119d7565b6116437f299f144f9fec4a25b043de89e762ac3fd89ffb989a4690b198d22dd9edbcba4f611947565b600061164d611752565b905060005b8481101561170b5783838281811061166c5761166c611f65565b90506020020135609e600088888581811061168957611689611f65565b9050602002013581526020019081526020016000206000018190555081609e60008888858181106116bc576116bc611f65565b90506020020135815260200190815260200160002060010160006101000a8154816001600160401b0302191690836001600160401b03160217905550808061170390611eed565b915050611652565b507fbf38900587a4e37d1b6f303a61cabad196527bdc1e2758ad4d65dd2512fb520e858585858560405161174395949392919061204f565b60405180910390a15050505050565b6000609c54426117629190611f1d565b905090565b6117907f8d33451580cec858e7ec47f2258a9a8edde6cdfd0cbbc2c2fb654db03fbb2d8c611947565b60005b838110156119115760008383838181106117af576117af611f65565b90506020020160208101906117c49190611f7b565b306324ce762c8888868181106117dc576117dc611f65565b90506020020135426040518363ffffffff1660e01b815260040161180a929190918252602082015260400190565b602060405180830381865afa158015611827573d6000803e3d6000fd5b505050506040513d601f19601f8201168201806040525081019061184b9190611e97565b611855919061202f565b905080609d600088888681811061186e5761186e611f65565b90506020020135815260200190815260200160002060000160006101000a8154816001600160401b0302191690836001600160401b0316021790555042609d60008888868181106118c1576118c1611f65565b90506020020135815260200190815260200160002060000160086101000a8154816001600160401b0302191690836001600160401b0316021790555050808061190990611eed565b915050611793565b507f6f471c008c362787efec56552da0c38ede9b6f07fbe771fc705f59aa7c7718ef84848484604051610f009493929190611fca565b6112958133611ab6565b61195b8282611298565b610daa5760008281526065602090815260408083206001600160a01b03851684529091529020805460ff191660011790556119933390565b6001600160a01b0316816001600160a01b0316837f2f8788117e7eff1d82e926ec794901d17c78024a50270940304540a733656f0d60405160405180910390a45050565b6119e18282611298565b15610daa5760008281526065602090815260408083206001600160a01b0385168085529252808320805460ff1916905551339285917ff6391f5c32d9c69d2a47ea670b442974b53935d1edc7fd64eb21e047a839171b9190a45050565b600054610100900460ff16611aa95760405162461bcd60e51b815260206004820152602b60248201527f496e697469616c697a61626c653a20636f6e7472616374206973206e6f74206960448201526a6e697469616c697a696e6760a81b60648201526084016105d0565b565b611aa9600033611b0f565b611ac08282611298565b610daa57611acd81611b19565b611ad8836020611b2b565b604051602001611ae99291906120b6565b60408051601f198184030181529082905262461bcd60e51b82526105d09160040161212b565b610daa8282611951565b60606108986001600160a01b03831660145b60606000611b3a836002611f06565b611b45906002611f3f565b6001600160401b03811115611b5c57611b5c61215e565b6040519080825280601f01601f191660200182016040528015611b86576020820181803683370190505b509050600360fc1b81600081518110611ba157611ba1611f65565b60200101906001600160f81b031916908160001a905350600f60fb1b81600181518110611bd057611bd0611f65565b60200101906001600160f81b031916908160001a9053506000611bf4846002611f06565b611bff906001611f3f565b90505b6001811115611c77576f181899199a1a9b1b9c1cb0b131b232b360811b85600f1660108110611c3357611c33611f65565b1a60f81b828281518110611c4957611c49611f65565b60200101906001600160f81b031916908160001a90535060049490941c93611c7081612174565b9050611c02565b508315610cff5760405162461bcd60e51b815260206004820181905260248201527f537472696e67733a20686578206c656e67746820696e73756666696369656e7460448201526064016105d0565b80356001600160a01b0381168114610f6757600080fd5b60008060408385031215611cf057600080fd5b611cf983611cc6565b946020939093013593505050565b600060208284031215611d1957600080fd5b5035919050565b600060208284031215611d3257600080fd5b81356001600160e01b031981168114610cff57600080fd5b60008060408385031215611d5d57600080fd5b50508035926020909101359150565b60008060408385031215611d7f57600080fd5b82359150611d8f60208401611cc6565b90509250929050565b600060208284031215611daa57600080fd5b610cff82611cc6565b60008083601f840112611dc557600080fd5b5081356001600160401b03811115611ddc57600080fd5b6020830191508360208260051b8501011115611df757600080fd5b9250929050565b60008060008060408587031215611e1457600080fd5b84356001600160401b0380821115611e2b57600080fd5b611e3788838901611db3565b90965094506020870135915080821115611e5057600080fd5b50611e5d87828801611db3565b95989497509550505050565b600060208284031215611e7b57600080fd5b5051919050565b6001600160401b038116811461129557600080fd5b600060208284031215611ea957600080fd5b8151610cff81611e82565b600060208284031215611ec657600080fd5b815160ff81168114610cff57600080fd5b634e487b7160e01b600052601160045260246000fd5b600060018201611eff57611eff611ed7565b5060010190565b808202811582820484141761089857610898611ed7565b600082611f3a57634e487b7160e01b600052601260045260246000fd5b500490565b8082018082111561089857610898611ed7565b8181038181111561089857610898611ed7565b634e487b7160e01b600052603260045260246000fd5b600060208284031215611f8d57600080fd5b8135610cff81611e82565b81835260006001600160fb1b03831115611fb157600080fd5b8260051b80836020870137939093016020019392505050565b604081526000611fde604083018688611f98565b8281036020848101919091528482528591810160005b8681101561202257833561200781611e82565b6001600160401b031682529282019290820190600101611ff4565b5098975050505050505050565b6001600160401b0381811683821601908082111561089657610896611ed7565b606081526000612063606083018789611f98565b8281036020840152612076818688611f98565b9150506001600160401b03831660408301529695505050505050565b60005b838110156120ad578181015183820152602001612095565b50506000910152565b7f416363657373436f6e74726f6c3a206163636f756e74200000000000000000008152600083516120ee816017850160208801612092565b7001034b99036b4b9b9b4b733903937b6329607d1b601791840191820152835161211f816028840160208801612092565b01602801949350505050565b602081526000825180602084015261214a816040850160208701612092565b601f01601f19169190910160400192915050565b634e487b7160e01b600052604160045260246000fd5b60008161218357612183611ed7565b50600019019056fea2646970667358221220fbd6ed1a52893fc1ce4fe096d1467f717f4630fd67716337e96982d129a69c9064736f6c63430008110033",
  "linkReferences": {},
  "deployedLinkReferences": {}
}