{
  "_format": "hh-sol-artifact-1",
  "contractName": "MultiHonor_V1",
  "sourceName": "contracts/mocks/MultiHonor.sol",
  "abi": [
    {
      "anonymous": false,
      "inputs": [
        {
          "indexed": false,
          "internalType": "uint256[]",
          "name": "ids",
          "type": "uint256[]"
        },
        {
          "indexed": false,
          "internalType": "uint64[]",
          "name": "eventPower",
          "type": "uint64[]"
        }
      ],
      "name": "AddEventPoint",
      "type": "event"
    },
    {
      "anonymous": false,
      "inputs": [
        {
          "indexed": false,
          "internalType": "uint256[]",
          "name": "ids",
          "type": "uint256[]"
        },
        {
          "indexed": false,
          "internalType": "uint64[]",
          "name": "poc",
          "type": "uint64[]"
        }
      ],
      "name": "AddPOC",
      "type": "event"
    },
    {
      "anonymous": false,
      "inputs": [
        {
          "indexed": false,
          "internalType": "uint8",
          "name": "version",
          "type": "uint8"
        }
      ],
      "name": "Initialized",
      "type": "event"
    },
    {
      "anonymous": false,
      "inputs": [
        {
          "indexed": true,
          "internalType": "bytes32",
          "name": "role",
          "type": "bytes32"
        },
        {
          "indexed": true,
          "internalType": "bytes32",
          "name": "previousAdminRole",
          "type": "bytes32"
        },
        {
          "indexed": true,
          "internalType": "bytes32",
          "name": "newAdminRole",
          "type": "bytes32"
        }
      ],
      "name": "RoleAdminChanged",
      "type": "event"
    },
    {
      "anonymous": false,
      "inputs": [
        {
          "indexed": true,
          "internalType": "bytes32",
          "name": "role",
          "type": "bytes32"
        },
        {
          "indexed": true,
          "internalType": "address",
          "name": "account",
          "type": "address"
        },
        {
          "indexed": true,
          "internalType": "address",
          "name": "sender",
          "type": "address"
        }
      ],
      "name": "RoleGranted",
      "type": "event"
    },
    {
      "anonymous": false,
      "inputs": [
        {
          "indexed": true,
          "internalType": "bytes32",
          "name": "role",
          "type": "bytes32"
        },
        {
          "indexed": true,
          "internalType": "address",
          "name": "account",
          "type": "address"
        },
        {
          "indexed": true,
          "internalType": "address",
          "name": "sender",
          "type": "address"
        }
      ],
      "name": "RoleRevoked",
      "type": "event"
    },
    {
      "anonymous": false,
      "inputs": [
        {
          "indexed": false,
          "internalType": "uint256[]",
          "name": "ids",
          "type": "uint256[]"
        },
        {
          "indexed": false,
          "internalType": "uint64[]",
          "name": "eventPower",
          "type": "uint64[]"
        }
      ],
      "name": "SetEventPoint",
      "type": "event"
    },
    {
      "anonymous": false,
      "inputs": [
        {
          "indexed": false,
          "internalType": "address",
          "name": "idcard",
          "type": "address"
        }
      ],
      "name": "SetIDCard",
      "type": "event"
    },
    {
      "anonymous": false,
      "inputs": [
        {
          "indexed": false,
          "internalType": "uint256[]",
          "name": "ids",
          "type": "uint256[]"
        },
        {
          "indexed": false,
          "internalType": "uint64[]",
          "name": "poc",
          "type": "uint64[]"
        }
      ],
      "name": "SetPoc",
      "type": "event"
    },
    {
      "anonymous": false,
      "inputs": [
        {
          "indexed": false,
          "internalType": "uint256[]",
          "name": "ids",
          "type": "uint256[]"
        },
        {
          "indexed": false,
          "internalType": "uint256[]",
          "name": "vePower",
          "type": "uint256[]"
        },
        {
          "indexed": false,
          "internalType": "uint64",
          "name": "epoch",
          "type": "uint64"
        }
      ],
      "name": "SetVEPower",
      "type": "event"
    },
    {
      "inputs": [],
      "name": "DEFAULT_ADMIN_ROLE",
      "outputs": [
        {
          "internalType": "bytes32",
          "name": "",
          "type": "bytes32"
        }
      ],
      "stateMutability": "view",
      "type": "function"
    },
    {
      "inputs": [
        {
          "internalType": "uint256",
          "name": "tokenId",
          "type": "uint256"
        }
      ],
      "name": "EventPoint",
      "outputs": [
        {
          "internalType": "uint64",
          "name": "",
          "type": "uint64"
        }
      ],
      "stateMutability": "view",
      "type": "function"
    },
    {
      "inputs": [],
      "name": "IDCard",
      "outputs": [
        {
          "internalType": "address",
          "name": "",
          "type": "address"
        }
      ],
      "stateMutability": "view",
      "type": "function"
    },
    {
      "inputs": [
        {
          "internalType": "uint256",
          "name": "tokenId",
          "type": "uint256"
        }
      ],
      "name": "Level",
      "outputs": [
        {
          "internalType": "uint8",
          "name": "",
          "type": "uint8"
        }
      ],
      "stateMutability": "view",
      "type": "function"
    },
    {
      "inputs": [
        {
          "internalType": "uint256",
          "name": "tokenId",
          "type": "uint256"
        }
      ],
      "name": "POC",
      "outputs": [
        {
          "internalType": "uint64",
          "name": "",
          "type": "uint64"
        }
      ],
      "stateMutability": "view",
      "type": "function"
    },
    {
      "inputs": [
        {
          "internalType": "uint256",
          "name": "tokenId",
          "type": "uint256"
        },
        {
          "internalType": "uint256",
          "name": "time",
          "type": "uint256"
        }
      ],
      "name": "POC_at",
      "outputs": [
        {
          "internalType": "uint64",
          "name": "",
          "type": "uint64"
        }
      ],
      "stateMutability": "view",
      "type": "function"
    },
    {
      "inputs": [],
      "name": "ROLE_ADD_EVENT",
      "outputs": [
        {
          "internalType": "bytes32",
          "name": "",
          "type": "bytes32"
        }
      ],
      "stateMutability": "view",
      "type": "function"
    },
    {
      "inputs": [],
      "name": "ROLE_ADD_POC",
      "outputs": [
        {
          "internalType": "bytes32",
          "name": "",
          "type": "bytes32"
        }
      ],
      "stateMutability": "view",
      "type": "function"
    },
    {
      "inputs": [],
      "name": "ROLE_SET_EVENT",
      "outputs": [
        {
          "internalType": "bytes32",
          "name": "",
          "type": "bytes32"
        }
      ],
      "stateMutability": "view",
      "type": "function"
    },
    {
      "inputs": [],
      "name": "ROLE_SET_POC",
      "outputs": [
        {
          "internalType": "bytes32",
          "name": "",
          "type": "bytes32"
        }
      ],
      "stateMutability": "view",
      "type": "function"
    },
    {
      "inputs": [],
      "name": "ROLE_SET_VEPOWER",
      "outputs": [
        {
          "internalType": "bytes32",
          "name": "",
          "type": "bytes32"
        }
      ],
      "stateMutability": "view",
      "type": "function"
    },
    {
      "inputs": [
        {
          "internalType": "uint256",
          "name": "tokenId",
          "type": "uint256"
        }
      ],
      "name": "TotalPoint",
      "outputs": [
        {
          "internalType": "uint64",
          "name": "",
          "type": "uint64"
        }
      ],
      "stateMutability": "view",
      "type": "function"
    },
    {
      "inputs": [
        {
          "internalType": "uint256",
          "name": "tokenId",
          "type": "uint256"
        }
      ],
      "name": "VEPoint",
      "outputs": [
        {
          "internalType": "uint64",
          "name": "",
          "type": "uint64"
        }
      ],
      "stateMutability": "view",
      "type": "function"
    },
    {
      "inputs": [
        {
          "internalType": "uint256",
          "name": "tokenId",
          "type": "uint256"
        }
      ],
      "name": "VEPower",
      "outputs": [
        {
          "internalType": "uint256",
          "name": "",
          "type": "uint256"
        }
      ],
      "stateMutability": "view",
      "type": "function"
    },
    {
      "inputs": [
        {
          "internalType": "uint256[]",
          "name": "ids",
          "type": "uint256[]"
        },
        {
          "internalType": "uint64[]",
          "name": "eventPower",
          "type": "uint64[]"
        }
      ],
      "name": "addEventPoint",
      "outputs": [],
      "stateMutability": "nonpayable",
      "type": "function"
    },
    {
      "inputs": [
        {
          "internalType": "uint256[]",
          "name": "ids",
          "type": "uint256[]"
        },
        {
          "internalType": "uint64[]",
          "name": "poc",
          "type": "uint64[]"
        }
      ],
      "name": "addPOC",
      "outputs": [],
      "stateMutability": "nonpayable",
      "type": "function"
    },
    {
      "inputs": [
        {
          "internalType": "address",
          "name": "account",
          "type": "address"
        },
        {
          "internalType": "uint256",
          "name": "id",
          "type": "uint256"
        }
      ],
      "name": "balanceOf",
      "outputs": [
        {
          "internalType": "uint256",
          "name": "balance",
          "type": "uint256"
        }
      ],
      "stateMutability": "view",
      "type": "function"
    },
    {
      "inputs": [],
      "name": "currentVEEpoch",
      "outputs": [
        {
          "internalType": "uint256",
          "name": "",
          "type": "uint256"
        }
      ],
      "stateMutability": "view",
      "type": "function"
    },
    {
      "inputs": [
        {
          "internalType": "bytes32",
          "name": "role",
          "type": "bytes32"
        }
      ],
      "name": "getRoleAdmin",
      "outputs": [
        {
          "internalType": "bytes32",
          "name": "",
          "type": "bytes32"
        }
      ],
      "stateMutability": "view",
      "type": "function"
    },
    {
      "inputs": [
        {
          "internalType": "bytes32",
          "name": "role",
          "type": "bytes32"
        },
        {
          "internalType": "address",
          "name": "account",
          "type": "address"
        }
      ],
      "name": "grantRole",
      "outputs": [],
      "stateMutability": "nonpayable",
      "type": "function"
    },
    {
      "inputs": [
        {
          "internalType": "bytes32",
          "name": "role",
          "type": "bytes32"
        },
        {
          "internalType": "address",
          "name": "account",
          "type": "address"
        }
      ],
      "name": "hasRole",
      "outputs": [
        {
          "internalType": "bool",
          "name": "",
          "type": "bool"
        }
      ],
      "stateMutability": "view",
      "type": "function"
    },
    {
      "inputs": [],
      "name": "initialize",
      "outputs": [],
      "stateMutability": "nonpayable",
      "type": "function"
    },
    {
      "inputs": [],
      "name": "k",
      "outputs": [
        {
          "internalType": "uint256",
          "name": "",
          "type": "uint256"
        }
      ],
      "stateMutability": "view",
      "type": "function"
    },
    {
      "inputs": [
        {
          "internalType": "uint256",
          "name": "level",
          "type": "uint256"
        }
      ],
      "name": "levelRequire",
      "outputs": [
        {
          "internalType": "uint64",
          "name": "",
          "type": "uint64"
        }
      ],
      "stateMutability": "pure",
      "type": "function"
    },
    {
      "inputs": [
        {
          "internalType": "uint256",
          "name": "x",
          "type": "uint256"
        }
      ],
      "name": "log_2",
      "outputs": [
        {
          "internalType": "uint256",
          "name": "y",
          "type": "uint256"
        }
      ],
      "stateMutability": "pure",
      "type": "function"
    },
    {
      "inputs": [
        {
          "internalType": "bytes32",
          "name": "role",
          "type": "bytes32"
        },
        {
          "internalType": "address",
          "name": "account",
          "type": "address"
        }
      ],
      "name": "renounceRole",
      "outputs": [],
      "stateMutability": "nonpayable",
      "type": "function"
    },
    {
      "inputs": [
        {
          "internalType": "bytes32",
          "name": "role",
          "type": "bytes32"
        },
        {
          "internalType": "address",
          "name": "account",
          "type": "address"
        }
      ],
      "name": "revokeRole",
      "outputs": [],
      "stateMutability": "nonpayable",
      "type": "function"
    },
    {
      "inputs": [
        {
          "internalType": "uint256[]",
          "name": "ids",
          "type": "uint256[]"
        },
        {
          "internalType": "uint64[]",
          "name": "eventPower",
          "type": "uint64[]"
        }
      ],
      "name": "setEventPoint",
      "outputs": [],
      "stateMutability": "nonpayable",
      "type": "function"
    },
    {
      "inputs": [
        {
          "internalType": "address",
          "name": "IDCard_",
          "type": "address"
        }
      ],
      "name": "setIDCard",
      "outputs": [],
      "stateMutability": "nonpayable",
      "type": "function"
    },
    {
      "inputs": [
        {
          "internalType": "uint256[]",
          "name": "ids",
          "type": "uint256[]"
        },
        {
          "internalType": "uint64[]",
          "name": "poc",
          "type": "uint64[]"
        }
      ],
      "name": "setPOC",
      "outputs": [],
      "stateMutability": "nonpayable",
      "type": "function"
    },
    {
      "inputs": [
        {
          "internalType": "uint256[]",
          "name": "ids",
          "type": "uint256[]"
        },
        {
          "internalType": "uint256[]",
          "name": "vePower",
          "type": "uint256[]"
        }
      ],
      "name": "setVEPower",
      "outputs": [],
      "stateMutability": "nonpayable",
      "type": "function"
    },
    {
      "inputs": [
        {
          "internalType": "bytes4",
          "name": "interfaceId",
          "type": "bytes4"
        }
      ],
      "name": "supportsInterface",
      "outputs": [
        {
          "internalType": "bool",
          "name": "",
          "type": "bool"
        }
      ],
      "stateMutability": "view",
      "type": "function"
    },
    {
      "inputs": [],
      "name": "veEpochLength",
      "outputs": [
        {
          "internalType": "uint256",
          "name": "",
          "type": "uint256"
        }
      ],
      "stateMutability": "view",
      "type": "function"
    },
    {
      "inputs": [
        {
          "internalType": "uint256",
          "name": "v",
          "type": "uint256"
        }
      ],
      "name": "vePower2vePoint",
      "outputs": [
        {
          "internalType": "uint256",
          "name": "",
          "type": "uint256"
        }
      ],
      "stateMutability": "pure",
      "type": "function"
    },
    {
      "inputs": [],
      "name": "weight_event",
      "outputs": [
        {
          "internalType": "uint256",
          "name": "",
          "type": "uint256"
        }
      ],
      "stateMutability": "view",
      "type": "function"
    },
    {
      "inputs": [],
      "name": "weight_poc",
      "outputs": [
        {
          "internalType": "uint256",
          "name": "",
          "type": "uint256"
        }
      ],
      "stateMutability": "view",
      "type": "function"
    },
    {
      "inputs": [],
      "name": "weight_vepoint",
      "outputs": [
        {
          "internalType": "uint256",
          "name": "",
          "type": "uint256"
        }
      ],
      "stateMutability": "view",
      "type": "function"
    }
  ],
  "bytecode": "0x608060405234801561001057600080fd5b50612248806100206000396000f3fe608060405234801561001057600080fd5b50600436106102255760003560e01c80636a0ca6cd1161013057806399e0677f116100b8578063d547741f1161007c578063d547741f14610533578063e2b6832714610546578063e8132b9f14610559578063e8d407471461056c578063fc0c0c3b1461057457600080fd5b806399e0677f146104d3578063a217fddf146104e6578063a5c61edd146104ee578063b4f40c6114610517578063d1f928c11461052057600080fd5b806379d7ec80116100ff57806379d7ec801461046b5780637ed57e0e1461047e5780638129fc1c146104a557806391d14854146104ad5780639981534e146104c057600080fd5b80636a0ca6cd1461041b5780637123d6151461042457806373fff6c31461044f57806378a137711461046257600080fd5b80632f2ff15d116101b357806344d0ec071161018257806344d0ec07146103bc57806344d24220146103cf5780635faa12f1146103d857806361b04af9146103ff578063695f1e121461041257600080fd5b80632f2ff15d1461035a57806335e9b6421461036f57806336568abe146103965780633e59056e146103a957600080fd5b806311d5c6b5116101fa57806311d5c6b5146102995780631d3d5a8e146102be5780631e48cb05146102e9578063248a9ca31461031057806326b211ba1461033357600080fd5b8062fdd58e1461022a578062ff2fb11461025057806301ffc9a7146102635780630be2740c14610286575b600080fd5b61023d610238366004611d64565b610587565b6040519081526020015b60405180910390f35b61023d61025e366004611d8e565b6108bc565b610276610271366004611da7565b610947565b6040519015158152602001610247565b61023d610294366004611d8e565b61097c565b6102ac6102a7366004611d8e565b6109df565b60405160ff9091168152602001610247565b6102d16102cc366004611dd1565b610caf565b6040516001600160401b039091168152602001610247565b61023d7f299f144f9fec4a25b043de89e762ac3fd89ffb989a4690b198d22dd9edbcba4f81565b61023d61031e366004611d8e565b60009081526065602052604090206001015490565b61023d7f13257015ec9fd18a935274a54d2fe1c72530ccc6ff6ac7057c7d8a6900ceccba81565b61036d610368366004611df3565b610d24565b005b61023d7f8d33451580cec858e7ec47f2258a9a8edde6cdfd0cbbc2c2fb654db03fbb2d8c81565b61036d6103a4366004611df3565b610d4e565b61036d6103b7366004611e1f565b610dcc565b61036d6103ca366004611e85565b610e2b565b61023d60995481565b61023d7f4504525b0855d643ed8c29c4d688fed6965fe228830d3a514b831e1e3fa6579581565b6102d161040d366004611d8e565b610f2c565b61023d609c5481565b61023d60985481565b609754610437906001600160a01b031681565b6040516001600160a01b039091168152602001610247565b6102d161045d366004611d8e565b610f8a565b61023d609a5481565b61036d610479366004611e85565b610ff1565b61023d7f44699bfba21d81c4fd420fbc1901c4bdad6f62a68daed7b424a78a2b147bc9de81565b61036d611172565b6102766104bb366004611df3565b6112b6565b6102d16104ce366004611d8e565b6112e1565b61036d6104e1366004611e85565b611486565b61023d600081565b6102d16104fc366004611d8e565b6000908152609f60205260409020546001600160401b031690565b61023d609b5481565b61023d61052e366004611d8e565b6115cf565b61036d610541366004611df3565b611613565b61036d610554366004611e85565b611638565b6102d1610567366004611d8e565b611770565b61023d6117d9565b61036d610582366004611e85565b6117ee565b60006001600160a01b0383166105f75760405162461bcd60e51b815260206004820152602a60248201527f455243313135353a2061646472657373207a65726f206973206e6f742061207660448201526930b634b21037bbb732b960b11b60648201526084015b60405180910390fd5b609754604051632f745c5960e01b81526001600160a01b0385811660048301526000602483015290911690632f745c5990604401602060405180830381865afa925050508015610664575060408051601f3d908101601f1916820190925261066191810190611ef0565b60015b610670575060006108b6565b826000036106e457604051634cc0a9a760e11b8152600481018290523090639981534e90602401602060405180830381865afa1580156106b4573d6000803e3d6000fd5b505050506040513d601f19601f820116820180604052508101906106d89190611f1e565b6001600160401b031691505b8260010361075e57604051630e9ead4760e11b8152600481018290524260248201523090631d3d5a8e90604401602060405180830381865afa15801561072e573d6000803e3d6000fd5b505050506040513d601f19601f820116820180604052508101906107529190611f1e565b6001600160401b031691505b826002036107d2576040516373fff6c360e01b81526004810182905230906373fff6c390602401602060405180830381865afa1580156107a2573d6000803e3d6000fd5b505050506040513d601f19601f820116820180604052508101906107c69190611f1e565b6001600160401b031691505b826003036108465760405163a5c61edd60e01b815260048101829052309063a5c61edd90602401602060405180830381865afa158015610816573d6000803e3d6000fd5b505050506040513d601f19601f8201168201806040525081019061083a9190611f1e565b6001600160401b031691505b826004036108b4576040516311d5c6b560e01b81526004810182905230906311d5c6b590602401602060405180830381865afa15801561088a573d6000803e3d6000fd5b505050506040513d601f19601f820116820180604052508101906108ae9190611f3b565b60ff1691505b505b92915050565b6000805b60ff8110156108fe57600183901c9250826000036108de5750919050565b816108e881611f74565b92505080806108f690611f74565b9150506108c0565b5060405162461bcd60e51b815260206004820152601860248201527f6c6f675f32206d6178206c6f6f7073206578636565646564000000000000000060448201526064016105ee565b60006001600160e01b03198216637965db0b60e01b14806108b657506301ffc9a760e01b6001600160e01b03198316146108b6565b60006103e8670de0b6b3a764000061099684610202611f8d565b6109a09190611fa4565b6109aa9190611fa4565b6109ca6109bf670de0b6b3a764000085611fa4565b61025e906001611fc6565b6109d59060fa611f8d565b6108b69190611fc6565b60006109eb6005610f2c565b604051634cc0a9a760e11b8152600481018490526001600160401b0391909116903090639981534e90602401602060405180830381865afa158015610a34573d6000803e3d6000fd5b505050506040513d601f19601f82011682018060405250810190610a589190611f1e565b6001600160401b03161115610a6f57506005919050565b610a796004610f2c565b604051634cc0a9a760e11b8152600481018490526001600160401b0391909116903090639981534e90602401602060405180830381865afa158015610ac2573d6000803e3d6000fd5b505050506040513d601f19601f82011682018060405250810190610ae69190611f1e565b6001600160401b03161115610afd57506004919050565b610b076003610f2c565b604051634cc0a9a760e11b8152600481018490526001600160401b0391909116903090639981534e90602401602060405180830381865afa158015610b50573d6000803e3d6000fd5b505050506040513d601f19601f82011682018060405250810190610b749190611f1e565b6001600160401b03161115610b8b57506003919050565b610b956002610f2c565b604051634cc0a9a760e11b8152600481018490526001600160401b0391909116903090639981534e90602401602060405180830381865afa158015610bde573d6000803e3d6000fd5b505050506040513d601f19601f82011682018060405250810190610c029190611f1e565b6001600160401b03161115610c1957506002919050565b610c236001610f2c565b604051634cc0a9a760e11b8152600481018490526001600160401b0391909116903090639981534e90602401602060405180830381865afa158015610c6c573d6000803e3d6000fd5b505050506040513d601f19601f82011682018060405250810190610c909190611f1e565b6001600160401b03161115610ca757506001919050565b506000919050565b609b546000838152609d60205260408120549091620f424091610ce7906801000000000000000090046001600160401b031685611fd9565b610cf19190611f8d565b610cfb9190611fa4565b6000848152609d6020526040902054610d1d91906001600160401b0316611fd9565b9392505050565b600082815260656020526040902060010154610d3f816119ce565b610d4983836119d8565b505050565b6001600160a01b0381163314610dbe5760405162461bcd60e51b815260206004820152602f60248201527f416363657373436f6e74726f6c3a2063616e206f6e6c792072656e6f756e636560448201526e103937b632b9903337b91039b2b63360891b60648201526084016105ee565b610dc88282611a5e565b5050565b610dd660006119ce565b609780546001600160a01b0319166001600160a01b0383169081179091556040519081527fb82eec350d17375f213ca81ce6d611cc6aeea4681b53a236b77c0b0894a6a739906020015b60405180910390a150565b610e547f44699bfba21d81c4fd420fbc1901c4bdad6f62a68daed7b424a78a2b147bc9de6119ce565b60005b83811015610ee857828282818110610e7157610e71611fec565b9050602002016020810190610e869190612002565b609f6000878785818110610e9c57610e9c611fec565b90506020020135815260200190815260200160002060006101000a8154816001600160401b0302191690836001600160401b031602179055508080610ee090611f74565b915050610e57565b507f069496c664fca1828f78ba3e13a2de0b6863cad43d6dfa7bd51b6dd283d1621b84848484604051610f1e9493929190612051565b60405180910390a150505050565b600081600503610f40575062030d40919050565b81600403610f525750620186a0919050565b81600303610f635750617530919050565b81600203610f745750611388919050565b81600103610f8557506103e8919050565b919050565b60405163d1f928c160e01b8152600481018290526000906108b690309063d1f928c190602401602060405180830381865afa158015610fcd573d6000803e3d6000fd5b505050506040513d601f19601f820116820180604052508101906102949190611ef0565b61101a7f13257015ec9fd18a935274a54d2fe1c72530ccc6ff6ac7057c7d8a6900ceccba6119ce565b60005b8381101561113c57600083838381811061103957611039611fec565b905060200201602081019061104e9190612002565b3063a5c61edd88888681811061106657611066611fec565b905060200201356040518263ffffffff1660e01b815260040161108b91815260200190565b602060405180830381865afa1580156110a8573d6000803e3d6000fd5b505050506040513d601f19601f820116820180604052508101906110cc9190611f1e565b6110d691906120b6565b905080609f60008888868181106110ef576110ef611fec565b90506020020135815260200190815260200160002060006101000a8154816001600160401b0302191690836001600160401b0316021790555050808061113490611f74565b91505061101d565b507f776c5a775bf38012bec2c88238b7f07a97663344c85afc40ed7d45ef24720bfa84848484604051610f1e9493929190612051565b600054610100900460ff16158080156111925750600054600160ff909116105b806111ac5750303b1580156111ac575060005460ff166001145b61120f5760405162461bcd60e51b815260206004820152602e60248201527f496e697469616c697a61626c653a20636f6e747261637420697320616c72656160448201526d191e481a5b9a5d1a585b1a5e995960921b60648201526084016105ee565b6000805460ff191660011790558015611232576000805461ff0019166101001790555b61123a611ac5565b611242611ac5565b61124a611b32565b61126561025860985561012c6099556064609a556000609b55565b611271626ebe00609c55565b80156112b3576000805461ff0019169055604051600181527f7f26b83ff96e1f2b6a682f133852f6798a09c465da95921460cefb384740249890602001610e20565b50565b60009182526065602090815260408084206001600160a01b0393909316845291905290205460ff1690565b6000609a546099546098546112f69190611fc6565b6113009190611fc6565b609a5460405163a5c61edd60e01b815260048101859052309063a5c61edd90602401602060405180830381865afa15801561133f573d6000803e3d6000fd5b505050506040513d601f19601f820116820180604052508101906113639190611f1e565b6001600160401b03166113769190611f8d565b6099546040516373fff6c360e01b81526004810186905230906373fff6c390602401602060405180830381865afa1580156113b5573d6000803e3d6000fd5b505050506040513d601f19601f820116820180604052508101906113d99190611f1e565b6001600160401b03166113ec9190611f8d565b609854604051630e9ead4760e11b8152600481018790524260248201523090631d3d5a8e90604401602060405180830381865afa158015611431573d6000803e3d6000fd5b505050506040513d601f19601f820116820180604052508101906114559190611f1e565b6001600160401b03166114689190611f8d565b6114729190611fc6565b61147c9190611fc6565b6108b69190611fa4565b6114af7f4504525b0855d643ed8c29c4d688fed6965fe228830d3a514b831e1e3fa657956119ce565b60005b83811015611599578282828181106114cc576114cc611fec565b90506020020160208101906114e19190612002565b609d60008787858181106114f7576114f7611fec565b90506020020135815260200190815260200160002060000160006101000a8154816001600160401b0302191690836001600160401b0316021790555042609d600087878581811061154a5761154a611fec565b90506020020135815260200190815260200160002060000160086101000a8154816001600160401b0302191690836001600160401b03160217905550808061159190611f74565b9150506114b2565b507fb1c65cc534d9b76a1801661f0da4394f6b950928583a5f021ecf3ed5d7c5dbe184848484604051610f1e9493929190612051565b6000818152609e60205260408120600101546001600160401b03166115f26117d9565b111561160057506000919050565b506000908152609e602052604090205490565b60008281526065602052604090206001015461162e816119ce565b610d498383611a5e565b6116617f299f144f9fec4a25b043de89e762ac3fd89ffb989a4690b198d22dd9edbcba4f6119ce565b600061166b6117d9565b905060005b848110156117295783838281811061168a5761168a611fec565b90506020020135609e60008888858181106116a7576116a7611fec565b9050602002013581526020019081526020016000206000018190555081609e60008888858181106116da576116da611fec565b90506020020135815260200190815260200160002060010160006101000a8154816001600160401b0302191690836001600160401b03160217905550808061172190611f74565b915050611670565b507fbf38900587a4e37d1b6f303a61cabad196527bdc1e2758ad4d65dd2512fb520e85858585856040516117619594939291906120d6565b60405180910390a15050505050565b604051630e9ead4760e11b8152600481018290524260248201526000903090631d3d5a8e90604401602060405180830381865afa1580156117b5573d6000803e3d6000fd5b505050506040513d601f19601f820116820180604052508101906108b69190611f1e565b6000609c54426117e99190611fa4565b905090565b6118177f8d33451580cec858e7ec47f2258a9a8edde6cdfd0cbbc2c2fb654db03fbb2d8c6119ce565b60005b8381101561199857600083838381811061183657611836611fec565b905060200201602081019061184b9190612002565b30631d3d5a8e88888681811061186357611863611fec565b90506020020135426040518363ffffffff1660e01b8152600401611891929190918252602082015260400190565b602060405180830381865afa1580156118ae573d6000803e3d6000fd5b505050506040513d601f19601f820116820180604052508101906118d29190611f1e565b6118dc91906120b6565b905080609d60008888868181106118f5576118f5611fec565b90506020020135815260200190815260200160002060000160006101000a8154816001600160401b0302191690836001600160401b0316021790555042609d600088888681811061194857611948611fec565b90506020020135815260200190815260200160002060000160086101000a8154816001600160401b0302191690836001600160401b0316021790555050808061199090611f74565b91505061181a565b507f6f471c008c362787efec56552da0c38ede9b6f07fbe771fc705f59aa7c7718ef84848484604051610f1e9493929190612051565b6112b38133611b3d565b6119e282826112b6565b610dc85760008281526065602090815260408083206001600160a01b03851684529091529020805460ff19166001179055611a1a3390565b6001600160a01b0316816001600160a01b0316837f2f8788117e7eff1d82e926ec794901d17c78024a50270940304540a733656f0d60405160405180910390a45050565b611a6882826112b6565b15610dc85760008281526065602090815260408083206001600160a01b0385168085529252808320805460ff1916905551339285917ff6391f5c32d9c69d2a47ea670b442974b53935d1edc7fd64eb21e047a839171b9190a45050565b600054610100900460ff16611b305760405162461bcd60e51b815260206004820152602b60248201527f496e697469616c697a61626c653a20636f6e7472616374206973206e6f74206960448201526a6e697469616c697a696e6760a81b60648201526084016105ee565b565b611b30600033611b96565b611b4782826112b6565b610dc857611b5481611ba0565b611b5f836020611bb2565b604051602001611b7092919061213d565b60408051601f198184030181529082905262461bcd60e51b82526105ee916004016121b2565b610dc882826119d8565b60606108b66001600160a01b03831660145b60606000611bc1836002611f8d565b611bcc906002611fc6565b6001600160401b03811115611be357611be36121e5565b6040519080825280601f01601f191660200182016040528015611c0d576020820181803683370190505b509050600360fc1b81600081518110611c2857611c28611fec565b60200101906001600160f81b031916908160001a905350600f60fb1b81600181518110611c5757611c57611fec565b60200101906001600160f81b031916908160001a9053506000611c7b846002611f8d565b611c86906001611fc6565b90505b6001811115611cfe576f181899199a1a9b1b9c1cb0b131b232b360811b85600f1660108110611cba57611cba611fec565b1a60f81b828281518110611cd057611cd0611fec565b60200101906001600160f81b031916908160001a90535060049490941c93611cf7816121fb565b9050611c89565b508315610d1d5760405162461bcd60e51b815260206004820181905260248201527f537472696e67733a20686578206c656e67746820696e73756666696369656e7460448201526064016105ee565b80356001600160a01b0381168114610f8557600080fd5b60008060408385031215611d7757600080fd5b611d8083611d4d565b946020939093013593505050565b600060208284031215611da057600080fd5b5035919050565b600060208284031215611db957600080fd5b81356001600160e01b031981168114610d1d57600080fd5b60008060408385031215611de457600080fd5b50508035926020909101359150565b60008060408385031215611e0657600080fd5b82359150611e1660208401611d4d565b90509250929050565b600060208284031215611e3157600080fd5b610d1d82611d4d565b60008083601f840112611e4c57600080fd5b5081356001600160401b03811115611e6357600080fd5b6020830191508360208260051b8501011115611e7e57600080fd5b9250929050565b60008060008060408587031215611e9b57600080fd5b84356001600160401b0380821115611eb257600080fd5b611ebe88838901611e3a565b90965094506020870135915080821115611ed757600080fd5b50611ee487828801611e3a565b95989497509550505050565b600060208284031215611f0257600080fd5b5051919050565b6001600160401b03811681146112b357600080fd5b600060208284031215611f3057600080fd5b8151610d1d81611f09565b600060208284031215611f4d57600080fd5b815160ff81168114610d1d57600080fd5b634e487b7160e01b600052601160045260246000fd5b600060018201611f8657611f86611f5e565b5060010190565b80820281158282048414176108b6576108b6611f5e565b600082611fc157634e487b7160e01b600052601260045260246000fd5b500490565b808201808211156108b6576108b6611f5e565b818103818111156108b6576108b6611f5e565b634e487b7160e01b600052603260045260246000fd5b60006020828403121561201457600080fd5b8135610d1d81611f09565b81835260006001600160fb1b0383111561203857600080fd5b8260051b80836020870137939093016020019392505050565b60408152600061206560408301868861201f565b8281036020848101919091528482528591810160005b868110156120a957833561208e81611f09565b6001600160401b03168252928201929082019060010161207b565b5098975050505050505050565b6001600160401b038181168382160190808211156108b4576108b4611f5e565b6060815260006120ea60608301878961201f565b82810360208401526120fd81868861201f565b9150506001600160401b03831660408301529695505050505050565b60005b8381101561213457818101518382015260200161211c565b50506000910152565b7f416363657373436f6e74726f6c3a206163636f756e7420000000000000000000815260008351612175816017850160208801612119565b7001034b99036b4b9b9b4b733903937b6329607d1b60179184019182015283516121a6816028840160208801612119565b01602801949350505050565b60208152600082518060208401526121d1816040850160208701612119565b601f01601f19169190910160400192915050565b634e487b7160e01b600052604160045260246000fd5b60008161220a5761220a611f5e565b50600019019056fea26469706673582212203fde70047fcca9822d5817004462163af548b7930141b58a878f73ee145d508d64736f6c63430008110033",
  "linkReferences": {},
  "deployedLinkReferences": {}
}