{
  "_format": "hh-sol-artifact-1",
  "contractName": "MonthlyBounty",
  "sourceName": "contracts/claimBounty/MonthlyBounty.sol",
  "abi": [
    {
      "inputs": [
        {
          "internalType": "address",
          "name": "bountyToken_",
          "type": "address"
        },
        {
          "internalType": "address",
          "name": "idnft_",
          "type": "address"
        },
        {
          "internalType": "address",
          "name": "multiHonor_",
          "type": "address"
        },
        {
          "internalType": "uint256",
          "name": "pocFactor_",
          "type": "uint256"
        }
      ],
      "stateMutability": "nonpayable",
      "type": "constructor"
    },
    {
      "anonymous": false,
      "inputs": [
        {
          "indexed": false,
          "internalType": "uint256",
          "name": "idcard",
          "type": "uint256"
        },
        {
          "indexed": false,
          "internalType": "address",
          "name": "toAccount",
          "type": "address"
        },
        {
          "indexed": false,
          "internalType": "uint256",
          "name": "amount",
          "type": "uint256"
        }
      ],
      "name": "ClaimBounty",
      "type": "event"
    },
    {
      "anonymous": false,
      "inputs": [
        {
          "indexed": false,
          "internalType": "address",
          "name": "admin",
          "type": "address"
        }
      ],
      "name": "SetAdmin",
      "type": "event"
    },
    {
      "anonymous": false,
      "inputs": [
        {
          "indexed": false,
          "internalType": "address",
          "name": "bountyToken",
          "type": "address"
        }
      ],
      "name": "SetBountyToken",
      "type": "event"
    },
    {
      "anonymous": false,
      "inputs": [
        {
          "indexed": false,
          "internalType": "address",
          "name": "idnft",
          "type": "address"
        }
      ],
      "name": "SetIDNFT",
      "type": "event"
    },
    {
      "anonymous": false,
      "inputs": [
        {
          "indexed": false,
          "internalType": "address",
          "name": "multiHonor",
          "type": "address"
        }
      ],
      "name": "SetMultiHonor",
      "type": "event"
    },
    {
      "anonymous": false,
      "inputs": [
        {
          "indexed": false,
          "internalType": "address",
          "name": "pendingAdmin",
          "type": "address"
        }
      ],
      "name": "TransferAdmin",
      "type": "event"
    },
    {
      "anonymous": false,
      "inputs": [
        {
          "indexed": false,
          "internalType": "uint256",
          "name": "amount",
          "type": "uint256"
        },
        {
          "indexed": false,
          "internalType": "address",
          "name": "to",
          "type": "address"
        }
      ],
      "name": "Withdraw",
      "type": "event"
    },
    {
      "inputs": [],
      "name": "acceptAdmin",
      "outputs": [],
      "stateMutability": "nonpayable",
      "type": "function"
    },
    {
      "inputs": [],
      "name": "admin",
      "outputs": [
        {
          "internalType": "address",
          "name": "",
          "type": "address"
        }
      ],
      "stateMutability": "view",
      "type": "function"
    },
    {
      "inputs": [],
      "name": "bountyDay",
      "outputs": [
        {
          "internalType": "uint256",
          "name": "",
          "type": "uint256"
        }
      ],
      "stateMutability": "view",
      "type": "function"
    },
    {
      "inputs": [],
      "name": "bountyToken",
      "outputs": [
        {
          "internalType": "address",
          "name": "",
          "type": "address"
        }
      ],
      "stateMutability": "view",
      "type": "function"
    },
    {
      "inputs": [
        {
          "internalType": "uint256",
          "name": "idcard",
          "type": "uint256"
        },
        {
          "internalType": "address",
          "name": "toAccount",
          "type": "address"
        }
      ],
      "name": "claimBounty",
      "outputs": [
        {
          "internalType": "uint256",
          "name": "amount",
          "type": "uint256"
        }
      ],
      "stateMutability": "nonpayable",
      "type": "function"
    },
    {
      "inputs": [
        {
          "internalType": "uint256",
          "name": "idcard",
          "type": "uint256"
        }
      ],
      "name": "claimable",
      "outputs": [
        {
          "internalType": "uint256",
          "name": "amount",
          "type": "uint256"
        }
      ],
      "stateMutability": "view",
      "type": "function"
    },
    {
      "inputs": [
        {
          "internalType": "uint256",
          "name": "idcard",
          "type": "uint256"
        }
      ],
      "name": "getDpoc",
      "outputs": [
        {
          "internalType": "uint256",
          "name": "dpoc",
          "type": "uint256"
        }
      ],
      "stateMutability": "view",
      "type": "function"
    },
    {
      "inputs": [
        {
          "internalType": "uint256",
          "name": "",
          "type": "uint256"
        }
      ],
      "name": "historicPoints",
      "outputs": [
        {
          "internalType": "uint256",
          "name": "",
          "type": "uint256"
        }
      ],
      "stateMutability": "view",
      "type": "function"
    },
    {
      "inputs": [],
      "name": "idnft",
      "outputs": [
        {
          "internalType": "address",
          "name": "",
          "type": "address"
        }
      ],
      "stateMutability": "view",
      "type": "function"
    },
    {
      "inputs": [
        {
          "internalType": "uint256",
          "name": "tokenId",
          "type": "uint256"
        }
      ],
      "name": "initailReleasedPOC",
      "outputs": [
        {
          "internalType": "uint256",
          "name": "",
          "type": "uint256"
        }
      ],
      "stateMutability": "pure",
      "type": "function"
    },
    {
      "inputs": [],
      "name": "multiHonor",
      "outputs": [
        {
          "internalType": "address",
          "name": "",
          "type": "address"
        }
      ],
      "stateMutability": "view",
      "type": "function"
    },
    {
      "inputs": [],
      "name": "pendingAdmin",
      "outputs": [
        {
          "internalType": "address",
          "name": "",
          "type": "address"
        }
      ],
      "stateMutability": "view",
      "type": "function"
    },
    {
      "inputs": [],
      "name": "pocFactor",
      "outputs": [
        {
          "internalType": "uint256",
          "name": "",
          "type": "uint256"
        }
      ],
      "stateMutability": "view",
      "type": "function"
    },
    {
      "inputs": [
        {
          "internalType": "address",
          "name": "bountyToken_",
          "type": "address"
        }
      ],
      "name": "setBountyToken",
      "outputs": [],
      "stateMutability": "nonpayable",
      "type": "function"
    },
    {
      "inputs": [
        {
          "internalType": "uint256",
          "name": "_pocFactor",
          "type": "uint256"
        }
      ],
      "name": "setPocFactor",
      "outputs": [],
      "stateMutability": "nonpayable",
      "type": "function"
    },
    {
      "inputs": [
        {
          "internalType": "address",
          "name": "admin_",
          "type": "address"
        }
      ],
      "name": "transferAdmin",
      "outputs": [],
      "stateMutability": "nonpayable",
      "type": "function"
    },
    {
      "inputs": [
        {
          "internalType": "uint256",
          "name": "amount",
          "type": "uint256"
        },
        {
          "internalType": "address",
          "name": "to",
          "type": "address"
        }
      ],
      "name": "withdraw",
      "outputs": [],
      "stateMutability": "nonpayable",
      "type": "function"
    }
  ],
  "bytecode": "0x60a06040523480156200001157600080fd5b5060405162001013380380620010138339810160408190526200003491620001d1565b6019608052620000443362000072565b6200004f84620000c7565b6200005a8362000116565b620000658262000165565b6005555062000223915050565b600080546001600160a01b0319166001600160a01b0383169081179091556040519081527f5a272403b402d892977df56625f4164ccaf70ca3863991c43ecfe76a6905b0a1906020015b60405180910390a150565b600280546001600160a01b0319166001600160a01b0383169081179091556040519081527fa9531e5694c168f606ed45f0cfcc450abb1b130668153978b0712faf10089bb990602001620000bc565b600380546001600160a01b0319166001600160a01b0383169081179091556040519081527fefaef33068494428f3b331434d2ac48bfa8f0d60732204d21d3142293e9be4fc90602001620000bc565b600480546001600160a01b0319166001600160a01b0383169081179091556040519081527f89b1bb62bfbf9fb335eac55f3fb2fe99c496294df058689fa73e79dfe9c419a290602001620000bc565b80516001600160a01b0381168114620001cc57600080fd5b919050565b60008060008060808587031215620001e857600080fd5b620001f385620001b4565b93506200020360208601620001b4565b92506200021360408601620001b4565b6060959095015193969295505050565b608051610dd46200023f600039600061021d0152610dd46000f3fe608060405234801561001057600080fd5b506004361061010a5760003560e01c806354d4fad3116100a2578063afdc31a011610071578063afdc31a014610218578063d1d58b251461023f578063f851a44014610252578063f9da8f2d14610265578063fd9316ef1461027857600080fd5b806354d4fad3146101cc57806375829def146101df5780637bd8aa89146101f2578063ac46d5941461020557600080fd5b80632d4147e3116100de5780632d4147e31461018a5780634078d8d41461019d5780634b301483146101b057806352a1bbfb146101b957600080fd5b8062f714ce1461010f57806306602303146101245780630e18b68114610157578063267822471461015f575b600080fd5b61012261011d366004610b44565b61028b565b005b610144610132366004610b74565b60066020526000908152604090205481565b6040519081526020015b60405180910390f35b61012261036c565b600154610172906001600160a01b031681565b6040516001600160a01b03909116815260200161014e565b600254610172906001600160a01b031681565b6101446101ab366004610b74565b6103aa565b61014460055481565b600454610172906001600160a01b031681565b6101446101da366004610b44565b610474565b6101226101ed366004610b8d565b61075c565b610122610200366004610b74565b6107c8565b610144610213366004610b74565b61084d565b6101447f000000000000000000000000000000000000000000000000000000000000000081565b61014461024d366004610b74565b6109af565b600054610172906001600160a01b031681565b610122610273366004610b8d565b610a70565b600354610172906001600160a01b031681565b6000546001600160a01b031633146102a257600080fd5b60025460405163a9059cbb60e01b81526001600160a01b03838116600483015260248201859052600092169063a9059cbb906044016020604051808303816000875af11580156102f6573d6000803e3d6000fd5b505050506040513d601f19601f8201168201806040525081019061031a9190610baa565b90508061032657600080fd5b604080518481526001600160a01b03841660208201527f8353ffcac0876ad14e226d9783c04540bfebf13871e868157d2a391cad98e918910160405180910390a1505050565b6001546001600160a01b0316331461038357600080fd5b600154610398906001600160a01b0316610a93565b600180546001600160a01b0319169055565b6000806103b68361084d565b6004805460405163e8132b9f60e01b81529182018690526001600160a01b03169063e8132b9f90602401602060405180830381865afa1580156103fd573d6000803e3d6000fd5b505050506040513d601f19601f820116820180604052508101906104219190610bcc565b67ffffffffffffffff166104359190610c0c565b600084815260066020526040902054909150811161045457600061046d565b60008381526006602052604090205461046d9082610c0c565b9392505050565b6003546040516331a9108f60e11b81526004810184905260009133916001600160a01b0390911690636352211e90602401602060405180830381865afa1580156104c2573d6000803e3d6000fd5b505050506040513d601f19601f820116820180604052508101906104e69190610c1f565b6001600160a01b03161461054d5760405162461bcd60e51b8152602060048201526024808201527f626f756e7479206469737472696275746f723a206e6f7420696463617264206f6044820152633bb732b960e11b60648201526084015b60405180910390fd5b6000610558846103aa565b90506000600260009054906101000a90046001600160a01b03166001600160a01b031663313ce5676040518163ffffffff1660e01b8152600401602060405180830381865afa1580156105af573d6000803e3d6000fd5b505050506040513d601f19601f820116820180604052508101906105d39190610c3c565b90506127106105e382600a610d43565b836005546105f19190610d52565b6105fb9190610d52565b6106059190610d69565b60025460405163a9059cbb60e01b81526001600160a01b038781166004830152602482018490529295506000929091169063a9059cbb906044016020604051808303816000875af115801561065e573d6000803e3d6000fd5b505050506040513d601f19601f820116820180604052508101906106829190610baa565b9050806106e65760405162461bcd60e51b815260206004820152602c60248201527f626f756e7479206469737472696275746f723a2073656e6420626f756e74792060448201526b1d1bdad95b8819985a5b195960a21b6064820152608401610544565b60008681526006602052604081208054859290610704908490610d8b565b9091555050604080518781526001600160a01b03871660208201529081018590527f82de279e1363ebe259ba3e76f44583e530a71408d1b933ca57e5d2a0b41a80fc9060600160405180910390a15050505b92915050565b6000546001600160a01b0316331461077357600080fd5b600180546001600160a01b0319166001600160a01b0383169081179091556040519081527fda7b0a7bc965abdec8a1a995575a891838264c2968e14bd456c5391827b7aa30906020015b60405180910390a150565b6000546001600160a01b031633146107df57600080fd5b6127108111156108485760405162461bcd60e51b815260206004820152602e60248201527f706f63466163746f72206d757374206265206c657373207468616e206f72206560448201526d038bab0b6103a37901898181818160951b6064820152608401610544565b600555565b6000816000036108605750610a32919050565b8160010361087157506194c0919050565b8160020361088257506107d1919050565b8160040361089357506109c4919050565b816007036108a45750610b49919050565b816008036108b45750605d919050565b81600a036108c457506031919050565b81600d036108d557506107d0919050565b816019036108e65750610605919050565b81601d036108f7575061071d919050565b81601e036109085750610431919050565b8160200361091857506084919050565b816040036109295750611081919050565b816104660361093b57506107d0919050565b81613bd20361094d57506107d0919050565b81613bd30361095f57506107d0919050565b81613bd40361097157506107d0919050565b81613bd60361098357506109c4919050565b81613bd70361099557506107d0919050565b81613c0a036109a75750610384919050565b506000919050565b6000806109bb836103aa565b90506000600260009054906101000a90046001600160a01b03166001600160a01b031663313ce5676040518163ffffffff1660e01b8152600401602060405180830381865afa158015610a12573d6000803e3d6000fd5b505050506040513d601f19601f82011682018060405250810190610a369190610c3c565b9050612710610a4682600a610d43565b83600554610a549190610d52565b610a5e9190610d52565b610a689190610d69565b949350505050565b6000546001600160a01b03163314610a8757600080fd5b610a9081610ae1565b50565b600080546001600160a01b0319166001600160a01b0383169081179091556040519081527f5a272403b402d892977df56625f4164ccaf70ca3863991c43ecfe76a6905b0a1906020016107bd565b600280546001600160a01b0319166001600160a01b0383169081179091556040519081527fa9531e5694c168f606ed45f0cfcc450abb1b130668153978b0712faf10089bb9906020016107bd565b6001600160a01b0381168114610a9057600080fd5b60008060408385031215610b5757600080fd5b823591506020830135610b6981610b2f565b809150509250929050565b600060208284031215610b8657600080fd5b5035919050565b600060208284031215610b9f57600080fd5b813561046d81610b2f565b600060208284031215610bbc57600080fd5b8151801515811461046d57600080fd5b600060208284031215610bde57600080fd5b815167ffffffffffffffff8116811461046d57600080fd5b634e487b7160e01b600052601160045260246000fd5b8181038181111561075657610756610bf6565b600060208284031215610c3157600080fd5b815161046d81610b2f565b600060208284031215610c4e57600080fd5b815160ff8116811461046d57600080fd5b600181815b80851115610c9a578160001904821115610c8057610c80610bf6565b80851615610c8d57918102915b93841c9390800290610c64565b509250929050565b600082610cb157506001610756565b81610cbe57506000610756565b8160018114610cd45760028114610cde57610cfa565b6001915050610756565b60ff841115610cef57610cef610bf6565b50506001821b610756565b5060208310610133831016604e8410600b8410161715610d1d575081810a610756565b610d278383610c5f565b8060001904821115610d3b57610d3b610bf6565b029392505050565b600061046d60ff841683610ca2565b808202811582820484141761075657610756610bf6565b600082610d8657634e487b7160e01b600052601260045260246000fd5b500490565b8082018082111561075657610756610bf656fea264697066735822122070a2fc9aea9ec0c4ab608c021aa5bb6ac60ded3babfc8d376ff1cfe6fffebfe264736f6c63430008110033",
  "linkReferences": {},
  "deployedLinkReferences": {}
}