{
  "_format": "hh-sol-artifact-1",
  "contractName": "MonthlyBounty",
  "sourceName": "contracts/claimBounty/MonthlyBounty.sol",
  "abi": [
    {
      "inputs": [
        {
          "internalType": "address",
          "name": "bountyToken_",
          "type": "address"
        },
        {
          "internalType": "address",
          "name": "idnft_",
          "type": "address"
        },
        {
          "internalType": "address",
          "name": "multiHonor_",
          "type": "address"
        },
        {
          "internalType": "uint256",
          "name": "pocFactor_",
          "type": "uint256"
        },
        {
          "internalType": "uint256",
          "name": "expireTime_",
          "type": "uint256"
        }
      ],
      "stateMutability": "nonpayable",
      "type": "constructor"
    },
    {
      "anonymous": false,
      "inputs": [
        {
          "indexed": false,
          "internalType": "uint256",
          "name": "idcard",
          "type": "uint256"
        },
        {
          "indexed": false,
          "internalType": "address",
          "name": "toAccount",
          "type": "address"
        },
        {
          "indexed": false,
          "internalType": "uint256",
          "name": "amount",
          "type": "uint256"
        }
      ],
      "name": "ClaimBounty",
      "type": "event"
    },
    {
      "anonymous": false,
      "inputs": [
        {
          "indexed": false,
          "internalType": "address",
          "name": "admin",
          "type": "address"
        }
      ],
      "name": "SetAdmin",
      "type": "event"
    },
    {
      "anonymous": false,
      "inputs": [
        {
          "indexed": false,
          "internalType": "address",
          "name": "bountyToken",
          "type": "address"
        }
      ],
      "name": "SetBountyToken",
      "type": "event"
    },
    {
      "anonymous": false,
      "inputs": [
        {
          "indexed": false,
          "internalType": "address",
          "name": "idnft",
          "type": "address"
        }
      ],
      "name": "SetIDNFT",
      "type": "event"
    },
    {
      "anonymous": false,
      "inputs": [
        {
          "indexed": false,
          "internalType": "address",
          "name": "multiHonor",
          "type": "address"
        }
      ],
      "name": "SetMultiHonor",
      "type": "event"
    },
    {
      "anonymous": false,
      "inputs": [
        {
          "indexed": false,
          "internalType": "address",
          "name": "pendingAdmin",
          "type": "address"
        }
      ],
      "name": "TransferAdmin",
      "type": "event"
    },
    {
      "anonymous": false,
      "inputs": [
        {
          "indexed": false,
          "internalType": "uint256",
          "name": "amount",
          "type": "uint256"
        },
        {
          "indexed": false,
          "internalType": "address",
          "name": "to",
          "type": "address"
        }
      ],
      "name": "Withdraw",
      "type": "event"
    },
    {
      "inputs": [],
      "name": "acceptAdmin",
      "outputs": [],
      "stateMutability": "nonpayable",
      "type": "function"
    },
    {
      "inputs": [],
      "name": "admin",
      "outputs": [
        {
          "internalType": "address",
          "name": "",
          "type": "address"
        }
      ],
      "stateMutability": "view",
      "type": "function"
    },
    {
      "inputs": [],
      "name": "bountyDay",
      "outputs": [
        {
          "internalType": "uint256",
          "name": "",
          "type": "uint256"
        }
      ],
      "stateMutability": "view",
      "type": "function"
    },
    {
      "inputs": [],
      "name": "bountyToken",
      "outputs": [
        {
          "internalType": "address",
          "name": "",
          "type": "address"
        }
      ],
      "stateMutability": "view",
      "type": "function"
    },
    {
      "inputs": [
        {
          "internalType": "uint256",
          "name": "idcard",
          "type": "uint256"
        },
        {
          "internalType": "address",
          "name": "toAccount",
          "type": "address"
        }
      ],
      "name": "claimBounty",
      "outputs": [
        {
          "internalType": "uint256",
          "name": "amount",
          "type": "uint256"
        }
      ],
      "stateMutability": "nonpayable",
      "type": "function"
    },
    {
      "inputs": [
        {
          "internalType": "uint256",
          "name": "idcard",
          "type": "uint256"
        }
      ],
      "name": "claimable",
      "outputs": [
        {
          "internalType": "uint256",
          "name": "amount",
          "type": "uint256"
        }
      ],
      "stateMutability": "view",
      "type": "function"
    },
    {
      "inputs": [],
      "name": "expireTime",
      "outputs": [
        {
          "internalType": "uint256",
          "name": "",
          "type": "uint256"
        }
      ],
      "stateMutability": "view",
      "type": "function"
    },
    {
      "inputs": [
        {
          "internalType": "uint256",
          "name": "idcard",
          "type": "uint256"
        }
      ],
      "name": "getDpoc",
      "outputs": [
        {
          "internalType": "uint256",
          "name": "dpoc",
          "type": "uint256"
        }
      ],
      "stateMutability": "view",
      "type": "function"
    },
    {
      "inputs": [
        {
          "internalType": "uint256",
          "name": "",
          "type": "uint256"
        }
      ],
      "name": "historicPoints",
      "outputs": [
        {
          "internalType": "uint256",
          "name": "",
          "type": "uint256"
        }
      ],
      "stateMutability": "view",
      "type": "function"
    },
    {
      "inputs": [],
      "name": "idnft",
      "outputs": [
        {
          "internalType": "address",
          "name": "",
          "type": "address"
        }
      ],
      "stateMutability": "view",
      "type": "function"
    },
    {
      "inputs": [],
      "name": "multiHonor",
      "outputs": [
        {
          "internalType": "address",
          "name": "",
          "type": "address"
        }
      ],
      "stateMutability": "view",
      "type": "function"
    },
    {
      "inputs": [],
      "name": "pendingAdmin",
      "outputs": [
        {
          "internalType": "address",
          "name": "",
          "type": "address"
        }
      ],
      "stateMutability": "view",
      "type": "function"
    },
    {
      "inputs": [],
      "name": "pocFactor",
      "outputs": [
        {
          "internalType": "uint256",
          "name": "",
          "type": "uint256"
        }
      ],
      "stateMutability": "view",
      "type": "function"
    },
    {
      "inputs": [
        {
          "internalType": "address",
          "name": "bountyToken_",
          "type": "address"
        }
      ],
      "name": "setBountyToken",
      "outputs": [],
      "stateMutability": "nonpayable",
      "type": "function"
    },
    {
      "inputs": [
        {
          "internalType": "uint256",
          "name": "_pocFactor",
          "type": "uint256"
        }
      ],
      "name": "setPocFactor",
      "outputs": [],
      "stateMutability": "nonpayable",
      "type": "function"
    },
    {
      "inputs": [
        {
          "internalType": "address",
          "name": "admin_",
          "type": "address"
        }
      ],
      "name": "transferAdmin",
      "outputs": [],
      "stateMutability": "nonpayable",
      "type": "function"
    },
    {
      "inputs": [
        {
          "internalType": "uint256",
          "name": "amount",
          "type": "uint256"
        },
        {
          "internalType": "address",
          "name": "to",
          "type": "address"
        }
      ],
      "name": "withdraw",
      "outputs": [],
      "stateMutability": "nonpayable",
      "type": "function"
    }
  ],
  "bytecode": "0x60c06040523480156200001157600080fd5b5060405162000f8738038062000f878339810160408190526200003491620001d4565b6019608052620000443362000075565b6200004f85620000ca565b6200005a8462000119565b620000658362000168565b60a0526005555062000231915050565b600080546001600160a01b0319166001600160a01b0383169081179091556040519081527f5a272403b402d892977df56625f4164ccaf70ca3863991c43ecfe76a6905b0a1906020015b60405180910390a150565b600280546001600160a01b0319166001600160a01b0383169081179091556040519081527fa9531e5694c168f606ed45f0cfcc450abb1b130668153978b0712faf10089bb990602001620000bf565b600380546001600160a01b0319166001600160a01b0383169081179091556040519081527fefaef33068494428f3b331434d2ac48bfa8f0d60732204d21d3142293e9be4fc90602001620000bf565b600480546001600160a01b0319166001600160a01b0383169081179091556040519081527f89b1bb62bfbf9fb335eac55f3fb2fe99c496294df058689fa73e79dfe9c419a290602001620000bf565b80516001600160a01b0381168114620001cf57600080fd5b919050565b600080600080600060a08688031215620001ed57600080fd5b620001f886620001b7565b94506200020860208701620001b7565b93506200021860408701620001b7565b6060870151608090970151959894975095949392505050565b60805160a051610d296200025e600039600081816101a20152610447015260006102310152610d296000f3fe608060405234801561001057600080fd5b506004361061010a5760003560e01c806352a1bbfb116100a2578063afdc31a011610071578063afdc31a01461022c578063d1d58b2514610253578063f851a44014610266578063f9da8f2d14610279578063fd9316ef1461028c57600080fd5b806352a1bbfb146101e057806354d4fad3146101f357806375829def146102065780637bd8aa891461021957600080fd5b80632d4147e3116100de5780632d4147e31461018a578063310a1ee31461019d5780634078d8d4146101c45780634b301483146101d757600080fd5b8062f714ce1461010f57806306602303146101245780630e18b68114610157578063267822471461015f575b600080fd5b61012261011d366004610a92565b61029f565b005b610144610132366004610ac2565b60066020526000908152604090205481565b6040519081526020015b60405180910390f35b610122610380565b600154610172906001600160a01b031681565b6040516001600160a01b03909116815260200161014e565b600254610172906001600160a01b031681565b6101447f000000000000000000000000000000000000000000000000000000000000000081565b6101446101d2366004610ac2565b6103be565b61014460055481565b600454610172906001600160a01b031681565b610144610201366004610a92565b61052c565b610122610214366004610adb565b610814565b610122610227366004610ac2565b610880565b6101447f000000000000000000000000000000000000000000000000000000000000000081565b610144610261366004610ac2565b610905565b600054610172906001600160a01b031681565b610122610287366004610adb565b6109be565b600354610172906001600160a01b031681565b6000546001600160a01b031633146102b657600080fd5b60025460405163a9059cbb60e01b81526001600160a01b03838116600483015260248201859052600092169063a9059cbb906044016020604051808303816000875af115801561030a573d6000803e3d6000fd5b505050506040513d601f19601f8201168201806040525081019061032e9190610aff565b90508061033a57600080fd5b604080518481526001600160a01b03841660208201527f8353ffcac0876ad14e226d9783c04540bfebf13871e868157d2a391cad98e918910160405180910390a1505050565b6001546001600160a01b0316331461039757600080fd5b6001546103ac906001600160a01b03166109e1565b600180546001600160a01b0319169055565b6004805460405163e8132b9f60e01b815291820183905260009182916001600160a01b03169063e8132b9f90602401602060405180830381865afa15801561040a573d6000803e3d6000fd5b505050506040513d601f19601f8201168201806040525081019061042e9190610b21565b60048054604051630e9ead4760e11b81529182018690527f0000000000000000000000000000000000000000000000000000000000000000602483015267ffffffffffffffff9290921692506000916001600160a01b031690631d3d5a8e90604401602060405180830381865afa9250505080156104c9575060408051601f3d908101601f191682019092526104c691810190610b21565b60015b6104d5575060006104e2565b67ffffffffffffffff1690505b6104ec8183610b61565b600085815260066020526040902054909250821161050b576000610524565b6000848152600660205260409020546105249083610b61565b949350505050565b6003546040516331a9108f60e11b81526004810184905260009133916001600160a01b0390911690636352211e90602401602060405180830381865afa15801561057a573d6000803e3d6000fd5b505050506040513d601f19601f8201168201806040525081019061059e9190610b74565b6001600160a01b0316146106055760405162461bcd60e51b8152602060048201526024808201527f626f756e7479206469737472696275746f723a206e6f7420696463617264206f6044820152633bb732b960e11b60648201526084015b60405180910390fd5b6000610610846103be565b90506000600260009054906101000a90046001600160a01b03166001600160a01b031663313ce5676040518163ffffffff1660e01b8152600401602060405180830381865afa158015610667573d6000803e3d6000fd5b505050506040513d601f19601f8201168201806040525081019061068b9190610b91565b905061271061069b82600a610c98565b836005546106a99190610ca7565b6106b39190610ca7565b6106bd9190610cbe565b60025460405163a9059cbb60e01b81526001600160a01b038781166004830152602482018490529295506000929091169063a9059cbb906044016020604051808303816000875af1158015610716573d6000803e3d6000fd5b505050506040513d601f19601f8201168201806040525081019061073a9190610aff565b90508061079e5760405162461bcd60e51b815260206004820152602c60248201527f626f756e7479206469737472696275746f723a2073656e6420626f756e74792060448201526b1d1bdad95b8819985a5b195960a21b60648201526084016105fc565b600086815260066020526040812080548592906107bc908490610ce0565b9091555050604080518781526001600160a01b03871660208201529081018590527f82de279e1363ebe259ba3e76f44583e530a71408d1b933ca57e5d2a0b41a80fc9060600160405180910390a15050505b92915050565b6000546001600160a01b0316331461082b57600080fd5b600180546001600160a01b0319166001600160a01b0383169081179091556040519081527fda7b0a7bc965abdec8a1a995575a891838264c2968e14bd456c5391827b7aa30906020015b60405180910390a150565b6000546001600160a01b0316331461089757600080fd5b6127108111156109005760405162461bcd60e51b815260206004820152602e60248201527f706f63466163746f72206d757374206265206c657373207468616e206f72206560448201526d038bab0b6103a37901898181818160951b60648201526084016105fc565b600555565b600080610911836103be565b90506000600260009054906101000a90046001600160a01b03166001600160a01b031663313ce5676040518163ffffffff1660e01b8152600401602060405180830381865afa158015610968573d6000803e3d6000fd5b505050506040513d601f19601f8201168201806040525081019061098c9190610b91565b905061271061099c82600a610c98565b836005546109aa9190610ca7565b6109b49190610ca7565b6105249190610cbe565b6000546001600160a01b031633146109d557600080fd5b6109de81610a2f565b50565b600080546001600160a01b0319166001600160a01b0383169081179091556040519081527f5a272403b402d892977df56625f4164ccaf70ca3863991c43ecfe76a6905b0a190602001610875565b600280546001600160a01b0319166001600160a01b0383169081179091556040519081527fa9531e5694c168f606ed45f0cfcc450abb1b130668153978b0712faf10089bb990602001610875565b6001600160a01b03811681146109de57600080fd5b60008060408385031215610aa557600080fd5b823591506020830135610ab781610a7d565b809150509250929050565b600060208284031215610ad457600080fd5b5035919050565b600060208284031215610aed57600080fd5b8135610af881610a7d565b9392505050565b600060208284031215610b1157600080fd5b81518015158114610af857600080fd5b600060208284031215610b3357600080fd5b815167ffffffffffffffff81168114610af857600080fd5b634e487b7160e01b600052601160045260246000fd5b8181038181111561080e5761080e610b4b565b600060208284031215610b8657600080fd5b8151610af881610a7d565b600060208284031215610ba357600080fd5b815160ff81168114610af857600080fd5b600181815b80851115610bef578160001904821115610bd557610bd5610b4b565b80851615610be257918102915b93841c9390800290610bb9565b509250929050565b600082610c065750600161080e565b81610c135750600061080e565b8160018114610c295760028114610c3357610c4f565b600191505061080e565b60ff841115610c4457610c44610b4b565b50506001821b61080e565b5060208310610133831016604e8410600b8410161715610c72575081810a61080e565b610c7c8383610bb4565b8060001904821115610c9057610c90610b4b565b029392505050565b6000610af860ff841683610bf7565b808202811582820484141761080e5761080e610b4b565b600082610cdb57634e487b7160e01b600052601260045260246000fd5b500490565b8082018082111561080e5761080e610b4b56fea26469706673582212207e5002f2ecd0d43bad8d13d9126c5e06980af0f2278e572062dbf22ae49cced464736f6c63430008110033",
  "linkReferences": {},
  "deployedLinkReferences": {}
}