{
  "_format": "hh-sol-artifact-1",
  "contractName": "IDNFT_v1",
  "sourceName": "contracts/mocks/IDNFT.sol",
  "abi": [
    {
      "inputs": [
        {
          "internalType": "address",
          "name": "admin_",
          "type": "address"
        }
      ],
      "stateMutability": "nonpayable",
      "type": "constructor"
    },
    {
      "anonymous": false,
      "inputs": [
        {
          "indexed": false,
          "internalType": "uint256",
          "name": "tokenId",
          "type": "uint256"
        }
      ],
      "name": "AllowTransfer",
      "type": "event"
    },
    {
      "anonymous": false,
      "inputs": [
        {
          "indexed": true,
          "internalType": "address",
          "name": "owner",
          "type": "address"
        },
        {
          "indexed": true,
          "internalType": "address",
          "name": "approved",
          "type": "address"
        },
        {
          "indexed": true,
          "internalType": "uint256",
          "name": "tokenId",
          "type": "uint256"
        }
      ],
      "name": "Approval",
      "type": "event"
    },
    {
      "anonymous": false,
      "inputs": [
        {
          "indexed": true,
          "internalType": "address",
          "name": "owner",
          "type": "address"
        },
        {
          "indexed": true,
          "internalType": "address",
          "name": "operator",
          "type": "address"
        },
        {
          "indexed": false,
          "internalType": "bool",
          "name": "approved",
          "type": "bool"
        }
      ],
      "name": "ApprovalForAll",
      "type": "event"
    },
    {
      "anonymous": false,
      "inputs": [
        {
          "indexed": false,
          "internalType": "uint256",
          "name": "tokenId",
          "type": "uint256"
        }
      ],
      "name": "ForbidTransfer",
      "type": "event"
    },
    {
      "anonymous": false,
      "inputs": [
        {
          "indexed": false,
          "internalType": "uint8",
          "name": "version",
          "type": "uint8"
        }
      ],
      "name": "Initialized",
      "type": "event"
    },
    {
      "anonymous": false,
      "inputs": [
        {
          "indexed": false,
          "internalType": "address",
          "name": "admin",
          "type": "address"
        }
      ],
      "name": "LogAcceptAdmin",
      "type": "event"
    },
    {
      "anonymous": false,
      "inputs": [
        {
          "indexed": false,
          "internalType": "address",
          "name": "admin",
          "type": "address"
        }
      ],
      "name": "LogSetAdmin",
      "type": "event"
    },
    {
      "anonymous": false,
      "inputs": [
        {
          "indexed": false,
          "internalType": "address",
          "name": "oldadmin",
          "type": "address"
        },
        {
          "indexed": false,
          "internalType": "address",
          "name": "newadmin",
          "type": "address"
        }
      ],
      "name": "LogTransferAdmin",
      "type": "event"
    },
    {
      "anonymous": false,
      "inputs": [
        {
          "indexed": false,
          "internalType": "address",
          "name": "honor",
          "type": "address"
        }
      ],
      "name": "SetHonor",
      "type": "event"
    },
    {
      "anonymous": false,
      "inputs": [
        {
          "indexed": true,
          "internalType": "address",
          "name": "from",
          "type": "address"
        },
        {
          "indexed": true,
          "internalType": "address",
          "name": "to",
          "type": "address"
        },
        {
          "indexed": true,
          "internalType": "uint256",
          "name": "tokenId",
          "type": "uint256"
        }
      ],
      "name": "Transfer",
      "type": "event"
    },
    {
      "inputs": [],
      "name": "acceptAdmin",
      "outputs": [],
      "stateMutability": "nonpayable",
      "type": "function"
    },
    {
      "inputs": [],
      "name": "admin",
      "outputs": [
        {
          "internalType": "address",
          "name": "",
          "type": "address"
        }
      ],
      "stateMutability": "view",
      "type": "function"
    },
    {
      "inputs": [
        {
          "internalType": "uint256",
          "name": "tokenId",
          "type": "uint256"
        }
      ],
      "name": "allowTransfer",
      "outputs": [],
      "stateMutability": "nonpayable",
      "type": "function"
    },
    {
      "inputs": [
        {
          "internalType": "address",
          "name": "to",
          "type": "address"
        },
        {
          "internalType": "uint256",
          "name": "tokenId",
          "type": "uint256"
        }
      ],
      "name": "approve",
      "outputs": [],
      "stateMutability": "nonpayable",
      "type": "function"
    },
    {
      "inputs": [
        {
          "internalType": "address",
          "name": "owner",
          "type": "address"
        }
      ],
      "name": "balanceOf",
      "outputs": [
        {
          "internalType": "uint256",
          "name": "",
          "type": "uint256"
        }
      ],
      "stateMutability": "view",
      "type": "function"
    },
    {
      "inputs": [
        {
          "internalType": "uint256",
          "name": "tokenId",
          "type": "uint256"
        }
      ],
      "name": "burn",
      "outputs": [],
      "stateMutability": "nonpayable",
      "type": "function"
    },
    {
      "inputs": [],
      "name": "claim",
      "outputs": [
        {
          "internalType": "uint256",
          "name": "tokenId",
          "type": "uint256"
        }
      ],
      "stateMutability": "nonpayable",
      "type": "function"
    },
    {
      "inputs": [
        {
          "internalType": "uint256",
          "name": "tokenId",
          "type": "uint256"
        }
      ],
      "name": "forbidTransfer",
      "outputs": [],
      "stateMutability": "nonpayable",
      "type": "function"
    },
    {
      "inputs": [
        {
          "internalType": "uint256",
          "name": "tokenId",
          "type": "uint256"
        }
      ],
      "name": "getApproved",
      "outputs": [
        {
          "internalType": "address",
          "name": "",
          "type": "address"
        }
      ],
      "stateMutability": "view",
      "type": "function"
    },
    {
      "inputs": [],
      "name": "honor",
      "outputs": [
        {
          "internalType": "address",
          "name": "",
          "type": "address"
        }
      ],
      "stateMutability": "view",
      "type": "function"
    },
    {
      "inputs": [
        {
          "internalType": "uint256",
          "name": "",
          "type": "uint256"
        }
      ],
      "name": "isAllowTransfer",
      "outputs": [
        {
          "internalType": "bool",
          "name": "",
          "type": "bool"
        }
      ],
      "stateMutability": "view",
      "type": "function"
    },
    {
      "inputs": [
        {
          "internalType": "address",
          "name": "owner",
          "type": "address"
        },
        {
          "internalType": "address",
          "name": "operator",
          "type": "address"
        }
      ],
      "name": "isApprovedForAll",
      "outputs": [
        {
          "internalType": "bool",
          "name": "",
          "type": "bool"
        }
      ],
      "stateMutability": "view",
      "type": "function"
    },
    {
      "inputs": [],
      "name": "name",
      "outputs": [
        {
          "internalType": "string",
          "name": "",
          "type": "string"
        }
      ],
      "stateMutability": "view",
      "type": "function"
    },
    {
      "inputs": [],
      "name": "nextTokenId",
      "outputs": [
        {
          "internalType": "uint256",
          "name": "",
          "type": "uint256"
        }
      ],
      "stateMutability": "view",
      "type": "function"
    },
    {
      "inputs": [
        {
          "internalType": "uint256",
          "name": "tokenId",
          "type": "uint256"
        }
      ],
      "name": "ownerOf",
      "outputs": [
        {
          "internalType": "address",
          "name": "",
          "type": "address"
        }
      ],
      "stateMutability": "view",
      "type": "function"
    },
    {
      "inputs": [],
      "name": "pendingAdmin",
      "outputs": [
        {
          "internalType": "address",
          "name": "",
          "type": "address"
        }
      ],
      "stateMutability": "view",
      "type": "function"
    },
    {
      "inputs": [
        {
          "internalType": "address",
          "name": "from",
          "type": "address"
        },
        {
          "internalType": "address",
          "name": "to",
          "type": "address"
        },
        {
          "internalType": "uint256",
          "name": "tokenId",
          "type": "uint256"
        }
      ],
      "name": "safeTransferFrom",
      "outputs": [],
      "stateMutability": "nonpayable",
      "type": "function"
    },
    {
      "inputs": [
        {
          "internalType": "address",
          "name": "from",
          "type": "address"
        },
        {
          "internalType": "address",
          "name": "to",
          "type": "address"
        },
        {
          "internalType": "uint256",
          "name": "tokenId",
          "type": "uint256"
        },
        {
          "internalType": "bytes",
          "name": "data",
          "type": "bytes"
        }
      ],
      "name": "safeTransferFrom",
      "outputs": [],
      "stateMutability": "nonpayable",
      "type": "function"
    },
    {
      "inputs": [
        {
          "internalType": "address",
          "name": "operator",
          "type": "address"
        },
        {
          "internalType": "bool",
          "name": "approved",
          "type": "bool"
        }
      ],
      "name": "setApprovalForAll",
      "outputs": [],
      "stateMutability": "nonpayable",
      "type": "function"
    },
    {
      "inputs": [
        {
          "internalType": "address",
          "name": "honor_",
          "type": "address"
        }
      ],
      "name": "setHonor",
      "outputs": [],
      "stateMutability": "nonpayable",
      "type": "function"
    },
    {
      "inputs": [
        {
          "internalType": "bytes4",
          "name": "interfaceId",
          "type": "bytes4"
        }
      ],
      "name": "supportsInterface",
      "outputs": [
        {
          "internalType": "bool",
          "name": "",
          "type": "bool"
        }
      ],
      "stateMutability": "view",
      "type": "function"
    },
    {
      "inputs": [],
      "name": "symbol",
      "outputs": [
        {
          "internalType": "string",
          "name": "",
          "type": "string"
        }
      ],
      "stateMutability": "view",
      "type": "function"
    },
    {
      "inputs": [
        {
          "internalType": "uint256",
          "name": "index",
          "type": "uint256"
        }
      ],
      "name": "tokenByIndex",
      "outputs": [
        {
          "internalType": "uint256",
          "name": "",
          "type": "uint256"
        }
      ],
      "stateMutability": "view",
      "type": "function"
    },
    {
      "inputs": [
        {
          "internalType": "address",
          "name": "owner",
          "type": "address"
        },
        {
          "internalType": "uint256",
          "name": "index",
          "type": "uint256"
        }
      ],
      "name": "tokenOfOwnerByIndex",
      "outputs": [
        {
          "internalType": "uint256",
          "name": "",
          "type": "uint256"
        }
      ],
      "stateMutability": "view",
      "type": "function"
    },
    {
      "inputs": [
        {
          "internalType": "uint256",
          "name": "tokenId",
          "type": "uint256"
        }
      ],
      "name": "tokenURI",
      "outputs": [
        {
          "internalType": "string",
          "name": "",
          "type": "string"
        }
      ],
      "stateMutability": "view",
      "type": "function"
    },
    {
      "inputs": [],
      "name": "totalSupply",
      "outputs": [
        {
          "internalType": "uint256",
          "name": "",
          "type": "uint256"
        }
      ],
      "stateMutability": "view",
      "type": "function"
    },
    {
      "inputs": [
        {
          "internalType": "address",
          "name": "newAdmin",
          "type": "address"
        }
      ],
      "name": "transferAdmin",
      "outputs": [],
      "stateMutability": "nonpayable",
      "type": "function"
    },
    {
      "inputs": [
        {
          "internalType": "address",
          "name": "from",
          "type": "address"
        },
        {
          "internalType": "address",
          "name": "to",
          "type": "address"
        },
        {
          "internalType": "uint256",
          "name": "tokenId",
          "type": "uint256"
        }
      ],
      "name": "transferFrom",
      "outputs": [],
      "stateMutability": "nonpayable",
      "type": "function"
    }
  ],
  "bytecode": "0x60806040523480156200001157600080fd5b5060405162001dee38038062001dee83398101604081905262000034916200009a565b6200003f8162000046565b50620000cc565b60c980546001600160a01b0319166001600160a01b0383169081179091556040519081527fd9be138201bddb701e32a38e3dff605053c22b8f66e2a46b7f3aec9091f5a4149060200160405180910390a150565b600060208284031215620000ad57600080fd5b81516001600160a01b0381168114620000c557600080fd5b9392505050565b611d1280620000dc6000396000f3fe608060405234801561001057600080fd5b50600436106101c45760003560e01c80636352211e116100f9578063b88d4fde11610097578063d16da4dd11610071578063d16da4dd146103a6578063e985e9c5146103b9578063f851a440146103f5578063f8b4d4bc1461040857600080fd5b8063b88d4fde1461036d578063c3a1073314610380578063c87b56dd1461039357600080fd5b806375794a3c116100d357806375794a3c1461033657806375829def1461033f57806395d89b4114610352578063a22cb4651461035a57600080fd5b80636352211e146102ed57806367fdbfb61461030057806370a082311461032357600080fd5b806323b872dd1161016657806342842e0e1161014057806342842e0e146102ac57806342966c68146102bf5780634e71d92d146102d25780634f6ccce7146102da57600080fd5b806323b872dd1461027357806326782247146102865780632f745c591461029957600080fd5b8063095ea7b3116101a2578063095ea7b3146102315780630e18b6811461024657806318160ddd1461024e57806320aec25e1461026057600080fd5b806301ffc9a7146101c957806306fdde03146101f1578063081812fc14610206575b600080fd5b6101dc6101d7366004611795565b61041b565b60405190151581526020015b60405180910390f35b6101f9610446565b6040516101e89190611809565b61021961021436600461181c565b6104d8565b6040516001600160a01b0390911681526020016101e8565b61024461023f366004611851565b6104ff565b005b610244610619565b6099545b6040519081526020016101e8565b61024461026e36600461187b565b61068e565b610244610281366004611896565b6106fa565b60ca54610219906001600160a01b031681565b6102526102a7366004611851565b61072b565b6102446102ba366004611896565b6107c1565b6102446102cd36600461181c565b6107dc565b61025261080e565b6102526102e836600461181c565b610860565b6102196102fb36600461181c565b6108f3565b6101dc61030e36600461181c565b60cd6020526000908152604090205460ff1681565b61025261033136600461187b565b610953565b61025260cb5481565b61024461034d36600461187b565b6109d9565b6101f9610a51565b6102446103683660046118d2565b610a60565b61024461037b366004611924565b610a6f565b61024461038e36600461181c565b610aa7565b6101f96103a136600461181c565b610b06565b6102446103b436600461181c565b610b1a565b6101dc6103c7366004611a00565b6001600160a01b039182166000908152606a6020908152604080832093909416825291909152205460ff1690565b60c954610219906001600160a01b031681565b60cc54610219906001600160a01b031681565b60006001600160e01b0319821663780e9d6360e01b1480610440575061044082610b7c565b92915050565b60606065805461045590611a33565b80601f016020809104026020016040519081016040528092919081815260200182805461048190611a33565b80156104ce5780601f106104a3576101008083540402835291602001916104ce565b820191906000526020600020905b8154815290600101906020018083116104b157829003601f168201915b5050505050905090565b60006104e382610bcc565b506000908152606960205260409020546001600160a01b031690565b600061050a826108f3565b9050806001600160a01b0316836001600160a01b03160361057c5760405162461bcd60e51b815260206004820152602160248201527f4552433732313a20617070726f76616c20746f2063757272656e74206f776e656044820152603960f91b60648201526084015b60405180910390fd5b336001600160a01b0382161480610598575061059881336103c7565b61060a5760405162461bcd60e51b815260206004820152603d60248201527f4552433732313a20617070726f76652063616c6c6572206973206e6f7420746f60448201527f6b656e206f776e6572206f7220617070726f76656420666f7220616c6c0000006064820152608401610573565b6106148383610c2b565b505050565b60ca546001600160a01b0316331461063057600080fd5b60ca805460c980546001600160a01b0383166001600160a01b031991821681179092559091169091556040519081527f803a94fb89b71a5b6268fe4f2ebd6f3883e006a025caa59244b9db7b150cb16d9060200160405180910390a1565b60c9546001600160a01b031633146106a557600080fd5b60cc80546001600160a01b0319166001600160a01b0383169081179091556040519081527fdc89ea013d493e18166d01eccc2620d2a1d0cdb65d214ff7b7c05577076b9cdb906020015b60405180910390a150565b6107043382610c99565b6107205760405162461bcd60e51b815260040161057390611a6d565b610614838383610d18565b600061073683610953565b82106107985760405162461bcd60e51b815260206004820152602b60248201527f455243373231456e756d657261626c653a206f776e657220696e646578206f7560448201526a74206f6620626f756e647360a81b6064820152608401610573565b506001600160a01b03919091166000908152609760209081526040808320938352929052205490565b61061483838360405180602001604052806000815250610a6f565b6107e5816108f3565b6001600160a01b0316336001600160a01b03161461080257600080fd5b61080b81610e87565b50565b60cb54600081815260cd60205260409020805460ff191660011790556108343382610f28565b600081815260cd60205260408120805460ff1916905560cb80549161085883611ad0565b919050555090565b600061086b60995490565b82106108ce5760405162461bcd60e51b815260206004820152602c60248201527f455243373231456e756d657261626c653a20676c6f62616c20696e646578206f60448201526b7574206f6620626f756e647360a01b6064820152608401610573565b609982815481106108e1576108e1611ae9565b90600052602060002001549050919050565b6000818152606760205260408120546001600160a01b0316806104405760405162461bcd60e51b8152602060048201526018602482015277115490cdcc8c4e881a5b9d985b1a59081d1bdad95b88125160421b6044820152606401610573565b60006001600160a01b0382166109bd5760405162461bcd60e51b815260206004820152602960248201527f4552433732313a2061646472657373207a65726f206973206e6f7420612076616044820152683634b21037bbb732b960b91b6064820152608401610573565b506001600160a01b031660009081526068602052604090205490565b60c9546001600160a01b031633146109f057600080fd5b60ca80546001600160a01b038381166001600160a01b031983168117909355604080519190921680825260208201939093527f0ad836e1614da10ff391cfc802a39f547f3cdc42900fa72de16b085855c169d5910160405180910390a15050565b60606066805461045590611a33565b610a6b3383836110bf565b5050565b610a793383610c99565b610a955760405162461bcd60e51b815260040161057390611a6d565b610aa18484848461118d565b50505050565b60c9546001600160a01b03163314610abe57600080fd5b600081815260cd602052604090819020805460ff19169055517f99f1a179a7437c1c3aeea05606c09f4a9f7372f270b20994dfb5cfb635e7d30e906106ef9083815260200190565b6060610b1182610bcc565b610440826111c0565b60c9546001600160a01b03163314610b3157600080fd5b600081815260cd602052604090819020805460ff19166001179055517fa25ba6c66fd01861808fdb5dd27accaa7d4897a9311cc45195ed1054d99e4235906106ef9083815260200190565b60006001600160e01b031982166380ac58cd60e01b1480610bad57506001600160e01b03198216635b5e139f60e01b145b8061044057506301ffc9a760e01b6001600160e01b0319831614610440565b6000818152606760205260409020546001600160a01b031661080b5760405162461bcd60e51b8152602060048201526018602482015277115490cdcc8c4e881a5b9d985b1a59081d1bdad95b88125160421b6044820152606401610573565b600081815260696020526040902080546001600160a01b0319166001600160a01b0384169081179091558190610c60826108f3565b6001600160a01b03167f8c5be1e5ebec7d5bd14f71427d1e84f3dd0314c0f7b2291e5b200ac8c7c3b92560405160405180910390a45050565b600080610ca5836108f3565b9050806001600160a01b0316846001600160a01b03161480610cec57506001600160a01b038082166000908152606a602090815260408083209388168352929052205460ff165b80610d105750836001600160a01b0316610d05846104d8565b6001600160a01b0316145b949350505050565b826001600160a01b0316610d2b826108f3565b6001600160a01b031614610d515760405162461bcd60e51b815260040161057390611aff565b6001600160a01b038216610db35760405162461bcd60e51b8152602060048201526024808201527f4552433732313a207472616e7366657220746f20746865207a65726f206164646044820152637265737360e01b6064820152608401610573565b610dbe838383611268565b826001600160a01b0316610dd1826108f3565b6001600160a01b031614610df75760405162461bcd60e51b815260040161057390611aff565b600081815260696020908152604080832080546001600160a01b03199081169091556001600160a01b0387811680865260688552838620805460001901905590871680865283862080546001019055868652606790945282852080549092168417909155905184937fddf252ad1be2c89b69c2b068fc378daa952ba7f163c4a11628f55a4df523b3ef91a4505050565b6000610e92826108f3565b9050610ea081600084611268565b610ea9826108f3565b600083815260696020908152604080832080546001600160a01b03199081169091556001600160a01b0385168085526068845282852080546000190190558785526067909352818420805490911690555192935084927fddf252ad1be2c89b69c2b068fc378daa952ba7f163c4a11628f55a4df523b3ef908390a45050565b6001600160a01b038216610f7e5760405162461bcd60e51b815260206004820181905260248201527f4552433732313a206d696e7420746f20746865207a65726f20616464726573736044820152606401610573565b6000818152606760205260409020546001600160a01b031615610fe35760405162461bcd60e51b815260206004820152601c60248201527f4552433732313a20746f6b656e20616c7265616479206d696e746564000000006044820152606401610573565b610fef60008383611268565b6000818152606760205260409020546001600160a01b0316156110545760405162461bcd60e51b815260206004820152601c60248201527f4552433732313a20746f6b656e20616c7265616479206d696e746564000000006044820152606401610573565b6001600160a01b038216600081815260686020908152604080832080546001019055848352606790915280822080546001600160a01b0319168417905551839291907fddf252ad1be2c89b69c2b068fc378daa952ba7f163c4a11628f55a4df523b3ef908290a45050565b816001600160a01b0316836001600160a01b0316036111205760405162461bcd60e51b815260206004820152601960248201527f4552433732313a20617070726f766520746f2063616c6c6572000000000000006044820152606401610573565b6001600160a01b038381166000818152606a6020908152604080832094871680845294825291829020805460ff191686151590811790915591519182527f17307eab39ab6107e8899845ad3d59bd9653f200f220920489ca2b5937696c31910160405180910390a3505050565b611198848484610d18565b6111a484848484611335565b610aa15760405162461bcd60e51b815260040161057390611b44565b60cc546040516311d5c6b560e01b8152600481018390526060916000916001600160a01b03909116906311d5c6b590602401602060405180830381865afa15801561120f573d6000803e3d6000fd5b505050506040513d601f19601f820116820180604052508101906112339190611b96565b60ff16905061124181611436565b6040516020016112519190611bb9565b604051602081830303815290604052915050919050565b611273838383611537565b600081815260cd602052604090205460ff166112c95760405162461bcd60e51b81526020600482015260156024820152743a3930b739b332b91034b9903337b93134b23232b760591b6044820152606401610573565b600081815260cd60205260409020805460ff191690556112e882610953565b156106145760405162461bcd60e51b815260206004820152601f60248201527f726563656976657220616c72656164792068617320616e2049442063617264006044820152606401610573565b60006001600160a01b0384163b1561142b57604051630a85bd0160e11b81526001600160a01b0385169063150b7a0290611379903390899088908890600401611c08565b6020604051808303816000875af19250505080156113b4575060408051601f3d908101601f191682019092526113b191810190611c45565b60015b611411573d8080156113e2576040519150601f19603f3d011682016040523d82523d6000602084013e6113e7565b606091505b5080516000036114095760405162461bcd60e51b815260040161057390611b44565b805181602001fd5b6001600160e01b031916630a85bd0160e11b149050610d10565b506001949350505050565b60608160000361145d5750506040805180820190915260018152600360fc1b602082015290565b8160005b8115611487578061147181611ad0565b91506114809050600a83611c78565b9150611461565b60008167ffffffffffffffff8111156114a2576114a261190e565b6040519080825280601f01601f1916602001820160405280156114cc576020820181803683370190505b5090505b8415610d10576114e1600183611c8c565b91506114ee600a86611c9f565b6114f9906030611cb3565b60f81b81838151811061150e5761150e611ae9565b60200101906001600160f81b031916908160001a905350611530600a86611c78565b94506114d0565b6001600160a01b0383166115925761158d81609980546000838152609a60205260408120829055600182018355919091527f72a152ddfb8e864297c917af52ea6c1c68aead0fee1a62673fcc7e0c94979d000155565b6115b5565b816001600160a01b0316836001600160a01b0316146115b5576115b583826115ef565b6001600160a01b0382166115cc576106148161168c565b826001600160a01b0316826001600160a01b03161461061457610614828261173b565b600060016115fc84610953565b6116069190611c8c565b600083815260986020526040902054909150808214611659576001600160a01b03841660009081526097602090815260408083208584528252808320548484528184208190558352609890915290208190555b5060009182526098602090815260408084208490556001600160a01b039094168352609781528383209183525290812055565b60995460009061169e90600190611c8c565b6000838152609a6020526040812054609980549394509092849081106116c6576116c6611ae9565b9060005260206000200154905080609983815481106116e7576116e7611ae9565b6000918252602080832090910192909255828152609a9091526040808220849055858252812055609980548061171f5761171f611cc6565b6001900381819060005260206000200160009055905550505050565b600061174683610953565b6001600160a01b039093166000908152609760209081526040808320868452825280832085905593825260989052919091209190915550565b6001600160e01b03198116811461080b57600080fd5b6000602082840312156117a757600080fd5b81356117b28161177f565b9392505050565b60005b838110156117d45781810151838201526020016117bc565b50506000910152565b600081518084526117f58160208601602086016117b9565b601f01601f19169290920160200192915050565b6020815260006117b260208301846117dd565b60006020828403121561182e57600080fd5b5035919050565b80356001600160a01b038116811461184c57600080fd5b919050565b6000806040838503121561186457600080fd5b61186d83611835565b946020939093013593505050565b60006020828403121561188d57600080fd5b6117b282611835565b6000806000606084860312156118ab57600080fd5b6118b484611835565b92506118c260208501611835565b9150604084013590509250925092565b600080604083850312156118e557600080fd5b6118ee83611835565b91506020830135801515811461190357600080fd5b809150509250929050565b634e487b7160e01b600052604160045260246000fd5b6000806000806080858703121561193a57600080fd5b61194385611835565b935061195160208601611835565b925060408501359150606085013567ffffffffffffffff8082111561197557600080fd5b818701915087601f83011261198957600080fd5b81358181111561199b5761199b61190e565b604051601f8201601f19908116603f011681019083821181831017156119c3576119c361190e565b816040528281528a60208487010111156119dc57600080fd5b82602086016020830137600060208483010152809550505050505092959194509250565b60008060408385031215611a1357600080fd5b611a1c83611835565b9150611a2a60208401611835565b90509250929050565b600181811c90821680611a4757607f821691505b602082108103611a6757634e487b7160e01b600052602260045260246000fd5b50919050565b6020808252602d908201527f4552433732313a2063616c6c6572206973206e6f7420746f6b656e206f776e6560408201526c1c881bdc88185c1c1c9bdd9959609a1b606082015260800190565b634e487b7160e01b600052601160045260246000fd5b600060018201611ae257611ae2611aba565b5060010190565b634e487b7160e01b600052603260045260246000fd5b60208082526025908201527f4552433732313a207472616e736665722066726f6d20696e636f72726563742060408201526437bbb732b960d91b606082015260800190565b60208082526032908201527f4552433732313a207472616e7366657220746f206e6f6e20455243373231526560408201527131b2b4bb32b91034b6b83632b6b2b73a32b960711b606082015260800190565b600060208284031215611ba857600080fd5b815160ff811681146117b257600080fd5b7f68747470733a2f2f6d756c7469636861696e64616f2e6f72672f6964636172648152602f60f81b602082015260008251611bfb8160218501602087016117b9565b9190910160210192915050565b6001600160a01b0385811682528416602082015260408101839052608060608201819052600090611c3b908301846117dd565b9695505050505050565b600060208284031215611c5757600080fd5b81516117b28161177f565b634e487b7160e01b600052601260045260246000fd5b600082611c8757611c87611c62565b500490565b8181038181111561044057610440611aba565b600082611cae57611cae611c62565b500690565b8082018082111561044057610440611aba565b634e487b7160e01b600052603160045260246000fdfea26469706673582212201b2dd943aebb5b044eec565a32635d2478554c5d9850d86bab255751a8df397764736f6c63430008110033",
  "linkReferences": {},
  "deployedLinkReferences": {}
}