{
  "_format": "hh-sol-artifact-1",
  "contractName": "IDNFT_v1",
  "sourceName": "contracts/mocks/IDNFT.sol",
  "abi": [
    {
      "inputs": [
        {
          "internalType": "address",
          "name": "admin_",
          "type": "address"
        }
      ],
      "stateMutability": "nonpayable",
      "type": "constructor"
    },
    {
      "anonymous": false,
      "inputs": [
        {
          "indexed": false,
          "internalType": "uint256",
          "name": "tokenId",
          "type": "uint256"
        }
      ],
      "name": "AllowTransfer",
      "type": "event"
    },
    {
      "anonymous": false,
      "inputs": [
        {
          "indexed": true,
          "internalType": "address",
          "name": "owner",
          "type": "address"
        },
        {
          "indexed": true,
          "internalType": "address",
          "name": "approved",
          "type": "address"
        },
        {
          "indexed": true,
          "internalType": "uint256",
          "name": "tokenId",
          "type": "uint256"
        }
      ],
      "name": "Approval",
      "type": "event"
    },
    {
      "anonymous": false,
      "inputs": [
        {
          "indexed": true,
          "internalType": "address",
          "name": "owner",
          "type": "address"
        },
        {
          "indexed": true,
          "internalType": "address",
          "name": "operator",
          "type": "address"
        },
        {
          "indexed": false,
          "internalType": "bool",
          "name": "approved",
          "type": "bool"
        }
      ],
      "name": "ApprovalForAll",
      "type": "event"
    },
    {
      "anonymous": false,
      "inputs": [
        {
          "indexed": false,
          "internalType": "uint256",
          "name": "tokenId",
          "type": "uint256"
        }
      ],
      "name": "ForbidTransfer",
      "type": "event"
    },
    {
      "anonymous": false,
      "inputs": [
        {
          "indexed": false,
          "internalType": "uint8",
          "name": "version",
          "type": "uint8"
        }
      ],
      "name": "Initialized",
      "type": "event"
    },
    {
      "anonymous": false,
      "inputs": [
        {
          "indexed": false,
          "internalType": "address",
          "name": "admin",
          "type": "address"
        }
      ],
      "name": "LogAcceptAdmin",
      "type": "event"
    },
    {
      "anonymous": false,
      "inputs": [
        {
          "indexed": false,
          "internalType": "address",
          "name": "admin",
          "type": "address"
        }
      ],
      "name": "LogSetAdmin",
      "type": "event"
    },
    {
      "anonymous": false,
      "inputs": [
        {
          "indexed": false,
          "internalType": "address",
          "name": "oldadmin",
          "type": "address"
        },
        {
          "indexed": false,
          "internalType": "address",
          "name": "newadmin",
          "type": "address"
        }
      ],
      "name": "LogTransferAdmin",
      "type": "event"
    },
    {
      "anonymous": false,
      "inputs": [
        {
          "indexed": false,
          "internalType": "address",
          "name": "honor",
          "type": "address"
        }
      ],
      "name": "SetHonor",
      "type": "event"
    },
    {
      "anonymous": false,
      "inputs": [
        {
          "indexed": true,
          "internalType": "address",
          "name": "from",
          "type": "address"
        },
        {
          "indexed": true,
          "internalType": "address",
          "name": "to",
          "type": "address"
        },
        {
          "indexed": true,
          "internalType": "uint256",
          "name": "tokenId",
          "type": "uint256"
        }
      ],
      "name": "Transfer",
      "type": "event"
    },
    {
      "inputs": [],
      "name": "acceptAdmin",
      "outputs": [],
      "stateMutability": "nonpayable",
      "type": "function"
    },
    {
      "inputs": [],
      "name": "admin",
      "outputs": [
        {
          "internalType": "address",
          "name": "",
          "type": "address"
        }
      ],
      "stateMutability": "view",
      "type": "function"
    },
    {
      "inputs": [
        {
          "internalType": "uint256",
          "name": "tokenId",
          "type": "uint256"
        }
      ],
      "name": "allowTransfer",
      "outputs": [],
      "stateMutability": "nonpayable",
      "type": "function"
    },
    {
      "inputs": [
        {
          "internalType": "address",
          "name": "to",
          "type": "address"
        },
        {
          "internalType": "uint256",
          "name": "tokenId",
          "type": "uint256"
        }
      ],
      "name": "approve",
      "outputs": [],
      "stateMutability": "nonpayable",
      "type": "function"
    },
    {
      "inputs": [
        {
          "internalType": "address",
          "name": "owner",
          "type": "address"
        }
      ],
      "name": "balanceOf",
      "outputs": [
        {
          "internalType": "uint256",
          "name": "",
          "type": "uint256"
        }
      ],
      "stateMutability": "view",
      "type": "function"
    },
    {
      "inputs": [
        {
          "internalType": "uint256",
          "name": "tokenId",
          "type": "uint256"
        }
      ],
      "name": "burn",
      "outputs": [],
      "stateMutability": "nonpayable",
      "type": "function"
    },
    {
      "inputs": [],
      "name": "claim",
      "outputs": [
        {
          "internalType": "uint256",
          "name": "tokenId",
          "type": "uint256"
        }
      ],
      "stateMutability": "nonpayable",
      "type": "function"
    },
    {
      "inputs": [
        {
          "internalType": "uint256",
          "name": "tokenId",
          "type": "uint256"
        }
      ],
      "name": "forbidTransfer",
      "outputs": [],
      "stateMutability": "nonpayable",
      "type": "function"
    },
    {
      "inputs": [
        {
          "internalType": "uint256",
          "name": "tokenId",
          "type": "uint256"
        }
      ],
      "name": "getApproved",
      "outputs": [
        {
          "internalType": "address",
          "name": "",
          "type": "address"
        }
      ],
      "stateMutability": "view",
      "type": "function"
    },
    {
      "inputs": [],
      "name": "honor",
      "outputs": [
        {
          "internalType": "address",
          "name": "",
          "type": "address"
        }
      ],
      "stateMutability": "view",
      "type": "function"
    },
    {
      "inputs": [],
      "name": "initialize",
      "outputs": [],
      "stateMutability": "nonpayable",
      "type": "function"
    },
    {
      "inputs": [
        {
          "internalType": "uint256",
          "name": "",
          "type": "uint256"
        }
      ],
      "name": "isAllowTransfer",
      "outputs": [
        {
          "internalType": "bool",
          "name": "",
          "type": "bool"
        }
      ],
      "stateMutability": "view",
      "type": "function"
    },
    {
      "inputs": [
        {
          "internalType": "address",
          "name": "owner",
          "type": "address"
        },
        {
          "internalType": "address",
          "name": "operator",
          "type": "address"
        }
      ],
      "name": "isApprovedForAll",
      "outputs": [
        {
          "internalType": "bool",
          "name": "",
          "type": "bool"
        }
      ],
      "stateMutability": "view",
      "type": "function"
    },
    {
      "inputs": [],
      "name": "name",
      "outputs": [
        {
          "internalType": "string",
          "name": "",
          "type": "string"
        }
      ],
      "stateMutability": "view",
      "type": "function"
    },
    {
      "inputs": [],
      "name": "nextTokenId",
      "outputs": [
        {
          "internalType": "uint256",
          "name": "",
          "type": "uint256"
        }
      ],
      "stateMutability": "view",
      "type": "function"
    },
    {
      "inputs": [
        {
          "internalType": "uint256",
          "name": "tokenId",
          "type": "uint256"
        }
      ],
      "name": "ownerOf",
      "outputs": [
        {
          "internalType": "address",
          "name": "",
          "type": "address"
        }
      ],
      "stateMutability": "view",
      "type": "function"
    },
    {
      "inputs": [],
      "name": "pendingAdmin",
      "outputs": [
        {
          "internalType": "address",
          "name": "",
          "type": "address"
        }
      ],
      "stateMutability": "view",
      "type": "function"
    },
    {
      "inputs": [
        {
          "internalType": "address",
          "name": "from",
          "type": "address"
        },
        {
          "internalType": "address",
          "name": "to",
          "type": "address"
        },
        {
          "internalType": "uint256",
          "name": "tokenId",
          "type": "uint256"
        }
      ],
      "name": "safeTransferFrom",
      "outputs": [],
      "stateMutability": "nonpayable",
      "type": "function"
    },
    {
      "inputs": [
        {
          "internalType": "address",
          "name": "from",
          "type": "address"
        },
        {
          "internalType": "address",
          "name": "to",
          "type": "address"
        },
        {
          "internalType": "uint256",
          "name": "tokenId",
          "type": "uint256"
        },
        {
          "internalType": "bytes",
          "name": "data",
          "type": "bytes"
        }
      ],
      "name": "safeTransferFrom",
      "outputs": [],
      "stateMutability": "nonpayable",
      "type": "function"
    },
    {
      "inputs": [
        {
          "internalType": "address",
          "name": "operator",
          "type": "address"
        },
        {
          "internalType": "bool",
          "name": "approved",
          "type": "bool"
        }
      ],
      "name": "setApprovalForAll",
      "outputs": [],
      "stateMutability": "nonpayable",
      "type": "function"
    },
    {
      "inputs": [
        {
          "internalType": "address",
          "name": "honor_",
          "type": "address"
        }
      ],
      "name": "setHonor",
      "outputs": [],
      "stateMutability": "nonpayable",
      "type": "function"
    },
    {
      "inputs": [
        {
          "internalType": "bytes4",
          "name": "interfaceId",
          "type": "bytes4"
        }
      ],
      "name": "supportsInterface",
      "outputs": [
        {
          "internalType": "bool",
          "name": "",
          "type": "bool"
        }
      ],
      "stateMutability": "view",
      "type": "function"
    },
    {
      "inputs": [],
      "name": "symbol",
      "outputs": [
        {
          "internalType": "string",
          "name": "",
          "type": "string"
        }
      ],
      "stateMutability": "view",
      "type": "function"
    },
    {
      "inputs": [
        {
          "internalType": "uint256",
          "name": "index",
          "type": "uint256"
        }
      ],
      "name": "tokenByIndex",
      "outputs": [
        {
          "internalType": "uint256",
          "name": "",
          "type": "uint256"
        }
      ],
      "stateMutability": "view",
      "type": "function"
    },
    {
      "inputs": [
        {
          "internalType": "address",
          "name": "owner",
          "type": "address"
        },
        {
          "internalType": "uint256",
          "name": "index",
          "type": "uint256"
        }
      ],
      "name": "tokenOfOwnerByIndex",
      "outputs": [
        {
          "internalType": "uint256",
          "name": "",
          "type": "uint256"
        }
      ],
      "stateMutability": "view",
      "type": "function"
    },
    {
      "inputs": [
        {
          "internalType": "uint256",
          "name": "tokenId",
          "type": "uint256"
        }
      ],
      "name": "tokenURI",
      "outputs": [
        {
          "internalType": "string",
          "name": "",
          "type": "string"
        }
      ],
      "stateMutability": "view",
      "type": "function"
    },
    {
      "inputs": [],
      "name": "totalSupply",
      "outputs": [
        {
          "internalType": "uint256",
          "name": "",
          "type": "uint256"
        }
      ],
      "stateMutability": "view",
      "type": "function"
    },
    {
      "inputs": [
        {
          "internalType": "address",
          "name": "newAdmin",
          "type": "address"
        }
      ],
      "name": "transferAdmin",
      "outputs": [],
      "stateMutability": "nonpayable",
      "type": "function"
    },
    {
      "inputs": [
        {
          "internalType": "address",
          "name": "from",
          "type": "address"
        },
        {
          "internalType": "address",
          "name": "to",
          "type": "address"
        },
        {
          "internalType": "uint256",
          "name": "tokenId",
          "type": "uint256"
        }
      ],
      "name": "transferFrom",
      "outputs": [],
      "stateMutability": "nonpayable",
      "type": "function"
    }
  ],
  "bytecode": "0x60806040523480156200001157600080fd5b50604051620021223803806200212283398101604081905262000034916200009a565b6200003f8162000046565b50620000cc565b60c980546001600160a01b0319166001600160a01b0383169081179091556040519081527fd9be138201bddb701e32a38e3dff605053c22b8f66e2a46b7f3aec9091f5a4149060200160405180910390a150565b600060208284031215620000ad57600080fd5b81516001600160a01b0381168114620000c557600080fd5b9392505050565b61204680620000dc6000396000f3fe608060405234801561001057600080fd5b50600436106101cf5760003560e01c80636352211e11610104578063a22cb465116100a2578063d16da4dd11610071578063d16da4dd146103b9578063e985e9c5146103cc578063f851a44014610408578063f8b4d4bc1461041b57600080fd5b8063a22cb4651461036d578063b88d4fde14610380578063c3a1073314610393578063c87b56dd146103a657600080fd5b806375794a3c116100de57806375794a3c1461034157806375829def1461034a5780638129fc1c1461035d57806395d89b411461036557600080fd5b80636352211e146102f857806367fdbfb61461030b57806370a082311461032e57600080fd5b806323b872dd1161017157806342842e0e1161014b57806342842e0e146102b757806342966c68146102ca5780634e71d92d146102dd5780634f6ccce7146102e557600080fd5b806323b872dd1461027e57806326782247146102915780632f745c59146102a457600080fd5b8063095ea7b3116101ad578063095ea7b31461023c5780630e18b6811461025157806318160ddd1461025957806320aec25e1461026b57600080fd5b806301ffc9a7146101d457806306fdde03146101fc578063081812fc14610211575b600080fd5b6101e76101e23660046119bb565b61042e565b60405190151581526020015b60405180910390f35b610204610459565b6040516101f39190611a2f565b61022461021f366004611a42565b6104eb565b6040516001600160a01b0390911681526020016101f3565b61024f61024a366004611a77565b610512565b005b61024f61062c565b6099545b6040519081526020016101f3565b61024f610279366004611aa1565b6106a1565b61024f61028c366004611abc565b61070d565b60ca54610224906001600160a01b031681565b61025d6102b2366004611a77565b61073e565b61024f6102c5366004611abc565b6107d4565b61024f6102d8366004611a42565b6107ef565b61025d610821565b61025d6102f3366004611a42565b610873565b610224610306366004611a42565b610906565b6101e7610319366004611a42565b60cd6020526000908152604090205460ff1681565b61025d61033c366004611aa1565b610966565b61025d60cb5481565b61024f610358366004611aa1565b6109ec565b61024f610a64565b610204610baa565b61024f61037b366004611af8565b610bb9565b61024f61038e366004611b4a565b610bc8565b61024f6103a1366004611a42565b610c00565b6102046103b4366004611a42565b610c5f565b61024f6103c7366004611a42565b610c73565b6101e76103da366004611c26565b6001600160a01b039182166000908152606a6020908152604080832093909416825291909152205460ff1690565b60c954610224906001600160a01b031681565b60cc54610224906001600160a01b031681565b60006001600160e01b0319821663780e9d6360e01b1480610453575061045382610cd5565b92915050565b60606065805461046890611c59565b80601f016020809104026020016040519081016040528092919081815260200182805461049490611c59565b80156104e15780601f106104b6576101008083540402835291602001916104e1565b820191906000526020600020905b8154815290600101906020018083116104c457829003601f168201915b5050505050905090565b60006104f682610d25565b506000908152606960205260409020546001600160a01b031690565b600061051d82610906565b9050806001600160a01b0316836001600160a01b03160361058f5760405162461bcd60e51b815260206004820152602160248201527f4552433732313a20617070726f76616c20746f2063757272656e74206f776e656044820152603960f91b60648201526084015b60405180910390fd5b336001600160a01b03821614806105ab57506105ab81336103da565b61061d5760405162461bcd60e51b815260206004820152603d60248201527f4552433732313a20617070726f76652063616c6c6572206973206e6f7420746f60448201527f6b656e206f776e6572206f7220617070726f76656420666f7220616c6c0000006064820152608401610586565b6106278383610d84565b505050565b60ca546001600160a01b0316331461064357600080fd5b60ca805460c980546001600160a01b0383166001600160a01b031991821681179092559091169091556040519081527f803a94fb89b71a5b6268fe4f2ebd6f3883e006a025caa59244b9db7b150cb16d9060200160405180910390a1565b60c9546001600160a01b031633146106b857600080fd5b60cc80546001600160a01b0319166001600160a01b0383169081179091556040519081527fdc89ea013d493e18166d01eccc2620d2a1d0cdb65d214ff7b7c05577076b9cdb906020015b60405180910390a150565b6107173382610df2565b6107335760405162461bcd60e51b815260040161058690611c93565b610627838383610e71565b600061074983610966565b82106107ab5760405162461bcd60e51b815260206004820152602b60248201527f455243373231456e756d657261626c653a206f776e657220696e646578206f7560448201526a74206f6620626f756e647360a81b6064820152608401610586565b506001600160a01b03919091166000908152609760209081526040808320938352929052205490565b61062783838360405180602001604052806000815250610bc8565b6107f881610906565b6001600160a01b0316336001600160a01b03161461081557600080fd5b61081e81610fe2565b50565b60cb54600081815260cd60205260409020805460ff191660011790556108473382611085565b600081815260cd60205260408120805460ff1916905560cb80549161086b83611cf6565b919050555090565b600061087e60995490565b82106108e15760405162461bcd60e51b815260206004820152602c60248201527f455243373231456e756d657261626c653a20676c6f62616c20696e646578206f60448201526b7574206f6620626f756e647360a01b6064820152608401610586565b609982815481106108f4576108f4611d0f565b90600052602060002001549050919050565b6000818152606760205260408120546001600160a01b0316806104535760405162461bcd60e51b8152602060048201526018602482015277115490cdcc8c4e881a5b9d985b1a59081d1bdad95b88125160421b6044820152606401610586565b60006001600160a01b0382166109d05760405162461bcd60e51b815260206004820152602960248201527f4552433732313a2061646472657373207a65726f206973206e6f7420612076616044820152683634b21037bbb732b960b91b6064820152608401610586565b506001600160a01b031660009081526068602052604090205490565b60c9546001600160a01b03163314610a0357600080fd5b60ca80546001600160a01b038381166001600160a01b031983168117909355604080519190921680825260208201939093527f0ad836e1614da10ff391cfc802a39f547f3cdc42900fa72de16b085855c169d5910160405180910390a15050565b600054610100900460ff1615808015610a845750600054600160ff909116105b80610a9e5750303b158015610a9e575060005460ff166001145b610b015760405162461bcd60e51b815260206004820152602e60248201527f496e697469616c697a61626c653a20636f6e747261637420697320616c72656160448201526d191e481a5b9a5d1a585b1a5e995960921b6064820152608401610586565b6000805460ff191660011790558015610b24576000805461ff0019166101001790555b610b6860405180604001604052806005815260200164125113919560da1b81525060405180604001604052806005815260200164125113919560da1b81525061121e565b801561081e576000805461ff0019169055604051600181527f7f26b83ff96e1f2b6a682f133852f6798a09c465da95921460cefb384740249890602001610702565b60606066805461046890611c59565b610bc43383836112a2565b5050565b610bd23383610df2565b610bee5760405162461bcd60e51b815260040161058690611c93565b610bfa84848484611370565b50505050565b60c9546001600160a01b03163314610c1757600080fd5b600081815260cd602052604090819020805460ff19169055517f99f1a179a7437c1c3aeea05606c09f4a9f7372f270b20994dfb5cfb635e7d30e906107029083815260200190565b6060610c6a82610d25565b610453826113a3565b60c9546001600160a01b03163314610c8a57600080fd5b600081815260cd602052604090819020805460ff19166001179055517fa25ba6c66fd01861808fdb5dd27accaa7d4897a9311cc45195ed1054d99e4235906107029083815260200190565b60006001600160e01b031982166380ac58cd60e01b1480610d0657506001600160e01b03198216635b5e139f60e01b145b8061045357506301ffc9a760e01b6001600160e01b0319831614610453565b6000818152606760205260409020546001600160a01b031661081e5760405162461bcd60e51b8152602060048201526018602482015277115490cdcc8c4e881a5b9d985b1a59081d1bdad95b88125160421b6044820152606401610586565b600081815260696020526040902080546001600160a01b0319166001600160a01b0384169081179091558190610db982610906565b6001600160a01b03167f8c5be1e5ebec7d5bd14f71427d1e84f3dd0314c0f7b2291e5b200ac8c7c3b92560405160405180910390a45050565b600080610dfe83610906565b9050806001600160a01b0316846001600160a01b03161480610e4557506001600160a01b038082166000908152606a602090815260408083209388168352929052205460ff165b80610e695750836001600160a01b0316610e5e846104eb565b6001600160a01b0316145b949350505050565b826001600160a01b0316610e8482610906565b6001600160a01b031614610eaa5760405162461bcd60e51b815260040161058690611d25565b6001600160a01b038216610f0c5760405162461bcd60e51b8152602060048201526024808201527f4552433732313a207472616e7366657220746f20746865207a65726f206164646044820152637265737360e01b6064820152608401610586565b610f19838383600161144b565b826001600160a01b0316610f2c82610906565b6001600160a01b031614610f525760405162461bcd60e51b815260040161058690611d25565b600081815260696020908152604080832080546001600160a01b03199081169091556001600160a01b0387811680865260688552838620805460001901905590871680865283862080546001019055868652606790945282852080549092168417909155905184937fddf252ad1be2c89b69c2b068fc378daa952ba7f163c4a11628f55a4df523b3ef91a4505050565b6000610fed82610906565b9050610ffd81600084600161144b565b61100682610906565b600083815260696020908152604080832080546001600160a01b03199081169091556001600160a01b0385168085526068845282852080546000190190558785526067909352818420805490911690555192935084927fddf252ad1be2c89b69c2b068fc378daa952ba7f163c4a11628f55a4df523b3ef908390a45050565b6001600160a01b0382166110db5760405162461bcd60e51b815260206004820181905260248201527f4552433732313a206d696e7420746f20746865207a65726f20616464726573736044820152606401610586565b6000818152606760205260409020546001600160a01b0316156111405760405162461bcd60e51b815260206004820152601c60248201527f4552433732313a20746f6b656e20616c7265616479206d696e746564000000006044820152606401610586565b61114e60008383600161144b565b6000818152606760205260409020546001600160a01b0316156111b35760405162461bcd60e51b815260206004820152601c60248201527f4552433732313a20746f6b656e20616c7265616479206d696e746564000000006044820152606401610586565b6001600160a01b038216600081815260686020908152604080832080546001019055848352606790915280822080546001600160a01b0319168417905551839291907fddf252ad1be2c89b69c2b068fc378daa952ba7f163c4a11628f55a4df523b3ef908290a45050565b600054610100900460ff166112895760405162461bcd60e51b815260206004820152602b60248201527f496e697469616c697a61626c653a20636f6e7472616374206973206e6f74206960448201526a6e697469616c697a696e6760a81b6064820152608401610586565b60656112958382611db8565b5060666106278282611db8565b816001600160a01b0316836001600160a01b0316036113035760405162461bcd60e51b815260206004820152601960248201527f4552433732313a20617070726f766520746f2063616c6c6572000000000000006044820152606401610586565b6001600160a01b038381166000818152606a6020908152604080832094871680845294825291829020805460ff191686151590811790915591519182527f17307eab39ab6107e8899845ad3d59bd9653f200f220920489ca2b5937696c31910160405180910390a3505050565b61137b848484610e71565b6113878484848461158b565b610bfa5760405162461bcd60e51b815260040161058690611e78565b60cc546040516311d5c6b560e01b8152600481018390526060916000916001600160a01b03909116906311d5c6b590602401602060405180830381865afa1580156113f2573d6000803e3d6000fd5b505050506040513d601f19601f820116820180604052508101906114169190611eca565b60ff1690506114248161168c565b6040516020016114349190611eed565b604051602081830303815290604052915050919050565b6114578484848461178d565b60018111156114c65760405162461bcd60e51b815260206004820152603560248201527f455243373231456e756d657261626c653a20636f6e7365637574697665207472604482015274185b9cd9995c9cc81b9bdd081cdd5c1c1bdc9d1959605a1b6064820152608401610586565b816001600160a01b0385166115225761151d81609980546000838152609a60205260408120829055600182018355919091527f72a152ddfb8e864297c917af52ea6c1c68aead0fee1a62673fcc7e0c94979d000155565b611545565b836001600160a01b0316856001600160a01b031614611545576115458582611815565b6001600160a01b0384166115615761155c816118b2565b611584565b846001600160a01b0316846001600160a01b031614611584576115848482611961565b5050505050565b60006001600160a01b0384163b1561168157604051630a85bd0160e11b81526001600160a01b0385169063150b7a02906115cf903390899088908890600401611f3c565b6020604051808303816000875af192505050801561160a575060408051601f3d908101601f1916820190925261160791810190611f79565b60015b611667573d808015611638576040519150601f19603f3d011682016040523d82523d6000602084013e61163d565b606091505b50805160000361165f5760405162461bcd60e51b815260040161058690611e78565b805181602001fd5b6001600160e01b031916630a85bd0160e11b149050610e69565b506001949350505050565b6060816000036116b35750506040805180820190915260018152600360fc1b602082015290565b8160005b81156116dd57806116c781611cf6565b91506116d69050600a83611fac565b91506116b7565b60008167ffffffffffffffff8111156116f8576116f8611b34565b6040519080825280601f01601f191660200182016040528015611722576020820181803683370190505b5090505b8415610e6957611737600183611fc0565b9150611744600a86611fd3565b61174f906030611fe7565b60f81b81838151811061176457611764611d0f565b60200101906001600160f81b031916908160001a905350611786600a86611fac565b9450611726565b6001811115610bfa576001600160a01b038416156117d3576001600160a01b038416600090815260686020526040812080548392906117cd908490611fc0565b90915550505b6001600160a01b03831615610bfa576001600160a01b0383166000908152606860205260408120805483929061180a908490611fe7565b909155505050505050565b6000600161182284610966565b61182c9190611fc0565b60008381526098602052604090205490915080821461187f576001600160a01b03841660009081526097602090815260408083208584528252808320548484528184208190558352609890915290208190555b5060009182526098602090815260408084208490556001600160a01b039094168352609781528383209183525290812055565b6099546000906118c490600190611fc0565b6000838152609a6020526040812054609980549394509092849081106118ec576118ec611d0f565b90600052602060002001549050806099838154811061190d5761190d611d0f565b6000918252602080832090910192909255828152609a9091526040808220849055858252812055609980548061194557611945611ffa565b6001900381819060005260206000200160009055905550505050565b600061196c83610966565b6001600160a01b039093166000908152609760209081526040808320868452825280832085905593825260989052919091209190915550565b6001600160e01b03198116811461081e57600080fd5b6000602082840312156119cd57600080fd5b81356119d8816119a5565b9392505050565b60005b838110156119fa5781810151838201526020016119e2565b50506000910152565b60008151808452611a1b8160208601602086016119df565b601f01601f19169290920160200192915050565b6020815260006119d86020830184611a03565b600060208284031215611a5457600080fd5b5035919050565b80356001600160a01b0381168114611a7257600080fd5b919050565b60008060408385031215611a8a57600080fd5b611a9383611a5b565b946020939093013593505050565b600060208284031215611ab357600080fd5b6119d882611a5b565b600080600060608486031215611ad157600080fd5b611ada84611a5b565b9250611ae860208501611a5b565b9150604084013590509250925092565b60008060408385031215611b0b57600080fd5b611b1483611a5b565b915060208301358015158114611b2957600080fd5b809150509250929050565b634e487b7160e01b600052604160045260246000fd5b60008060008060808587031215611b6057600080fd5b611b6985611a5b565b9350611b7760208601611a5b565b925060408501359150606085013567ffffffffffffffff80821115611b9b57600080fd5b818701915087601f830112611baf57600080fd5b813581811115611bc157611bc1611b34565b604051601f8201601f19908116603f01168101908382118183101715611be957611be9611b34565b816040528281528a6020848701011115611c0257600080fd5b82602086016020830137600060208483010152809550505050505092959194509250565b60008060408385031215611c3957600080fd5b611c4283611a5b565b9150611c5060208401611a5b565b90509250929050565b600181811c90821680611c6d57607f821691505b602082108103611c8d57634e487b7160e01b600052602260045260246000fd5b50919050565b6020808252602d908201527f4552433732313a2063616c6c6572206973206e6f7420746f6b656e206f776e6560408201526c1c881bdc88185c1c1c9bdd9959609a1b606082015260800190565b634e487b7160e01b600052601160045260246000fd5b600060018201611d0857611d08611ce0565b5060010190565b634e487b7160e01b600052603260045260246000fd5b60208082526025908201527f4552433732313a207472616e736665722066726f6d20696e636f72726563742060408201526437bbb732b960d91b606082015260800190565b601f82111561062757600081815260208120601f850160051c81016020861015611d915750805b601f850160051c820191505b81811015611db057828155600101611d9d565b505050505050565b815167ffffffffffffffff811115611dd257611dd2611b34565b611de681611de08454611c59565b84611d6a565b602080601f831160018114611e1b5760008415611e035750858301515b600019600386901b1c1916600185901b178555611db0565b600085815260208120601f198616915b82811015611e4a57888601518255948401946001909101908401611e2b565b5085821015611e685787850151600019600388901b60f8161c191681555b5050505050600190811b01905550565b60208082526032908201527f4552433732313a207472616e7366657220746f206e6f6e20455243373231526560408201527131b2b4bb32b91034b6b83632b6b2b73a32b960711b606082015260800190565b600060208284031215611edc57600080fd5b815160ff811681146119d857600080fd5b7f68747470733a2f2f6d756c7469636861696e64616f2e6f72672f6964636172648152602f60f81b602082015260008251611f2f8160218501602087016119df565b9190910160210192915050565b6001600160a01b0385811682528416602082015260408101839052608060608201819052600090611f6f90830184611a03565b9695505050505050565b600060208284031215611f8b57600080fd5b81516119d8816119a5565b634e487b7160e01b600052601260045260246000fd5b600082611fbb57611fbb611f96565b500490565b8181038181111561045357610453611ce0565b600082611fe257611fe2611f96565b500690565b8082018082111561045357610453611ce0565b634e487b7160e01b600052603160045260246000fdfea26469706673582212200aa76b9c5948a7f36c4b3a7f2e1d4b3d547800d8e8c5020eaff5f4397f962a7864736f6c63430008110033",
  "linkReferences": {},
  "deployedLinkReferences": {}
}