{
  "_format": "hh-sol-artifact-1",
  "contractName": "Administrable",
  "sourceName": "contracts/claimBounty/claimBounty.sol",
  "abi": [
    {
      "anonymous": false,
      "inputs": [
        {
          "indexed": false,
          "internalType": "address",
          "name": "admin",
          "type": "address"
        }
      ],
      "name": "LogAcceptAdmin",
      "type": "event"
    },
    {
      "anonymous": false,
      "inputs": [
        {
          "indexed": false,
          "internalType": "address",
          "name": "admin",
          "type": "address"
        }
      ],
      "name": "LogSetAdmin",
      "type": "event"
    },
    {
      "anonymous": false,
      "inputs": [
        {
          "indexed": false,
          "internalType": "address",
          "name": "oldadmin",
          "type": "address"
        },
        {
          "indexed": false,
          "internalType": "address",
          "name": "newadmin",
          "type": "address"
        }
      ],
      "name": "LogTransferAdmin",
      "type": "event"
    },
    {
      "inputs": [],
      "name": "acceptAdmin",
      "outputs": [],
      "stateMutability": "nonpayable",
      "type": "function"
    },
    {
      "inputs": [],
      "name": "admin",
      "outputs": [
        {
          "internalType": "address",
          "name": "",
          "type": "address"
        }
      ],
      "stateMutability": "view",
      "type": "function"
    },
    {
      "inputs": [],
      "name": "owner",
      "outputs": [
        {
          "internalType": "address",
          "name": "",
          "type": "address"
        }
      ],
      "stateMutability": "view",
      "type": "function"
    },
    {
      "inputs": [],
      "name": "pendingAdmin",
      "outputs": [
        {
          "internalType": "address",
          "name": "",
          "type": "address"
        }
      ],
      "stateMutability": "view",
      "type": "function"
    },
    {
      "inputs": [
        {
          "internalType": "address",
          "name": "newAdmin",
          "type": "address"
        }
      ],
      "name": "transferAdmin",
      "outputs": [],
      "stateMutability": "nonpayable",
      "type": "function"
    }
  ],
  "bytecode": "0x608060405234801561001057600080fd5b50610221806100206000396000f3fe608060405234801561001057600080fd5b50600436106100575760003560e01c80630e18b6811461005c578063267822471461006657806375829def146100955780638da5cb5b146100a8578063f851a440146100bb575b600080fd5b6100646100ce565b005b600154610079906001600160a01b031681565b6040516001600160a01b03909116815260200160405180910390f35b6100646100a33660046101bb565b610143565b600254610079906001600160a01b031681565b600054610079906001600160a01b031681565b6001546001600160a01b031633146100e557600080fd5b60018054600080546001600160a01b0383166001600160a01b031991821681179092559091169091556040519081527f803a94fb89b71a5b6268fe4f2ebd6f3883e006a025caa59244b9db7b150cb16d9060200160405180910390a1565b6000546001600160a01b0316331461015a57600080fd5b600180546001600160a01b038381166001600160a01b031983168117909355604080519190921680825260208201939093527f0ad836e1614da10ff391cfc802a39f547f3cdc42900fa72de16b085855c169d5910160405180910390a15050565b6000602082840312156101cd57600080fd5b81356001600160a01b03811681146101e457600080fd5b939250505056fea2646970667358221220d1f56172bbaa9a82cf59b49bac13af18fbe1bf9f830473400be0b922df1296a764736f6c63430008110033",
  "linkReferences": {},
  "deployedLinkReferences": {}
}