{
  "_format": "hh-sol-artifact-1",
  "contractName": "claimBounty",
  "sourceName": "contracts/claimBounty/claimBounty.sol",
  "abi": [
    {
      "anonymous": false,
      "inputs": [
        {
          "indexed": false,
          "internalType": "uint256[]",
          "name": "tokenIds",
          "type": "uint256[]"
        },
        {
          "indexed": false,
          "internalType": "uint256[]",
          "name": "amounts",
          "type": "uint256[]"
        }
      ],
      "name": "AddBounty",
      "type": "event"
    },
    {
      "anonymous": false,
      "inputs": [
        {
          "indexed": false,
          "internalType": "address",
          "name": "claimer",
          "type": "address"
        },
        {
          "indexed": false,
          "internalType": "uint256",
          "name": "tokenId",
          "type": "uint256"
        },
        {
          "indexed": false,
          "internalType": "uint256",
          "name": "amount",
          "type": "uint256"
        }
      ],
      "name": "ClaimBounty",
      "type": "event"
    },
    {
      "anonymous": false,
      "inputs": [
        {
          "indexed": false,
          "internalType": "uint8",
          "name": "version",
          "type": "uint8"
        }
      ],
      "name": "Initialized",
      "type": "event"
    },
    {
      "anonymous": false,
      "inputs": [
        {
          "indexed": false,
          "internalType": "address",
          "name": "admin",
          "type": "address"
        }
      ],
      "name": "LogAcceptAdmin",
      "type": "event"
    },
    {
      "anonymous": false,
      "inputs": [
        {
          "indexed": false,
          "internalType": "address",
          "name": "admin",
          "type": "address"
        }
      ],
      "name": "LogSetAdmin",
      "type": "event"
    },
    {
      "anonymous": false,
      "inputs": [
        {
          "indexed": false,
          "internalType": "address",
          "name": "oldadmin",
          "type": "address"
        },
        {
          "indexed": false,
          "internalType": "address",
          "name": "newadmin",
          "type": "address"
        }
      ],
      "name": "LogTransferAdmin",
      "type": "event"
    },
    {
      "anonymous": false,
      "inputs": [
        {
          "indexed": false,
          "internalType": "address",
          "name": "bountyAdmin",
          "type": "address"
        },
        {
          "indexed": false,
          "internalType": "uint256",
          "name": "amount",
          "type": "uint256"
        }
      ],
      "name": "RemoveBounty",
      "type": "event"
    },
    {
      "anonymous": false,
      "inputs": [
        {
          "indexed": true,
          "internalType": "bytes32",
          "name": "role",
          "type": "bytes32"
        },
        {
          "indexed": true,
          "internalType": "bytes32",
          "name": "previousAdminRole",
          "type": "bytes32"
        },
        {
          "indexed": true,
          "internalType": "bytes32",
          "name": "newAdminRole",
          "type": "bytes32"
        }
      ],
      "name": "RoleAdminChanged",
      "type": "event"
    },
    {
      "anonymous": false,
      "inputs": [
        {
          "indexed": true,
          "internalType": "bytes32",
          "name": "role",
          "type": "bytes32"
        },
        {
          "indexed": true,
          "internalType": "address",
          "name": "account",
          "type": "address"
        },
        {
          "indexed": true,
          "internalType": "address",
          "name": "sender",
          "type": "address"
        }
      ],
      "name": "RoleGranted",
      "type": "event"
    },
    {
      "anonymous": false,
      "inputs": [
        {
          "indexed": true,
          "internalType": "bytes32",
          "name": "role",
          "type": "bytes32"
        },
        {
          "indexed": true,
          "internalType": "address",
          "name": "account",
          "type": "address"
        },
        {
          "indexed": true,
          "internalType": "address",
          "name": "sender",
          "type": "address"
        }
      ],
      "name": "RoleRevoked",
      "type": "event"
    },
    {
      "inputs": [],
      "name": "DEFAULT_ADMIN_ROLE",
      "outputs": [
        {
          "internalType": "bytes32",
          "name": "",
          "type": "bytes32"
        }
      ],
      "stateMutability": "view",
      "type": "function"
    },
    {
      "inputs": [],
      "name": "ROLE_BOUNTY",
      "outputs": [
        {
          "internalType": "bytes32",
          "name": "",
          "type": "bytes32"
        }
      ],
      "stateMutability": "view",
      "type": "function"
    },
    {
      "inputs": [],
      "name": "ROLE_SET_POC",
      "outputs": [
        {
          "internalType": "bytes32",
          "name": "",
          "type": "bytes32"
        }
      ],
      "stateMutability": "view",
      "type": "function"
    },
    {
      "inputs": [],
      "name": "acceptAdmin",
      "outputs": [],
      "stateMutability": "nonpayable",
      "type": "function"
    },
    {
      "inputs": [
        {
          "internalType": "uint256[]",
          "name": "tokenIds",
          "type": "uint256[]"
        },
        {
          "internalType": "uint256[]",
          "name": "amounts",
          "type": "uint256[]"
        }
      ],
      "name": "addPOCBounty",
      "outputs": [],
      "stateMutability": "nonpayable",
      "type": "function"
    },
    {
      "inputs": [],
      "name": "admin",
      "outputs": [
        {
          "internalType": "address",
          "name": "",
          "type": "address"
        }
      ],
      "stateMutability": "view",
      "type": "function"
    },
    {
      "inputs": [
        {
          "internalType": "uint256",
          "name": "",
          "type": "uint256"
        }
      ],
      "name": "bountyBalance",
      "outputs": [
        {
          "internalType": "uint256",
          "name": "",
          "type": "uint256"
        }
      ],
      "stateMutability": "view",
      "type": "function"
    },
    {
      "inputs": [],
      "name": "bountyTokenAddr",
      "outputs": [
        {
          "internalType": "address",
          "name": "",
          "type": "address"
        }
      ],
      "stateMutability": "view",
      "type": "function"
    },
    {
      "inputs": [
        {
          "internalType": "uint256",
          "name": "tokenId",
          "type": "uint256"
        }
      ],
      "name": "claimPocBounty",
      "outputs": [],
      "stateMutability": "nonpayable",
      "type": "function"
    },
    {
      "inputs": [
        {
          "internalType": "uint256",
          "name": "tokenId",
          "type": "uint256"
        }
      ],
      "name": "getBounty",
      "outputs": [
        {
          "internalType": "uint256",
          "name": "bounty",
          "type": "uint256"
        }
      ],
      "stateMutability": "view",
      "type": "function"
    },
    {
      "inputs": [
        {
          "internalType": "bytes32",
          "name": "role",
          "type": "bytes32"
        }
      ],
      "name": "getRoleAdmin",
      "outputs": [
        {
          "internalType": "bytes32",
          "name": "",
          "type": "bytes32"
        }
      ],
      "stateMutability": "view",
      "type": "function"
    },
    {
      "inputs": [
        {
          "internalType": "bytes32",
          "name": "role",
          "type": "bytes32"
        },
        {
          "internalType": "address",
          "name": "account",
          "type": "address"
        }
      ],
      "name": "grantRole",
      "outputs": [],
      "stateMutability": "nonpayable",
      "type": "function"
    },
    {
      "inputs": [
        {
          "internalType": "bytes32",
          "name": "role",
          "type": "bytes32"
        },
        {
          "internalType": "address",
          "name": "account",
          "type": "address"
        }
      ],
      "name": "hasRole",
      "outputs": [
        {
          "internalType": "bool",
          "name": "",
          "type": "bool"
        }
      ],
      "stateMutability": "view",
      "type": "function"
    },
    {
      "inputs": [],
      "name": "idnft",
      "outputs": [
        {
          "internalType": "address",
          "name": "",
          "type": "address"
        }
      ],
      "stateMutability": "view",
      "type": "function"
    },
    {
      "inputs": [],
      "name": "initialize",
      "outputs": [],
      "stateMutability": "nonpayable",
      "type": "function"
    },
    {
      "inputs": [],
      "name": "owner",
      "outputs": [
        {
          "internalType": "address",
          "name": "",
          "type": "address"
        }
      ],
      "stateMutability": "view",
      "type": "function"
    },
    {
      "inputs": [],
      "name": "pendingAdmin",
      "outputs": [
        {
          "internalType": "address",
          "name": "",
          "type": "address"
        }
      ],
      "stateMutability": "view",
      "type": "function"
    },
    {
      "inputs": [],
      "name": "pocFactor",
      "outputs": [
        {
          "internalType": "uint256",
          "name": "",
          "type": "uint256"
        }
      ],
      "stateMutability": "view",
      "type": "function"
    },
    {
      "inputs": [
        {
          "internalType": "uint256",
          "name": "amount",
          "type": "uint256"
        }
      ],
      "name": "removePOCBounty",
      "outputs": [],
      "stateMutability": "nonpayable",
      "type": "function"
    },
    {
      "inputs": [
        {
          "internalType": "bytes32",
          "name": "role",
          "type": "bytes32"
        },
        {
          "internalType": "address",
          "name": "account",
          "type": "address"
        }
      ],
      "name": "renounceRole",
      "outputs": [],
      "stateMutability": "nonpayable",
      "type": "function"
    },
    {
      "inputs": [
        {
          "internalType": "bytes32",
          "name": "role",
          "type": "bytes32"
        },
        {
          "internalType": "address",
          "name": "account",
          "type": "address"
        }
      ],
      "name": "revokeRole",
      "outputs": [],
      "stateMutability": "nonpayable",
      "type": "function"
    },
    {
      "inputs": [
        {
          "internalType": "address",
          "name": "_bountyTokenAddr",
          "type": "address"
        }
      ],
      "name": "setBountyTokenAddress",
      "outputs": [],
      "stateMutability": "nonpayable",
      "type": "function"
    },
    {
      "inputs": [
        {
          "internalType": "address",
          "name": "idnft_",
          "type": "address"
        }
      ],
      "name": "setIdNFT",
      "outputs": [],
      "stateMutability": "nonpayable",
      "type": "function"
    },
    {
      "inputs": [
        {
          "internalType": "uint256",
          "name": "_pocFactor",
          "type": "uint256"
        }
      ],
      "name": "setPocFactor",
      "outputs": [],
      "stateMutability": "nonpayable",
      "type": "function"
    },
    {
      "inputs": [
        {
          "internalType": "bytes4",
          "name": "interfaceId",
          "type": "bytes4"
        }
      ],
      "name": "supportsInterface",
      "outputs": [
        {
          "internalType": "bool",
          "name": "",
          "type": "bool"
        }
      ],
      "stateMutability": "view",
      "type": "function"
    },
    {
      "inputs": [
        {
          "internalType": "address",
          "name": "newAdmin",
          "type": "address"
        }
      ],
      "name": "transferAdmin",
      "outputs": [],
      "stateMutability": "nonpayable",
      "type": "function"
    }
  ],
  "bytecode": "0x608060405234801561001057600080fd5b506113d8806100206000396000f3fe608060405234801561001057600080fd5b506004361061018e5760003560e01c80638bd34fe6116100de578063c2a3207911610097578063ee8c4bbf11610071578063ee8c4bbf1461038c578063f6ac937d1461039f578063f851a440146103b2578063fd9316ef146103c557600080fd5b8063c2a3207914610346578063d547741f14610366578063e59df2491461037957600080fd5b80638bd34fe6146102cb5780638da5cb5b146102de57806391d14854146102f1578063a217fddf14610304578063b79487001461030c578063c24447e31461031f57600080fd5b806336568abe1161014b578063652463a411610125578063652463a41461028a57806375829def1461029d5780637bd8aa89146102b05780638129fc1c146102c357600080fd5b806336568abe146102475780634b3014831461025a5780635faa12f11461026357600080fd5b806301ffc9a7146101935780630e18b681146101bb5780631e1ee3cf146101c5578063248a9ca3146101d857806326782247146102095780632f2ff15d14610234575b600080fd5b6101a66101a1366004611018565b6103d8565b60405190151581526020015b60405180910390f35b6101c361040f565b005b6101c36101d3366004611042565b610484565b6101fb6101e6366004611042565b60009081526067602052604090206001015490565b6040519081526020016101b2565b60015461021c906001600160a01b031681565b6040516001600160a01b0390911681526020016101b2565b6101c3610242366004611070565b610566565b6101c3610255366004611070565b610590565b6101fb609a5481565b6101fb7f4504525b0855d643ed8c29c4d688fed6965fe228830d3a514b831e1e3fa6579581565b609c5461021c906001600160a01b031681565b6101c36102ab3660046110a0565b610613565b6101c36102be366004611042565b61068c565b6101c3610704565b6101c36102d9366004611109565b610833565b60025461021c906001600160a01b031681565b6101a66102ff366004611070565b6109d6565b6101fb600081565b6101c361031a3660046110a0565b610a01565b6101fb7fb1f0c0c2bc3e09031e0745b39ed21c8f348a26ef48836cc9351cecec3ba104bb81565b6101fb610354366004611042565b609d6020526000908152604090205481565b6101c3610374366004611070565b610a2d565b6101c3610387366004611042565b610a52565b6101fb61039a366004611042565b610ca7565b6101c36103ad3660046110a0565b610cd0565b60005461021c906001600160a01b031681565b609b5461021c906001600160a01b031681565b60006001600160e01b03198216637965db0b60e01b148061040957506301ffc9a760e01b6001600160e01b03198316145b92915050565b6001546001600160a01b0316331461042657600080fd5b60018054600080546001600160a01b0383166001600160a01b031991821681179092559091169091556040519081527f803a94fb89b71a5b6268fe4f2ebd6f3883e006a025caa59244b9db7b150cb16d9060200160405180910390a1565b6104ad7fb1f0c0c2bc3e09031e0745b39ed21c8f348a26ef48836cc9351cecec3ba104bb610cfc565b609c546040516323b872dd60e01b8152306004820152336024820152604481018390526001600160a01b03909116906323b872dd906064016020604051808303816000875af1158015610504573d6000803e3d6000fd5b505050506040513d601f19601f820116820180604052508101906105289190611175565b5060408051338152602081018390527fc30da9144344583cdcc34ce53d1311ae45e4fd70afca0a8a0cfefe94f569bc6991015b60405180910390a150565b60008281526067602052604090206001015461058181610cfc565b61058b8383610d06565b505050565b6001600160a01b03811633146106055760405162461bcd60e51b815260206004820152602f60248201527f416363657373436f6e74726f6c3a2063616e206f6e6c792072656e6f756e636560448201526e103937b632b9903337b91039b2b63360891b60648201526084015b60405180910390fd5b61060f8282610d8c565b5050565b6000546001600160a01b0316331461062a57600080fd5b600180546001600160a01b038381166001600160a01b031983168117909355604080519190921680825260208201939093527f0ad836e1614da10ff391cfc802a39f547f3cdc42900fa72de16b085855c169d591015b60405180910390a15050565b6106966000610cfc565b6127108111156106ff5760405162461bcd60e51b815260206004820152602e60248201527f706f63466163746f72206d757374206265206c657373207468616e206f72206560448201526d038bab0b6103a37901898181818160951b60648201526084016105fc565b609a55565b600254600160a81b900460ff161580801561072c57506002546001600160a01b90910460ff16105b8061074d5750303b15801561074d5750600254600160a01b900460ff166001145b6107b05760405162461bcd60e51b815260206004820152602e60248201527f496e697469616c697a61626c653a20636f6e747261637420697320616c72656160448201526d191e481a5b9a5d1a585b1a5e995960921b60648201526084016105fc565b6002805460ff60a01b1916600160a01b17905580156107dd576002805460ff60a81b1916600160a81b1790555b6107e5610df3565b626ebe006099558015610830576002805460ff60a81b19169055604051600181527f7f26b83ff96e1f2b6a682f133852f6798a09c465da95921460cefb38474024989060200161055b565b50565b61085c7fb1f0c0c2bc3e09031e0745b39ed21c8f348a26ef48836cc9351cecec3ba104bb610cfc565b6000805b848110156108f95783838281811061087a5761087a611197565b90506020020135609d600088888581811061089757610897611197565b90506020020135815260200190815260200160002060008282546108bb91906111c3565b9091555084905083828181106108d3576108d3611197565b90506020020135826108e591906111c3565b9150806108f1816111d6565b915050610860565b50612710609a548261090b91906111ef565b6109159190611206565b609c546040516323b872dd60e01b8152336004820152306024820152604481018390529192506001600160a01b0316906323b872dd906064016020604051808303816000875af115801561096d573d6000803e3d6000fd5b505050506040513d601f19601f820116820180604052508101906109919190611175565b507faf26abc17c463c1016e116ee4d25e966fc609f8b3fb687f878dd8333d6f276da858585856040516109c7949392919061125a565b60405180910390a15050505050565b60009182526067602090815260408084206001600160a01b0393909316845291905290205460ff1690565b610a0b6000610cfc565b609c80546001600160a01b0319166001600160a01b0392909216919091179055565b600082815260676020526040902060010154610a4881610cfc565b61058b8383610d8c565b609b546040516331a9108f60e11b81526004810183905233916001600160a01b031690636352211e90602401602060405180830381865afa158015610a9b573d6000803e3d6000fd5b505050506040513d601f19601f82011682018060405250810190610abf919061128c565b6001600160a01b031614610b3b5760405162461bcd60e51b815260206004820152603a60248201527f636c61696d426f756e74793a2043616e6e6f7420636c61696d20504f4320666f60448201527f7220616e205342542074686174206973206e6f7420796f75727300000000000060648201526084016105fc565b6000818152609d6020526040812054609a5461271091610b5a916111ef565b610b649190611206565b6000838152609d602052604080822091909155609c54905163095ea7b360e01b8152306004820152602481018390529192506001600160a01b03169063095ea7b3906044016020604051808303816000875af1158015610bc8573d6000803e3d6000fd5b505050506040513d601f19601f82011682018060405250810190610bec9190611175565b50609c546040516323b872dd60e01b8152306004820152336024820152604481018390526001600160a01b03909116906323b872dd906064016020604051808303816000875af1158015610c44573d6000803e3d6000fd5b505050506040513d601f19601f82011682018060405250810190610c689190611175565b5060408051338152602081018490529081018290527f2afed2d4245867dcdfa5668cf0c7390bfccb487b058282025e3ab5129f630d8090606001610680565b6000818152609d6020526040812054609a5461271091610cc6916111ef565b6104099190611206565b610cda6000610cfc565b609b80546001600160a01b0319166001600160a01b0392909216919091179055565b6108308133610e00565b610d1082826109d6565b61060f5760008281526067602090815260408083206001600160a01b03851684529091529020805460ff19166001179055610d483390565b6001600160a01b0316816001600160a01b0316837f2f8788117e7eff1d82e926ec794901d17c78024a50270940304540a733656f0d60405160405180910390a45050565b610d9682826109d6565b1561060f5760008281526067602090815260408083206001600160a01b0385168085529252808320805460ff1916905551339285917ff6391f5c32d9c69d2a47ea670b442974b53935d1edc7fd64eb21e047a839171b9190a45050565b610dfe600033610e59565b565b610e0a82826109d6565b61060f57610e1781610e63565b610e22836020610e75565b604051602001610e339291906112cd565b60408051601f198184030181529082905262461bcd60e51b82526105fc91600401611342565b61060f8282610d06565b60606104096001600160a01b03831660145b60606000610e848360026111ef565b610e8f9060026111c3565b67ffffffffffffffff811115610ea757610ea7611375565b6040519080825280601f01601f191660200182016040528015610ed1576020820181803683370190505b509050600360fc1b81600081518110610eec57610eec611197565b60200101906001600160f81b031916908160001a905350600f60fb1b81600181518110610f1b57610f1b611197565b60200101906001600160f81b031916908160001a9053506000610f3f8460026111ef565b610f4a9060016111c3565b90505b6001811115610fc2576f181899199a1a9b1b9c1cb0b131b232b360811b85600f1660108110610f7e57610f7e611197565b1a60f81b828281518110610f9457610f94611197565b60200101906001600160f81b031916908160001a90535060049490941c93610fbb8161138b565b9050610f4d565b5083156110115760405162461bcd60e51b815260206004820181905260248201527f537472696e67733a20686578206c656e67746820696e73756666696369656e7460448201526064016105fc565b9392505050565b60006020828403121561102a57600080fd5b81356001600160e01b03198116811461101157600080fd5b60006020828403121561105457600080fd5b5035919050565b6001600160a01b038116811461083057600080fd5b6000806040838503121561108357600080fd5b8235915060208301356110958161105b565b809150509250929050565b6000602082840312156110b257600080fd5b81356110118161105b565b60008083601f8401126110cf57600080fd5b50813567ffffffffffffffff8111156110e757600080fd5b6020830191508360208260051b850101111561110257600080fd5b9250929050565b6000806000806040858703121561111f57600080fd5b843567ffffffffffffffff8082111561113757600080fd5b611143888389016110bd565b9096509450602087013591508082111561115c57600080fd5b50611169878288016110bd565b95989497509550505050565b60006020828403121561118757600080fd5b8151801515811461101157600080fd5b634e487b7160e01b600052603260045260246000fd5b634e487b7160e01b600052601160045260246000fd5b80820180821115610409576104096111ad565b6000600182016111e8576111e86111ad565b5060010190565b8082028115828204841417610409576104096111ad565b60008261122357634e487b7160e01b600052601260045260246000fd5b500490565b81835260006001600160fb1b0383111561124157600080fd5b8260051b80836020870137939093016020019392505050565b60408152600061126e604083018688611228565b8281036020840152611281818587611228565b979650505050505050565b60006020828403121561129e57600080fd5b81516110118161105b565b60005b838110156112c45781810151838201526020016112ac565b50506000910152565b7f416363657373436f6e74726f6c3a206163636f756e74200000000000000000008152600083516113058160178501602088016112a9565b7001034b99036b4b9b9b4b733903937b6329607d1b60179184019182015283516113368160288401602088016112a9565b01602801949350505050565b60208152600082518060208401526113618160408501602087016112a9565b601f01601f19169190910160400192915050565b634e487b7160e01b600052604160045260246000fd5b60008161139a5761139a6111ad565b50600019019056fea2646970667358221220777724a407cb428d8036c562e8f6c7770b43446ec6ed3e0f7c31ca368a1329c964736f6c63430008110033",
  "linkReferences": {},
  "deployedLinkReferences": {}
}