{
  "_format": "hh-sol-artifact-1",
  "contractName": "claimBounty",
  "sourceName": "contracts/claimBounty/claimBounty.sol",
  "abi": [
    {
      "anonymous": false,
      "inputs": [
        {
          "indexed": false,
          "internalType": "uint256[]",
          "name": "tokenIds",
          "type": "uint256[]"
        },
        {
          "indexed": false,
          "internalType": "uint256[]",
          "name": "amounts",
          "type": "uint256[]"
        }
      ],
      "name": "AddBounty",
      "type": "event"
    },
    {
      "anonymous": false,
      "inputs": [
        {
          "indexed": false,
          "internalType": "address",
          "name": "claimer",
          "type": "address"
        },
        {
          "indexed": false,
          "internalType": "uint256",
          "name": "tokenId",
          "type": "uint256"
        },
        {
          "indexed": false,
          "internalType": "uint256",
          "name": "amount",
          "type": "uint256"
        }
      ],
      "name": "ClaimBounty",
      "type": "event"
    },
    {
      "anonymous": false,
      "inputs": [
        {
          "indexed": false,
          "internalType": "uint8",
          "name": "version",
          "type": "uint8"
        }
      ],
      "name": "Initialized",
      "type": "event"
    },
    {
      "anonymous": false,
      "inputs": [
        {
          "indexed": false,
          "internalType": "address",
          "name": "admin",
          "type": "address"
        }
      ],
      "name": "LogAcceptAdmin",
      "type": "event"
    },
    {
      "anonymous": false,
      "inputs": [
        {
          "indexed": false,
          "internalType": "address",
          "name": "admin",
          "type": "address"
        }
      ],
      "name": "LogSetAdmin",
      "type": "event"
    },
    {
      "anonymous": false,
      "inputs": [
        {
          "indexed": false,
          "internalType": "address",
          "name": "oldadmin",
          "type": "address"
        },
        {
          "indexed": false,
          "internalType": "address",
          "name": "newadmin",
          "type": "address"
        }
      ],
      "name": "LogTransferAdmin",
      "type": "event"
    },
    {
      "anonymous": false,
      "inputs": [
        {
          "indexed": false,
          "internalType": "address",
          "name": "bountyAdmin",
          "type": "address"
        },
        {
          "indexed": false,
          "internalType": "uint256",
          "name": "amount",
          "type": "uint256"
        }
      ],
      "name": "RemoveBounty",
      "type": "event"
    },
    {
      "anonymous": false,
      "inputs": [
        {
          "indexed": true,
          "internalType": "bytes32",
          "name": "role",
          "type": "bytes32"
        },
        {
          "indexed": true,
          "internalType": "bytes32",
          "name": "previousAdminRole",
          "type": "bytes32"
        },
        {
          "indexed": true,
          "internalType": "bytes32",
          "name": "newAdminRole",
          "type": "bytes32"
        }
      ],
      "name": "RoleAdminChanged",
      "type": "event"
    },
    {
      "anonymous": false,
      "inputs": [
        {
          "indexed": true,
          "internalType": "bytes32",
          "name": "role",
          "type": "bytes32"
        },
        {
          "indexed": true,
          "internalType": "address",
          "name": "account",
          "type": "address"
        },
        {
          "indexed": true,
          "internalType": "address",
          "name": "sender",
          "type": "address"
        }
      ],
      "name": "RoleGranted",
      "type": "event"
    },
    {
      "anonymous": false,
      "inputs": [
        {
          "indexed": true,
          "internalType": "bytes32",
          "name": "role",
          "type": "bytes32"
        },
        {
          "indexed": true,
          "internalType": "address",
          "name": "account",
          "type": "address"
        },
        {
          "indexed": true,
          "internalType": "address",
          "name": "sender",
          "type": "address"
        }
      ],
      "name": "RoleRevoked",
      "type": "event"
    },
    {
      "inputs": [],
      "name": "DEFAULT_ADMIN_ROLE",
      "outputs": [
        {
          "internalType": "bytes32",
          "name": "",
          "type": "bytes32"
        }
      ],
      "stateMutability": "view",
      "type": "function"
    },
    {
      "inputs": [],
      "name": "ROLE_BOUNTY",
      "outputs": [
        {
          "internalType": "bytes32",
          "name": "",
          "type": "bytes32"
        }
      ],
      "stateMutability": "view",
      "type": "function"
    },
    {
      "inputs": [],
      "name": "acceptAdmin",
      "outputs": [],
      "stateMutability": "nonpayable",
      "type": "function"
    },
    {
      "inputs": [
        {
          "internalType": "uint256[]",
          "name": "tokenIds",
          "type": "uint256[]"
        },
        {
          "internalType": "uint256[]",
          "name": "amounts",
          "type": "uint256[]"
        }
      ],
      "name": "addPOCBounty",
      "outputs": [],
      "stateMutability": "nonpayable",
      "type": "function"
    },
    {
      "inputs": [],
      "name": "admin",
      "outputs": [
        {
          "internalType": "address",
          "name": "",
          "type": "address"
        }
      ],
      "stateMutability": "view",
      "type": "function"
    },
    {
      "inputs": [
        {
          "internalType": "uint256",
          "name": "",
          "type": "uint256"
        }
      ],
      "name": "bountyBalance",
      "outputs": [
        {
          "internalType": "uint256",
          "name": "",
          "type": "uint256"
        }
      ],
      "stateMutability": "view",
      "type": "function"
    },
    {
      "inputs": [],
      "name": "bountyTokenAddr",
      "outputs": [
        {
          "internalType": "address",
          "name": "",
          "type": "address"
        }
      ],
      "stateMutability": "view",
      "type": "function"
    },
    {
      "inputs": [
        {
          "internalType": "uint256",
          "name": "tokenId",
          "type": "uint256"
        }
      ],
      "name": "claimPocBounty",
      "outputs": [],
      "stateMutability": "nonpayable",
      "type": "function"
    },
    {
      "inputs": [
        {
          "internalType": "uint256",
          "name": "tokenId",
          "type": "uint256"
        }
      ],
      "name": "getBounty",
      "outputs": [
        {
          "internalType": "uint256",
          "name": "bounty",
          "type": "uint256"
        }
      ],
      "stateMutability": "view",
      "type": "function"
    },
    {
      "inputs": [
        {
          "internalType": "bytes32",
          "name": "role",
          "type": "bytes32"
        }
      ],
      "name": "getRoleAdmin",
      "outputs": [
        {
          "internalType": "bytes32",
          "name": "",
          "type": "bytes32"
        }
      ],
      "stateMutability": "view",
      "type": "function"
    },
    {
      "inputs": [
        {
          "internalType": "bytes32",
          "name": "role",
          "type": "bytes32"
        },
        {
          "internalType": "address",
          "name": "account",
          "type": "address"
        }
      ],
      "name": "grantRole",
      "outputs": [],
      "stateMutability": "nonpayable",
      "type": "function"
    },
    {
      "inputs": [
        {
          "internalType": "bytes32",
          "name": "role",
          "type": "bytes32"
        },
        {
          "internalType": "address",
          "name": "account",
          "type": "address"
        }
      ],
      "name": "hasRole",
      "outputs": [
        {
          "internalType": "bool",
          "name": "",
          "type": "bool"
        }
      ],
      "stateMutability": "view",
      "type": "function"
    },
    {
      "inputs": [],
      "name": "idnft",
      "outputs": [
        {
          "internalType": "address",
          "name": "",
          "type": "address"
        }
      ],
      "stateMutability": "view",
      "type": "function"
    },
    {
      "inputs": [],
      "name": "initialize",
      "outputs": [],
      "stateMutability": "nonpayable",
      "type": "function"
    },
    {
      "inputs": [],
      "name": "owner",
      "outputs": [
        {
          "internalType": "address",
          "name": "",
          "type": "address"
        }
      ],
      "stateMutability": "view",
      "type": "function"
    },
    {
      "inputs": [],
      "name": "pendingAdmin",
      "outputs": [
        {
          "internalType": "address",
          "name": "",
          "type": "address"
        }
      ],
      "stateMutability": "view",
      "type": "function"
    },
    {
      "inputs": [],
      "name": "pocFactor",
      "outputs": [
        {
          "internalType": "uint256",
          "name": "",
          "type": "uint256"
        }
      ],
      "stateMutability": "view",
      "type": "function"
    },
    {
      "inputs": [
        {
          "internalType": "uint256",
          "name": "amount",
          "type": "uint256"
        }
      ],
      "name": "removePOCBounty",
      "outputs": [],
      "stateMutability": "nonpayable",
      "type": "function"
    },
    {
      "inputs": [
        {
          "internalType": "bytes32",
          "name": "role",
          "type": "bytes32"
        },
        {
          "internalType": "address",
          "name": "account",
          "type": "address"
        }
      ],
      "name": "renounceRole",
      "outputs": [],
      "stateMutability": "nonpayable",
      "type": "function"
    },
    {
      "inputs": [
        {
          "internalType": "bytes32",
          "name": "role",
          "type": "bytes32"
        },
        {
          "internalType": "address",
          "name": "account",
          "type": "address"
        }
      ],
      "name": "revokeRole",
      "outputs": [],
      "stateMutability": "nonpayable",
      "type": "function"
    },
    {
      "inputs": [
        {
          "internalType": "address",
          "name": "_bountyTokenAddr",
          "type": "address"
        }
      ],
      "name": "setBountyTokenAddress",
      "outputs": [],
      "stateMutability": "nonpayable",
      "type": "function"
    },
    {
      "inputs": [
        {
          "internalType": "address",
          "name": "idnft_",
          "type": "address"
        }
      ],
      "name": "setIdNFT",
      "outputs": [],
      "stateMutability": "nonpayable",
      "type": "function"
    },
    {
      "inputs": [
        {
          "internalType": "uint256",
          "name": "_pocFactor",
          "type": "uint256"
        }
      ],
      "name": "setPocFactor",
      "outputs": [],
      "stateMutability": "nonpayable",
      "type": "function"
    },
    {
      "inputs": [
        {
          "internalType": "bytes4",
          "name": "interfaceId",
          "type": "bytes4"
        }
      ],
      "name": "supportsInterface",
      "outputs": [
        {
          "internalType": "bool",
          "name": "",
          "type": "bool"
        }
      ],
      "stateMutability": "view",
      "type": "function"
    },
    {
      "inputs": [
        {
          "internalType": "address",
          "name": "newAdmin",
          "type": "address"
        }
      ],
      "name": "transferAdmin",
      "outputs": [],
      "stateMutability": "nonpayable",
      "type": "function"
    }
  ],
  "bytecode": "0x608060405234801561001057600080fd5b50611405806100206000396000f3fe608060405234801561001057600080fd5b50600436106101735760003560e01c80638bd34fe6116100de578063c2a3207911610097578063ee8c4bbf11610071578063ee8c4bbf1461034a578063f6ac937d1461035d578063f851a44014610370578063fd9316ef1461038357600080fd5b8063c2a3207914610304578063d547741f14610324578063e59df2491461033757600080fd5b80638bd34fe6146102895780638da5cb5b1461029c57806391d14854146102af578063a217fddf146102c2578063b7948700146102ca578063c24447e3146102dd57600080fd5b806336568abe1161013057806336568abe1461022c5780634b3014831461023f578063652463a41461024857806375829def1461025b5780637bd8aa891461026e5780638129fc1c1461028157600080fd5b806301ffc9a7146101785780630e18b681146101a05780631e1ee3cf146101aa578063248a9ca3146101bd57806326782247146101ee5780632f2ff15d14610219575b600080fd5b61018b610186366004611045565b610396565b60405190151581526020015b60405180910390f35b6101a86103cd565b005b6101a86101b836600461106f565b610442565b6101e06101cb36600461106f565b60009081526067602052604090206001015490565b604051908152602001610197565b600154610201906001600160a01b031681565b6040516001600160a01b039091168152602001610197565b6101a861022736600461109d565b61059a565b6101a861023a36600461109d565b6105c4565b6101e060995481565b609b54610201906001600160a01b031681565b6101a86102693660046110cd565b610647565b6101a861027c36600461106f565b6106c0565b6101a8610738565b6101a8610297366004611136565b610860565b600254610201906001600160a01b031681565b61018b6102bd36600461109d565b610a03565b6101e0600081565b6101a86102d83660046110cd565b610a2e565b6101e07fb1f0c0c2bc3e09031e0745b39ed21c8f348a26ef48836cc9351cecec3ba104bb81565b6101e061031236600461106f565b609c6020526000908152604090205481565b6101a861033236600461109d565b610a5a565b6101a861034536600461106f565b610a7f565b6101e061035836600461106f565b610cd4565b6101a861036b3660046110cd565b610cfd565b600054610201906001600160a01b031681565b609a54610201906001600160a01b031681565b60006001600160e01b03198216637965db0b60e01b14806103c757506301ffc9a760e01b6001600160e01b03198316145b92915050565b6001546001600160a01b031633146103e457600080fd5b60018054600080546001600160a01b0383166001600160a01b031991821681179092559091169091556040519081527f803a94fb89b71a5b6268fe4f2ebd6f3883e006a025caa59244b9db7b150cb16d9060200160405180910390a1565b61046b7fb1f0c0c2bc3e09031e0745b39ed21c8f348a26ef48836cc9351cecec3ba104bb610d29565b609b5460405163095ea7b360e01b8152306004820152602481018390526001600160a01b039091169063095ea7b3906044016020604051808303816000875af11580156104bc573d6000803e3d6000fd5b505050506040513d601f19601f820116820180604052508101906104e091906111a2565b50609b546040516323b872dd60e01b8152306004820152336024820152604481018390526001600160a01b03909116906323b872dd906064016020604051808303816000875af1158015610538573d6000803e3d6000fd5b505050506040513d601f19601f8201168201806040525081019061055c91906111a2565b5060408051338152602081018390527fc30da9144344583cdcc34ce53d1311ae45e4fd70afca0a8a0cfefe94f569bc6991015b60405180910390a150565b6000828152606760205260409020600101546105b581610d29565b6105bf8383610d33565b505050565b6001600160a01b03811633146106395760405162461bcd60e51b815260206004820152602f60248201527f416363657373436f6e74726f6c3a2063616e206f6e6c792072656e6f756e636560448201526e103937b632b9903337b91039b2b63360891b60648201526084015b60405180910390fd5b6106438282610db9565b5050565b6000546001600160a01b0316331461065e57600080fd5b600180546001600160a01b038381166001600160a01b031983168117909355604080519190921680825260208201939093527f0ad836e1614da10ff391cfc802a39f547f3cdc42900fa72de16b085855c169d591015b60405180910390a15050565b6106ca6000610d29565b6127108111156107335760405162461bcd60e51b815260206004820152602e60248201527f706f63466163746f72206d757374206265206c657373207468616e206f72206560448201526d038bab0b6103a37901898181818160951b6064820152608401610630565b609955565b600254600160a81b900460ff161580801561076057506002546001600160a01b90910460ff16105b806107815750303b1580156107815750600254600160a01b900460ff166001145b6107e45760405162461bcd60e51b815260206004820152602e60248201527f496e697469616c697a61626c653a20636f6e747261637420697320616c72656160448201526d191e481a5b9a5d1a585b1a5e995960921b6064820152608401610630565b6002805460ff60a01b1916600160a01b1790558015610811576002805460ff60a81b1916600160a81b1790555b610819610e20565b801561085d576002805460ff60a81b19169055604051600181527f7f26b83ff96e1f2b6a682f133852f6798a09c465da95921460cefb38474024989060200161058f565b50565b6108897fb1f0c0c2bc3e09031e0745b39ed21c8f348a26ef48836cc9351cecec3ba104bb610d29565b6000805b84811015610926578383828181106108a7576108a76111c4565b90506020020135609c60008888858181106108c4576108c46111c4565b90506020020135815260200190815260200160002060008282546108e891906111f0565b909155508490508382818110610900576109006111c4565b905060200201358261091291906111f0565b91508061091e81611203565b91505061088d565b5061271060995482610938919061121c565b6109429190611233565b609b546040516323b872dd60e01b8152336004820152306024820152604481018390529192506001600160a01b0316906323b872dd906064016020604051808303816000875af115801561099a573d6000803e3d6000fd5b505050506040513d601f19601f820116820180604052508101906109be91906111a2565b507faf26abc17c463c1016e116ee4d25e966fc609f8b3fb687f878dd8333d6f276da858585856040516109f49493929190611287565b60405180910390a15050505050565b60009182526067602090815260408084206001600160a01b0393909316845291905290205460ff1690565b610a386000610d29565b609b80546001600160a01b0319166001600160a01b0392909216919091179055565b600082815260676020526040902060010154610a7581610d29565b6105bf8383610db9565b609a546040516331a9108f60e11b81526004810183905233916001600160a01b031690636352211e90602401602060405180830381865afa158015610ac8573d6000803e3d6000fd5b505050506040513d601f19601f82011682018060405250810190610aec91906112b9565b6001600160a01b031614610b685760405162461bcd60e51b815260206004820152603a60248201527f636c61696d426f756e74793a2043616e6e6f7420636c61696d20504f4320666f60448201527f7220616e205342542074686174206973206e6f7420796f7572730000000000006064820152608401610630565b6000818152609c602052604081205460995461271091610b879161121c565b610b919190611233565b6000838152609c602052604080822091909155609b54905163095ea7b360e01b8152306004820152602481018390529192506001600160a01b03169063095ea7b3906044016020604051808303816000875af1158015610bf5573d6000803e3d6000fd5b505050506040513d601f19601f82011682018060405250810190610c1991906111a2565b50609b546040516323b872dd60e01b8152306004820152336024820152604481018390526001600160a01b03909116906323b872dd906064016020604051808303816000875af1158015610c71573d6000803e3d6000fd5b505050506040513d601f19601f82011682018060405250810190610c9591906111a2565b5060408051338152602081018490529081018290527f2afed2d4245867dcdfa5668cf0c7390bfccb487b058282025e3ab5129f630d80906060016106b4565b6000818152609c602052604081205460995461271091610cf39161121c565b6103c79190611233565b610d076000610d29565b609a80546001600160a01b0319166001600160a01b0392909216919091179055565b61085d8133610e2d565b610d3d8282610a03565b6106435760008281526067602090815260408083206001600160a01b03851684529091529020805460ff19166001179055610d753390565b6001600160a01b0316816001600160a01b0316837f2f8788117e7eff1d82e926ec794901d17c78024a50270940304540a733656f0d60405160405180910390a45050565b610dc38282610a03565b156106435760008281526067602090815260408083206001600160a01b0385168085529252808320805460ff1916905551339285917ff6391f5c32d9c69d2a47ea670b442974b53935d1edc7fd64eb21e047a839171b9190a45050565b610e2b600033610e86565b565b610e378282610a03565b61064357610e4481610e90565b610e4f836020610ea2565b604051602001610e609291906112fa565b60408051601f198184030181529082905262461bcd60e51b82526106309160040161136f565b6106438282610d33565b60606103c76001600160a01b03831660145b60606000610eb183600261121c565b610ebc9060026111f0565b67ffffffffffffffff811115610ed457610ed46113a2565b6040519080825280601f01601f191660200182016040528015610efe576020820181803683370190505b509050600360fc1b81600081518110610f1957610f196111c4565b60200101906001600160f81b031916908160001a905350600f60fb1b81600181518110610f4857610f486111c4565b60200101906001600160f81b031916908160001a9053506000610f6c84600261121c565b610f779060016111f0565b90505b6001811115610fef576f181899199a1a9b1b9c1cb0b131b232b360811b85600f1660108110610fab57610fab6111c4565b1a60f81b828281518110610fc157610fc16111c4565b60200101906001600160f81b031916908160001a90535060049490941c93610fe8816113b8565b9050610f7a565b50831561103e5760405162461bcd60e51b815260206004820181905260248201527f537472696e67733a20686578206c656e67746820696e73756666696369656e746044820152606401610630565b9392505050565b60006020828403121561105757600080fd5b81356001600160e01b03198116811461103e57600080fd5b60006020828403121561108157600080fd5b5035919050565b6001600160a01b038116811461085d57600080fd5b600080604083850312156110b057600080fd5b8235915060208301356110c281611088565b809150509250929050565b6000602082840312156110df57600080fd5b813561103e81611088565b60008083601f8401126110fc57600080fd5b50813567ffffffffffffffff81111561111457600080fd5b6020830191508360208260051b850101111561112f57600080fd5b9250929050565b6000806000806040858703121561114c57600080fd5b843567ffffffffffffffff8082111561116457600080fd5b611170888389016110ea565b9096509450602087013591508082111561118957600080fd5b50611196878288016110ea565b95989497509550505050565b6000602082840312156111b457600080fd5b8151801515811461103e57600080fd5b634e487b7160e01b600052603260045260246000fd5b634e487b7160e01b600052601160045260246000fd5b808201808211156103c7576103c76111da565b600060018201611215576112156111da565b5060010190565b80820281158282048414176103c7576103c76111da565b60008261125057634e487b7160e01b600052601260045260246000fd5b500490565b81835260006001600160fb1b0383111561126e57600080fd5b8260051b80836020870137939093016020019392505050565b60408152600061129b604083018688611255565b82810360208401526112ae818587611255565b979650505050505050565b6000602082840312156112cb57600080fd5b815161103e81611088565b60005b838110156112f15781810151838201526020016112d9565b50506000910152565b7f416363657373436f6e74726f6c3a206163636f756e74200000000000000000008152600083516113328160178501602088016112d6565b7001034b99036b4b9b9b4b733903937b6329607d1b60179184019182015283516113638160288401602088016112d6565b01602801949350505050565b602081526000825180602084015261138e8160408501602087016112d6565b601f01601f19169190910160400192915050565b634e487b7160e01b600052604160045260246000fd5b6000816113c7576113c76111da565b50600019019056fea2646970667358221220812a96b1dc56e985dff1a795b8560a7ddd2c70c2c21c852b7489e9ee0340bd2b64736f6c63430008110033",
  "linkReferences": {},
  "deployedLinkReferences": {}
}